{
	"twitterCopy.sol": {
		"Twitter": {
			"abi": [
				{
					"anonymous": false,
					"inputs": [
						{
							"indexed": true,
							"internalType": "string",
							"name": "notify",
							"type": "string"
						},
						{
							"indexed": true,
							"internalType": "address",
							"name": "tweetHost",
							"type": "address"
						}
					],
					"name": "newTweet",
					"type": "event"
				},
				{
					"inputs": [
						{
							"internalType": "string",
							"name": "_tweet",
							"type": "string"
						}
					],
					"name": "createTweet",
					"outputs": [],
					"stateMutability": "nonpayable",
					"type": "function"
				},
				{
					"inputs": [
						{
							"internalType": "address",
							"name": "_owner",
							"type": "address"
						}
					],
					"name": "getAllTwetts",
					"outputs": [
						{
							"components": [
								{
									"internalType": "address",
									"name": "author",
									"type": "address"
								},
								{
									"internalType": "string",
									"name": "content",
									"type": "string"
								},
								{
									"internalType": "uint256",
									"name": "TimeStamp",
									"type": "uint256"
								},
								{
									"internalType": "uint256",
									"name": "likes",
									"type": "uint256"
								}
							],
							"internalType": "struct Twitter.Tweet[]",
							"name": "",
							"type": "tuple[]"
						}
					],
					"stateMutability": "view",
					"type": "function"
				},
				{
					"inputs": [
						{
							"internalType": "address",
							"name": "user",
							"type": "address"
						},
						{
							"internalType": "uint256",
							"name": "_i",
							"type": "uint256"
						}
					],
					"name": "getTweet",
					"outputs": [
						{
							"components": [
								{
									"internalType": "address",
									"name": "author",
									"type": "address"
								},
								{
									"internalType": "string",
									"name": "content",
									"type": "string"
								},
								{
									"internalType": "uint256",
									"name": "TimeStamp",
									"type": "uint256"
								},
								{
									"internalType": "uint256",
									"name": "likes",
									"type": "uint256"
								}
							],
							"internalType": "struct Twitter.Tweet",
							"name": "",
							"type": "tuple"
						}
					],
					"stateMutability": "view",
					"type": "function"
				}
			],
			"devdoc": {
				"kind": "dev",
				"methods": {},
				"version": 1
			},
			"evm": {
				"assembly": "    /* \"twitterCopy.sol\":64:983  contract Twitter{\r... */\n  mstore(0x40, 0x80)\n  callvalue\n  dup1\n  iszero\n  tag_1\n  jumpi\n  0x00\n  dup1\n  revert\ntag_1:\n  pop\n  dataSize(sub_0)\n  dup1\n  dataOffset(sub_0)\n  0x00\n  codecopy\n  0x00\n  return\nstop\n\nsub_0: assembly {\n        /* \"twitterCopy.sol\":64:983  contract Twitter{\r... */\n      mstore(0x40, 0x80)\n      callvalue\n      dup1\n      iszero\n      tag_1\n      jumpi\n      0x00\n      dup1\n      revert\n    tag_1:\n      pop\n      jumpi(tag_2, lt(calldatasize, 0x04))\n      shr(0xe0, calldataload(0x00))\n      dup1\n      0x112f54e3\n      eq\n      tag_3\n      jumpi\n      dup1\n      0x6a6cdab8\n      eq\n      tag_4\n      jumpi\n      dup1\n      0x7c9cd2bc\n      eq\n      tag_5\n      jumpi\n    tag_2:\n      0x00\n      dup1\n      revert\n        /* \"twitterCopy.sol\":730:850  function getTweet(address user, uint _i)external view returns (Tweet memory){\r... */\n    tag_3:\n      tag_6\n      0x04\n      dup1\n      calldatasize\n      sub\n      dup2\n      add\n      swap1\n      tag_7\n      swap2\n      swap1\n      tag_8\n      jump\t// in\n    tag_7:\n      tag_9\n      jump\t// in\n    tag_6:\n      mload(0x40)\n      tag_10\n      swap2\n      swap1\n      tag_11\n      jump\t// in\n    tag_10:\n      mload(0x40)\n      dup1\n      swap2\n      sub\n      swap1\n      return\n        /* \"twitterCopy.sol\":858:978  function getAllTwetts(address _owner) external view returns (Tweet[] memory){\r... */\n    tag_4:\n      tag_12\n      0x04\n      dup1\n      calldatasize\n      sub\n      dup2\n      add\n      swap1\n      tag_13\n      swap2\n      swap1\n      tag_14\n      jump\t// in\n    tag_13:\n      tag_15\n      jump\t// in\n    tag_12:\n      mload(0x40)\n      tag_16\n      swap2\n      swap1\n      tag_17\n      jump\t// in\n    tag_16:\n      mload(0x40)\n      dup1\n      swap2\n      sub\n      swap1\n      return\n        /* \"twitterCopy.sol\":356:722  function createTweet(string memory _tweet) external {\r... */\n    tag_5:\n      tag_18\n      0x04\n      dup1\n      calldatasize\n      sub\n      dup2\n      add\n      swap1\n      tag_19\n      swap2\n      swap1\n      tag_20\n      jump\t// in\n    tag_19:\n      tag_21\n      jump\t// in\n    tag_18:\n      stop\n        /* \"twitterCopy.sol\":730:850  function getTweet(address user, uint _i)external view returns (Tweet memory){\r... */\n    tag_9:\n        /* \"twitterCopy.sol\":793:805  Tweet memory */\n      tag_22\n      tag_23\n      jump\t// in\n    tag_22:\n        /* \"twitterCopy.sol\":822:832  UserTwetts */\n      0x00\n        /* \"twitterCopy.sol\":822:838  UserTwetts[user] */\n      dup1\n        /* \"twitterCopy.sol\":833:837  user */\n      dup5\n        /* \"twitterCopy.sol\":822:838  UserTwetts[user] */\n      0xffffffffffffffffffffffffffffffffffffffff\n      and\n      0xffffffffffffffffffffffffffffffffffffffff\n      and\n      dup2\n      mstore\n      0x20\n      add\n      swap1\n      dup2\n      mstore\n      0x20\n      add\n      0x00\n      keccak256\n        /* \"twitterCopy.sol\":839:841  _i */\n      dup3\n        /* \"twitterCopy.sol\":822:842  UserTwetts[user][_i] */\n      dup2\n      sload\n      dup2\n      lt\n      tag_25\n      jumpi\n      mstore(0x00, 0x4e487b7100000000000000000000000000000000000000000000000000000000)\n      mstore(0x04, 0x32)\n      revert(0x00, 0x24)\n    tag_25:\n      swap1\n      0x00\n      mstore\n      keccak256(0x00, 0x20)\n      swap1\n      0x04\n      mul\n      add\n        /* \"twitterCopy.sol\":815:842  return UserTwetts[user][_i] */\n      mload(0x40)\n      dup1\n      0x80\n      add\n      0x40\n      mstore\n      swap1\n      dup2\n      0x00\n      dup3\n      add\n      0x00\n      swap1\n      sload\n      swap1\n      0x0100\n      exp\n      swap1\n      div\n      0xffffffffffffffffffffffffffffffffffffffff\n      and\n      0xffffffffffffffffffffffffffffffffffffffff\n      and\n      0xffffffffffffffffffffffffffffffffffffffff\n      and\n      dup2\n      mstore\n      0x20\n      add\n      0x01\n      dup3\n      add\n      dup1\n      sload\n      tag_27\n      swap1\n      tag_28\n      jump\t// in\n    tag_27:\n      dup1\n      0x1f\n      add\n      0x20\n      dup1\n      swap2\n      div\n      mul\n      0x20\n      add\n      mload(0x40)\n      swap1\n      dup2\n      add\n      0x40\n      mstore\n      dup1\n      swap3\n      swap2\n      swap1\n      dup2\n      dup2\n      mstore\n      0x20\n      add\n      dup3\n      dup1\n      sload\n      tag_29\n      swap1\n      tag_28\n      jump\t// in\n    tag_29:\n      dup1\n      iszero\n      tag_30\n      jumpi\n      dup1\n      0x1f\n      lt\n      tag_31\n      jumpi\n      0x0100\n      dup1\n      dup4\n      sload\n      div\n      mul\n      dup4\n      mstore\n      swap2\n      0x20\n      add\n      swap2\n      jump(tag_30)\n    tag_31:\n      dup3\n      add\n      swap2\n      swap1\n      0x00\n      mstore\n      keccak256(0x00, 0x20)\n      swap1\n    tag_32:\n      dup2\n      sload\n      dup2\n      mstore\n      swap1\n      0x01\n      add\n      swap1\n      0x20\n      add\n      dup1\n      dup4\n      gt\n      tag_32\n      jumpi\n      dup3\n      swap1\n      sub\n      0x1f\n      and\n      dup3\n      add\n      swap2\n    tag_30:\n      pop\n      pop\n      pop\n      pop\n      pop\n      dup2\n      mstore\n      0x20\n      add\n      0x02\n      dup3\n      add\n      sload\n      dup2\n      mstore\n      0x20\n      add\n      0x03\n      dup3\n      add\n      sload\n      dup2\n      mstore\n      pop\n      pop\n      swap1\n      pop\n        /* \"twitterCopy.sol\":730:850  function getTweet(address user, uint _i)external view returns (Tweet memory){\r... */\n      swap3\n      swap2\n      pop\n      pop\n      jump\t// out\n        /* \"twitterCopy.sol\":858:978  function getAllTwetts(address _owner) external view returns (Tweet[] memory){\r... */\n    tag_15:\n        /* \"twitterCopy.sol\":919:933  Tweet[] memory */\n      0x60\n        /* \"twitterCopy.sol\":952:962  UserTwetts */\n      0x00\n        /* \"twitterCopy.sol\":952:970  UserTwetts[_owner] */\n      dup1\n        /* \"twitterCopy.sol\":963:969  _owner */\n      dup4\n        /* \"twitterCopy.sol\":952:970  UserTwetts[_owner] */\n      0xffffffffffffffffffffffffffffffffffffffff\n      and\n      0xffffffffffffffffffffffffffffffffffffffff\n      and\n      dup2\n      mstore\n      0x20\n      add\n      swap1\n      dup2\n      mstore\n      0x20\n      add\n      0x00\n      keccak256\n        /* \"twitterCopy.sol\":945:970  return UserTwetts[_owner] */\n      dup1\n      sload\n      dup1\n      0x20\n      mul\n      0x20\n      add\n      mload(0x40)\n      swap1\n      dup2\n      add\n      0x40\n      mstore\n      dup1\n      swap3\n      swap2\n      swap1\n      dup2\n      dup2\n      mstore\n      0x20\n      add\n      0x00\n      swap1\n    tag_34:\n      dup3\n      dup3\n      lt\n      iszero\n      tag_35\n      jumpi\n      dup4\n      dup3\n      swap1\n      0x00\n      mstore\n      keccak256(0x00, 0x20)\n      swap1\n      0x04\n      mul\n      add\n      mload(0x40)\n      dup1\n      0x80\n      add\n      0x40\n      mstore\n      swap1\n      dup2\n      0x00\n      dup3\n      add\n      0x00\n      swap1\n      sload\n      swap1\n      0x0100\n      exp\n      swap1\n      div\n      0xffffffffffffffffffffffffffffffffffffffff\n      and\n      0xffffffffffffffffffffffffffffffffffffffff\n      and\n      0xffffffffffffffffffffffffffffffffffffffff\n      and\n      dup2\n      mstore\n      0x20\n      add\n      0x01\n      dup3\n      add\n      dup1\n      sload\n      tag_37\n      swap1\n      tag_28\n      jump\t// in\n    tag_37:\n      dup1\n      0x1f\n      add\n      0x20\n      dup1\n      swap2\n      div\n      mul\n      0x20\n      add\n      mload(0x40)\n      swap1\n      dup2\n      add\n      0x40\n      mstore\n      dup1\n      swap3\n      swap2\n      swap1\n      dup2\n      dup2\n      mstore\n      0x20\n      add\n      dup3\n      dup1\n      sload\n      tag_38\n      swap1\n      tag_28\n      jump\t// in\n    tag_38:\n      dup1\n      iszero\n      tag_39\n      jumpi\n      dup1\n      0x1f\n      lt\n      tag_40\n      jumpi\n      0x0100\n      dup1\n      dup4\n      sload\n      div\n      mul\n      dup4\n      mstore\n      swap2\n      0x20\n      add\n      swap2\n      jump(tag_39)\n    tag_40:\n      dup3\n      add\n      swap2\n      swap1\n      0x00\n      mstore\n      keccak256(0x00, 0x20)\n      swap1\n    tag_41:\n      dup2\n      sload\n      dup2\n      mstore\n      swap1\n      0x01\n      add\n      swap1\n      0x20\n      add\n      dup1\n      dup4\n      gt\n      tag_41\n      jumpi\n      dup3\n      swap1\n      sub\n      0x1f\n      and\n      dup3\n      add\n      swap2\n    tag_39:\n      pop\n      pop\n      pop\n      pop\n      pop\n      dup2\n      mstore\n      0x20\n      add\n      0x02\n      dup3\n      add\n      sload\n      dup2\n      mstore\n      0x20\n      add\n      0x03\n      dup3\n      add\n      sload\n      dup2\n      mstore\n      pop\n      pop\n      dup2\n      mstore\n      0x20\n      add\n      swap1\n      0x01\n      add\n      swap1\n      jump(tag_34)\n    tag_35:\n      pop\n      pop\n      pop\n      pop\n      swap1\n      pop\n        /* \"twitterCopy.sol\":858:978  function getAllTwetts(address _owner) external view returns (Tweet[] memory){\r... */\n      swap2\n      swap1\n      pop\n      jump\t// out\n        /* \"twitterCopy.sol\":356:722  function createTweet(string memory _tweet) external {\r... */\n    tag_21:\n        /* \"twitterCopy.sol\":429:449  Tweet memory newTwet */\n      0x00\n        /* \"twitterCopy.sol\":452:597  Tweet({\r... */\n      mload(0x40)\n      dup1\n      0x80\n      add\n      0x40\n      mstore\n      dup1\n        /* \"twitterCopy.sol\":481:491  msg.sender */\n      caller\n        /* \"twitterCopy.sol\":452:597  Tweet({\r... */\n      0xffffffffffffffffffffffffffffffffffffffff\n      and\n      dup2\n      mstore\n      0x20\n      add\n        /* \"twitterCopy.sol\":515:521  _tweet */\n      dup4\n        /* \"twitterCopy.sol\":452:597  Tweet({\r... */\n      dup2\n      mstore\n      0x20\n      add\n        /* \"twitterCopy.sol\":547:562  block.timestamp */\n      timestamp\n        /* \"twitterCopy.sol\":452:597  Tweet({\r... */\n      dup2\n      mstore\n      0x20\n      add\n        /* \"twitterCopy.sol\":584:585  0 */\n      0x00\n        /* \"twitterCopy.sol\":452:597  Tweet({\r... */\n      dup2\n      mstore\n      pop\n        /* \"twitterCopy.sol\":429:597  Tweet memory newTwet = Tweet({\r... */\n      swap1\n      pop\n        /* \"twitterCopy.sol\":618:628  UserTwetts */\n      0x00\n        /* \"twitterCopy.sol\":618:640  UserTwetts[msg.sender] */\n      dup1\n        /* \"twitterCopy.sol\":629:639  msg.sender */\n      caller\n        /* \"twitterCopy.sol\":618:640  UserTwetts[msg.sender] */\n      0xffffffffffffffffffffffffffffffffffffffff\n      and\n      0xffffffffffffffffffffffffffffffffffffffff\n      and\n      dup2\n      mstore\n      0x20\n      add\n      swap1\n      dup2\n      mstore\n      0x20\n      add\n      0x00\n      keccak256\n        /* \"twitterCopy.sol\":646:653  newTwet */\n      dup2\n        /* \"twitterCopy.sol\":618:654  UserTwetts[msg.sender].push(newTwet) */\n      swap1\n      dup1\n      0x01\n      dup2\n      sload\n      add\n      dup1\n      dup3\n      sstore\n      dup1\n      swap2\n      pop\n      pop\n      0x01\n      swap1\n      sub\n      swap1\n      0x00\n      mstore\n      keccak256(0x00, 0x20)\n      swap1\n      0x04\n      mul\n      add\n      0x00\n      swap1\n      swap2\n      swap1\n      swap2\n      swap1\n      swap2\n      pop\n      0x00\n      dup3\n      add\n      mload\n      dup2\n      0x00\n      add\n      exp(0x0100, 0x00)\n      dup2\n      sload\n      dup2\n      0xffffffffffffffffffffffffffffffffffffffff\n      mul\n      not\n      and\n      swap1\n      dup4\n      0xffffffffffffffffffffffffffffffffffffffff\n      and\n      mul\n      or\n      swap1\n      sstore\n      pop\n      0x20\n      dup3\n      add\n      mload\n      dup2\n      0x01\n      add\n      swap1\n      dup1\n      mload\n      swap1\n      0x20\n      add\n      swap1\n      tag_44\n      swap3\n      swap2\n      swap1\n      tag_45\n      jump\t// in\n    tag_44:\n      pop\n      0x40\n      dup3\n      add\n      mload\n      dup2\n      0x02\n      add\n      sstore\n      0x60\n      dup3\n      add\n      mload\n      dup2\n      0x03\n      add\n      sstore\n      pop\n      pop\n        /* \"twitterCopy.sol\":697:707  msg.sender */\n      caller\n        /* \"twitterCopy.sol\":670:708  newTweet(\"New Tweet by: \", msg.sender) */\n      0xffffffffffffffffffffffffffffffffffffffff\n      and\n      mload(0x40)\n      tag_46\n      swap1\n      tag_47\n      jump\t// in\n    tag_46:\n      mload(0x40)\n      dup1\n      swap2\n      sub\n      swap1\n      keccak256\n      0x603868ad8ed2ceedede940d1ef9840077b0cdf05154d52090b342a9d8b1a35fa\n      mload(0x40)\n      mload(0x40)\n      dup1\n      swap2\n      sub\n      swap1\n      log3\n        /* \"twitterCopy.sol\":356:722  function createTweet(string memory _tweet) external {\r... */\n      pop\n      pop\n      jump\t// out\n    tag_23:\n      mload(0x40)\n      dup1\n      0x80\n      add\n      0x40\n      mstore\n      dup1\n      and(0xffffffffffffffffffffffffffffffffffffffff, 0x00)\n      dup2\n      mstore\n      0x20\n      add\n      0x60\n      dup2\n      mstore\n      0x20\n      add\n      0x00\n      dup2\n      mstore\n      0x20\n      add\n      0x00\n      dup2\n      mstore\n      pop\n      swap1\n      jump\t// out\n    tag_45:\n      dup3\n      dup1\n      sload\n      tag_48\n      swap1\n      tag_28\n      jump\t// in\n    tag_48:\n      swap1\n      0x00\n      mstore\n      keccak256(0x00, 0x20)\n      swap1\n      0x1f\n      add\n      0x20\n      swap1\n      div\n      dup2\n      add\n      swap3\n      dup3\n      tag_50\n      jumpi\n      0x00\n      dup6\n      sstore\n      jump(tag_49)\n    tag_50:\n      dup3\n      0x1f\n      lt\n      tag_51\n      jumpi\n      dup1\n      mload\n      not(0xff)\n      and\n      dup4\n      dup1\n      add\n      or\n      dup6\n      sstore\n      jump(tag_49)\n    tag_51:\n      dup3\n      dup1\n      add\n      0x01\n      add\n      dup6\n      sstore\n      dup3\n      iszero\n      tag_49\n      jumpi\n      swap2\n      dup3\n      add\n    tag_52:\n      dup3\n      dup2\n      gt\n      iszero\n      tag_53\n      jumpi\n      dup3\n      mload\n      dup3\n      sstore\n      swap2\n      0x20\n      add\n      swap2\n      swap1\n      0x01\n      add\n      swap1\n      jump(tag_52)\n    tag_53:\n    tag_49:\n      pop\n      swap1\n      pop\n      tag_54\n      swap2\n      swap1\n      tag_55\n      jump\t// in\n    tag_54:\n      pop\n      swap1\n      jump\t// out\n    tag_55:\n    tag_56:\n      dup1\n      dup3\n      gt\n      iszero\n      tag_57\n      jumpi\n      0x00\n      dup2\n      0x00\n      swap1\n      sstore\n      pop\n      0x01\n      add\n      jump(tag_56)\n    tag_57:\n      pop\n      swap1\n      jump\t// out\n        /* \"#utility.yul\":7:351   */\n    tag_59:\n      0x00\n        /* \"#utility.yul\":110:175   */\n      tag_61\n        /* \"#utility.yul\":125:174   */\n      tag_62\n        /* \"#utility.yul\":167:173   */\n      dup5\n        /* \"#utility.yul\":125:174   */\n      tag_63\n      jump\t// in\n    tag_62:\n        /* \"#utility.yul\":110:175   */\n      tag_64\n      jump\t// in\n    tag_61:\n        /* \"#utility.yul\":101:175   */\n      swap1\n      pop\n        /* \"#utility.yul\":198:204   */\n      dup3\n        /* \"#utility.yul\":191:196   */\n      dup2\n        /* \"#utility.yul\":184:205   */\n      mstore\n        /* \"#utility.yul\":236:240   */\n      0x20\n        /* \"#utility.yul\":229:234   */\n      dup2\n        /* \"#utility.yul\":225:241   */\n      add\n        /* \"#utility.yul\":274:277   */\n      dup5\n        /* \"#utility.yul\":265:271   */\n      dup5\n        /* \"#utility.yul\":260:263   */\n      dup5\n        /* \"#utility.yul\":256:272   */\n      add\n        /* \"#utility.yul\":253:278   */\n      gt\n        /* \"#utility.yul\":250:252   */\n      iszero\n      tag_65\n      jumpi\n        /* \"#utility.yul\":291:292   */\n      0x00\n        /* \"#utility.yul\":288:289   */\n      dup1\n        /* \"#utility.yul\":281:293   */\n      revert\n        /* \"#utility.yul\":250:252   */\n    tag_65:\n        /* \"#utility.yul\":304:345   */\n      tag_66\n        /* \"#utility.yul\":338:344   */\n      dup5\n        /* \"#utility.yul\":333:336   */\n      dup3\n        /* \"#utility.yul\":328:331   */\n      dup6\n        /* \"#utility.yul\":304:345   */\n      tag_67\n      jump\t// in\n    tag_66:\n        /* \"#utility.yul\":91:351   */\n      pop\n      swap4\n      swap3\n      pop\n      pop\n      pop\n      jump\t// out\n        /* \"#utility.yul\":357:496   */\n    tag_68:\n      0x00\n        /* \"#utility.yul\":441:447   */\n      dup2\n        /* \"#utility.yul\":428:448   */\n      calldataload\n        /* \"#utility.yul\":419:448   */\n      swap1\n      pop\n        /* \"#utility.yul\":457:490   */\n      tag_70\n        /* \"#utility.yul\":484:489   */\n      dup2\n        /* \"#utility.yul\":457:490   */\n      tag_71\n      jump\t// in\n    tag_70:\n        /* \"#utility.yul\":409:496   */\n      swap3\n      swap2\n      pop\n      pop\n      jump\t// out\n        /* \"#utility.yul\":516:789   */\n    tag_72:\n      0x00\n        /* \"#utility.yul\":621:624   */\n      dup3\n        /* \"#utility.yul\":614:618   */\n      0x1f\n        /* \"#utility.yul\":606:612   */\n      dup4\n        /* \"#utility.yul\":602:619   */\n      add\n        /* \"#utility.yul\":598:625   */\n      slt\n        /* \"#utility.yul\":588:590   */\n      tag_74\n      jumpi\n        /* \"#utility.yul\":639:640   */\n      0x00\n        /* \"#utility.yul\":636:637   */\n      dup1\n        /* \"#utility.yul\":629:641   */\n      revert\n        /* \"#utility.yul\":588:590   */\n    tag_74:\n        /* \"#utility.yul\":679:685   */\n      dup2\n        /* \"#utility.yul\":666:686   */\n      calldataload\n        /* \"#utility.yul\":704:783   */\n      tag_75\n        /* \"#utility.yul\":779:782   */\n      dup5\n        /* \"#utility.yul\":771:777   */\n      dup3\n        /* \"#utility.yul\":764:768   */\n      0x20\n        /* \"#utility.yul\":756:762   */\n      dup7\n        /* \"#utility.yul\":752:769   */\n      add\n        /* \"#utility.yul\":704:783   */\n      tag_59\n      jump\t// in\n    tag_75:\n        /* \"#utility.yul\":695:783   */\n      swap2\n      pop\n        /* \"#utility.yul\":578:789   */\n      pop\n      swap3\n      swap2\n      pop\n      pop\n      jump\t// out\n        /* \"#utility.yul\":795:934   */\n    tag_76:\n      0x00\n        /* \"#utility.yul\":879:885   */\n      dup2\n        /* \"#utility.yul\":866:886   */\n      calldataload\n        /* \"#utility.yul\":857:886   */\n      swap1\n      pop\n        /* \"#utility.yul\":895:928   */\n      tag_78\n        /* \"#utility.yul\":922:927   */\n      dup2\n        /* \"#utility.yul\":895:928   */\n      tag_79\n      jump\t// in\n    tag_78:\n        /* \"#utility.yul\":847:934   */\n      swap3\n      swap2\n      pop\n      pop\n      jump\t// out\n        /* \"#utility.yul\":940:1202   */\n    tag_14:\n      0x00\n        /* \"#utility.yul\":1048:1050   */\n      0x20\n        /* \"#utility.yul\":1036:1045   */\n      dup3\n        /* \"#utility.yul\":1027:1034   */\n      dup5\n        /* \"#utility.yul\":1023:1046   */\n      sub\n        /* \"#utility.yul\":1019:1051   */\n      slt\n        /* \"#utility.yul\":1016:1018   */\n      iszero\n      tag_81\n      jumpi\n        /* \"#utility.yul\":1064:1065   */\n      0x00\n        /* \"#utility.yul\":1061:1062   */\n      dup1\n        /* \"#utility.yul\":1054:1066   */\n      revert\n        /* \"#utility.yul\":1016:1018   */\n    tag_81:\n        /* \"#utility.yul\":1107:1108   */\n      0x00\n        /* \"#utility.yul\":1132:1185   */\n      tag_82\n        /* \"#utility.yul\":1177:1184   */\n      dup5\n        /* \"#utility.yul\":1168:1174   */\n      dup3\n        /* \"#utility.yul\":1157:1166   */\n      dup6\n        /* \"#utility.yul\":1153:1175   */\n      add\n        /* \"#utility.yul\":1132:1185   */\n      tag_68\n      jump\t// in\n    tag_82:\n        /* \"#utility.yul\":1122:1185   */\n      swap2\n      pop\n        /* \"#utility.yul\":1078:1195   */\n      pop\n        /* \"#utility.yul\":1006:1202   */\n      swap3\n      swap2\n      pop\n      pop\n      jump\t// out\n        /* \"#utility.yul\":1208:1615   */\n    tag_8:\n      0x00\n      dup1\n        /* \"#utility.yul\":1333:1335   */\n      0x40\n        /* \"#utility.yul\":1321:1330   */\n      dup4\n        /* \"#utility.yul\":1312:1319   */\n      dup6\n        /* \"#utility.yul\":1308:1331   */\n      sub\n        /* \"#utility.yul\":1304:1336   */\n      slt\n        /* \"#utility.yul\":1301:1303   */\n      iszero\n      tag_84\n      jumpi\n        /* \"#utility.yul\":1349:1350   */\n      0x00\n        /* \"#utility.yul\":1346:1347   */\n      dup1\n        /* \"#utility.yul\":1339:1351   */\n      revert\n        /* \"#utility.yul\":1301:1303   */\n    tag_84:\n        /* \"#utility.yul\":1392:1393   */\n      0x00\n        /* \"#utility.yul\":1417:1470   */\n      tag_85\n        /* \"#utility.yul\":1462:1469   */\n      dup6\n        /* \"#utility.yul\":1453:1459   */\n      dup3\n        /* \"#utility.yul\":1442:1451   */\n      dup7\n        /* \"#utility.yul\":1438:1460   */\n      add\n        /* \"#utility.yul\":1417:1470   */\n      tag_68\n      jump\t// in\n    tag_85:\n        /* \"#utility.yul\":1407:1470   */\n      swap3\n      pop\n        /* \"#utility.yul\":1363:1480   */\n      pop\n        /* \"#utility.yul\":1519:1521   */\n      0x20\n        /* \"#utility.yul\":1545:1598   */\n      tag_86\n        /* \"#utility.yul\":1590:1597   */\n      dup6\n        /* \"#utility.yul\":1581:1587   */\n      dup3\n        /* \"#utility.yul\":1570:1579   */\n      dup7\n        /* \"#utility.yul\":1566:1588   */\n      add\n        /* \"#utility.yul\":1545:1598   */\n      tag_76\n      jump\t// in\n    tag_86:\n        /* \"#utility.yul\":1535:1598   */\n      swap2\n      pop\n        /* \"#utility.yul\":1490:1608   */\n      pop\n        /* \"#utility.yul\":1291:1615   */\n      swap3\n      pop\n      swap3\n      swap1\n      pop\n      jump\t// out\n        /* \"#utility.yul\":1621:1996   */\n    tag_20:\n      0x00\n        /* \"#utility.yul\":1739:1741   */\n      0x20\n        /* \"#utility.yul\":1727:1736   */\n      dup3\n        /* \"#utility.yul\":1718:1725   */\n      dup5\n        /* \"#utility.yul\":1714:1737   */\n      sub\n        /* \"#utility.yul\":1710:1742   */\n      slt\n        /* \"#utility.yul\":1707:1709   */\n      iszero\n      tag_88\n      jumpi\n        /* \"#utility.yul\":1755:1756   */\n      0x00\n        /* \"#utility.yul\":1752:1753   */\n      dup1\n        /* \"#utility.yul\":1745:1757   */\n      revert\n        /* \"#utility.yul\":1707:1709   */\n    tag_88:\n        /* \"#utility.yul\":1826:1827   */\n      0x00\n        /* \"#utility.yul\":1815:1824   */\n      dup3\n        /* \"#utility.yul\":1811:1828   */\n      add\n        /* \"#utility.yul\":1798:1829   */\n      calldataload\n        /* \"#utility.yul\":1856:1874   */\n      0xffffffffffffffff\n        /* \"#utility.yul\":1848:1854   */\n      dup2\n        /* \"#utility.yul\":1845:1875   */\n      gt\n        /* \"#utility.yul\":1842:1844   */\n      iszero\n      tag_89\n      jumpi\n        /* \"#utility.yul\":1888:1889   */\n      0x00\n        /* \"#utility.yul\":1885:1886   */\n      dup1\n        /* \"#utility.yul\":1878:1890   */\n      revert\n        /* \"#utility.yul\":1842:1844   */\n    tag_89:\n        /* \"#utility.yul\":1916:1979   */\n      tag_90\n        /* \"#utility.yul\":1971:1978   */\n      dup5\n        /* \"#utility.yul\":1962:1968   */\n      dup3\n        /* \"#utility.yul\":1951:1960   */\n      dup6\n        /* \"#utility.yul\":1947:1969   */\n      add\n        /* \"#utility.yul\":1916:1979   */\n      tag_72\n      jump\t// in\n    tag_90:\n        /* \"#utility.yul\":1906:1979   */\n      swap2\n      pop\n        /* \"#utility.yul\":1769:1989   */\n      pop\n        /* \"#utility.yul\":1697:1996   */\n      swap3\n      swap2\n      pop\n      pop\n      jump\t// out\n        /* \"#utility.yul\":2002:2242   */\n    tag_91:\n      0x00\n        /* \"#utility.yul\":2148:2236   */\n      tag_93\n        /* \"#utility.yul\":2232:2235   */\n      dup4\n        /* \"#utility.yul\":2224:2230   */\n      dup4\n        /* \"#utility.yul\":2148:2236   */\n      tag_94\n      jump\t// in\n    tag_93:\n        /* \"#utility.yul\":2134:2236   */\n      swap1\n      pop\n        /* \"#utility.yul\":2124:2242   */\n      swap3\n      swap2\n      pop\n      pop\n      jump\t// out\n        /* \"#utility.yul\":2248:2356   */\n    tag_95:\n        /* \"#utility.yul\":2325:2349   */\n      tag_97\n        /* \"#utility.yul\":2343:2348   */\n      dup2\n        /* \"#utility.yul\":2325:2349   */\n      tag_98\n      jump\t// in\n    tag_97:\n        /* \"#utility.yul\":2320:2323   */\n      dup3\n        /* \"#utility.yul\":2313:2350   */\n      mstore\n        /* \"#utility.yul\":2303:2356   */\n      pop\n      pop\n      jump\t// out\n        /* \"#utility.yul\":2418:3497   */\n    tag_99:\n      0x00\n        /* \"#utility.yul\":2608:2683   */\n      tag_101\n        /* \"#utility.yul\":2677:2682   */\n      dup3\n        /* \"#utility.yul\":2608:2683   */\n      tag_102\n      jump\t// in\n    tag_101:\n        /* \"#utility.yul\":2699:2806   */\n      tag_103\n        /* \"#utility.yul\":2799:2805   */\n      dup2\n        /* \"#utility.yul\":2794:2797   */\n      dup6\n        /* \"#utility.yul\":2699:2806   */\n      tag_104\n      jump\t// in\n    tag_103:\n        /* \"#utility.yul\":2692:2806   */\n      swap4\n      pop\n        /* \"#utility.yul\":2832:2835   */\n      dup4\n        /* \"#utility.yul\":2877:2881   */\n      0x20\n        /* \"#utility.yul\":2869:2875   */\n      dup3\n        /* \"#utility.yul\":2865:2882   */\n      mul\n        /* \"#utility.yul\":2860:2863   */\n      dup6\n        /* \"#utility.yul\":2856:2883   */\n      add\n        /* \"#utility.yul\":2907:2984   */\n      tag_105\n        /* \"#utility.yul\":2978:2983   */\n      dup6\n        /* \"#utility.yul\":2907:2984   */\n      tag_106\n      jump\t// in\n    tag_105:\n        /* \"#utility.yul\":3007:3014   */\n      dup1\n        /* \"#utility.yul\":3038:3039   */\n      0x00\n        /* \"#utility.yul\":3023:3452   */\n    tag_107:\n        /* \"#utility.yul\":3048:3054   */\n      dup6\n        /* \"#utility.yul\":3045:3046   */\n      dup2\n        /* \"#utility.yul\":3042:3055   */\n      lt\n        /* \"#utility.yul\":3023:3452   */\n      iszero\n      tag_109\n      jumpi\n        /* \"#utility.yul\":3119:3128   */\n      dup5\n        /* \"#utility.yul\":3113:3117   */\n      dup5\n        /* \"#utility.yul\":3109:3129   */\n      sub\n        /* \"#utility.yul\":3104:3107   */\n      dup10\n        /* \"#utility.yul\":3097:3130   */\n      mstore\n        /* \"#utility.yul\":3170:3176   */\n      dup2\n        /* \"#utility.yul\":3164:3177   */\n      mload\n        /* \"#utility.yul\":3198:3304   */\n      tag_110\n        /* \"#utility.yul\":3299:3303   */\n      dup6\n        /* \"#utility.yul\":3284:3297   */\n      dup3\n        /* \"#utility.yul\":3198:3304   */\n      tag_91\n      jump\t// in\n    tag_110:\n        /* \"#utility.yul\":3190:3304   */\n      swap5\n      pop\n        /* \"#utility.yul\":3327:3408   */\n      tag_111\n        /* \"#utility.yul\":3401:3407   */\n      dup4\n        /* \"#utility.yul\":3327:3408   */\n      tag_112\n      jump\t// in\n    tag_111:\n        /* \"#utility.yul\":3317:3408   */\n      swap3\n      pop\n        /* \"#utility.yul\":3437:3441   */\n      0x20\n        /* \"#utility.yul\":3432:3435   */\n      dup11\n        /* \"#utility.yul\":3428:3442   */\n      add\n        /* \"#utility.yul\":3421:3442   */\n      swap10\n      pop\n        /* \"#utility.yul\":3083:3452   */\n      pop\n        /* \"#utility.yul\":3070:3071   */\n      0x01\n        /* \"#utility.yul\":3067:3068   */\n      dup2\n        /* \"#utility.yul\":3063:3072   */\n      add\n        /* \"#utility.yul\":3058:3072   */\n      swap1\n      pop\n        /* \"#utility.yul\":3023:3452   */\n      jump(tag_107)\n    tag_109:\n        /* \"#utility.yul\":3027:3041   */\n      pop\n        /* \"#utility.yul\":3468:3472   */\n      dup3\n        /* \"#utility.yul\":3461:3472   */\n      swap8\n      pop\n        /* \"#utility.yul\":3488:3491   */\n      dup8\n        /* \"#utility.yul\":3481:3491   */\n      swap6\n      pop\n        /* \"#utility.yul\":2584:3497   */\n      pop\n      pop\n      pop\n      pop\n      pop\n      swap3\n      swap2\n      pop\n      pop\n      jump\t// out\n        /* \"#utility.yul\":3503:3847   */\n    tag_113:\n      0x00\n        /* \"#utility.yul\":3609:3648   */\n      tag_115\n        /* \"#utility.yul\":3642:3647   */\n      dup3\n        /* \"#utility.yul\":3609:3648   */\n      tag_116\n      jump\t// in\n    tag_115:\n        /* \"#utility.yul\":3664:3725   */\n      tag_117\n        /* \"#utility.yul\":3718:3724   */\n      dup2\n        /* \"#utility.yul\":3713:3716   */\n      dup6\n        /* \"#utility.yul\":3664:3725   */\n      tag_118\n      jump\t// in\n    tag_117:\n        /* \"#utility.yul\":3657:3725   */\n      swap4\n      pop\n        /* \"#utility.yul\":3734:3786   */\n      tag_119\n        /* \"#utility.yul\":3779:3785   */\n      dup2\n        /* \"#utility.yul\":3774:3777   */\n      dup6\n        /* \"#utility.yul\":3767:3771   */\n      0x20\n        /* \"#utility.yul\":3760:3765   */\n      dup7\n        /* \"#utility.yul\":3756:3772   */\n      add\n        /* \"#utility.yul\":3734:3786   */\n      tag_120\n      jump\t// in\n    tag_119:\n        /* \"#utility.yul\":3811:3840   */\n      tag_121\n        /* \"#utility.yul\":3833:3839   */\n      dup2\n        /* \"#utility.yul\":3811:3840   */\n      tag_122\n      jump\t// in\n    tag_121:\n        /* \"#utility.yul\":3806:3809   */\n      dup5\n        /* \"#utility.yul\":3802:3841   */\n      add\n        /* \"#utility.yul\":3795:3841   */\n      swap2\n      pop\n        /* \"#utility.yul\":3585:3847   */\n      pop\n      swap3\n      swap2\n      pop\n      pop\n      jump\t// out\n        /* \"#utility.yul\":3853:4201   */\n    tag_123:\n      0x00\n        /* \"#utility.yul\":4034:4119   */\n      tag_125\n        /* \"#utility.yul\":4116:4118   */\n      0x0e\n        /* \"#utility.yul\":4111:4114   */\n      dup4\n        /* \"#utility.yul\":4034:4119   */\n      tag_126\n      jump\t// in\n    tag_125:\n        /* \"#utility.yul\":4027:4119   */\n      swap2\n      pop\n        /* \"#utility.yul\":4149:4165   */\n      0x4e65772054776565742062793a20000000000000000000000000000000000000\n        /* \"#utility.yul\":4145:4146   */\n      0x00\n        /* \"#utility.yul\":4140:4143   */\n      dup4\n        /* \"#utility.yul\":4136:4147   */\n      add\n        /* \"#utility.yul\":4129:4166   */\n      mstore\n        /* \"#utility.yul\":4192:4194   */\n      0x0e\n        /* \"#utility.yul\":4187:4190   */\n      dup3\n        /* \"#utility.yul\":4183:4195   */\n      add\n        /* \"#utility.yul\":4176:4195   */\n      swap1\n      pop\n        /* \"#utility.yul\":4017:4201   */\n      swap2\n      swap1\n      pop\n      jump\t// out\n        /* \"#utility.yul\":4259:5206   */\n    tag_94:\n      0x00\n        /* \"#utility.yul\":4396:4400   */\n      0x80\n        /* \"#utility.yul\":4391:4394   */\n      dup4\n        /* \"#utility.yul\":4387:4401   */\n      add\n        /* \"#utility.yul\":4485:4489   */\n      0x00\n        /* \"#utility.yul\":4478:4483   */\n      dup4\n        /* \"#utility.yul\":4474:4490   */\n      add\n        /* \"#utility.yul\":4468:4491   */\n      mload\n        /* \"#utility.yul\":4504:4567   */\n      tag_128\n        /* \"#utility.yul\":4561:4565   */\n      0x00\n        /* \"#utility.yul\":4556:4559   */\n      dup7\n        /* \"#utility.yul\":4552:4566   */\n      add\n        /* \"#utility.yul\":4538:4550   */\n      dup3\n        /* \"#utility.yul\":4504:4567   */\n      tag_95\n      jump\t// in\n    tag_128:\n        /* \"#utility.yul\":4411:4577   */\n      pop\n        /* \"#utility.yul\":4662:4666   */\n      0x20\n        /* \"#utility.yul\":4655:4660   */\n      dup4\n        /* \"#utility.yul\":4651:4667   */\n      add\n        /* \"#utility.yul\":4645:4668   */\n      mload\n        /* \"#utility.yul\":4715:4718   */\n      dup5\n        /* \"#utility.yul\":4709:4713   */\n      dup3\n        /* \"#utility.yul\":4705:4719   */\n      sub\n        /* \"#utility.yul\":4698:4702   */\n      0x20\n        /* \"#utility.yul\":4693:4696   */\n      dup7\n        /* \"#utility.yul\":4689:4703   */\n      add\n        /* \"#utility.yul\":4682:4720   */\n      mstore\n        /* \"#utility.yul\":4741:4814   */\n      tag_129\n        /* \"#utility.yul\":4809:4813   */\n      dup3\n        /* \"#utility.yul\":4795:4807   */\n      dup3\n        /* \"#utility.yul\":4741:4814   */\n      tag_113\n      jump\t// in\n    tag_129:\n        /* \"#utility.yul\":4733:4814   */\n      swap2\n      pop\n        /* \"#utility.yul\":4587:4825   */\n      pop\n        /* \"#utility.yul\":4912:4916   */\n      0x40\n        /* \"#utility.yul\":4905:4910   */\n      dup4\n        /* \"#utility.yul\":4901:4917   */\n      add\n        /* \"#utility.yul\":4895:4918   */\n      mload\n        /* \"#utility.yul\":4931:4994   */\n      tag_130\n        /* \"#utility.yul\":4988:4992   */\n      0x40\n        /* \"#utility.yul\":4983:4986   */\n      dup7\n        /* \"#utility.yul\":4979:4993   */\n      add\n        /* \"#utility.yul\":4965:4977   */\n      dup3\n        /* \"#utility.yul\":4931:4994   */\n      tag_131\n      jump\t// in\n    tag_130:\n        /* \"#utility.yul\":4835:5004   */\n      pop\n        /* \"#utility.yul\":5087:5091   */\n      0x60\n        /* \"#utility.yul\":5080:5085   */\n      dup4\n        /* \"#utility.yul\":5076:5092   */\n      add\n        /* \"#utility.yul\":5070:5093   */\n      mload\n        /* \"#utility.yul\":5106:5169   */\n      tag_132\n        /* \"#utility.yul\":5163:5167   */\n      0x60\n        /* \"#utility.yul\":5158:5161   */\n      dup7\n        /* \"#utility.yul\":5154:5168   */\n      add\n        /* \"#utility.yul\":5140:5152   */\n      dup3\n        /* \"#utility.yul\":5106:5169   */\n      tag_131\n      jump\t// in\n    tag_132:\n        /* \"#utility.yul\":5014:5179   */\n      pop\n        /* \"#utility.yul\":5196:5200   */\n      dup1\n        /* \"#utility.yul\":5189:5200   */\n      swap2\n      pop\n        /* \"#utility.yul\":4365:5206   */\n      pop\n      swap3\n      swap2\n      pop\n      pop\n      jump\t// out\n        /* \"#utility.yul\":5264:6221   */\n    tag_133:\n      0x00\n        /* \"#utility.yul\":5411:5415   */\n      0x80\n        /* \"#utility.yul\":5406:5409   */\n      dup4\n        /* \"#utility.yul\":5402:5416   */\n      add\n        /* \"#utility.yul\":5500:5504   */\n      0x00\n        /* \"#utility.yul\":5493:5498   */\n      dup4\n        /* \"#utility.yul\":5489:5505   */\n      add\n        /* \"#utility.yul\":5483:5506   */\n      mload\n        /* \"#utility.yul\":5519:5582   */\n      tag_135\n        /* \"#utility.yul\":5576:5580   */\n      0x00\n        /* \"#utility.yul\":5571:5574   */\n      dup7\n        /* \"#utility.yul\":5567:5581   */\n      add\n        /* \"#utility.yul\":5553:5565   */\n      dup3\n        /* \"#utility.yul\":5519:5582   */\n      tag_95\n      jump\t// in\n    tag_135:\n        /* \"#utility.yul\":5426:5592   */\n      pop\n        /* \"#utility.yul\":5677:5681   */\n      0x20\n        /* \"#utility.yul\":5670:5675   */\n      dup4\n        /* \"#utility.yul\":5666:5682   */\n      add\n        /* \"#utility.yul\":5660:5683   */\n      mload\n        /* \"#utility.yul\":5730:5733   */\n      dup5\n        /* \"#utility.yul\":5724:5728   */\n      dup3\n        /* \"#utility.yul\":5720:5734   */\n      sub\n        /* \"#utility.yul\":5713:5717   */\n      0x20\n        /* \"#utility.yul\":5708:5711   */\n      dup7\n        /* \"#utility.yul\":5704:5718   */\n      add\n        /* \"#utility.yul\":5697:5735   */\n      mstore\n        /* \"#utility.yul\":5756:5829   */\n      tag_136\n        /* \"#utility.yul\":5824:5828   */\n      dup3\n        /* \"#utility.yul\":5810:5822   */\n      dup3\n        /* \"#utility.yul\":5756:5829   */\n      tag_113\n      jump\t// in\n    tag_136:\n        /* \"#utility.yul\":5748:5829   */\n      swap2\n      pop\n        /* \"#utility.yul\":5602:5840   */\n      pop\n        /* \"#utility.yul\":5927:5931   */\n      0x40\n        /* \"#utility.yul\":5920:5925   */\n      dup4\n        /* \"#utility.yul\":5916:5932   */\n      add\n        /* \"#utility.yul\":5910:5933   */\n      mload\n        /* \"#utility.yul\":5946:6009   */\n      tag_137\n        /* \"#utility.yul\":6003:6007   */\n      0x40\n        /* \"#utility.yul\":5998:6001   */\n      dup7\n        /* \"#utility.yul\":5994:6008   */\n      add\n        /* \"#utility.yul\":5980:5992   */\n      dup3\n        /* \"#utility.yul\":5946:6009   */\n      tag_131\n      jump\t// in\n    tag_137:\n        /* \"#utility.yul\":5850:6019   */\n      pop\n        /* \"#utility.yul\":6102:6106   */\n      0x60\n        /* \"#utility.yul\":6095:6100   */\n      dup4\n        /* \"#utility.yul\":6091:6107   */\n      add\n        /* \"#utility.yul\":6085:6108   */\n      mload\n        /* \"#utility.yul\":6121:6184   */\n      tag_138\n        /* \"#utility.yul\":6178:6182   */\n      0x60\n        /* \"#utility.yul\":6173:6176   */\n      dup7\n        /* \"#utility.yul\":6169:6183   */\n      add\n        /* \"#utility.yul\":6155:6167   */\n      dup3\n        /* \"#utility.yul\":6121:6184   */\n      tag_131\n      jump\t// in\n    tag_138:\n        /* \"#utility.yul\":6029:6194   */\n      pop\n        /* \"#utility.yul\":6211:6215   */\n      dup1\n        /* \"#utility.yul\":6204:6215   */\n      swap2\n      pop\n        /* \"#utility.yul\":5380:6221   */\n      pop\n      swap3\n      swap2\n      pop\n      pop\n      jump\t// out\n        /* \"#utility.yul\":6227:6335   */\n    tag_131:\n        /* \"#utility.yul\":6304:6328   */\n      tag_140\n        /* \"#utility.yul\":6322:6327   */\n      dup2\n        /* \"#utility.yul\":6304:6328   */\n      tag_141\n      jump\t// in\n    tag_140:\n        /* \"#utility.yul\":6299:6302   */\n      dup3\n        /* \"#utility.yul\":6292:6329   */\n      mstore\n        /* \"#utility.yul\":6282:6335   */\n      pop\n      pop\n      jump\t// out\n        /* \"#utility.yul\":6341:6722   */\n    tag_47:\n      0x00\n        /* \"#utility.yul\":6548:6696   */\n      tag_143\n        /* \"#utility.yul\":6692:6695   */\n      dup3\n        /* \"#utility.yul\":6548:6696   */\n      tag_123\n      jump\t// in\n    tag_143:\n        /* \"#utility.yul\":6541:6696   */\n      swap2\n      pop\n        /* \"#utility.yul\":6713:6716   */\n      dup2\n        /* \"#utility.yul\":6706:6716   */\n      swap1\n      pop\n        /* \"#utility.yul\":6530:6722   */\n      swap2\n      swap1\n      pop\n      jump\t// out\n        /* \"#utility.yul\":6728:7185   */\n    tag_17:\n      0x00\n        /* \"#utility.yul\":6951:6953   */\n      0x20\n        /* \"#utility.yul\":6940:6949   */\n      dup3\n        /* \"#utility.yul\":6936:6954   */\n      add\n        /* \"#utility.yul\":6928:6954   */\n      swap1\n      pop\n        /* \"#utility.yul\":7000:7009   */\n      dup2\n        /* \"#utility.yul\":6994:6998   */\n      dup2\n        /* \"#utility.yul\":6990:7010   */\n      sub\n        /* \"#utility.yul\":6986:6987   */\n      0x00\n        /* \"#utility.yul\":6975:6984   */\n      dup4\n        /* \"#utility.yul\":6971:6988   */\n      add\n        /* \"#utility.yul\":6964:7011   */\n      mstore\n        /* \"#utility.yul\":7028:7178   */\n      tag_145\n        /* \"#utility.yul\":7173:7177   */\n      dup2\n        /* \"#utility.yul\":7164:7170   */\n      dup5\n        /* \"#utility.yul\":7028:7178   */\n      tag_99\n      jump\t// in\n    tag_145:\n        /* \"#utility.yul\":7020:7178   */\n      swap1\n      pop\n        /* \"#utility.yul\":6918:7185   */\n      swap3\n      swap2\n      pop\n      pop\n      jump\t// out\n        /* \"#utility.yul\":7191:7548   */\n    tag_11:\n      0x00\n        /* \"#utility.yul\":7364:7366   */\n      0x20\n        /* \"#utility.yul\":7353:7362   */\n      dup3\n        /* \"#utility.yul\":7349:7367   */\n      add\n        /* \"#utility.yul\":7341:7367   */\n      swap1\n      pop\n        /* \"#utility.yul\":7413:7422   */\n      dup2\n        /* \"#utility.yul\":7407:7411   */\n      dup2\n        /* \"#utility.yul\":7403:7423   */\n      sub\n        /* \"#utility.yul\":7399:7400   */\n      0x00\n        /* \"#utility.yul\":7388:7397   */\n      dup4\n        /* \"#utility.yul\":7384:7401   */\n      add\n        /* \"#utility.yul\":7377:7424   */\n      mstore\n        /* \"#utility.yul\":7441:7541   */\n      tag_147\n        /* \"#utility.yul\":7536:7540   */\n      dup2\n        /* \"#utility.yul\":7527:7533   */\n      dup5\n        /* \"#utility.yul\":7441:7541   */\n      tag_133\n      jump\t// in\n    tag_147:\n        /* \"#utility.yul\":7433:7541   */\n      swap1\n      pop\n        /* \"#utility.yul\":7331:7548   */\n      swap3\n      swap2\n      pop\n      pop\n      jump\t// out\n        /* \"#utility.yul\":7554:7837   */\n    tag_64:\n      0x00\n        /* \"#utility.yul\":7620:7622   */\n      0x40\n        /* \"#utility.yul\":7614:7623   */\n      mload\n        /* \"#utility.yul\":7604:7623   */\n      swap1\n      pop\n        /* \"#utility.yul\":7662:7666   */\n      dup2\n        /* \"#utility.yul\":7654:7660   */\n      dup2\n        /* \"#utility.yul\":7650:7667   */\n      add\n        /* \"#utility.yul\":7769:7775   */\n      dup2\n        /* \"#utility.yul\":7757:7767   */\n      dup2\n        /* \"#utility.yul\":7754:7776   */\n      lt\n        /* \"#utility.yul\":7733:7751   */\n      0xffffffffffffffff\n        /* \"#utility.yul\":7721:7731   */\n      dup3\n        /* \"#utility.yul\":7718:7752   */\n      gt\n        /* \"#utility.yul\":7715:7777   */\n      or\n        /* \"#utility.yul\":7712:7714   */\n      iszero\n      tag_149\n      jumpi\n        /* \"#utility.yul\":7780:7798   */\n      tag_150\n      tag_151\n      jump\t// in\n    tag_150:\n        /* \"#utility.yul\":7712:7714   */\n    tag_149:\n        /* \"#utility.yul\":7820:7830   */\n      dup1\n        /* \"#utility.yul\":7816:7818   */\n      0x40\n        /* \"#utility.yul\":7809:7831   */\n      mstore\n        /* \"#utility.yul\":7594:7837   */\n      pop\n      swap2\n      swap1\n      pop\n      jump\t// out\n        /* \"#utility.yul\":7843:8175   */\n    tag_63:\n      0x00\n        /* \"#utility.yul\":7995:8013   */\n      0xffffffffffffffff\n        /* \"#utility.yul\":7987:7993   */\n      dup3\n        /* \"#utility.yul\":7984:8014   */\n      gt\n        /* \"#utility.yul\":7981:7983   */\n      iszero\n      tag_153\n      jumpi\n        /* \"#utility.yul\":8017:8035   */\n      tag_154\n      tag_151\n      jump\t// in\n    tag_154:\n        /* \"#utility.yul\":7981:7983   */\n    tag_153:\n        /* \"#utility.yul\":8102:8106   */\n      0x1f\n        /* \"#utility.yul\":8098:8107   */\n      not\n        /* \"#utility.yul\":8091:8095   */\n      0x1f\n        /* \"#utility.yul\":8083:8089   */\n      dup4\n        /* \"#utility.yul\":8079:8096   */\n      add\n        /* \"#utility.yul\":8075:8108   */\n      and\n        /* \"#utility.yul\":8067:8108   */\n      swap1\n      pop\n        /* \"#utility.yul\":8163:8167   */\n      0x20\n        /* \"#utility.yul\":8157:8161   */\n      dup2\n        /* \"#utility.yul\":8153:8168   */\n      add\n        /* \"#utility.yul\":8145:8168   */\n      swap1\n      pop\n        /* \"#utility.yul\":7910:8175   */\n      swap2\n      swap1\n      pop\n      jump\t// out\n        /* \"#utility.yul\":8181:8334   */\n    tag_106:\n      0x00\n        /* \"#utility.yul\":8292:8295   */\n      dup2\n        /* \"#utility.yul\":8284:8295   */\n      swap1\n      pop\n        /* \"#utility.yul\":8322:8326   */\n      0x20\n        /* \"#utility.yul\":8317:8320   */\n      dup3\n        /* \"#utility.yul\":8313:8327   */\n      add\n        /* \"#utility.yul\":8305:8327   */\n      swap1\n      pop\n        /* \"#utility.yul\":8274:8334   */\n      swap2\n      swap1\n      pop\n      jump\t// out\n        /* \"#utility.yul\":8340:8475   */\n    tag_102:\n      0x00\n        /* \"#utility.yul\":8462:8467   */\n      dup2\n        /* \"#utility.yul\":8456:8468   */\n      mload\n        /* \"#utility.yul\":8446:8468   */\n      swap1\n      pop\n        /* \"#utility.yul\":8435:8475   */\n      swap2\n      swap1\n      pop\n      jump\t// out\n        /* \"#utility.yul\":8481:8580   */\n    tag_116:\n      0x00\n        /* \"#utility.yul\":8567:8572   */\n      dup2\n        /* \"#utility.yul\":8561:8573   */\n      mload\n        /* \"#utility.yul\":8551:8573   */\n      swap1\n      pop\n        /* \"#utility.yul\":8540:8580   */\n      swap2\n      swap1\n      pop\n      jump\t// out\n        /* \"#utility.yul\":8586:8720   */\n    tag_112:\n      0x00\n        /* \"#utility.yul\":8709:8713   */\n      0x20\n        /* \"#utility.yul\":8704:8707   */\n      dup3\n        /* \"#utility.yul\":8700:8714   */\n      add\n        /* \"#utility.yul\":8692:8714   */\n      swap1\n      pop\n        /* \"#utility.yul\":8682:8720   */\n      swap2\n      swap1\n      pop\n      jump\t// out\n        /* \"#utility.yul\":8726:8931   */\n    tag_104:\n      0x00\n        /* \"#utility.yul\":8880:8886   */\n      dup3\n        /* \"#utility.yul\":8875:8878   */\n      dup3\n        /* \"#utility.yul\":8868:8887   */\n      mstore\n        /* \"#utility.yul\":8920:8924   */\n      0x20\n        /* \"#utility.yul\":8915:8918   */\n      dup3\n        /* \"#utility.yul\":8911:8925   */\n      add\n        /* \"#utility.yul\":8896:8925   */\n      swap1\n      pop\n        /* \"#utility.yul\":8858:8931   */\n      swap3\n      swap2\n      pop\n      pop\n      jump\t// out\n        /* \"#utility.yul\":8937:9096   */\n    tag_118:\n      0x00\n        /* \"#utility.yul\":9045:9051   */\n      dup3\n        /* \"#utility.yul\":9040:9043   */\n      dup3\n        /* \"#utility.yul\":9033:9052   */\n      mstore\n        /* \"#utility.yul\":9085:9089   */\n      0x20\n        /* \"#utility.yul\":9080:9083   */\n      dup3\n        /* \"#utility.yul\":9076:9090   */\n      add\n        /* \"#utility.yul\":9061:9090   */\n      swap1\n      pop\n        /* \"#utility.yul\":9023:9096   */\n      swap3\n      swap2\n      pop\n      pop\n      jump\t// out\n        /* \"#utility.yul\":9102:9250   */\n    tag_126:\n      0x00\n        /* \"#utility.yul\":9241:9244   */\n      dup2\n        /* \"#utility.yul\":9226:9244   */\n      swap1\n      pop\n        /* \"#utility.yul\":9216:9250   */\n      swap3\n      swap2\n      pop\n      pop\n      jump\t// out\n        /* \"#utility.yul\":9256:9352   */\n    tag_98:\n      0x00\n        /* \"#utility.yul\":9322:9346   */\n      tag_163\n        /* \"#utility.yul\":9340:9345   */\n      dup3\n        /* \"#utility.yul\":9322:9346   */\n      tag_164\n      jump\t// in\n    tag_163:\n        /* \"#utility.yul\":9311:9346   */\n      swap1\n      pop\n        /* \"#utility.yul\":9301:9352   */\n      swap2\n      swap1\n      pop\n      jump\t// out\n        /* \"#utility.yul\":9358:9484   */\n    tag_164:\n      0x00\n        /* \"#utility.yul\":9435:9477   */\n      0xffffffffffffffffffffffffffffffffffffffff\n        /* \"#utility.yul\":9428:9433   */\n      dup3\n        /* \"#utility.yul\":9424:9478   */\n      and\n        /* \"#utility.yul\":9413:9478   */\n      swap1\n      pop\n        /* \"#utility.yul\":9403:9484   */\n      swap2\n      swap1\n      pop\n      jump\t// out\n        /* \"#utility.yul\":9490:9567   */\n    tag_141:\n      0x00\n        /* \"#utility.yul\":9556:9561   */\n      dup2\n        /* \"#utility.yul\":9545:9561   */\n      swap1\n      pop\n        /* \"#utility.yul\":9535:9567   */\n      swap2\n      swap1\n      pop\n      jump\t// out\n        /* \"#utility.yul\":9573:9727   */\n    tag_67:\n        /* \"#utility.yul\":9657:9663   */\n      dup3\n        /* \"#utility.yul\":9652:9655   */\n      dup2\n        /* \"#utility.yul\":9647:9650   */\n      dup4\n        /* \"#utility.yul\":9634:9664   */\n      calldatacopy\n        /* \"#utility.yul\":9719:9720   */\n      0x00\n        /* \"#utility.yul\":9710:9716   */\n      dup4\n        /* \"#utility.yul\":9705:9708   */\n      dup4\n        /* \"#utility.yul\":9701:9717   */\n      add\n        /* \"#utility.yul\":9694:9721   */\n      mstore\n        /* \"#utility.yul\":9624:9727   */\n      pop\n      pop\n      pop\n      jump\t// out\n        /* \"#utility.yul\":9733:10040   */\n    tag_120:\n        /* \"#utility.yul\":9801:9802   */\n      0x00\n        /* \"#utility.yul\":9811:9924   */\n    tag_169:\n        /* \"#utility.yul\":9825:9831   */\n      dup4\n        /* \"#utility.yul\":9822:9823   */\n      dup2\n        /* \"#utility.yul\":9819:9832   */\n      lt\n        /* \"#utility.yul\":9811:9924   */\n      iszero\n      tag_171\n      jumpi\n        /* \"#utility.yul\":9910:9911   */\n      dup1\n        /* \"#utility.yul\":9905:9908   */\n      dup3\n        /* \"#utility.yul\":9901:9912   */\n      add\n        /* \"#utility.yul\":9895:9913   */\n      mload\n        /* \"#utility.yul\":9891:9892   */\n      dup2\n        /* \"#utility.yul\":9886:9889   */\n      dup5\n        /* \"#utility.yul\":9882:9893   */\n      add\n        /* \"#utility.yul\":9875:9914   */\n      mstore\n        /* \"#utility.yul\":9847:9849   */\n      0x20\n        /* \"#utility.yul\":9844:9845   */\n      dup2\n        /* \"#utility.yul\":9840:9850   */\n      add\n        /* \"#utility.yul\":9835:9850   */\n      swap1\n      pop\n        /* \"#utility.yul\":9811:9924   */\n      jump(tag_169)\n    tag_171:\n        /* \"#utility.yul\":9942:9948   */\n      dup4\n        /* \"#utility.yul\":9939:9940   */\n      dup2\n        /* \"#utility.yul\":9936:9949   */\n      gt\n        /* \"#utility.yul\":9933:9935   */\n      iszero\n      tag_172\n      jumpi\n        /* \"#utility.yul\":10022:10023   */\n      0x00\n        /* \"#utility.yul\":10013:10019   */\n      dup5\n        /* \"#utility.yul\":10008:10011   */\n      dup5\n        /* \"#utility.yul\":10004:10020   */\n      add\n        /* \"#utility.yul\":9997:10024   */\n      mstore\n        /* \"#utility.yul\":9933:9935   */\n    tag_172:\n        /* \"#utility.yul\":9782:10040   */\n      pop\n      pop\n      pop\n      pop\n      jump\t// out\n        /* \"#utility.yul\":10046:10366   */\n    tag_28:\n      0x00\n        /* \"#utility.yul\":10127:10128   */\n      0x02\n        /* \"#utility.yul\":10121:10125   */\n      dup3\n        /* \"#utility.yul\":10117:10129   */\n      div\n        /* \"#utility.yul\":10107:10129   */\n      swap1\n      pop\n        /* \"#utility.yul\":10174:10175   */\n      0x01\n        /* \"#utility.yul\":10168:10172   */\n      dup3\n        /* \"#utility.yul\":10164:10176   */\n      and\n        /* \"#utility.yul\":10195:10213   */\n      dup1\n        /* \"#utility.yul\":10185:10187   */\n      tag_174\n      jumpi\n        /* \"#utility.yul\":10251:10255   */\n      0x7f\n        /* \"#utility.yul\":10243:10249   */\n      dup3\n        /* \"#utility.yul\":10239:10256   */\n      and\n        /* \"#utility.yul\":10229:10256   */\n      swap2\n      pop\n        /* \"#utility.yul\":10185:10187   */\n    tag_174:\n        /* \"#utility.yul\":10313:10315   */\n      0x20\n        /* \"#utility.yul\":10305:10311   */\n      dup3\n        /* \"#utility.yul\":10302:10316   */\n      lt\n        /* \"#utility.yul\":10282:10300   */\n      dup2\n        /* \"#utility.yul\":10279:10317   */\n      eq\n        /* \"#utility.yul\":10276:10278   */\n      iszero\n      tag_175\n      jumpi\n        /* \"#utility.yul\":10332:10350   */\n      tag_176\n      tag_177\n      jump\t// in\n    tag_176:\n        /* \"#utility.yul\":10276:10278   */\n    tag_175:\n        /* \"#utility.yul\":10097:10366   */\n      pop\n      swap2\n      swap1\n      pop\n      jump\t// out\n        /* \"#utility.yul\":10372:10552   */\n    tag_177:\n        /* \"#utility.yul\":10420:10497   */\n      0x4e487b7100000000000000000000000000000000000000000000000000000000\n        /* \"#utility.yul\":10417:10418   */\n      0x00\n        /* \"#utility.yul\":10410:10498   */\n      mstore\n        /* \"#utility.yul\":10517:10521   */\n      0x22\n        /* \"#utility.yul\":10514:10515   */\n      0x04\n        /* \"#utility.yul\":10507:10522   */\n      mstore\n        /* \"#utility.yul\":10541:10545   */\n      0x24\n        /* \"#utility.yul\":10538:10539   */\n      0x00\n        /* \"#utility.yul\":10531:10546   */\n      revert\n        /* \"#utility.yul\":10558:10738   */\n    tag_151:\n        /* \"#utility.yul\":10606:10683   */\n      0x4e487b7100000000000000000000000000000000000000000000000000000000\n        /* \"#utility.yul\":10603:10604   */\n      0x00\n        /* \"#utility.yul\":10596:10684   */\n      mstore\n        /* \"#utility.yul\":10703:10707   */\n      0x41\n        /* \"#utility.yul\":10700:10701   */\n      0x04\n        /* \"#utility.yul\":10693:10708   */\n      mstore\n        /* \"#utility.yul\":10727:10731   */\n      0x24\n        /* \"#utility.yul\":10724:10725   */\n      0x00\n        /* \"#utility.yul\":10717:10732   */\n      revert\n        /* \"#utility.yul\":10744:10846   */\n    tag_122:\n      0x00\n        /* \"#utility.yul\":10836:10838   */\n      0x1f\n        /* \"#utility.yul\":10832:10839   */\n      not\n        /* \"#utility.yul\":10827:10829   */\n      0x1f\n        /* \"#utility.yul\":10820:10825   */\n      dup4\n        /* \"#utility.yul\":10816:10830   */\n      add\n        /* \"#utility.yul\":10812:10840   */\n      and\n        /* \"#utility.yul\":10802:10840   */\n      swap1\n      pop\n        /* \"#utility.yul\":10792:10846   */\n      swap2\n      swap1\n      pop\n      jump\t// out\n        /* \"#utility.yul\":10852:10974   */\n    tag_71:\n        /* \"#utility.yul\":10925:10949   */\n      tag_182\n        /* \"#utility.yul\":10943:10948   */\n      dup2\n        /* \"#utility.yul\":10925:10949   */\n      tag_98\n      jump\t// in\n    tag_182:\n        /* \"#utility.yul\":10918:10923   */\n      dup2\n        /* \"#utility.yul\":10915:10950   */\n      eq\n        /* \"#utility.yul\":10905:10907   */\n      tag_183\n      jumpi\n        /* \"#utility.yul\":10964:10965   */\n      0x00\n        /* \"#utility.yul\":10961:10962   */\n      dup1\n        /* \"#utility.yul\":10954:10966   */\n      revert\n        /* \"#utility.yul\":10905:10907   */\n    tag_183:\n        /* \"#utility.yul\":10895:10974   */\n      pop\n      jump\t// out\n        /* \"#utility.yul\":10980:11102   */\n    tag_79:\n        /* \"#utility.yul\":11053:11077   */\n      tag_185\n        /* \"#utility.yul\":11071:11076   */\n      dup2\n        /* \"#utility.yul\":11053:11077   */\n      tag_141\n      jump\t// in\n    tag_185:\n        /* \"#utility.yul\":11046:11051   */\n      dup2\n        /* \"#utility.yul\":11043:11078   */\n      eq\n        /* \"#utility.yul\":11033:11035   */\n      tag_186\n      jumpi\n        /* \"#utility.yul\":11092:11093   */\n      0x00\n        /* \"#utility.yul\":11089:11090   */\n      dup1\n        /* \"#utility.yul\":11082:11094   */\n      revert\n        /* \"#utility.yul\":11033:11035   */\n    tag_186:\n        /* \"#utility.yul\":11023:11102   */\n      pop\n      jump\t// out\n\n    auxdata: 0xa26469706673582212203bb968cca392ff4aa3c19eacceac3f143c007cf3dfb635a7c652d3c3998435f464736f6c63430008000033\n}\n",
				"bytecode": {
					"linkReferences": {},
					"object": "608060405234801561001057600080fd5b50610c0b806100206000396000f3fe608060405234801561001057600080fd5b50600436106100415760003560e01c8063112f54e3146100465780636a6cdab8146100765780637c9cd2bc146100a6575b600080fd5b610060600480360381019061005b919061070b565b6100c2565b60405161006d91906109a5565b60405180910390f35b610090600480360381019061008b91906106e2565b61025d565b60405161009d9190610983565b60405180910390f35b6100c060048036038101906100bb9190610747565b6103f6565b005b6100ca61056f565b6000808473ffffffffffffffffffffffffffffffffffffffff1673ffffffffffffffffffffffffffffffffffffffff1681526020019081526020016000208281548110610140577f4e487b7100000000000000000000000000000000000000000000000000000000600052603260045260246000fd5b90600052602060002090600402016040518060800160405290816000820160009054906101000a900473ffffffffffffffffffffffffffffffffffffffff1673ffffffffffffffffffffffffffffffffffffffff1673ffffffffffffffffffffffffffffffffffffffff1681526020016001820180546101bf90610b06565b80601f01602080910402602001604051908101604052809291908181526020018280546101eb90610b06565b80156102385780601f1061020d57610100808354040283529160200191610238565b820191906000526020600020905b81548152906001019060200180831161021b57829003601f168201915b5050505050815260200160028201548152602001600382015481525050905092915050565b60606000808373ffffffffffffffffffffffffffffffffffffffff1673ffffffffffffffffffffffffffffffffffffffff168152602001908152602001600020805480602002602001604051908101604052809291908181526020016000905b828210156103eb57838290600052602060002090600402016040518060800160405290816000820160009054906101000a900473ffffffffffffffffffffffffffffffffffffffff1673ffffffffffffffffffffffffffffffffffffffff1673ffffffffffffffffffffffffffffffffffffffff16815260200160018201805461034690610b06565b80601f016020809104026020016040519081016040528092919081815260200182805461037290610b06565b80156103bf5780601f10610394576101008083540402835291602001916103bf565b820191906000526020600020905b8154815290600101906020018083116103a257829003601f168201915b5050505050815260200160028201548152602001600382015481525050815260200190600101906102bd565b505050509050919050565b600060405180608001604052803373ffffffffffffffffffffffffffffffffffffffff168152602001838152602001428152602001600081525090506000803373ffffffffffffffffffffffffffffffffffffffff1673ffffffffffffffffffffffffffffffffffffffff16815260200190815260200160002081908060018154018082558091505060019003906000526020600020906004020160009091909190915060008201518160000160006101000a81548173ffffffffffffffffffffffffffffffffffffffff021916908373ffffffffffffffffffffffffffffffffffffffff16021790555060208201518160010190805190602001906104fd9291906105ad565b50604082015181600201556060820151816003015550503373ffffffffffffffffffffffffffffffffffffffff166040516105379061096e565b60405180910390207f603868ad8ed2ceedede940d1ef9840077b0cdf05154d52090b342a9d8b1a35fa60405160405180910390a35050565b6040518060800160405280600073ffffffffffffffffffffffffffffffffffffffff1681526020016060815260200160008152602001600081525090565b8280546105b990610b06565b90600052602060002090601f0160209004810192826105db5760008555610622565b82601f106105f457805160ff1916838001178555610622565b82800160010185558215610622579182015b82811115610621578251825591602001919060010190610606565b5b50905061062f9190610633565b5090565b5b8082111561064c576000816000905550600101610634565b5090565b600061066361065e846109f8565b6109c7565b90508281526020810184848401111561067b57600080fd5b610686848285610ac4565b509392505050565b60008135905061069d81610ba7565b92915050565b600082601f8301126106b457600080fd5b81356106c4848260208601610650565b91505092915050565b6000813590506106dc81610bbe565b92915050565b6000602082840312156106f457600080fd5b60006107028482850161068e565b91505092915050565b6000806040838503121561071e57600080fd5b600061072c8582860161068e565b925050602061073d858286016106cd565b9150509250929050565b60006020828403121561075957600080fd5b600082013567ffffffffffffffff81111561077357600080fd5b61077f848285016106a3565b91505092915050565b60006107948383610899565b905092915050565b6107a581610a88565b82525050565b60006107b682610a38565b6107c08185610a5b565b9350836020820285016107d285610a28565b8060005b8581101561080e57848403895281516107ef8582610788565b94506107fa83610a4e565b925060208a019950506001810190506107d6565b50829750879550505050505092915050565b600061082b82610a43565b6108358185610a6c565b9350610845818560208601610ad3565b61084e81610b96565b840191505092915050565b6000610866600e83610a7d565b91507f4e65772054776565742062793a200000000000000000000000000000000000006000830152600e82019050919050565b60006080830160008301516108b1600086018261079c565b50602083015184820360208601526108c98282610820565b91505060408301516108de604086018261095f565b5060608301516108f1606086018261095f565b508091505092915050565b6000608083016000830151610914600086018261079c565b506020830151848203602086015261092c8282610820565b9150506040830151610941604086018261095f565b506060830151610954606086018261095f565b508091505092915050565b61096881610aba565b82525050565b600061097982610859565b9150819050919050565b6000602082019050818103600083015261099d81846107ab565b905092915050565b600060208201905081810360008301526109bf81846108fc565b905092915050565b6000604051905081810181811067ffffffffffffffff821117156109ee576109ed610b67565b5b8060405250919050565b600067ffffffffffffffff821115610a1357610a12610b67565b5b601f19601f8301169050602081019050919050565b6000819050602082019050919050565b600081519050919050565b600081519050919050565b6000602082019050919050565b600082825260208201905092915050565b600082825260208201905092915050565b600081905092915050565b6000610a9382610a9a565b9050919050565b600073ffffffffffffffffffffffffffffffffffffffff82169050919050565b6000819050919050565b82818337600083830152505050565b60005b83811015610af1578082015181840152602081019050610ad6565b83811115610b00576000848401525b50505050565b60006002820490506001821680610b1e57607f821691505b60208210811415610b3257610b31610b38565b5b50919050565b7f4e487b7100000000000000000000000000000000000000000000000000000000600052602260045260246000fd5b7f4e487b7100000000000000000000000000000000000000000000000000000000600052604160045260246000fd5b6000601f19601f8301169050919050565b610bb081610a88565b8114610bbb57600080fd5b50565b610bc781610aba565b8114610bd257600080fd5b5056fea26469706673582212203bb968cca392ff4aa3c19eacceac3f143c007cf3dfb635a7c652d3c3998435f464736f6c63430008000033",
					"opcodes": "PUSH1 0x80 PUSH1 0x40 MSTORE CALLVALUE DUP1 ISZERO PUSH2 0x10 JUMPI PUSH1 0x0 DUP1 REVERT JUMPDEST POP PUSH2 0xC0B DUP1 PUSH2 0x20 PUSH1 0x0 CODECOPY PUSH1 0x0 RETURN INVALID PUSH1 0x80 PUSH1 0x40 MSTORE CALLVALUE DUP1 ISZERO PUSH2 0x10 JUMPI PUSH1 0x0 DUP1 REVERT JUMPDEST POP PUSH1 0x4 CALLDATASIZE LT PUSH2 0x41 JUMPI PUSH1 0x0 CALLDATALOAD PUSH1 0xE0 SHR DUP1 PUSH4 0x112F54E3 EQ PUSH2 0x46 JUMPI DUP1 PUSH4 0x6A6CDAB8 EQ PUSH2 0x76 JUMPI DUP1 PUSH4 0x7C9CD2BC EQ PUSH2 0xA6 JUMPI JUMPDEST PUSH1 0x0 DUP1 REVERT JUMPDEST PUSH2 0x60 PUSH1 0x4 DUP1 CALLDATASIZE SUB DUP2 ADD SWAP1 PUSH2 0x5B SWAP2 SWAP1 PUSH2 0x70B JUMP JUMPDEST PUSH2 0xC2 JUMP JUMPDEST PUSH1 0x40 MLOAD PUSH2 0x6D SWAP2 SWAP1 PUSH2 0x9A5 JUMP JUMPDEST PUSH1 0x40 MLOAD DUP1 SWAP2 SUB SWAP1 RETURN JUMPDEST PUSH2 0x90 PUSH1 0x4 DUP1 CALLDATASIZE SUB DUP2 ADD SWAP1 PUSH2 0x8B SWAP2 SWAP1 PUSH2 0x6E2 JUMP JUMPDEST PUSH2 0x25D JUMP JUMPDEST PUSH1 0x40 MLOAD PUSH2 0x9D SWAP2 SWAP1 PUSH2 0x983 JUMP JUMPDEST PUSH1 0x40 MLOAD DUP1 SWAP2 SUB SWAP1 RETURN JUMPDEST PUSH2 0xC0 PUSH1 0x4 DUP1 CALLDATASIZE SUB DUP2 ADD SWAP1 PUSH2 0xBB SWAP2 SWAP1 PUSH2 0x747 JUMP JUMPDEST PUSH2 0x3F6 JUMP JUMPDEST STOP JUMPDEST PUSH2 0xCA PUSH2 0x56F JUMP JUMPDEST PUSH1 0x0 DUP1 DUP5 PUSH20 0xFFFFFFFFFFFFFFFFFFFFFFFFFFFFFFFFFFFFFFFF AND PUSH20 0xFFFFFFFFFFFFFFFFFFFFFFFFFFFFFFFFFFFFFFFF AND DUP2 MSTORE PUSH1 0x20 ADD SWAP1 DUP2 MSTORE PUSH1 0x20 ADD PUSH1 0x0 KECCAK256 DUP3 DUP2 SLOAD DUP2 LT PUSH2 0x140 JUMPI PUSH32 0x4E487B7100000000000000000000000000000000000000000000000000000000 PUSH1 0x0 MSTORE PUSH1 0x32 PUSH1 0x4 MSTORE PUSH1 0x24 PUSH1 0x0 REVERT JUMPDEST SWAP1 PUSH1 0x0 MSTORE PUSH1 0x20 PUSH1 0x0 KECCAK256 SWAP1 PUSH1 0x4 MUL ADD PUSH1 0x40 MLOAD DUP1 PUSH1 0x80 ADD PUSH1 0x40 MSTORE SWAP1 DUP2 PUSH1 0x0 DUP3 ADD PUSH1 0x0 SWAP1 SLOAD SWAP1 PUSH2 0x100 EXP SWAP1 DIV PUSH20 0xFFFFFFFFFFFFFFFFFFFFFFFFFFFFFFFFFFFFFFFF AND PUSH20 0xFFFFFFFFFFFFFFFFFFFFFFFFFFFFFFFFFFFFFFFF AND PUSH20 0xFFFFFFFFFFFFFFFFFFFFFFFFFFFFFFFFFFFFFFFF AND DUP2 MSTORE PUSH1 0x20 ADD PUSH1 0x1 DUP3 ADD DUP1 SLOAD PUSH2 0x1BF SWAP1 PUSH2 0xB06 JUMP JUMPDEST DUP1 PUSH1 0x1F ADD PUSH1 0x20 DUP1 SWAP2 DIV MUL PUSH1 0x20 ADD PUSH1 0x40 MLOAD SWAP1 DUP2 ADD PUSH1 0x40 MSTORE DUP1 SWAP3 SWAP2 SWAP1 DUP2 DUP2 MSTORE PUSH1 0x20 ADD DUP3 DUP1 SLOAD PUSH2 0x1EB SWAP1 PUSH2 0xB06 JUMP JUMPDEST DUP1 ISZERO PUSH2 0x238 JUMPI DUP1 PUSH1 0x1F LT PUSH2 0x20D JUMPI PUSH2 0x100 DUP1 DUP4 SLOAD DIV MUL DUP4 MSTORE SWAP2 PUSH1 0x20 ADD SWAP2 PUSH2 0x238 JUMP JUMPDEST DUP3 ADD SWAP2 SWAP1 PUSH1 0x0 MSTORE PUSH1 0x20 PUSH1 0x0 KECCAK256 SWAP1 JUMPDEST DUP2 SLOAD DUP2 MSTORE SWAP1 PUSH1 0x1 ADD SWAP1 PUSH1 0x20 ADD DUP1 DUP4 GT PUSH2 0x21B JUMPI DUP3 SWAP1 SUB PUSH1 0x1F AND DUP3 ADD SWAP2 JUMPDEST POP POP POP POP POP DUP2 MSTORE PUSH1 0x20 ADD PUSH1 0x2 DUP3 ADD SLOAD DUP2 MSTORE PUSH1 0x20 ADD PUSH1 0x3 DUP3 ADD SLOAD DUP2 MSTORE POP POP SWAP1 POP SWAP3 SWAP2 POP POP JUMP JUMPDEST PUSH1 0x60 PUSH1 0x0 DUP1 DUP4 PUSH20 0xFFFFFFFFFFFFFFFFFFFFFFFFFFFFFFFFFFFFFFFF AND PUSH20 0xFFFFFFFFFFFFFFFFFFFFFFFFFFFFFFFFFFFFFFFF AND DUP2 MSTORE PUSH1 0x20 ADD SWAP1 DUP2 MSTORE PUSH1 0x20 ADD PUSH1 0x0 KECCAK256 DUP1 SLOAD DUP1 PUSH1 0x20 MUL PUSH1 0x20 ADD PUSH1 0x40 MLOAD SWAP1 DUP2 ADD PUSH1 0x40 MSTORE DUP1 SWAP3 SWAP2 SWAP1 DUP2 DUP2 MSTORE PUSH1 0x20 ADD PUSH1 0x0 SWAP1 JUMPDEST DUP3 DUP3 LT ISZERO PUSH2 0x3EB JUMPI DUP4 DUP3 SWAP1 PUSH1 0x0 MSTORE PUSH1 0x20 PUSH1 0x0 KECCAK256 SWAP1 PUSH1 0x4 MUL ADD PUSH1 0x40 MLOAD DUP1 PUSH1 0x80 ADD PUSH1 0x40 MSTORE SWAP1 DUP2 PUSH1 0x0 DUP3 ADD PUSH1 0x0 SWAP1 SLOAD SWAP1 PUSH2 0x100 EXP SWAP1 DIV PUSH20 0xFFFFFFFFFFFFFFFFFFFFFFFFFFFFFFFFFFFFFFFF AND PUSH20 0xFFFFFFFFFFFFFFFFFFFFFFFFFFFFFFFFFFFFFFFF AND PUSH20 0xFFFFFFFFFFFFFFFFFFFFFFFFFFFFFFFFFFFFFFFF AND DUP2 MSTORE PUSH1 0x20 ADD PUSH1 0x1 DUP3 ADD DUP1 SLOAD PUSH2 0x346 SWAP1 PUSH2 0xB06 JUMP JUMPDEST DUP1 PUSH1 0x1F ADD PUSH1 0x20 DUP1 SWAP2 DIV MUL PUSH1 0x20 ADD PUSH1 0x40 MLOAD SWAP1 DUP2 ADD PUSH1 0x40 MSTORE DUP1 SWAP3 SWAP2 SWAP1 DUP2 DUP2 MSTORE PUSH1 0x20 ADD DUP3 DUP1 SLOAD PUSH2 0x372 SWAP1 PUSH2 0xB06 JUMP JUMPDEST DUP1 ISZERO PUSH2 0x3BF JUMPI DUP1 PUSH1 0x1F LT PUSH2 0x394 JUMPI PUSH2 0x100 DUP1 DUP4 SLOAD DIV MUL DUP4 MSTORE SWAP2 PUSH1 0x20 ADD SWAP2 PUSH2 0x3BF JUMP JUMPDEST DUP3 ADD SWAP2 SWAP1 PUSH1 0x0 MSTORE PUSH1 0x20 PUSH1 0x0 KECCAK256 SWAP1 JUMPDEST DUP2 SLOAD DUP2 MSTORE SWAP1 PUSH1 0x1 ADD SWAP1 PUSH1 0x20 ADD DUP1 DUP4 GT PUSH2 0x3A2 JUMPI DUP3 SWAP1 SUB PUSH1 0x1F AND DUP3 ADD SWAP2 JUMPDEST POP POP POP POP POP DUP2 MSTORE PUSH1 0x20 ADD PUSH1 0x2 DUP3 ADD SLOAD DUP2 MSTORE PUSH1 0x20 ADD PUSH1 0x3 DUP3 ADD SLOAD DUP2 MSTORE POP POP DUP2 MSTORE PUSH1 0x20 ADD SWAP1 PUSH1 0x1 ADD SWAP1 PUSH2 0x2BD JUMP JUMPDEST POP POP POP POP SWAP1 POP SWAP2 SWAP1 POP JUMP JUMPDEST PUSH1 0x0 PUSH1 0x40 MLOAD DUP1 PUSH1 0x80 ADD PUSH1 0x40 MSTORE DUP1 CALLER PUSH20 0xFFFFFFFFFFFFFFFFFFFFFFFFFFFFFFFFFFFFFFFF AND DUP2 MSTORE PUSH1 0x20 ADD DUP4 DUP2 MSTORE PUSH1 0x20 ADD TIMESTAMP DUP2 MSTORE PUSH1 0x20 ADD PUSH1 0x0 DUP2 MSTORE POP SWAP1 POP PUSH1 0x0 DUP1 CALLER PUSH20 0xFFFFFFFFFFFFFFFFFFFFFFFFFFFFFFFFFFFFFFFF AND PUSH20 0xFFFFFFFFFFFFFFFFFFFFFFFFFFFFFFFFFFFFFFFF AND DUP2 MSTORE PUSH1 0x20 ADD SWAP1 DUP2 MSTORE PUSH1 0x20 ADD PUSH1 0x0 KECCAK256 DUP2 SWAP1 DUP1 PUSH1 0x1 DUP2 SLOAD ADD DUP1 DUP3 SSTORE DUP1 SWAP2 POP POP PUSH1 0x1 SWAP1 SUB SWAP1 PUSH1 0x0 MSTORE PUSH1 0x20 PUSH1 0x0 KECCAK256 SWAP1 PUSH1 0x4 MUL ADD PUSH1 0x0 SWAP1 SWAP2 SWAP1 SWAP2 SWAP1 SWAP2 POP PUSH1 0x0 DUP3 ADD MLOAD DUP2 PUSH1 0x0 ADD PUSH1 0x0 PUSH2 0x100 EXP DUP2 SLOAD DUP2 PUSH20 0xFFFFFFFFFFFFFFFFFFFFFFFFFFFFFFFFFFFFFFFF MUL NOT AND SWAP1 DUP4 PUSH20 0xFFFFFFFFFFFFFFFFFFFFFFFFFFFFFFFFFFFFFFFF AND MUL OR SWAP1 SSTORE POP PUSH1 0x20 DUP3 ADD MLOAD DUP2 PUSH1 0x1 ADD SWAP1 DUP1 MLOAD SWAP1 PUSH1 0x20 ADD SWAP1 PUSH2 0x4FD SWAP3 SWAP2 SWAP1 PUSH2 0x5AD JUMP JUMPDEST POP PUSH1 0x40 DUP3 ADD MLOAD DUP2 PUSH1 0x2 ADD SSTORE PUSH1 0x60 DUP3 ADD MLOAD DUP2 PUSH1 0x3 ADD SSTORE POP POP CALLER PUSH20 0xFFFFFFFFFFFFFFFFFFFFFFFFFFFFFFFFFFFFFFFF AND PUSH1 0x40 MLOAD PUSH2 0x537 SWAP1 PUSH2 0x96E JUMP JUMPDEST PUSH1 0x40 MLOAD DUP1 SWAP2 SUB SWAP1 KECCAK256 PUSH32 0x603868AD8ED2CEEDEDE940D1EF9840077B0CDF05154D52090B342A9D8B1A35FA PUSH1 0x40 MLOAD PUSH1 0x40 MLOAD DUP1 SWAP2 SUB SWAP1 LOG3 POP POP JUMP JUMPDEST PUSH1 0x40 MLOAD DUP1 PUSH1 0x80 ADD PUSH1 0x40 MSTORE DUP1 PUSH1 0x0 PUSH20 0xFFFFFFFFFFFFFFFFFFFFFFFFFFFFFFFFFFFFFFFF AND DUP2 MSTORE PUSH1 0x20 ADD PUSH1 0x60 DUP2 MSTORE PUSH1 0x20 ADD PUSH1 0x0 DUP2 MSTORE PUSH1 0x20 ADD PUSH1 0x0 DUP2 MSTORE POP SWAP1 JUMP JUMPDEST DUP3 DUP1 SLOAD PUSH2 0x5B9 SWAP1 PUSH2 0xB06 JUMP JUMPDEST SWAP1 PUSH1 0x0 MSTORE PUSH1 0x20 PUSH1 0x0 KECCAK256 SWAP1 PUSH1 0x1F ADD PUSH1 0x20 SWAP1 DIV DUP2 ADD SWAP3 DUP3 PUSH2 0x5DB JUMPI PUSH1 0x0 DUP6 SSTORE PUSH2 0x622 JUMP JUMPDEST DUP3 PUSH1 0x1F LT PUSH2 0x5F4 JUMPI DUP1 MLOAD PUSH1 0xFF NOT AND DUP4 DUP1 ADD OR DUP6 SSTORE PUSH2 0x622 JUMP JUMPDEST DUP3 DUP1 ADD PUSH1 0x1 ADD DUP6 SSTORE DUP3 ISZERO PUSH2 0x622 JUMPI SWAP2 DUP3 ADD JUMPDEST DUP3 DUP2 GT ISZERO PUSH2 0x621 JUMPI DUP3 MLOAD DUP3 SSTORE SWAP2 PUSH1 0x20 ADD SWAP2 SWAP1 PUSH1 0x1 ADD SWAP1 PUSH2 0x606 JUMP JUMPDEST JUMPDEST POP SWAP1 POP PUSH2 0x62F SWAP2 SWAP1 PUSH2 0x633 JUMP JUMPDEST POP SWAP1 JUMP JUMPDEST JUMPDEST DUP1 DUP3 GT ISZERO PUSH2 0x64C JUMPI PUSH1 0x0 DUP2 PUSH1 0x0 SWAP1 SSTORE POP PUSH1 0x1 ADD PUSH2 0x634 JUMP JUMPDEST POP SWAP1 JUMP JUMPDEST PUSH1 0x0 PUSH2 0x663 PUSH2 0x65E DUP5 PUSH2 0x9F8 JUMP JUMPDEST PUSH2 0x9C7 JUMP JUMPDEST SWAP1 POP DUP3 DUP2 MSTORE PUSH1 0x20 DUP2 ADD DUP5 DUP5 DUP5 ADD GT ISZERO PUSH2 0x67B JUMPI PUSH1 0x0 DUP1 REVERT JUMPDEST PUSH2 0x686 DUP5 DUP3 DUP6 PUSH2 0xAC4 JUMP JUMPDEST POP SWAP4 SWAP3 POP POP POP JUMP JUMPDEST PUSH1 0x0 DUP2 CALLDATALOAD SWAP1 POP PUSH2 0x69D DUP2 PUSH2 0xBA7 JUMP JUMPDEST SWAP3 SWAP2 POP POP JUMP JUMPDEST PUSH1 0x0 DUP3 PUSH1 0x1F DUP4 ADD SLT PUSH2 0x6B4 JUMPI PUSH1 0x0 DUP1 REVERT JUMPDEST DUP2 CALLDATALOAD PUSH2 0x6C4 DUP5 DUP3 PUSH1 0x20 DUP7 ADD PUSH2 0x650 JUMP JUMPDEST SWAP2 POP POP SWAP3 SWAP2 POP POP JUMP JUMPDEST PUSH1 0x0 DUP2 CALLDATALOAD SWAP1 POP PUSH2 0x6DC DUP2 PUSH2 0xBBE JUMP JUMPDEST SWAP3 SWAP2 POP POP JUMP JUMPDEST PUSH1 0x0 PUSH1 0x20 DUP3 DUP5 SUB SLT ISZERO PUSH2 0x6F4 JUMPI PUSH1 0x0 DUP1 REVERT JUMPDEST PUSH1 0x0 PUSH2 0x702 DUP5 DUP3 DUP6 ADD PUSH2 0x68E JUMP JUMPDEST SWAP2 POP POP SWAP3 SWAP2 POP POP JUMP JUMPDEST PUSH1 0x0 DUP1 PUSH1 0x40 DUP4 DUP6 SUB SLT ISZERO PUSH2 0x71E JUMPI PUSH1 0x0 DUP1 REVERT JUMPDEST PUSH1 0x0 PUSH2 0x72C DUP6 DUP3 DUP7 ADD PUSH2 0x68E JUMP JUMPDEST SWAP3 POP POP PUSH1 0x20 PUSH2 0x73D DUP6 DUP3 DUP7 ADD PUSH2 0x6CD JUMP JUMPDEST SWAP2 POP POP SWAP3 POP SWAP3 SWAP1 POP JUMP JUMPDEST PUSH1 0x0 PUSH1 0x20 DUP3 DUP5 SUB SLT ISZERO PUSH2 0x759 JUMPI PUSH1 0x0 DUP1 REVERT JUMPDEST PUSH1 0x0 DUP3 ADD CALLDATALOAD PUSH8 0xFFFFFFFFFFFFFFFF DUP2 GT ISZERO PUSH2 0x773 JUMPI PUSH1 0x0 DUP1 REVERT JUMPDEST PUSH2 0x77F DUP5 DUP3 DUP6 ADD PUSH2 0x6A3 JUMP JUMPDEST SWAP2 POP POP SWAP3 SWAP2 POP POP JUMP JUMPDEST PUSH1 0x0 PUSH2 0x794 DUP4 DUP4 PUSH2 0x899 JUMP JUMPDEST SWAP1 POP SWAP3 SWAP2 POP POP JUMP JUMPDEST PUSH2 0x7A5 DUP2 PUSH2 0xA88 JUMP JUMPDEST DUP3 MSTORE POP POP JUMP JUMPDEST PUSH1 0x0 PUSH2 0x7B6 DUP3 PUSH2 0xA38 JUMP JUMPDEST PUSH2 0x7C0 DUP2 DUP6 PUSH2 0xA5B JUMP JUMPDEST SWAP4 POP DUP4 PUSH1 0x20 DUP3 MUL DUP6 ADD PUSH2 0x7D2 DUP6 PUSH2 0xA28 JUMP JUMPDEST DUP1 PUSH1 0x0 JUMPDEST DUP6 DUP2 LT ISZERO PUSH2 0x80E JUMPI DUP5 DUP5 SUB DUP10 MSTORE DUP2 MLOAD PUSH2 0x7EF DUP6 DUP3 PUSH2 0x788 JUMP JUMPDEST SWAP5 POP PUSH2 0x7FA DUP4 PUSH2 0xA4E JUMP JUMPDEST SWAP3 POP PUSH1 0x20 DUP11 ADD SWAP10 POP POP PUSH1 0x1 DUP2 ADD SWAP1 POP PUSH2 0x7D6 JUMP JUMPDEST POP DUP3 SWAP8 POP DUP8 SWAP6 POP POP POP POP POP POP SWAP3 SWAP2 POP POP JUMP JUMPDEST PUSH1 0x0 PUSH2 0x82B DUP3 PUSH2 0xA43 JUMP JUMPDEST PUSH2 0x835 DUP2 DUP6 PUSH2 0xA6C JUMP JUMPDEST SWAP4 POP PUSH2 0x845 DUP2 DUP6 PUSH1 0x20 DUP7 ADD PUSH2 0xAD3 JUMP JUMPDEST PUSH2 0x84E DUP2 PUSH2 0xB96 JUMP JUMPDEST DUP5 ADD SWAP2 POP POP SWAP3 SWAP2 POP POP JUMP JUMPDEST PUSH1 0x0 PUSH2 0x866 PUSH1 0xE DUP4 PUSH2 0xA7D JUMP JUMPDEST SWAP2 POP PUSH32 0x4E65772054776565742062793A20000000000000000000000000000000000000 PUSH1 0x0 DUP4 ADD MSTORE PUSH1 0xE DUP3 ADD SWAP1 POP SWAP2 SWAP1 POP JUMP JUMPDEST PUSH1 0x0 PUSH1 0x80 DUP4 ADD PUSH1 0x0 DUP4 ADD MLOAD PUSH2 0x8B1 PUSH1 0x0 DUP7 ADD DUP3 PUSH2 0x79C JUMP JUMPDEST POP PUSH1 0x20 DUP4 ADD MLOAD DUP5 DUP3 SUB PUSH1 0x20 DUP7 ADD MSTORE PUSH2 0x8C9 DUP3 DUP3 PUSH2 0x820 JUMP JUMPDEST SWAP2 POP POP PUSH1 0x40 DUP4 ADD MLOAD PUSH2 0x8DE PUSH1 0x40 DUP7 ADD DUP3 PUSH2 0x95F JUMP JUMPDEST POP PUSH1 0x60 DUP4 ADD MLOAD PUSH2 0x8F1 PUSH1 0x60 DUP7 ADD DUP3 PUSH2 0x95F JUMP JUMPDEST POP DUP1 SWAP2 POP POP SWAP3 SWAP2 POP POP JUMP JUMPDEST PUSH1 0x0 PUSH1 0x80 DUP4 ADD PUSH1 0x0 DUP4 ADD MLOAD PUSH2 0x914 PUSH1 0x0 DUP7 ADD DUP3 PUSH2 0x79C JUMP JUMPDEST POP PUSH1 0x20 DUP4 ADD MLOAD DUP5 DUP3 SUB PUSH1 0x20 DUP7 ADD MSTORE PUSH2 0x92C DUP3 DUP3 PUSH2 0x820 JUMP JUMPDEST SWAP2 POP POP PUSH1 0x40 DUP4 ADD MLOAD PUSH2 0x941 PUSH1 0x40 DUP7 ADD DUP3 PUSH2 0x95F JUMP JUMPDEST POP PUSH1 0x60 DUP4 ADD MLOAD PUSH2 0x954 PUSH1 0x60 DUP7 ADD DUP3 PUSH2 0x95F JUMP JUMPDEST POP DUP1 SWAP2 POP POP SWAP3 SWAP2 POP POP JUMP JUMPDEST PUSH2 0x968 DUP2 PUSH2 0xABA JUMP JUMPDEST DUP3 MSTORE POP POP JUMP JUMPDEST PUSH1 0x0 PUSH2 0x979 DUP3 PUSH2 0x859 JUMP JUMPDEST SWAP2 POP DUP2 SWAP1 POP SWAP2 SWAP1 POP JUMP JUMPDEST PUSH1 0x0 PUSH1 0x20 DUP3 ADD SWAP1 POP DUP2 DUP2 SUB PUSH1 0x0 DUP4 ADD MSTORE PUSH2 0x99D DUP2 DUP5 PUSH2 0x7AB JUMP JUMPDEST SWAP1 POP SWAP3 SWAP2 POP POP JUMP JUMPDEST PUSH1 0x0 PUSH1 0x20 DUP3 ADD SWAP1 POP DUP2 DUP2 SUB PUSH1 0x0 DUP4 ADD MSTORE PUSH2 0x9BF DUP2 DUP5 PUSH2 0x8FC JUMP JUMPDEST SWAP1 POP SWAP3 SWAP2 POP POP JUMP JUMPDEST PUSH1 0x0 PUSH1 0x40 MLOAD SWAP1 POP DUP2 DUP2 ADD DUP2 DUP2 LT PUSH8 0xFFFFFFFFFFFFFFFF DUP3 GT OR ISZERO PUSH2 0x9EE JUMPI PUSH2 0x9ED PUSH2 0xB67 JUMP JUMPDEST JUMPDEST DUP1 PUSH1 0x40 MSTORE POP SWAP2 SWAP1 POP JUMP JUMPDEST PUSH1 0x0 PUSH8 0xFFFFFFFFFFFFFFFF DUP3 GT ISZERO PUSH2 0xA13 JUMPI PUSH2 0xA12 PUSH2 0xB67 JUMP JUMPDEST JUMPDEST PUSH1 0x1F NOT PUSH1 0x1F DUP4 ADD AND SWAP1 POP PUSH1 0x20 DUP2 ADD SWAP1 POP SWAP2 SWAP1 POP JUMP JUMPDEST PUSH1 0x0 DUP2 SWAP1 POP PUSH1 0x20 DUP3 ADD SWAP1 POP SWAP2 SWAP1 POP JUMP JUMPDEST PUSH1 0x0 DUP2 MLOAD SWAP1 POP SWAP2 SWAP1 POP JUMP JUMPDEST PUSH1 0x0 DUP2 MLOAD SWAP1 POP SWAP2 SWAP1 POP JUMP JUMPDEST PUSH1 0x0 PUSH1 0x20 DUP3 ADD SWAP1 POP SWAP2 SWAP1 POP JUMP JUMPDEST PUSH1 0x0 DUP3 DUP3 MSTORE PUSH1 0x20 DUP3 ADD SWAP1 POP SWAP3 SWAP2 POP POP JUMP JUMPDEST PUSH1 0x0 DUP3 DUP3 MSTORE PUSH1 0x20 DUP3 ADD SWAP1 POP SWAP3 SWAP2 POP POP JUMP JUMPDEST PUSH1 0x0 DUP2 SWAP1 POP SWAP3 SWAP2 POP POP JUMP JUMPDEST PUSH1 0x0 PUSH2 0xA93 DUP3 PUSH2 0xA9A JUMP JUMPDEST SWAP1 POP SWAP2 SWAP1 POP JUMP JUMPDEST PUSH1 0x0 PUSH20 0xFFFFFFFFFFFFFFFFFFFFFFFFFFFFFFFFFFFFFFFF DUP3 AND SWAP1 POP SWAP2 SWAP1 POP JUMP JUMPDEST PUSH1 0x0 DUP2 SWAP1 POP SWAP2 SWAP1 POP JUMP JUMPDEST DUP3 DUP2 DUP4 CALLDATACOPY PUSH1 0x0 DUP4 DUP4 ADD MSTORE POP POP POP JUMP JUMPDEST PUSH1 0x0 JUMPDEST DUP4 DUP2 LT ISZERO PUSH2 0xAF1 JUMPI DUP1 DUP3 ADD MLOAD DUP2 DUP5 ADD MSTORE PUSH1 0x20 DUP2 ADD SWAP1 POP PUSH2 0xAD6 JUMP JUMPDEST DUP4 DUP2 GT ISZERO PUSH2 0xB00 JUMPI PUSH1 0x0 DUP5 DUP5 ADD MSTORE JUMPDEST POP POP POP POP JUMP JUMPDEST PUSH1 0x0 PUSH1 0x2 DUP3 DIV SWAP1 POP PUSH1 0x1 DUP3 AND DUP1 PUSH2 0xB1E JUMPI PUSH1 0x7F DUP3 AND SWAP2 POP JUMPDEST PUSH1 0x20 DUP3 LT DUP2 EQ ISZERO PUSH2 0xB32 JUMPI PUSH2 0xB31 PUSH2 0xB38 JUMP JUMPDEST JUMPDEST POP SWAP2 SWAP1 POP JUMP JUMPDEST PUSH32 0x4E487B7100000000000000000000000000000000000000000000000000000000 PUSH1 0x0 MSTORE PUSH1 0x22 PUSH1 0x4 MSTORE PUSH1 0x24 PUSH1 0x0 REVERT JUMPDEST PUSH32 0x4E487B7100000000000000000000000000000000000000000000000000000000 PUSH1 0x0 MSTORE PUSH1 0x41 PUSH1 0x4 MSTORE PUSH1 0x24 PUSH1 0x0 REVERT JUMPDEST PUSH1 0x0 PUSH1 0x1F NOT PUSH1 0x1F DUP4 ADD AND SWAP1 POP SWAP2 SWAP1 POP JUMP JUMPDEST PUSH2 0xBB0 DUP2 PUSH2 0xA88 JUMP JUMPDEST DUP2 EQ PUSH2 0xBBB JUMPI PUSH1 0x0 DUP1 REVERT JUMPDEST POP JUMP JUMPDEST PUSH2 0xBC7 DUP2 PUSH2 0xABA JUMP JUMPDEST DUP2 EQ PUSH2 0xBD2 JUMPI PUSH1 0x0 DUP1 REVERT JUMPDEST POP JUMP INVALID LOG2 PUSH5 0x6970667358 0x22 SLT KECCAK256 EXTCODESIZE 0xB9 PUSH9 0xCCA392FF4AA3C19EAC 0xCE 0xAC EXTCODEHASH EQ EXTCODECOPY STOP PUSH29 0xF3DFB635A7C652D3C3998435F464736F6C634300080000330000000000 "
				},
				"gasEstimates": {
					"creation": {
						"codeDepositCost": "616600",
						"executionCost": "651",
						"totalCost": "617251"
					},
					"external": {
						"createTweet(string)": "infinite",
						"getAllTwetts(address)": "infinite",
						"getTweet(address,uint256)": "infinite"
					}
				},
				"methodIdentifiers": {
					"createTweet(string)": "7c9cd2bc",
					"getAllTwetts(address)": "6a6cdab8",
					"getTweet(address,uint256)": "112f54e3"
				}
			},
			"storageLayout": {
				"storage": [
					{
						"astId": 16,
						"contract": "twitterCopy.sol:Twitter",
						"label": "UserTwetts",
						"offset": 0,
						"slot": "0",
						"type": "t_mapping(t_address,t_array(t_struct(Tweet)10_storage)dyn_storage)"
					}
				],
				"types": {
					"t_address": {
						"encoding": "inplace",
						"label": "address",
						"numberOfBytes": "20"
					},
					"t_array(t_struct(Tweet)10_storage)dyn_storage": {
						"base": "t_struct(Tweet)10_storage",
						"encoding": "dynamic_array",
						"label": "struct Twitter.Tweet[]",
						"numberOfBytes": "32"
					},
					"t_mapping(t_address,t_array(t_struct(Tweet)10_storage)dyn_storage)": {
						"encoding": "mapping",
						"key": "t_address",
						"label": "mapping(address => struct Twitter.Tweet[])",
						"numberOfBytes": "32",
						"value": "t_array(t_struct(Tweet)10_storage)dyn_storage"
					},
					"t_string_storage": {
						"encoding": "bytes",
						"label": "string",
						"numberOfBytes": "32"
					},
					"t_struct(Tweet)10_storage": {
						"encoding": "inplace",
						"label": "struct Twitter.Tweet",
						"members": [
							{
								"astId": 3,
								"contract": "twitterCopy.sol:Twitter",
								"label": "author",
								"offset": 0,
								"slot": "0",
								"type": "t_address"
							},
							{
								"astId": 5,
								"contract": "twitterCopy.sol:Twitter",
								"label": "content",
								"offset": 0,
								"slot": "1",
								"type": "t_string_storage"
							},
							{
								"astId": 7,
								"contract": "twitterCopy.sol:Twitter",
								"label": "TimeStamp",
								"offset": 0,
								"slot": "2",
								"type": "t_uint256"
							},
							{
								"astId": 9,
								"contract": "twitterCopy.sol:Twitter",
								"label": "likes",
								"offset": 0,
								"slot": "3",
								"type": "t_uint256"
							}
						],
						"numberOfBytes": "128"
					},
					"t_uint256": {
						"encoding": "inplace",
						"label": "uint256",
						"numberOfBytes": "32"
					}
				}
			},
			"userdoc": {
				"kind": "user",
				"methods": {},
				"version": 1
			}
		}
	}
}