{
	"twitterCopy.sol": {
		"Twitter": {
			"abi": [
				{
					"inputs": [],
					"stateMutability": "nonpayable",
					"type": "constructor"
				},
				{
					"anonymous": false,
					"inputs": [
						{
							"indexed": true,
							"internalType": "address",
							"name": "liker",
							"type": "address"
						},
						{
							"indexed": true,
							"internalType": "address",
							"name": "author",
							"type": "address"
						},
						{
							"indexed": true,
							"internalType": "uint64",
							"name": "likeCount",
							"type": "uint64"
						},
						{
							"indexed": false,
							"internalType": "uint256",
							"name": "timestamp",
							"type": "uint256"
						}
					],
					"name": "TweetLiked",
					"type": "event"
				},
				{
					"anonymous": false,
					"inputs": [
						{
							"indexed": true,
							"internalType": "address",
							"name": "unliker",
							"type": "address"
						},
						{
							"indexed": true,
							"internalType": "address",
							"name": "author",
							"type": "address"
						},
						{
							"indexed": true,
							"internalType": "uint64",
							"name": "likeCount",
							"type": "uint64"
						},
						{
							"indexed": false,
							"internalType": "uint256",
							"name": "timestamp",
							"type": "uint256"
						}
					],
					"name": "TweetUnlike",
					"type": "event"
				},
				{
					"anonymous": false,
					"inputs": [
						{
							"indexed": true,
							"internalType": "string",
							"name": "notify",
							"type": "string"
						},
						{
							"indexed": true,
							"internalType": "address",
							"name": "tweetHost",
							"type": "address"
						},
						{
							"indexed": true,
							"internalType": "string",
							"name": "content",
							"type": "string"
						},
						{
							"indexed": false,
							"internalType": "uint256",
							"name": "timestamp",
							"type": "uint256"
						}
					],
					"name": "newTweet",
					"type": "event"
				},
				{
					"inputs": [
						{
							"internalType": "uint32",
							"name": "newMaxLength",
							"type": "uint32"
						}
					],
					"name": "changeTweetLength",
					"outputs": [],
					"stateMutability": "nonpayable",
					"type": "function"
				},
				{
					"inputs": [
						{
							"internalType": "string",
							"name": "_tweet",
							"type": "string"
						}
					],
					"name": "createTweet",
					"outputs": [],
					"stateMutability": "nonpayable",
					"type": "function"
				},
				{
					"inputs": [
						{
							"internalType": "address",
							"name": "author",
							"type": "address"
						},
						{
							"internalType": "uint256",
							"name": "_id",
							"type": "uint256"
						}
					],
					"name": "dislikeTweet",
					"outputs": [],
					"stateMutability": "nonpayable",
					"type": "function"
				},
				{
					"inputs": [
						{
							"internalType": "address",
							"name": "_owner",
							"type": "address"
						}
					],
					"name": "getAllTwetts",
					"outputs": [
						{
							"components": [
								{
									"internalType": "uint256",
									"name": "ID",
									"type": "uint256"
								},
								{
									"internalType": "address",
									"name": "author",
									"type": "address"
								},
								{
									"internalType": "string",
									"name": "content",
									"type": "string"
								},
								{
									"internalType": "uint256",
									"name": "TimeStamp",
									"type": "uint256"
								},
								{
									"internalType": "uint64",
									"name": "likes",
									"type": "uint64"
								}
							],
							"internalType": "struct Twitter.Tweet[]",
							"name": "",
							"type": "tuple[]"
						}
					],
					"stateMutability": "view",
					"type": "function"
				},
				{
					"inputs": [
						{
							"internalType": "address",
							"name": "user",
							"type": "address"
						},
						{
							"internalType": "uint256",
							"name": "_i",
							"type": "uint256"
						}
					],
					"name": "getTweet",
					"outputs": [
						{
							"components": [
								{
									"internalType": "uint256",
									"name": "ID",
									"type": "uint256"
								},
								{
									"internalType": "address",
									"name": "author",
									"type": "address"
								},
								{
									"internalType": "string",
									"name": "content",
									"type": "string"
								},
								{
									"internalType": "uint256",
									"name": "TimeStamp",
									"type": "uint256"
								},
								{
									"internalType": "uint64",
									"name": "likes",
									"type": "uint64"
								}
							],
							"internalType": "struct Twitter.Tweet",
							"name": "",
							"type": "tuple"
						}
					],
					"stateMutability": "view",
					"type": "function"
				},
				{
					"inputs": [],
					"name": "getTweetLength",
					"outputs": [
						{
							"internalType": "uint32",
							"name": "",
							"type": "uint32"
						}
					],
					"stateMutability": "view",
					"type": "function"
				},
				{
					"inputs": [
						{
							"internalType": "address",
							"name": "author",
							"type": "address"
						},
						{
							"internalType": "uint256",
							"name": "_id",
							"type": "uint256"
						}
					],
					"name": "likeTweet",
					"outputs": [],
					"stateMutability": "nonpayable",
					"type": "function"
				}
			],
			"devdoc": {
				"kind": "dev",
				"methods": {},
				"version": 1
			},
			"evm": {
				"assembly": "    /* \"twitterCopy.sol\":64:2531  contract Twitter{... */\n  mstore(0x40, 0x80)\n    /* \"twitterCopy.sol\":765:768  280 */\n  0x0118\n    /* \"twitterCopy.sol\":737:768  uint32 private MAX_LENGTH = 280 */\n  0x02\n  exp(0x0100, 0x00)\n  dup2\n  sload\n  dup2\n  0xffffffff\n  mul\n  not\n  and\n  swap1\n  dup4\n  0xffffffff\n  and\n  mul\n  or\n  swap1\n  sstore\n  pop\n    /* \"twitterCopy.sol\":117:167  constructor(){... */\n  callvalue\n  dup1\n  iszero\n  tag_1\n  jumpi\n  0x00\n  dup1\n  revert\ntag_1:\n  pop\n    /* \"twitterCopy.sol\":149:159  msg.sender */\n  caller\n    /* \"twitterCopy.sol\":141:146  owner */\n  0x00\n  dup1\n    /* \"twitterCopy.sol\":141:159  owner = msg.sender */\n  0x0100\n  exp\n  dup2\n  sload\n  dup2\n  0xffffffffffffffffffffffffffffffffffffffff\n  mul\n  not\n  and\n  swap1\n  dup4\n  0xffffffffffffffffffffffffffffffffffffffff\n  and\n  mul\n  or\n  swap1\n  sstore\n  pop\n    /* \"twitterCopy.sol\":64:2531  contract Twitter{... */\n  dataSize(sub_0)\n  dup1\n  dataOffset(sub_0)\n  0x00\n  codecopy\n  0x00\n  return\nstop\n\nsub_0: assembly {\n        /* \"twitterCopy.sol\":64:2531  contract Twitter{... */\n      mstore(0x40, 0x80)\n      callvalue\n      dup1\n      iszero\n      tag_1\n      jumpi\n      0x00\n      dup1\n      revert\n    tag_1:\n      pop\n      jumpi(tag_2, lt(calldatasize, 0x04))\n      shr(0xe0, calldataload(0x00))\n      dup1\n      0x6a6cdab8\n      gt\n      tag_10\n      jumpi\n      dup1\n      0x6a6cdab8\n      eq\n      tag_6\n      jumpi\n      dup1\n      0x7c9cd2bc\n      eq\n      tag_7\n      jumpi\n      dup1\n      0xa2afce88\n      eq\n      tag_8\n      jumpi\n      dup1\n      0xae775e95\n      eq\n      tag_9\n      jumpi\n      jump(tag_2)\n    tag_10:\n      dup1\n      0x112f54e3\n      eq\n      tag_3\n      jumpi\n      dup1\n      0x318ea667\n      eq\n      tag_4\n      jumpi\n      dup1\n      0x63378216\n      eq\n      tag_5\n      jumpi\n    tag_2:\n      0x00\n      dup1\n      revert\n        /* \"twitterCopy.sol\":1671:1791  function getTweet(address user, uint _i)external view returns (Tweet memory){... */\n    tag_3:\n      tag_11\n      0x04\n      dup1\n      calldatasize\n      sub\n      dup2\n      add\n      swap1\n      tag_12\n      swap2\n      swap1\n      tag_13\n      jump\t// in\n    tag_12:\n      tag_14\n      jump\t// in\n    tag_11:\n      mload(0x40)\n      tag_15\n      swap2\n      swap1\n      tag_16\n      jump\t// in\n    tag_15:\n      mload(0x40)\n      dup1\n      swap2\n      sub\n      swap1\n      return\n        /* \"twitterCopy.sol\":890:998  function changeTweetLength(uint32 newMaxLength) public OnlyOwner{... */\n    tag_4:\n      tag_17\n      0x04\n      dup1\n      calldatasize\n      sub\n      dup2\n      add\n      swap1\n      tag_18\n      swap2\n      swap1\n      tag_19\n      jump\t// in\n    tag_18:\n      tag_20\n      jump\t// in\n    tag_17:\n      stop\n        /* \"twitterCopy.sol\":1927:2205  function likeTweet(address author, uint256 _id) external {... */\n    tag_5:\n      tag_21\n      0x04\n      dup1\n      calldatasize\n      sub\n      dup2\n      add\n      swap1\n      tag_22\n      swap2\n      swap1\n      tag_13\n      jump\t// in\n    tag_22:\n      tag_23\n      jump\t// in\n    tag_21:\n      stop\n        /* \"twitterCopy.sol\":1799:1919  function getAllTwetts(address _owner) external view returns (Tweet[] memory){... */\n    tag_6:\n      tag_24\n      0x04\n      dup1\n      calldatasize\n      sub\n      dup2\n      add\n      swap1\n      tag_25\n      swap2\n      swap1\n      tag_26\n      jump\t// in\n    tag_25:\n      tag_27\n      jump\t// in\n    tag_24:\n      mload(0x40)\n      tag_28\n      swap2\n      swap1\n      tag_29\n      jump\t// in\n    tag_28:\n      mload(0x40)\n      dup1\n      swap2\n      sub\n      swap1\n      return\n        /* \"twitterCopy.sol\":1103:1663  function createTweet(string memory _tweet) external {... */\n    tag_7:\n      tag_30\n      0x04\n      dup1\n      calldatasize\n      sub\n      dup2\n      add\n      swap1\n      tag_31\n      swap2\n      swap1\n      tag_32\n      jump\t// in\n    tag_31:\n      tag_33\n      jump\t// in\n    tag_30:\n      stop\n        /* \"twitterCopy.sol\":1006:1095  function getTweetLength()public view returns (uint32){... */\n    tag_8:\n      tag_34\n      tag_35\n      jump\t// in\n    tag_34:\n      mload(0x40)\n      tag_36\n      swap2\n      swap1\n      tag_37\n      jump\t// in\n    tag_36:\n      mload(0x40)\n      dup1\n      swap2\n      sub\n      swap1\n      return\n        /* \"twitterCopy.sol\":2213:2526  function dislikeTweet(address author, uint256 _id) external {... */\n    tag_9:\n      tag_38\n      0x04\n      dup1\n      calldatasize\n      sub\n      dup2\n      add\n      swap1\n      tag_39\n      swap2\n      swap1\n      tag_13\n      jump\t// in\n    tag_39:\n      tag_40\n      jump\t// in\n    tag_38:\n      stop\n        /* \"twitterCopy.sol\":1671:1791  function getTweet(address user, uint _i)external view returns (Tweet memory){... */\n    tag_14:\n        /* \"twitterCopy.sol\":1734:1746  Tweet memory */\n      tag_41\n      tag_42\n      jump\t// in\n    tag_41:\n        /* \"twitterCopy.sol\":1763:1773  UserTwetts */\n      0x01\n        /* \"twitterCopy.sol\":1763:1779  UserTwetts[user] */\n      0x00\n        /* \"twitterCopy.sol\":1774:1778  user */\n      dup5\n        /* \"twitterCopy.sol\":1763:1779  UserTwetts[user] */\n      0xffffffffffffffffffffffffffffffffffffffff\n      and\n      0xffffffffffffffffffffffffffffffffffffffff\n      and\n      dup2\n      mstore\n      0x20\n      add\n      swap1\n      dup2\n      mstore\n      0x20\n      add\n      0x00\n      keccak256\n        /* \"twitterCopy.sol\":1780:1782  _i */\n      dup3\n        /* \"twitterCopy.sol\":1763:1783  UserTwetts[user][_i] */\n      dup2\n      sload\n      dup2\n      lt\n      tag_44\n      jumpi\n      tag_45\n      tag_46\n      jump\t// in\n    tag_45:\n    tag_44:\n      swap1\n      0x00\n      mstore\n      keccak256(0x00, 0x20)\n      swap1\n      0x05\n      mul\n      add\n        /* \"twitterCopy.sol\":1756:1783  return UserTwetts[user][_i] */\n      mload(0x40)\n      dup1\n      0xa0\n      add\n      0x40\n      mstore\n      swap1\n      dup2\n      0x00\n      dup3\n      add\n      sload\n      dup2\n      mstore\n      0x20\n      add\n      0x01\n      dup3\n      add\n      0x00\n      swap1\n      sload\n      swap1\n      0x0100\n      exp\n      swap1\n      div\n      0xffffffffffffffffffffffffffffffffffffffff\n      and\n      0xffffffffffffffffffffffffffffffffffffffff\n      and\n      0xffffffffffffffffffffffffffffffffffffffff\n      and\n      dup2\n      mstore\n      0x20\n      add\n      0x02\n      dup3\n      add\n      dup1\n      sload\n      tag_48\n      swap1\n      tag_49\n      jump\t// in\n    tag_48:\n      dup1\n      0x1f\n      add\n      0x20\n      dup1\n      swap2\n      div\n      mul\n      0x20\n      add\n      mload(0x40)\n      swap1\n      dup2\n      add\n      0x40\n      mstore\n      dup1\n      swap3\n      swap2\n      swap1\n      dup2\n      dup2\n      mstore\n      0x20\n      add\n      dup3\n      dup1\n      sload\n      tag_50\n      swap1\n      tag_49\n      jump\t// in\n    tag_50:\n      dup1\n      iszero\n      tag_51\n      jumpi\n      dup1\n      0x1f\n      lt\n      tag_52\n      jumpi\n      0x0100\n      dup1\n      dup4\n      sload\n      div\n      mul\n      dup4\n      mstore\n      swap2\n      0x20\n      add\n      swap2\n      jump(tag_51)\n    tag_52:\n      dup3\n      add\n      swap2\n      swap1\n      0x00\n      mstore\n      keccak256(0x00, 0x20)\n      swap1\n    tag_53:\n      dup2\n      sload\n      dup2\n      mstore\n      swap1\n      0x01\n      add\n      swap1\n      0x20\n      add\n      dup1\n      dup4\n      gt\n      tag_53\n      jumpi\n      dup3\n      swap1\n      sub\n      0x1f\n      and\n      dup3\n      add\n      swap2\n    tag_51:\n      pop\n      pop\n      pop\n      pop\n      pop\n      dup2\n      mstore\n      0x20\n      add\n      0x03\n      dup3\n      add\n      sload\n      dup2\n      mstore\n      0x20\n      add\n      0x04\n      dup3\n      add\n      0x00\n      swap1\n      sload\n      swap1\n      0x0100\n      exp\n      swap1\n      div\n      0xffffffffffffffff\n      and\n      0xffffffffffffffff\n      and\n      0xffffffffffffffff\n      and\n      dup2\n      mstore\n      pop\n      pop\n      swap1\n      pop\n        /* \"twitterCopy.sol\":1671:1791  function getTweet(address user, uint _i)external view returns (Tweet memory){... */\n      swap3\n      swap2\n      pop\n      pop\n      jump\t// out\n        /* \"twitterCopy.sol\":890:998  function changeTweetLength(uint32 newMaxLength) public OnlyOwner{... */\n    tag_20:\n        /* \"twitterCopy.sol\":832:837  owner */\n      0x00\n      dup1\n      sload\n      swap1\n      0x0100\n      exp\n      swap1\n      div\n      0xffffffffffffffffffffffffffffffffffffffff\n      and\n        /* \"twitterCopy.sol\":818:837  msg.sender == owner */\n      0xffffffffffffffffffffffffffffffffffffffff\n      and\n        /* \"twitterCopy.sol\":818:828  msg.sender */\n      caller\n        /* \"twitterCopy.sol\":818:837  msg.sender == owner */\n      0xffffffffffffffffffffffffffffffffffffffff\n      and\n      eq\n        /* \"twitterCopy.sol\":810:862  require(msg.sender == owner,\"You are not the owner\") */\n      tag_55\n      jumpi\n      mload(0x40)\n      0x08c379a000000000000000000000000000000000000000000000000000000000\n      dup2\n      mstore\n      0x04\n      add\n      tag_56\n      swap1\n      tag_57\n      jump\t// in\n    tag_56:\n      mload(0x40)\n      dup1\n      swap2\n      sub\n      swap1\n      revert\n    tag_55:\n        /* \"twitterCopy.sol\":978:990  newMaxLength */\n      dup1\n        /* \"twitterCopy.sol\":965:975  MAX_LENGTH */\n      0x02\n      0x00\n        /* \"twitterCopy.sol\":965:990  MAX_LENGTH = newMaxLength */\n      0x0100\n      exp\n      dup2\n      sload\n      dup2\n      0xffffffff\n      mul\n      not\n      and\n      swap1\n      dup4\n      0xffffffff\n      and\n      mul\n      or\n      swap1\n      sstore\n      pop\n        /* \"twitterCopy.sol\":890:998  function changeTweetLength(uint32 newMaxLength) public OnlyOwner{... */\n      pop\n      jump\t// out\n        /* \"twitterCopy.sol\":1927:2205  function likeTweet(address author, uint256 _id) external {... */\n    tag_23:\n        /* \"twitterCopy.sol\":2033:2036  _id */\n      dup1\n        /* \"twitterCopy.sol\":2003:2013  UserTwetts */\n      0x01\n        /* \"twitterCopy.sol\":2003:2021  UserTwetts[author] */\n      0x00\n        /* \"twitterCopy.sol\":2014:2020  author */\n      dup5\n        /* \"twitterCopy.sol\":2003:2021  UserTwetts[author] */\n      0xffffffffffffffffffffffffffffffffffffffff\n      and\n      0xffffffffffffffffffffffffffffffffffffffff\n      and\n      dup2\n      mstore\n      0x20\n      add\n      swap1\n      dup2\n      mstore\n      0x20\n      add\n      0x00\n      keccak256\n        /* \"twitterCopy.sol\":2022:2025  _id */\n      dup3\n        /* \"twitterCopy.sol\":2003:2026  UserTwetts[author][_id] */\n      dup2\n      sload\n      dup2\n      lt\n      tag_60\n      jumpi\n      tag_61\n      tag_46\n      jump\t// in\n    tag_61:\n    tag_60:\n      swap1\n      0x00\n      mstore\n      keccak256(0x00, 0x20)\n      swap1\n      0x05\n      mul\n      add\n        /* \"twitterCopy.sol\":2003:2029  UserTwetts[author][_id].ID */\n      0x00\n      add\n      sload\n        /* \"twitterCopy.sol\":2003:2036  UserTwetts[author][_id].ID == _id */\n      eq\n        /* \"twitterCopy.sol\":1995:2060  require(UserTwetts[author][_id].ID == _id,\"Tweet does not exist\") */\n      tag_63\n      jumpi\n      mload(0x40)\n      0x08c379a000000000000000000000000000000000000000000000000000000000\n      dup2\n      mstore\n      0x04\n      add\n      tag_64\n      swap1\n      tag_65\n      jump\t// in\n    tag_64:\n      mload(0x40)\n      dup1\n      swap2\n      sub\n      swap1\n      revert\n    tag_63:\n        /* \"twitterCopy.sol\":2071:2081  UserTwetts */\n      0x01\n        /* \"twitterCopy.sol\":2071:2089  UserTwetts[author] */\n      0x00\n        /* \"twitterCopy.sol\":2082:2088  author */\n      dup4\n        /* \"twitterCopy.sol\":2071:2089  UserTwetts[author] */\n      0xffffffffffffffffffffffffffffffffffffffff\n      and\n      0xffffffffffffffffffffffffffffffffffffffff\n      and\n      dup2\n      mstore\n      0x20\n      add\n      swap1\n      dup2\n      mstore\n      0x20\n      add\n      0x00\n      keccak256\n        /* \"twitterCopy.sol\":2090:2093  _id */\n      dup2\n        /* \"twitterCopy.sol\":2071:2094  UserTwetts[author][_id] */\n      dup2\n      sload\n      dup2\n      lt\n      tag_66\n      jumpi\n      tag_67\n      tag_46\n      jump\t// in\n    tag_67:\n    tag_66:\n      swap1\n      0x00\n      mstore\n      keccak256(0x00, 0x20)\n      swap1\n      0x05\n      mul\n      add\n        /* \"twitterCopy.sol\":2071:2100  UserTwetts[author][_id].likes */\n      0x04\n      add\n      0x00\n        /* \"twitterCopy.sol\":2071:2102  UserTwetts[author][_id].likes++ */\n      dup2\n      dup2\n      swap1\n      sload\n      swap1\n      0x0100\n      exp\n      swap1\n      div\n      0xffffffffffffffff\n      and\n      dup1\n      swap3\n      swap2\n      swap1\n      tag_69\n      swap1\n      tag_70\n      jump\t// in\n    tag_69:\n      swap2\n      swap1\n      0x0100\n      exp\n      dup2\n      sload\n      dup2\n      0xffffffffffffffff\n      mul\n      not\n      and\n      swap1\n      dup4\n      0xffffffffffffffff\n      and\n      mul\n      or\n      swap1\n      sstore\n      pop\n      pop\n        /* \"twitterCopy.sol\":2150:2160  UserTwetts */\n      0x01\n        /* \"twitterCopy.sol\":2150:2168  UserTwetts[author] */\n      0x00\n        /* \"twitterCopy.sol\":2161:2167  author */\n      dup4\n        /* \"twitterCopy.sol\":2150:2168  UserTwetts[author] */\n      0xffffffffffffffffffffffffffffffffffffffff\n      and\n      0xffffffffffffffffffffffffffffffffffffffff\n      and\n      dup2\n      mstore\n      0x20\n      add\n      swap1\n      dup2\n      mstore\n      0x20\n      add\n      0x00\n      keccak256\n        /* \"twitterCopy.sol\":2169:2172  _id */\n      dup2\n        /* \"twitterCopy.sol\":2150:2173  UserTwetts[author][_id] */\n      dup2\n      sload\n      dup2\n      lt\n      tag_71\n      jumpi\n      tag_72\n      tag_46\n      jump\t// in\n    tag_72:\n    tag_71:\n      swap1\n      0x00\n      mstore\n      keccak256(0x00, 0x20)\n      swap1\n      0x05\n      mul\n      add\n        /* \"twitterCopy.sol\":2150:2179  UserTwetts[author][_id].likes */\n      0x04\n      add\n      0x00\n      swap1\n      sload\n      swap1\n      0x0100\n      exp\n      swap1\n      div\n      0xffffffffffffffff\n      and\n        /* \"twitterCopy.sol\":2120:2197  TweetLiked(msg.sender, author,UserTwetts[author][_id].likes, block.timestamp) */\n      0xffffffffffffffff\n      and\n        /* \"twitterCopy.sol\":2143:2149  author */\n      dup3\n        /* \"twitterCopy.sol\":2120:2197  TweetLiked(msg.sender, author,UserTwetts[author][_id].likes, block.timestamp) */\n      0xffffffffffffffffffffffffffffffffffffffff\n      and\n        /* \"twitterCopy.sol\":2131:2141  msg.sender */\n      caller\n        /* \"twitterCopy.sol\":2120:2197  TweetLiked(msg.sender, author,UserTwetts[author][_id].likes, block.timestamp) */\n      0xffffffffffffffffffffffffffffffffffffffff\n      and\n      0x98b9265fbe61ab93c34e3313887637bb4e94bd304723622c0450fcc7572ddf1e\n        /* \"twitterCopy.sol\":2181:2196  block.timestamp */\n      timestamp\n        /* \"twitterCopy.sol\":2120:2197  TweetLiked(msg.sender, author,UserTwetts[author][_id].likes, block.timestamp) */\n      mload(0x40)\n      tag_74\n      swap2\n      swap1\n      tag_75\n      jump\t// in\n    tag_74:\n      mload(0x40)\n      dup1\n      swap2\n      sub\n      swap1\n      log4\n        /* \"twitterCopy.sol\":1927:2205  function likeTweet(address author, uint256 _id) external {... */\n      pop\n      pop\n      jump\t// out\n        /* \"twitterCopy.sol\":1799:1919  function getAllTwetts(address _owner) external view returns (Tweet[] memory){... */\n    tag_27:\n        /* \"twitterCopy.sol\":1860:1874  Tweet[] memory */\n      0x60\n        /* \"twitterCopy.sol\":1893:1903  UserTwetts */\n      0x01\n        /* \"twitterCopy.sol\":1893:1911  UserTwetts[_owner] */\n      0x00\n        /* \"twitterCopy.sol\":1904:1910  _owner */\n      dup4\n        /* \"twitterCopy.sol\":1893:1911  UserTwetts[_owner] */\n      0xffffffffffffffffffffffffffffffffffffffff\n      and\n      0xffffffffffffffffffffffffffffffffffffffff\n      and\n      dup2\n      mstore\n      0x20\n      add\n      swap1\n      dup2\n      mstore\n      0x20\n      add\n      0x00\n      keccak256\n        /* \"twitterCopy.sol\":1886:1911  return UserTwetts[_owner] */\n      dup1\n      sload\n      dup1\n      0x20\n      mul\n      0x20\n      add\n      mload(0x40)\n      swap1\n      dup2\n      add\n      0x40\n      mstore\n      dup1\n      swap3\n      swap2\n      swap1\n      dup2\n      dup2\n      mstore\n      0x20\n      add\n      0x00\n      swap1\n    tag_77:\n      dup3\n      dup3\n      lt\n      iszero\n      tag_78\n      jumpi\n      dup4\n      dup3\n      swap1\n      0x00\n      mstore\n      keccak256(0x00, 0x20)\n      swap1\n      0x05\n      mul\n      add\n      mload(0x40)\n      dup1\n      0xa0\n      add\n      0x40\n      mstore\n      swap1\n      dup2\n      0x00\n      dup3\n      add\n      sload\n      dup2\n      mstore\n      0x20\n      add\n      0x01\n      dup3\n      add\n      0x00\n      swap1\n      sload\n      swap1\n      0x0100\n      exp\n      swap1\n      div\n      0xffffffffffffffffffffffffffffffffffffffff\n      and\n      0xffffffffffffffffffffffffffffffffffffffff\n      and\n      0xffffffffffffffffffffffffffffffffffffffff\n      and\n      dup2\n      mstore\n      0x20\n      add\n      0x02\n      dup3\n      add\n      dup1\n      sload\n      tag_80\n      swap1\n      tag_49\n      jump\t// in\n    tag_80:\n      dup1\n      0x1f\n      add\n      0x20\n      dup1\n      swap2\n      div\n      mul\n      0x20\n      add\n      mload(0x40)\n      swap1\n      dup2\n      add\n      0x40\n      mstore\n      dup1\n      swap3\n      swap2\n      swap1\n      dup2\n      dup2\n      mstore\n      0x20\n      add\n      dup3\n      dup1\n      sload\n      tag_81\n      swap1\n      tag_49\n      jump\t// in\n    tag_81:\n      dup1\n      iszero\n      tag_82\n      jumpi\n      dup1\n      0x1f\n      lt\n      tag_83\n      jumpi\n      0x0100\n      dup1\n      dup4\n      sload\n      div\n      mul\n      dup4\n      mstore\n      swap2\n      0x20\n      add\n      swap2\n      jump(tag_82)\n    tag_83:\n      dup3\n      add\n      swap2\n      swap1\n      0x00\n      mstore\n      keccak256(0x00, 0x20)\n      swap1\n    tag_84:\n      dup2\n      sload\n      dup2\n      mstore\n      swap1\n      0x01\n      add\n      swap1\n      0x20\n      add\n      dup1\n      dup4\n      gt\n      tag_84\n      jumpi\n      dup3\n      swap1\n      sub\n      0x1f\n      and\n      dup3\n      add\n      swap2\n    tag_82:\n      pop\n      pop\n      pop\n      pop\n      pop\n      dup2\n      mstore\n      0x20\n      add\n      0x03\n      dup3\n      add\n      sload\n      dup2\n      mstore\n      0x20\n      add\n      0x04\n      dup3\n      add\n      0x00\n      swap1\n      sload\n      swap1\n      0x0100\n      exp\n      swap1\n      div\n      0xffffffffffffffff\n      and\n      0xffffffffffffffff\n      and\n      0xffffffffffffffff\n      and\n      dup2\n      mstore\n      pop\n      pop\n      dup2\n      mstore\n      0x20\n      add\n      swap1\n      0x01\n      add\n      swap1\n      jump(tag_77)\n    tag_78:\n      pop\n      pop\n      pop\n      pop\n      swap1\n      pop\n        /* \"twitterCopy.sol\":1799:1919  function getAllTwetts(address _owner) external view returns (Tweet[] memory){... */\n      swap2\n      swap1\n      pop\n      jump\t// out\n        /* \"twitterCopy.sol\":1103:1663  function createTweet(string memory _tweet) external {... */\n    tag_33:\n        /* \"twitterCopy.sol\":1198:1208  MAX_LENGTH */\n      0x02\n      0x00\n      swap1\n      sload\n      swap1\n      0x0100\n      exp\n      swap1\n      div\n      0xffffffff\n      and\n        /* \"twitterCopy.sol\":1174:1208  bytes(_tweet).length <= MAX_LENGTH */\n      0xffffffff\n      and\n        /* \"twitterCopy.sol\":1180:1186  _tweet */\n      dup2\n        /* \"twitterCopy.sol\":1174:1194  bytes(_tweet).length */\n      mload\n        /* \"twitterCopy.sol\":1174:1208  bytes(_tweet).length <= MAX_LENGTH */\n      gt\n      iszero\n        /* \"twitterCopy.sol\":1166:1263  require(bytes(_tweet).length <= MAX_LENGTH ,\"You used the maximum number of characters possible\") */\n      tag_86\n      jumpi\n      mload(0x40)\n      0x08c379a000000000000000000000000000000000000000000000000000000000\n      dup2\n      mstore\n      0x04\n      add\n      tag_87\n      swap1\n      tag_88\n      jump\t// in\n    tag_87:\n      mload(0x40)\n      dup1\n      swap2\n      sub\n      swap1\n      revert\n    tag_86:\n        /* \"twitterCopy.sol\":1276:1296  Tweet memory newTwet */\n      0x00\n        /* \"twitterCopy.sol\":1299:1492  Tweet({... */\n      mload(0x40)\n      dup1\n      0xa0\n      add\n      0x40\n      mstore\n      dup1\n        /* \"twitterCopy.sol\":1324:1334  UserTwetts */\n      0x01\n        /* \"twitterCopy.sol\":1324:1346  UserTwetts[msg.sender] */\n      0x00\n        /* \"twitterCopy.sol\":1335:1345  msg.sender */\n      caller\n        /* \"twitterCopy.sol\":1324:1346  UserTwetts[msg.sender] */\n      0xffffffffffffffffffffffffffffffffffffffff\n      and\n      0xffffffffffffffffffffffffffffffffffffffff\n      and\n      dup2\n      mstore\n      0x20\n      add\n      swap1\n      dup2\n      mstore\n      0x20\n      add\n      0x00\n      keccak256\n        /* \"twitterCopy.sol\":1324:1353  UserTwetts[msg.sender].length */\n      dup1\n      sload\n      swap1\n      pop\n        /* \"twitterCopy.sol\":1299:1492  Tweet({... */\n      dup2\n      mstore\n      0x20\n      add\n        /* \"twitterCopy.sol\":1376:1386  msg.sender */\n      caller\n        /* \"twitterCopy.sol\":1299:1492  Tweet({... */\n      0xffffffffffffffffffffffffffffffffffffffff\n      and\n      dup2\n      mstore\n      0x20\n      add\n        /* \"twitterCopy.sol\":1410:1416  _tweet */\n      dup4\n        /* \"twitterCopy.sol\":1299:1492  Tweet({... */\n      dup2\n      mstore\n      0x20\n      add\n        /* \"twitterCopy.sol\":1442:1457  block.timestamp */\n      timestamp\n        /* \"twitterCopy.sol\":1299:1492  Tweet({... */\n      dup2\n      mstore\n      0x20\n      add\n        /* \"twitterCopy.sol\":1479:1480  0 */\n      0x00\n        /* \"twitterCopy.sol\":1299:1492  Tweet({... */\n      0xffffffffffffffff\n      and\n      dup2\n      mstore\n      pop\n        /* \"twitterCopy.sol\":1276:1492  Tweet memory newTwet = Tweet({... */\n      swap1\n      pop\n        /* \"twitterCopy.sol\":1513:1523  UserTwetts */\n      0x01\n        /* \"twitterCopy.sol\":1513:1535  UserTwetts[msg.sender] */\n      0x00\n        /* \"twitterCopy.sol\":1524:1534  msg.sender */\n      caller\n        /* \"twitterCopy.sol\":1513:1535  UserTwetts[msg.sender] */\n      0xffffffffffffffffffffffffffffffffffffffff\n      and\n      0xffffffffffffffffffffffffffffffffffffffff\n      and\n      dup2\n      mstore\n      0x20\n      add\n      swap1\n      dup2\n      mstore\n      0x20\n      add\n      0x00\n      keccak256\n        /* \"twitterCopy.sol\":1541:1548  newTwet */\n      dup2\n        /* \"twitterCopy.sol\":1513:1549  UserTwetts[msg.sender].push(newTwet) */\n      swap1\n      dup1\n      0x01\n      dup2\n      sload\n      add\n      dup1\n      dup3\n      sstore\n      dup1\n      swap2\n      pop\n      pop\n      0x01\n      swap1\n      sub\n      swap1\n      0x00\n      mstore\n      keccak256(0x00, 0x20)\n      swap1\n      0x05\n      mul\n      add\n      0x00\n      swap1\n      swap2\n      swap1\n      swap2\n      swap1\n      swap2\n      pop\n      0x00\n      dup3\n      add\n      mload\n      dup2\n      0x00\n      add\n      sstore\n      0x20\n      dup3\n      add\n      mload\n      dup2\n      0x01\n      add\n      exp(0x0100, 0x00)\n      dup2\n      sload\n      dup2\n      0xffffffffffffffffffffffffffffffffffffffff\n      mul\n      not\n      and\n      swap1\n      dup4\n      0xffffffffffffffffffffffffffffffffffffffff\n      and\n      mul\n      or\n      swap1\n      sstore\n      pop\n      0x40\n      dup3\n      add\n      mload\n      dup2\n      0x02\n      add\n      swap1\n      dup2\n      tag_90\n      swap2\n      swap1\n      tag_91\n      jump\t// in\n    tag_90:\n      pop\n      0x60\n      dup3\n      add\n      mload\n      dup2\n      0x03\n      add\n      sstore\n      0x80\n      dup3\n      add\n      mload\n      dup2\n      0x04\n      add\n      exp(0x0100, 0x00)\n      dup2\n      sload\n      dup2\n      0xffffffffffffffff\n      mul\n      not\n      and\n      swap1\n      dup4\n      0xffffffffffffffff\n      and\n      mul\n      or\n      swap1\n      sstore\n      pop\n      pop\n      pop\n        /* \"twitterCopy.sol\":1614:1621  newTwet */\n      dup1\n        /* \"twitterCopy.sol\":1614:1629  newTwet.content */\n      0x40\n      add\n      mload\n        /* \"twitterCopy.sol\":1571:1649  newTweet(\"New Tweet by: \", newTwet.author ,newTwet.content ,newTwet.TimeStamp) */\n      mload(0x40)\n      tag_92\n      swap2\n      swap1\n      tag_93\n      jump\t// in\n    tag_92:\n      mload(0x40)\n      dup1\n      swap2\n      sub\n      swap1\n      keccak256\n        /* \"twitterCopy.sol\":1598:1605  newTwet */\n      dup2\n        /* \"twitterCopy.sol\":1598:1612  newTwet.author */\n      0x20\n      add\n      mload\n        /* \"twitterCopy.sol\":1571:1649  newTweet(\"New Tweet by: \", newTwet.author ,newTwet.content ,newTwet.TimeStamp) */\n      0xffffffffffffffffffffffffffffffffffffffff\n      and\n      mload(0x40)\n      tag_94\n      swap1\n      tag_95\n      jump\t// in\n    tag_94:\n      mload(0x40)\n      dup1\n      swap2\n      sub\n      swap1\n      keccak256\n      0x24851db9152097137545b14424ac5e35714ad65b716771621cfdc771aa7876de\n        /* \"twitterCopy.sol\":1631:1638  newTwet */\n      dup5\n        /* \"twitterCopy.sol\":1631:1648  newTwet.TimeStamp */\n      0x60\n      add\n      mload\n        /* \"twitterCopy.sol\":1571:1649  newTweet(\"New Tweet by: \", newTwet.author ,newTwet.content ,newTwet.TimeStamp) */\n      mload(0x40)\n      tag_96\n      swap2\n      swap1\n      tag_75\n      jump\t// in\n    tag_96:\n      mload(0x40)\n      dup1\n      swap2\n      sub\n      swap1\n      log4\n        /* \"twitterCopy.sol\":1155:1663  {... */\n      pop\n        /* \"twitterCopy.sol\":1103:1663  function createTweet(string memory _tweet) external {... */\n      pop\n      jump\t// out\n        /* \"twitterCopy.sol\":1006:1095  function getTweetLength()public view returns (uint32){... */\n    tag_35:\n        /* \"twitterCopy.sol\":1052:1058  uint32 */\n      0x00\n        /* \"twitterCopy.sol\":1077:1087  MAX_LENGTH */\n      0x02\n      0x00\n      swap1\n      sload\n      swap1\n      0x0100\n      exp\n      swap1\n      div\n      0xffffffff\n      and\n        /* \"twitterCopy.sol\":1070:1087  return MAX_LENGTH */\n      swap1\n      pop\n        /* \"twitterCopy.sol\":1006:1095  function getTweetLength()public view returns (uint32){... */\n      swap1\n      jump\t// out\n        /* \"twitterCopy.sol\":2213:2526  function dislikeTweet(address author, uint256 _id) external {... */\n    tag_40:\n        /* \"twitterCopy.sol\":2322:2325  _id */\n      dup1\n        /* \"twitterCopy.sol\":2292:2302  UserTwetts */\n      0x01\n        /* \"twitterCopy.sol\":2292:2310  UserTwetts[author] */\n      0x00\n        /* \"twitterCopy.sol\":2303:2309  author */\n      dup5\n        /* \"twitterCopy.sol\":2292:2310  UserTwetts[author] */\n      0xffffffffffffffffffffffffffffffffffffffff\n      and\n      0xffffffffffffffffffffffffffffffffffffffff\n      and\n      dup2\n      mstore\n      0x20\n      add\n      swap1\n      dup2\n      mstore\n      0x20\n      add\n      0x00\n      keccak256\n        /* \"twitterCopy.sol\":2311:2314  _id */\n      dup3\n        /* \"twitterCopy.sol\":2292:2315  UserTwetts[author][_id] */\n      dup2\n      sload\n      dup2\n      lt\n      tag_99\n      jumpi\n      tag_100\n      tag_46\n      jump\t// in\n    tag_100:\n    tag_99:\n      swap1\n      0x00\n      mstore\n      keccak256(0x00, 0x20)\n      swap1\n      0x05\n      mul\n      add\n        /* \"twitterCopy.sol\":2292:2318  UserTwetts[author][_id].ID */\n      0x00\n      add\n      sload\n        /* \"twitterCopy.sol\":2292:2325  UserTwetts[author][_id].ID == _id */\n      eq\n        /* \"twitterCopy.sol\":2292:2363  UserTwetts[author][_id].ID == _id  && UserTwetts[author][_id].likes > 0 */\n      dup1\n      iszero\n      tag_102\n      jumpi\n      pop\n        /* \"twitterCopy.sol\":2362:2363  0 */\n      0x00\n        /* \"twitterCopy.sol\":2330:2340  UserTwetts */\n      0x01\n        /* \"twitterCopy.sol\":2330:2348  UserTwetts[author] */\n      0x00\n        /* \"twitterCopy.sol\":2341:2347  author */\n      dup5\n        /* \"twitterCopy.sol\":2330:2348  UserTwetts[author] */\n      0xffffffffffffffffffffffffffffffffffffffff\n      and\n      0xffffffffffffffffffffffffffffffffffffffff\n      and\n      dup2\n      mstore\n      0x20\n      add\n      swap1\n      dup2\n      mstore\n      0x20\n      add\n      0x00\n      keccak256\n        /* \"twitterCopy.sol\":2349:2352  _id */\n      dup3\n        /* \"twitterCopy.sol\":2330:2353  UserTwetts[author][_id] */\n      dup2\n      sload\n      dup2\n      lt\n      tag_103\n      jumpi\n      tag_104\n      tag_46\n      jump\t// in\n    tag_104:\n    tag_103:\n      swap1\n      0x00\n      mstore\n      keccak256(0x00, 0x20)\n      swap1\n      0x05\n      mul\n      add\n        /* \"twitterCopy.sol\":2330:2359  UserTwetts[author][_id].likes */\n      0x04\n      add\n      0x00\n      swap1\n      sload\n      swap1\n      0x0100\n      exp\n      swap1\n      div\n      0xffffffffffffffff\n      and\n        /* \"twitterCopy.sol\":2330:2363  UserTwetts[author][_id].likes > 0 */\n      0xffffffffffffffff\n      and\n      gt\n        /* \"twitterCopy.sol\":2292:2363  UserTwetts[author][_id].ID == _id  && UserTwetts[author][_id].likes > 0 */\n    tag_102:\n        /* \"twitterCopy.sol\":2284:2379  require(UserTwetts[author][_id].ID == _id  && UserTwetts[author][_id].likes > 0,\"Not possible\") */\n      tag_106\n      jumpi\n      mload(0x40)\n      0x08c379a000000000000000000000000000000000000000000000000000000000\n      dup2\n      mstore\n      0x04\n      add\n      tag_107\n      swap1\n      tag_108\n      jump\t// in\n    tag_107:\n      mload(0x40)\n      dup1\n      swap2\n      sub\n      swap1\n      revert\n    tag_106:\n        /* \"twitterCopy.sol\":2390:2400  UserTwetts */\n      0x01\n        /* \"twitterCopy.sol\":2390:2408  UserTwetts[author] */\n      0x00\n        /* \"twitterCopy.sol\":2401:2407  author */\n      dup4\n        /* \"twitterCopy.sol\":2390:2408  UserTwetts[author] */\n      0xffffffffffffffffffffffffffffffffffffffff\n      and\n      0xffffffffffffffffffffffffffffffffffffffff\n      and\n      dup2\n      mstore\n      0x20\n      add\n      swap1\n      dup2\n      mstore\n      0x20\n      add\n      0x00\n      keccak256\n        /* \"twitterCopy.sol\":2409:2412  _id */\n      dup2\n        /* \"twitterCopy.sol\":2390:2413  UserTwetts[author][_id] */\n      dup2\n      sload\n      dup2\n      lt\n      tag_109\n      jumpi\n      tag_110\n      tag_46\n      jump\t// in\n    tag_110:\n    tag_109:\n      swap1\n      0x00\n      mstore\n      keccak256(0x00, 0x20)\n      swap1\n      0x05\n      mul\n      add\n        /* \"twitterCopy.sol\":2390:2419  UserTwetts[author][_id].likes */\n      0x04\n      add\n      0x00\n        /* \"twitterCopy.sol\":2390:2421  UserTwetts[author][_id].likes-- */\n      dup2\n      dup2\n      swap1\n      sload\n      swap1\n      0x0100\n      exp\n      swap1\n      div\n      0xffffffffffffffff\n      and\n      dup1\n      swap3\n      swap2\n      swap1\n      tag_112\n      swap1\n      tag_113\n      jump\t// in\n    tag_112:\n      swap2\n      swap1\n      0x0100\n      exp\n      dup2\n      sload\n      dup2\n      0xffffffffffffffff\n      mul\n      not\n      and\n      swap1\n      dup4\n      0xffffffffffffffff\n      and\n      mul\n      or\n      swap1\n      sstore\n      pop\n      pop\n        /* \"twitterCopy.sol\":2471:2481  UserTwetts */\n      0x01\n        /* \"twitterCopy.sol\":2471:2489  UserTwetts[author] */\n      0x00\n        /* \"twitterCopy.sol\":2482:2488  author */\n      dup4\n        /* \"twitterCopy.sol\":2471:2489  UserTwetts[author] */\n      0xffffffffffffffffffffffffffffffffffffffff\n      and\n      0xffffffffffffffffffffffffffffffffffffffff\n      and\n      dup2\n      mstore\n      0x20\n      add\n      swap1\n      dup2\n      mstore\n      0x20\n      add\n      0x00\n      keccak256\n        /* \"twitterCopy.sol\":2490:2493  _id */\n      dup2\n        /* \"twitterCopy.sol\":2471:2494  UserTwetts[author][_id] */\n      dup2\n      sload\n      dup2\n      lt\n      tag_114\n      jumpi\n      tag_115\n      tag_46\n      jump\t// in\n    tag_115:\n    tag_114:\n      swap1\n      0x00\n      mstore\n      keccak256(0x00, 0x20)\n      swap1\n      0x05\n      mul\n      add\n        /* \"twitterCopy.sol\":2471:2500  UserTwetts[author][_id].likes */\n      0x04\n      add\n      0x00\n      swap1\n      sload\n      swap1\n      0x0100\n      exp\n      swap1\n      div\n      0xffffffffffffffff\n      and\n        /* \"twitterCopy.sol\":2439:2518  TweetUnlike(msg.sender, author, UserTwetts[author][_id].likes, block.timestamp) */\n      0xffffffffffffffff\n      and\n        /* \"twitterCopy.sol\":2463:2469  author */\n      dup3\n        /* \"twitterCopy.sol\":2439:2518  TweetUnlike(msg.sender, author, UserTwetts[author][_id].likes, block.timestamp) */\n      0xffffffffffffffffffffffffffffffffffffffff\n      and\n        /* \"twitterCopy.sol\":2451:2461  msg.sender */\n      caller\n        /* \"twitterCopy.sol\":2439:2518  TweetUnlike(msg.sender, author, UserTwetts[author][_id].likes, block.timestamp) */\n      0xffffffffffffffffffffffffffffffffffffffff\n      and\n      0xbe0a9aa2bc4a5667d4eb4dd05b204ccc5f3b48133520a5074d875389bc882392\n        /* \"twitterCopy.sol\":2502:2517  block.timestamp */\n      timestamp\n        /* \"twitterCopy.sol\":2439:2518  TweetUnlike(msg.sender, author, UserTwetts[author][_id].likes, block.timestamp) */\n      mload(0x40)\n      tag_117\n      swap2\n      swap1\n      tag_75\n      jump\t// in\n    tag_117:\n      mload(0x40)\n      dup1\n      swap2\n      sub\n      swap1\n      log4\n        /* \"twitterCopy.sol\":2213:2526  function dislikeTweet(address author, uint256 _id) external {... */\n      pop\n      pop\n      jump\t// out\n    tag_42:\n      mload(0x40)\n      dup1\n      0xa0\n      add\n      0x40\n      mstore\n      dup1\n      0x00\n      dup2\n      mstore\n      0x20\n      add\n      and(0xffffffffffffffffffffffffffffffffffffffff, 0x00)\n      dup2\n      mstore\n      0x20\n      add\n      0x60\n      dup2\n      mstore\n      0x20\n      add\n      0x00\n      dup2\n      mstore\n      0x20\n      add\n      and(0xffffffffffffffff, 0x00)\n      dup2\n      mstore\n      pop\n      swap1\n      jump\t// out\n        /* \"#utility.yul\":7:82   */\n    tag_118:\n        /* \"#utility.yul\":40:46   */\n      0x00\n        /* \"#utility.yul\":73:75   */\n      0x40\n        /* \"#utility.yul\":67:76   */\n      mload\n        /* \"#utility.yul\":57:76   */\n      swap1\n      pop\n        /* \"#utility.yul\":7:82   */\n      swap1\n      jump\t// out\n        /* \"#utility.yul\":88:205   */\n    tag_119:\n        /* \"#utility.yul\":197:198   */\n      0x00\n        /* \"#utility.yul\":194:195   */\n      dup1\n        /* \"#utility.yul\":187:199   */\n      revert\n        /* \"#utility.yul\":211:328   */\n    tag_120:\n        /* \"#utility.yul\":320:321   */\n      0x00\n        /* \"#utility.yul\":317:318   */\n      dup1\n        /* \"#utility.yul\":310:322   */\n      revert\n        /* \"#utility.yul\":334:460   */\n    tag_121:\n        /* \"#utility.yul\":371:378   */\n      0x00\n        /* \"#utility.yul\":411:453   */\n      0xffffffffffffffffffffffffffffffffffffffff\n        /* \"#utility.yul\":404:409   */\n      dup3\n        /* \"#utility.yul\":400:454   */\n      and\n        /* \"#utility.yul\":389:454   */\n      swap1\n      pop\n        /* \"#utility.yul\":334:460   */\n      swap2\n      swap1\n      pop\n      jump\t// out\n        /* \"#utility.yul\":466:562   */\n    tag_122:\n        /* \"#utility.yul\":503:510   */\n      0x00\n        /* \"#utility.yul\":532:556   */\n      tag_195\n        /* \"#utility.yul\":550:555   */\n      dup3\n        /* \"#utility.yul\":532:556   */\n      tag_121\n      jump\t// in\n    tag_195:\n        /* \"#utility.yul\":521:556   */\n      swap1\n      pop\n        /* \"#utility.yul\":466:562   */\n      swap2\n      swap1\n      pop\n      jump\t// out\n        /* \"#utility.yul\":568:690   */\n    tag_123:\n        /* \"#utility.yul\":641:665   */\n      tag_197\n        /* \"#utility.yul\":659:664   */\n      dup2\n        /* \"#utility.yul\":641:665   */\n      tag_122\n      jump\t// in\n    tag_197:\n        /* \"#utility.yul\":634:639   */\n      dup2\n        /* \"#utility.yul\":631:666   */\n      eq\n        /* \"#utility.yul\":621:684   */\n      tag_198\n      jumpi\n        /* \"#utility.yul\":680:681   */\n      0x00\n        /* \"#utility.yul\":677:678   */\n      dup1\n        /* \"#utility.yul\":670:682   */\n      revert\n        /* \"#utility.yul\":621:684   */\n    tag_198:\n        /* \"#utility.yul\":568:690   */\n      pop\n      jump\t// out\n        /* \"#utility.yul\":696:835   */\n    tag_124:\n        /* \"#utility.yul\":742:747   */\n      0x00\n        /* \"#utility.yul\":780:786   */\n      dup2\n        /* \"#utility.yul\":767:787   */\n      calldataload\n        /* \"#utility.yul\":758:787   */\n      swap1\n      pop\n        /* \"#utility.yul\":796:829   */\n      tag_200\n        /* \"#utility.yul\":823:828   */\n      dup2\n        /* \"#utility.yul\":796:829   */\n      tag_123\n      jump\t// in\n    tag_200:\n        /* \"#utility.yul\":696:835   */\n      swap3\n      swap2\n      pop\n      pop\n      jump\t// out\n        /* \"#utility.yul\":841:918   */\n    tag_125:\n        /* \"#utility.yul\":878:885   */\n      0x00\n        /* \"#utility.yul\":907:912   */\n      dup2\n        /* \"#utility.yul\":896:912   */\n      swap1\n      pop\n        /* \"#utility.yul\":841:918   */\n      swap2\n      swap1\n      pop\n      jump\t// out\n        /* \"#utility.yul\":924:1046   */\n    tag_126:\n        /* \"#utility.yul\":997:1021   */\n      tag_203\n        /* \"#utility.yul\":1015:1020   */\n      dup2\n        /* \"#utility.yul\":997:1021   */\n      tag_125\n      jump\t// in\n    tag_203:\n        /* \"#utility.yul\":990:995   */\n      dup2\n        /* \"#utility.yul\":987:1022   */\n      eq\n        /* \"#utility.yul\":977:1040   */\n      tag_204\n      jumpi\n        /* \"#utility.yul\":1036:1037   */\n      0x00\n        /* \"#utility.yul\":1033:1034   */\n      dup1\n        /* \"#utility.yul\":1026:1038   */\n      revert\n        /* \"#utility.yul\":977:1040   */\n    tag_204:\n        /* \"#utility.yul\":924:1046   */\n      pop\n      jump\t// out\n        /* \"#utility.yul\":1052:1191   */\n    tag_127:\n        /* \"#utility.yul\":1098:1103   */\n      0x00\n        /* \"#utility.yul\":1136:1142   */\n      dup2\n        /* \"#utility.yul\":1123:1143   */\n      calldataload\n        /* \"#utility.yul\":1114:1143   */\n      swap1\n      pop\n        /* \"#utility.yul\":1152:1185   */\n      tag_206\n        /* \"#utility.yul\":1179:1184   */\n      dup2\n        /* \"#utility.yul\":1152:1185   */\n      tag_126\n      jump\t// in\n    tag_206:\n        /* \"#utility.yul\":1052:1191   */\n      swap3\n      swap2\n      pop\n      pop\n      jump\t// out\n        /* \"#utility.yul\":1197:1671   */\n    tag_13:\n        /* \"#utility.yul\":1265:1271   */\n      0x00\n        /* \"#utility.yul\":1273:1279   */\n      dup1\n        /* \"#utility.yul\":1322:1324   */\n      0x40\n        /* \"#utility.yul\":1310:1319   */\n      dup4\n        /* \"#utility.yul\":1301:1308   */\n      dup6\n        /* \"#utility.yul\":1297:1320   */\n      sub\n        /* \"#utility.yul\":1293:1325   */\n      slt\n        /* \"#utility.yul\":1290:1409   */\n      iszero\n      tag_208\n      jumpi\n        /* \"#utility.yul\":1328:1407   */\n      tag_209\n      tag_119\n      jump\t// in\n    tag_209:\n        /* \"#utility.yul\":1290:1409   */\n    tag_208:\n        /* \"#utility.yul\":1448:1449   */\n      0x00\n        /* \"#utility.yul\":1473:1526   */\n      tag_210\n        /* \"#utility.yul\":1518:1525   */\n      dup6\n        /* \"#utility.yul\":1509:1515   */\n      dup3\n        /* \"#utility.yul\":1498:1507   */\n      dup7\n        /* \"#utility.yul\":1494:1516   */\n      add\n        /* \"#utility.yul\":1473:1526   */\n      tag_124\n      jump\t// in\n    tag_210:\n        /* \"#utility.yul\":1463:1526   */\n      swap3\n      pop\n        /* \"#utility.yul\":1419:1536   */\n      pop\n        /* \"#utility.yul\":1575:1577   */\n      0x20\n        /* \"#utility.yul\":1601:1654   */\n      tag_211\n        /* \"#utility.yul\":1646:1653   */\n      dup6\n        /* \"#utility.yul\":1637:1643   */\n      dup3\n        /* \"#utility.yul\":1626:1635   */\n      dup7\n        /* \"#utility.yul\":1622:1644   */\n      add\n        /* \"#utility.yul\":1601:1654   */\n      tag_127\n      jump\t// in\n    tag_211:\n        /* \"#utility.yul\":1591:1654   */\n      swap2\n      pop\n        /* \"#utility.yul\":1546:1664   */\n      pop\n        /* \"#utility.yul\":1197:1671   */\n      swap3\n      pop\n      swap3\n      swap1\n      pop\n      jump\t// out\n        /* \"#utility.yul\":1677:1785   */\n    tag_128:\n        /* \"#utility.yul\":1754:1778   */\n      tag_213\n        /* \"#utility.yul\":1772:1777   */\n      dup2\n        /* \"#utility.yul\":1754:1778   */\n      tag_125\n      jump\t// in\n    tag_213:\n        /* \"#utility.yul\":1749:1752   */\n      dup3\n        /* \"#utility.yul\":1742:1779   */\n      mstore\n        /* \"#utility.yul\":1677:1785   */\n      pop\n      pop\n      jump\t// out\n        /* \"#utility.yul\":1791:1899   */\n    tag_129:\n        /* \"#utility.yul\":1868:1892   */\n      tag_215\n        /* \"#utility.yul\":1886:1891   */\n      dup2\n        /* \"#utility.yul\":1868:1892   */\n      tag_122\n      jump\t// in\n    tag_215:\n        /* \"#utility.yul\":1863:1866   */\n      dup3\n        /* \"#utility.yul\":1856:1893   */\n      mstore\n        /* \"#utility.yul\":1791:1899   */\n      pop\n      pop\n      jump\t// out\n        /* \"#utility.yul\":1905:2004   */\n    tag_130:\n        /* \"#utility.yul\":1957:1963   */\n      0x00\n        /* \"#utility.yul\":1991:1996   */\n      dup2\n        /* \"#utility.yul\":1985:1997   */\n      mload\n        /* \"#utility.yul\":1975:1997   */\n      swap1\n      pop\n        /* \"#utility.yul\":1905:2004   */\n      swap2\n      swap1\n      pop\n      jump\t// out\n        /* \"#utility.yul\":2010:2169   */\n    tag_131:\n        /* \"#utility.yul\":2084:2095   */\n      0x00\n        /* \"#utility.yul\":2118:2124   */\n      dup3\n        /* \"#utility.yul\":2113:2116   */\n      dup3\n        /* \"#utility.yul\":2106:2125   */\n      mstore\n        /* \"#utility.yul\":2158:2162   */\n      0x20\n        /* \"#utility.yul\":2153:2156   */\n      dup3\n        /* \"#utility.yul\":2149:2163   */\n      add\n        /* \"#utility.yul\":2134:2163   */\n      swap1\n      pop\n        /* \"#utility.yul\":2010:2169   */\n      swap3\n      swap2\n      pop\n      pop\n      jump\t// out\n        /* \"#utility.yul\":2175:2314   */\n    tag_132:\n        /* \"#utility.yul\":2264:2270   */\n      dup3\n        /* \"#utility.yul\":2259:2262   */\n      dup2\n        /* \"#utility.yul\":2254:2257   */\n      dup4\n        /* \"#utility.yul\":2248:2271   */\n      mcopy\n        /* \"#utility.yul\":2305:2306   */\n      0x00\n        /* \"#utility.yul\":2296:2302   */\n      dup4\n        /* \"#utility.yul\":2291:2294   */\n      dup4\n        /* \"#utility.yul\":2287:2303   */\n      add\n        /* \"#utility.yul\":2280:2307   */\n      mstore\n        /* \"#utility.yul\":2175:2314   */\n      pop\n      pop\n      pop\n      jump\t// out\n        /* \"#utility.yul\":2320:2422   */\n    tag_133:\n        /* \"#utility.yul\":2361:2367   */\n      0x00\n        /* \"#utility.yul\":2412:2414   */\n      0x1f\n        /* \"#utility.yul\":2408:2415   */\n      not\n        /* \"#utility.yul\":2403:2405   */\n      0x1f\n        /* \"#utility.yul\":2396:2401   */\n      dup4\n        /* \"#utility.yul\":2392:2406   */\n      add\n        /* \"#utility.yul\":2388:2416   */\n      and\n        /* \"#utility.yul\":2378:2416   */\n      swap1\n      pop\n        /* \"#utility.yul\":2320:2422   */\n      swap2\n      swap1\n      pop\n      jump\t// out\n        /* \"#utility.yul\":2428:2785   */\n    tag_134:\n        /* \"#utility.yul\":2506:2509   */\n      0x00\n        /* \"#utility.yul\":2534:2573   */\n      tag_221\n        /* \"#utility.yul\":2567:2572   */\n      dup3\n        /* \"#utility.yul\":2534:2573   */\n      tag_130\n      jump\t// in\n    tag_221:\n        /* \"#utility.yul\":2589:2650   */\n      tag_222\n        /* \"#utility.yul\":2643:2649   */\n      dup2\n        /* \"#utility.yul\":2638:2641   */\n      dup6\n        /* \"#utility.yul\":2589:2650   */\n      tag_131\n      jump\t// in\n    tag_222:\n        /* \"#utility.yul\":2582:2650   */\n      swap4\n      pop\n        /* \"#utility.yul\":2659:2724   */\n      tag_223\n        /* \"#utility.yul\":2717:2723   */\n      dup2\n        /* \"#utility.yul\":2712:2715   */\n      dup6\n        /* \"#utility.yul\":2705:2709   */\n      0x20\n        /* \"#utility.yul\":2698:2703   */\n      dup7\n        /* \"#utility.yul\":2694:2710   */\n      add\n        /* \"#utility.yul\":2659:2724   */\n      tag_132\n      jump\t// in\n    tag_223:\n        /* \"#utility.yul\":2749:2778   */\n      tag_224\n        /* \"#utility.yul\":2771:2777   */\n      dup2\n        /* \"#utility.yul\":2749:2778   */\n      tag_133\n      jump\t// in\n    tag_224:\n        /* \"#utility.yul\":2744:2747   */\n      dup5\n        /* \"#utility.yul\":2740:2779   */\n      add\n        /* \"#utility.yul\":2733:2779   */\n      swap2\n      pop\n        /* \"#utility.yul\":2510:2785   */\n      pop\n        /* \"#utility.yul\":2428:2785   */\n      swap3\n      swap2\n      pop\n      pop\n      jump\t// out\n        /* \"#utility.yul\":2791:2892   */\n    tag_135:\n        /* \"#utility.yul\":2827:2834   */\n      0x00\n        /* \"#utility.yul\":2867:2885   */\n      0xffffffffffffffff\n        /* \"#utility.yul\":2860:2865   */\n      dup3\n        /* \"#utility.yul\":2856:2886   */\n      and\n        /* \"#utility.yul\":2845:2886   */\n      swap1\n      pop\n        /* \"#utility.yul\":2791:2892   */\n      swap2\n      swap1\n      pop\n      jump\t// out\n        /* \"#utility.yul\":2898:3003   */\n    tag_136:\n        /* \"#utility.yul\":2973:2996   */\n      tag_227\n        /* \"#utility.yul\":2990:2995   */\n      dup2\n        /* \"#utility.yul\":2973:2996   */\n      tag_135\n      jump\t// in\n    tag_227:\n        /* \"#utility.yul\":2968:2971   */\n      dup3\n        /* \"#utility.yul\":2961:2997   */\n      mstore\n        /* \"#utility.yul\":2898:3003   */\n      pop\n      pop\n      jump\t// out\n        /* \"#utility.yul\":3061:4188   */\n    tag_137:\n        /* \"#utility.yul\":3172:3175   */\n      0x00\n        /* \"#utility.yul\":3208:3212   */\n      0xa0\n        /* \"#utility.yul\":3203:3206   */\n      dup4\n        /* \"#utility.yul\":3199:3213   */\n      add\n        /* \"#utility.yul\":3293:3297   */\n      0x00\n        /* \"#utility.yul\":3286:3291   */\n      dup4\n        /* \"#utility.yul\":3282:3298   */\n      add\n        /* \"#utility.yul\":3276:3299   */\n      mload\n        /* \"#utility.yul\":3312:3375   */\n      tag_229\n        /* \"#utility.yul\":3369:3373   */\n      0x00\n        /* \"#utility.yul\":3364:3367   */\n      dup7\n        /* \"#utility.yul\":3360:3374   */\n      add\n        /* \"#utility.yul\":3346:3358   */\n      dup3\n        /* \"#utility.yul\":3312:3375   */\n      tag_128\n      jump\t// in\n    tag_229:\n        /* \"#utility.yul\":3223:3385   */\n      pop\n        /* \"#utility.yul\":3469:3473   */\n      0x20\n        /* \"#utility.yul\":3462:3467   */\n      dup4\n        /* \"#utility.yul\":3458:3474   */\n      add\n        /* \"#utility.yul\":3452:3475   */\n      mload\n        /* \"#utility.yul\":3488:3551   */\n      tag_230\n        /* \"#utility.yul\":3545:3549   */\n      0x20\n        /* \"#utility.yul\":3540:3543   */\n      dup7\n        /* \"#utility.yul\":3536:3550   */\n      add\n        /* \"#utility.yul\":3522:3534   */\n      dup3\n        /* \"#utility.yul\":3488:3551   */\n      tag_129\n      jump\t// in\n    tag_230:\n        /* \"#utility.yul\":3395:3561   */\n      pop\n        /* \"#utility.yul\":3646:3650   */\n      0x40\n        /* \"#utility.yul\":3639:3644   */\n      dup4\n        /* \"#utility.yul\":3635:3651   */\n      add\n        /* \"#utility.yul\":3629:3652   */\n      mload\n        /* \"#utility.yul\":3699:3702   */\n      dup5\n        /* \"#utility.yul\":3693:3697   */\n      dup3\n        /* \"#utility.yul\":3689:3703   */\n      sub\n        /* \"#utility.yul\":3682:3686   */\n      0x40\n        /* \"#utility.yul\":3677:3680   */\n      dup7\n        /* \"#utility.yul\":3673:3687   */\n      add\n        /* \"#utility.yul\":3666:3704   */\n      mstore\n        /* \"#utility.yul\":3725:3798   */\n      tag_231\n        /* \"#utility.yul\":3793:3797   */\n      dup3\n        /* \"#utility.yul\":3779:3791   */\n      dup3\n        /* \"#utility.yul\":3725:3798   */\n      tag_134\n      jump\t// in\n    tag_231:\n        /* \"#utility.yul\":3717:3798   */\n      swap2\n      pop\n        /* \"#utility.yul\":3571:3809   */\n      pop\n        /* \"#utility.yul\":3896:3900   */\n      0x60\n        /* \"#utility.yul\":3889:3894   */\n      dup4\n        /* \"#utility.yul\":3885:3901   */\n      add\n        /* \"#utility.yul\":3879:3902   */\n      mload\n        /* \"#utility.yul\":3915:3978   */\n      tag_232\n        /* \"#utility.yul\":3972:3976   */\n      0x60\n        /* \"#utility.yul\":3967:3970   */\n      dup7\n        /* \"#utility.yul\":3963:3977   */\n      add\n        /* \"#utility.yul\":3949:3961   */\n      dup3\n        /* \"#utility.yul\":3915:3978   */\n      tag_128\n      jump\t// in\n    tag_232:\n        /* \"#utility.yul\":3819:3988   */\n      pop\n        /* \"#utility.yul\":4071:4075   */\n      0x80\n        /* \"#utility.yul\":4064:4069   */\n      dup4\n        /* \"#utility.yul\":4060:4076   */\n      add\n        /* \"#utility.yul\":4054:4077   */\n      mload\n        /* \"#utility.yul\":4090:4151   */\n      tag_233\n        /* \"#utility.yul\":4145:4149   */\n      0x80\n        /* \"#utility.yul\":4140:4143   */\n      dup7\n        /* \"#utility.yul\":4136:4150   */\n      add\n        /* \"#utility.yul\":4122:4134   */\n      dup3\n        /* \"#utility.yul\":4090:4151   */\n      tag_136\n      jump\t// in\n    tag_233:\n        /* \"#utility.yul\":3998:4161   */\n      pop\n        /* \"#utility.yul\":4178:4182   */\n      dup1\n        /* \"#utility.yul\":4171:4182   */\n      swap2\n      pop\n        /* \"#utility.yul\":3177:4188   */\n      pop\n        /* \"#utility.yul\":3061:4188   */\n      swap3\n      swap2\n      pop\n      pop\n      jump\t// out\n        /* \"#utility.yul\":4194:4551   */\n    tag_16:\n        /* \"#utility.yul\":4329:4333   */\n      0x00\n        /* \"#utility.yul\":4367:4369   */\n      0x20\n        /* \"#utility.yul\":4356:4365   */\n      dup3\n        /* \"#utility.yul\":4352:4370   */\n      add\n        /* \"#utility.yul\":4344:4370   */\n      swap1\n      pop\n        /* \"#utility.yul\":4416:4425   */\n      dup2\n        /* \"#utility.yul\":4410:4414   */\n      dup2\n        /* \"#utility.yul\":4406:4426   */\n      sub\n        /* \"#utility.yul\":4402:4403   */\n      0x00\n        /* \"#utility.yul\":4391:4400   */\n      dup4\n        /* \"#utility.yul\":4387:4404   */\n      add\n        /* \"#utility.yul\":4380:4427   */\n      mstore\n        /* \"#utility.yul\":4444:4544   */\n      tag_235\n        /* \"#utility.yul\":4539:4543   */\n      dup2\n        /* \"#utility.yul\":4530:4536   */\n      dup5\n        /* \"#utility.yul\":4444:4544   */\n      tag_137\n      jump\t// in\n    tag_235:\n        /* \"#utility.yul\":4436:4544   */\n      swap1\n      pop\n        /* \"#utility.yul\":4194:4551   */\n      swap3\n      swap2\n      pop\n      pop\n      jump\t// out\n        /* \"#utility.yul\":4557:4650   */\n    tag_138:\n        /* \"#utility.yul\":4593:4600   */\n      0x00\n        /* \"#utility.yul\":4633:4643   */\n      0xffffffff\n        /* \"#utility.yul\":4626:4631   */\n      dup3\n        /* \"#utility.yul\":4622:4644   */\n      and\n        /* \"#utility.yul\":4611:4644   */\n      swap1\n      pop\n        /* \"#utility.yul\":4557:4650   */\n      swap2\n      swap1\n      pop\n      jump\t// out\n        /* \"#utility.yul\":4656:4776   */\n    tag_139:\n        /* \"#utility.yul\":4728:4751   */\n      tag_238\n        /* \"#utility.yul\":4745:4750   */\n      dup2\n        /* \"#utility.yul\":4728:4751   */\n      tag_138\n      jump\t// in\n    tag_238:\n        /* \"#utility.yul\":4721:4726   */\n      dup2\n        /* \"#utility.yul\":4718:4752   */\n      eq\n        /* \"#utility.yul\":4708:4770   */\n      tag_239\n      jumpi\n        /* \"#utility.yul\":4766:4767   */\n      0x00\n        /* \"#utility.yul\":4763:4764   */\n      dup1\n        /* \"#utility.yul\":4756:4768   */\n      revert\n        /* \"#utility.yul\":4708:4770   */\n    tag_239:\n        /* \"#utility.yul\":4656:4776   */\n      pop\n      jump\t// out\n        /* \"#utility.yul\":4782:4919   */\n    tag_140:\n        /* \"#utility.yul\":4827:4832   */\n      0x00\n        /* \"#utility.yul\":4865:4871   */\n      dup2\n        /* \"#utility.yul\":4852:4872   */\n      calldataload\n        /* \"#utility.yul\":4843:4872   */\n      swap1\n      pop\n        /* \"#utility.yul\":4881:4913   */\n      tag_241\n        /* \"#utility.yul\":4907:4912   */\n      dup2\n        /* \"#utility.yul\":4881:4913   */\n      tag_139\n      jump\t// in\n    tag_241:\n        /* \"#utility.yul\":4782:4919   */\n      swap3\n      swap2\n      pop\n      pop\n      jump\t// out\n        /* \"#utility.yul\":4925:5252   */\n    tag_19:\n        /* \"#utility.yul\":4983:4989   */\n      0x00\n        /* \"#utility.yul\":5032:5034   */\n      0x20\n        /* \"#utility.yul\":5020:5029   */\n      dup3\n        /* \"#utility.yul\":5011:5018   */\n      dup5\n        /* \"#utility.yul\":5007:5030   */\n      sub\n        /* \"#utility.yul\":5003:5035   */\n      slt\n        /* \"#utility.yul\":5000:5119   */\n      iszero\n      tag_243\n      jumpi\n        /* \"#utility.yul\":5038:5117   */\n      tag_244\n      tag_119\n      jump\t// in\n    tag_244:\n        /* \"#utility.yul\":5000:5119   */\n    tag_243:\n        /* \"#utility.yul\":5158:5159   */\n      0x00\n        /* \"#utility.yul\":5183:5235   */\n      tag_245\n        /* \"#utility.yul\":5227:5234   */\n      dup5\n        /* \"#utility.yul\":5218:5224   */\n      dup3\n        /* \"#utility.yul\":5207:5216   */\n      dup6\n        /* \"#utility.yul\":5203:5225   */\n      add\n        /* \"#utility.yul\":5183:5235   */\n      tag_140\n      jump\t// in\n    tag_245:\n        /* \"#utility.yul\":5173:5235   */\n      swap2\n      pop\n        /* \"#utility.yul\":5129:5245   */\n      pop\n        /* \"#utility.yul\":4925:5252   */\n      swap3\n      swap2\n      pop\n      pop\n      jump\t// out\n        /* \"#utility.yul\":5258:5587   */\n    tag_26:\n        /* \"#utility.yul\":5317:5323   */\n      0x00\n        /* \"#utility.yul\":5366:5368   */\n      0x20\n        /* \"#utility.yul\":5354:5363   */\n      dup3\n        /* \"#utility.yul\":5345:5352   */\n      dup5\n        /* \"#utility.yul\":5341:5364   */\n      sub\n        /* \"#utility.yul\":5337:5369   */\n      slt\n        /* \"#utility.yul\":5334:5453   */\n      iszero\n      tag_247\n      jumpi\n        /* \"#utility.yul\":5372:5451   */\n      tag_248\n      tag_119\n      jump\t// in\n    tag_248:\n        /* \"#utility.yul\":5334:5453   */\n    tag_247:\n        /* \"#utility.yul\":5492:5493   */\n      0x00\n        /* \"#utility.yul\":5517:5570   */\n      tag_249\n        /* \"#utility.yul\":5562:5569   */\n      dup5\n        /* \"#utility.yul\":5553:5559   */\n      dup3\n        /* \"#utility.yul\":5542:5551   */\n      dup6\n        /* \"#utility.yul\":5538:5560   */\n      add\n        /* \"#utility.yul\":5517:5570   */\n      tag_124\n      jump\t// in\n    tag_249:\n        /* \"#utility.yul\":5507:5570   */\n      swap2\n      pop\n        /* \"#utility.yul\":5463:5580   */\n      pop\n        /* \"#utility.yul\":5258:5587   */\n      swap3\n      swap2\n      pop\n      pop\n      jump\t// out\n        /* \"#utility.yul\":5593:5728   */\n    tag_141:\n        /* \"#utility.yul\":5681:5687   */\n      0x00\n        /* \"#utility.yul\":5715:5720   */\n      dup2\n        /* \"#utility.yul\":5709:5721   */\n      mload\n        /* \"#utility.yul\":5699:5721   */\n      swap1\n      pop\n        /* \"#utility.yul\":5593:5728   */\n      swap2\n      swap1\n      pop\n      jump\t// out\n        /* \"#utility.yul\":5734:5939   */\n    tag_142:\n        /* \"#utility.yul\":5854:5865   */\n      0x00\n        /* \"#utility.yul\":5888:5894   */\n      dup3\n        /* \"#utility.yul\":5883:5886   */\n      dup3\n        /* \"#utility.yul\":5876:5895   */\n      mstore\n        /* \"#utility.yul\":5928:5932   */\n      0x20\n        /* \"#utility.yul\":5923:5926   */\n      dup3\n        /* \"#utility.yul\":5919:5933   */\n      add\n        /* \"#utility.yul\":5904:5933   */\n      swap1\n      pop\n        /* \"#utility.yul\":5734:5939   */\n      swap3\n      swap2\n      pop\n      pop\n      jump\t// out\n        /* \"#utility.yul\":5945:6098   */\n    tag_143:\n        /* \"#utility.yul\":6033:6037   */\n      0x00\n        /* \"#utility.yul\":6056:6059   */\n      dup2\n        /* \"#utility.yul\":6048:6059   */\n      swap1\n      pop\n        /* \"#utility.yul\":6086:6090   */\n      0x20\n        /* \"#utility.yul\":6081:6084   */\n      dup3\n        /* \"#utility.yul\":6077:6091   */\n      add\n        /* \"#utility.yul\":6069:6091   */\n      swap1\n      pop\n        /* \"#utility.yul\":5945:6098   */\n      swap2\n      swap1\n      pop\n      jump\t// out\n        /* \"#utility.yul\":6156:7273   */\n    tag_144:\n        /* \"#utility.yul\":6257:6260   */\n      0x00\n        /* \"#utility.yul\":6293:6297   */\n      0xa0\n        /* \"#utility.yul\":6288:6291   */\n      dup4\n        /* \"#utility.yul\":6284:6298   */\n      add\n        /* \"#utility.yul\":6378:6382   */\n      0x00\n        /* \"#utility.yul\":6371:6376   */\n      dup4\n        /* \"#utility.yul\":6367:6383   */\n      add\n        /* \"#utility.yul\":6361:6384   */\n      mload\n        /* \"#utility.yul\":6397:6460   */\n      tag_254\n        /* \"#utility.yul\":6454:6458   */\n      0x00\n        /* \"#utility.yul\":6449:6452   */\n      dup7\n        /* \"#utility.yul\":6445:6459   */\n      add\n        /* \"#utility.yul\":6431:6443   */\n      dup3\n        /* \"#utility.yul\":6397:6460   */\n      tag_128\n      jump\t// in\n    tag_254:\n        /* \"#utility.yul\":6308:6470   */\n      pop\n        /* \"#utility.yul\":6554:6558   */\n      0x20\n        /* \"#utility.yul\":6547:6552   */\n      dup4\n        /* \"#utility.yul\":6543:6559   */\n      add\n        /* \"#utility.yul\":6537:6560   */\n      mload\n        /* \"#utility.yul\":6573:6636   */\n      tag_255\n        /* \"#utility.yul\":6630:6634   */\n      0x20\n        /* \"#utility.yul\":6625:6628   */\n      dup7\n        /* \"#utility.yul\":6621:6635   */\n      add\n        /* \"#utility.yul\":6607:6619   */\n      dup3\n        /* \"#utility.yul\":6573:6636   */\n      tag_129\n      jump\t// in\n    tag_255:\n        /* \"#utility.yul\":6480:6646   */\n      pop\n        /* \"#utility.yul\":6731:6735   */\n      0x40\n        /* \"#utility.yul\":6724:6729   */\n      dup4\n        /* \"#utility.yul\":6720:6736   */\n      add\n        /* \"#utility.yul\":6714:6737   */\n      mload\n        /* \"#utility.yul\":6784:6787   */\n      dup5\n        /* \"#utility.yul\":6778:6782   */\n      dup3\n        /* \"#utility.yul\":6774:6788   */\n      sub\n        /* \"#utility.yul\":6767:6771   */\n      0x40\n        /* \"#utility.yul\":6762:6765   */\n      dup7\n        /* \"#utility.yul\":6758:6772   */\n      add\n        /* \"#utility.yul\":6751:6789   */\n      mstore\n        /* \"#utility.yul\":6810:6883   */\n      tag_256\n        /* \"#utility.yul\":6878:6882   */\n      dup3\n        /* \"#utility.yul\":6864:6876   */\n      dup3\n        /* \"#utility.yul\":6810:6883   */\n      tag_134\n      jump\t// in\n    tag_256:\n        /* \"#utility.yul\":6802:6883   */\n      swap2\n      pop\n        /* \"#utility.yul\":6656:6894   */\n      pop\n        /* \"#utility.yul\":6981:6985   */\n      0x60\n        /* \"#utility.yul\":6974:6979   */\n      dup4\n        /* \"#utility.yul\":6970:6986   */\n      add\n        /* \"#utility.yul\":6964:6987   */\n      mload\n        /* \"#utility.yul\":7000:7063   */\n      tag_257\n        /* \"#utility.yul\":7057:7061   */\n      0x60\n        /* \"#utility.yul\":7052:7055   */\n      dup7\n        /* \"#utility.yul\":7048:7062   */\n      add\n        /* \"#utility.yul\":7034:7046   */\n      dup3\n        /* \"#utility.yul\":7000:7063   */\n      tag_128\n      jump\t// in\n    tag_257:\n        /* \"#utility.yul\":6904:7073   */\n      pop\n        /* \"#utility.yul\":7156:7160   */\n      0x80\n        /* \"#utility.yul\":7149:7154   */\n      dup4\n        /* \"#utility.yul\":7145:7161   */\n      add\n        /* \"#utility.yul\":7139:7162   */\n      mload\n        /* \"#utility.yul\":7175:7236   */\n      tag_258\n        /* \"#utility.yul\":7230:7234   */\n      0x80\n        /* \"#utility.yul\":7225:7228   */\n      dup7\n        /* \"#utility.yul\":7221:7235   */\n      add\n        /* \"#utility.yul\":7207:7219   */\n      dup3\n        /* \"#utility.yul\":7175:7236   */\n      tag_136\n      jump\t// in\n    tag_258:\n        /* \"#utility.yul\":7083:7246   */\n      pop\n        /* \"#utility.yul\":7263:7267   */\n      dup1\n        /* \"#utility.yul\":7256:7267   */\n      swap2\n      pop\n        /* \"#utility.yul\":6262:7273   */\n      pop\n        /* \"#utility.yul\":6156:7273   */\n      swap3\n      swap2\n      pop\n      pop\n      jump\t// out\n        /* \"#utility.yul\":7279:7519   */\n    tag_145:\n        /* \"#utility.yul\":7390:7400   */\n      0x00\n        /* \"#utility.yul\":7425:7513   */\n      tag_260\n        /* \"#utility.yul\":7509:7512   */\n      dup4\n        /* \"#utility.yul\":7501:7507   */\n      dup4\n        /* \"#utility.yul\":7425:7513   */\n      tag_144\n      jump\t// in\n    tag_260:\n        /* \"#utility.yul\":7411:7513   */\n      swap1\n      pop\n        /* \"#utility.yul\":7279:7519   */\n      swap3\n      swap2\n      pop\n      pop\n      jump\t// out\n        /* \"#utility.yul\":7525:7659   */\n    tag_146:\n        /* \"#utility.yul\":7616:7620   */\n      0x00\n        /* \"#utility.yul\":7648:7652   */\n      0x20\n        /* \"#utility.yul\":7643:7646   */\n      dup3\n        /* \"#utility.yul\":7639:7653   */\n      add\n        /* \"#utility.yul\":7631:7653   */\n      swap1\n      pop\n        /* \"#utility.yul\":7525:7659   */\n      swap2\n      swap1\n      pop\n      jump\t// out\n        /* \"#utility.yul\":7721:8800   */\n    tag_147:\n        /* \"#utility.yul\":7882:7885   */\n      0x00\n        /* \"#utility.yul\":7911:7986   */\n      tag_263\n        /* \"#utility.yul\":7980:7985   */\n      dup3\n        /* \"#utility.yul\":7911:7986   */\n      tag_141\n      jump\t// in\n    tag_263:\n        /* \"#utility.yul\":8002:8109   */\n      tag_264\n        /* \"#utility.yul\":8102:8108   */\n      dup2\n        /* \"#utility.yul\":8097:8100   */\n      dup6\n        /* \"#utility.yul\":8002:8109   */\n      tag_142\n      jump\t// in\n    tag_264:\n        /* \"#utility.yul\":7995:8109   */\n      swap4\n      pop\n        /* \"#utility.yul\":8135:8138   */\n      dup4\n        /* \"#utility.yul\":8180:8184   */\n      0x20\n        /* \"#utility.yul\":8172:8178   */\n      dup3\n        /* \"#utility.yul\":8168:8185   */\n      mul\n        /* \"#utility.yul\":8163:8166   */\n      dup6\n        /* \"#utility.yul\":8159:8186   */\n      add\n        /* \"#utility.yul\":8210:8287   */\n      tag_265\n        /* \"#utility.yul\":8281:8286   */\n      dup6\n        /* \"#utility.yul\":8210:8287   */\n      tag_143\n      jump\t// in\n    tag_265:\n        /* \"#utility.yul\":8310:8317   */\n      dup1\n        /* \"#utility.yul\":8341:8342   */\n      0x00\n        /* \"#utility.yul\":8326:8755   */\n    tag_266:\n        /* \"#utility.yul\":8351:8357   */\n      dup6\n        /* \"#utility.yul\":8348:8349   */\n      dup2\n        /* \"#utility.yul\":8345:8358   */\n      lt\n        /* \"#utility.yul\":8326:8755   */\n      iszero\n      tag_268\n      jumpi\n        /* \"#utility.yul\":8422:8431   */\n      dup5\n        /* \"#utility.yul\":8416:8420   */\n      dup5\n        /* \"#utility.yul\":8412:8432   */\n      sub\n        /* \"#utility.yul\":8407:8410   */\n      dup10\n        /* \"#utility.yul\":8400:8433   */\n      mstore\n        /* \"#utility.yul\":8473:8479   */\n      dup2\n        /* \"#utility.yul\":8467:8480   */\n      mload\n        /* \"#utility.yul\":8501:8607   */\n      tag_269\n        /* \"#utility.yul\":8602:8606   */\n      dup6\n        /* \"#utility.yul\":8587:8600   */\n      dup3\n        /* \"#utility.yul\":8501:8607   */\n      tag_145\n      jump\t// in\n    tag_269:\n        /* \"#utility.yul\":8493:8607   */\n      swap5\n      pop\n        /* \"#utility.yul\":8630:8711   */\n      tag_270\n        /* \"#utility.yul\":8704:8710   */\n      dup4\n        /* \"#utility.yul\":8630:8711   */\n      tag_146\n      jump\t// in\n    tag_270:\n        /* \"#utility.yul\":8620:8711   */\n      swap3\n      pop\n        /* \"#utility.yul\":8740:8744   */\n      0x20\n        /* \"#utility.yul\":8735:8738   */\n      dup11\n        /* \"#utility.yul\":8731:8745   */\n      add\n        /* \"#utility.yul\":8724:8745   */\n      swap10\n      pop\n        /* \"#utility.yul\":8386:8755   */\n      pop\n        /* \"#utility.yul\":8373:8374   */\n      0x01\n        /* \"#utility.yul\":8370:8371   */\n      dup2\n        /* \"#utility.yul\":8366:8375   */\n      add\n        /* \"#utility.yul\":8361:8375   */\n      swap1\n      pop\n        /* \"#utility.yul\":8326:8755   */\n      jump(tag_266)\n    tag_268:\n        /* \"#utility.yul\":8330:8344   */\n      pop\n        /* \"#utility.yul\":8771:8775   */\n      dup3\n        /* \"#utility.yul\":8764:8775   */\n      swap8\n      pop\n        /* \"#utility.yul\":8791:8794   */\n      dup8\n        /* \"#utility.yul\":8784:8794   */\n      swap6\n      pop\n        /* \"#utility.yul\":7887:8800   */\n      pop\n      pop\n      pop\n      pop\n      pop\n        /* \"#utility.yul\":7721:8800   */\n      swap3\n      swap2\n      pop\n      pop\n      jump\t// out\n        /* \"#utility.yul\":8806:9263   */\n    tag_29:\n        /* \"#utility.yul\":8991:8995   */\n      0x00\n        /* \"#utility.yul\":9029:9031   */\n      0x20\n        /* \"#utility.yul\":9018:9027   */\n      dup3\n        /* \"#utility.yul\":9014:9032   */\n      add\n        /* \"#utility.yul\":9006:9032   */\n      swap1\n      pop\n        /* \"#utility.yul\":9078:9087   */\n      dup2\n        /* \"#utility.yul\":9072:9076   */\n      dup2\n        /* \"#utility.yul\":9068:9088   */\n      sub\n        /* \"#utility.yul\":9064:9065   */\n      0x00\n        /* \"#utility.yul\":9053:9062   */\n      dup4\n        /* \"#utility.yul\":9049:9066   */\n      add\n        /* \"#utility.yul\":9042:9089   */\n      mstore\n        /* \"#utility.yul\":9106:9256   */\n      tag_272\n        /* \"#utility.yul\":9251:9255   */\n      dup2\n        /* \"#utility.yul\":9242:9248   */\n      dup5\n        /* \"#utility.yul\":9106:9256   */\n      tag_147\n      jump\t// in\n    tag_272:\n        /* \"#utility.yul\":9098:9256   */\n      swap1\n      pop\n        /* \"#utility.yul\":8806:9263   */\n      swap3\n      swap2\n      pop\n      pop\n      jump\t// out\n        /* \"#utility.yul\":9269:9386   */\n    tag_148:\n        /* \"#utility.yul\":9378:9379   */\n      0x00\n        /* \"#utility.yul\":9375:9376   */\n      dup1\n        /* \"#utility.yul\":9368:9380   */\n      revert\n        /* \"#utility.yul\":9392:9509   */\n    tag_149:\n        /* \"#utility.yul\":9501:9502   */\n      0x00\n        /* \"#utility.yul\":9498:9499   */\n      dup1\n        /* \"#utility.yul\":9491:9503   */\n      revert\n        /* \"#utility.yul\":9515:9695   */\n    tag_150:\n        /* \"#utility.yul\":9563:9640   */\n      0x4e487b7100000000000000000000000000000000000000000000000000000000\n        /* \"#utility.yul\":9560:9561   */\n      0x00\n        /* \"#utility.yul\":9553:9641   */\n      mstore\n        /* \"#utility.yul\":9660:9664   */\n      0x41\n        /* \"#utility.yul\":9657:9658   */\n      0x04\n        /* \"#utility.yul\":9650:9665   */\n      mstore\n        /* \"#utility.yul\":9684:9688   */\n      0x24\n        /* \"#utility.yul\":9681:9682   */\n      0x00\n        /* \"#utility.yul\":9674:9689   */\n      revert\n        /* \"#utility.yul\":9701:9982   */\n    tag_151:\n        /* \"#utility.yul\":9784:9811   */\n      tag_277\n        /* \"#utility.yul\":9806:9810   */\n      dup3\n        /* \"#utility.yul\":9784:9811   */\n      tag_133\n      jump\t// in\n    tag_277:\n        /* \"#utility.yul\":9776:9782   */\n      dup2\n        /* \"#utility.yul\":9772:9812   */\n      add\n        /* \"#utility.yul\":9914:9920   */\n      dup2\n        /* \"#utility.yul\":9902:9912   */\n      dup2\n        /* \"#utility.yul\":9899:9921   */\n      lt\n        /* \"#utility.yul\":9878:9896   */\n      0xffffffffffffffff\n        /* \"#utility.yul\":9866:9876   */\n      dup3\n        /* \"#utility.yul\":9863:9897   */\n      gt\n        /* \"#utility.yul\":9860:9922   */\n      or\n        /* \"#utility.yul\":9857:9945   */\n      iszero\n      tag_278\n      jumpi\n        /* \"#utility.yul\":9925:9943   */\n      tag_279\n      tag_150\n      jump\t// in\n    tag_279:\n        /* \"#utility.yul\":9857:9945   */\n    tag_278:\n        /* \"#utility.yul\":9965:9975   */\n      dup1\n        /* \"#utility.yul\":9961:9963   */\n      0x40\n        /* \"#utility.yul\":9954:9976   */\n      mstore\n        /* \"#utility.yul\":9744:9982   */\n      pop\n        /* \"#utility.yul\":9701:9982   */\n      pop\n      pop\n      jump\t// out\n        /* \"#utility.yul\":9988:10117   */\n    tag_152:\n        /* \"#utility.yul\":10022:10028   */\n      0x00\n        /* \"#utility.yul\":10049:10069   */\n      tag_281\n      tag_118\n      jump\t// in\n    tag_281:\n        /* \"#utility.yul\":10039:10069   */\n      swap1\n      pop\n        /* \"#utility.yul\":10078:10111   */\n      tag_282\n        /* \"#utility.yul\":10106:10110   */\n      dup3\n        /* \"#utility.yul\":10098:10104   */\n      dup3\n        /* \"#utility.yul\":10078:10111   */\n      tag_151\n      jump\t// in\n    tag_282:\n        /* \"#utility.yul\":9988:10117   */\n      swap2\n      swap1\n      pop\n      jump\t// out\n        /* \"#utility.yul\":10123:10431   */\n    tag_153:\n        /* \"#utility.yul\":10185:10189   */\n      0x00\n        /* \"#utility.yul\":10275:10293   */\n      0xffffffffffffffff\n        /* \"#utility.yul\":10267:10273   */\n      dup3\n        /* \"#utility.yul\":10264:10294   */\n      gt\n        /* \"#utility.yul\":10261:10317   */\n      iszero\n      tag_284\n      jumpi\n        /* \"#utility.yul\":10297:10315   */\n      tag_285\n      tag_150\n      jump\t// in\n    tag_285:\n        /* \"#utility.yul\":10261:10317   */\n    tag_284:\n        /* \"#utility.yul\":10335:10364   */\n      tag_286\n        /* \"#utility.yul\":10357:10363   */\n      dup3\n        /* \"#utility.yul\":10335:10364   */\n      tag_133\n      jump\t// in\n    tag_286:\n        /* \"#utility.yul\":10327:10364   */\n      swap1\n      pop\n        /* \"#utility.yul\":10419:10423   */\n      0x20\n        /* \"#utility.yul\":10413:10417   */\n      dup2\n        /* \"#utility.yul\":10409:10424   */\n      add\n        /* \"#utility.yul\":10401:10424   */\n      swap1\n      pop\n        /* \"#utility.yul\":10123:10431   */\n      swap2\n      swap1\n      pop\n      jump\t// out\n        /* \"#utility.yul\":10437:10585   */\n    tag_154:\n        /* \"#utility.yul\":10535:10541   */\n      dup3\n        /* \"#utility.yul\":10530:10533   */\n      dup2\n        /* \"#utility.yul\":10525:10528   */\n      dup4\n        /* \"#utility.yul\":10512:10542   */\n      calldatacopy\n        /* \"#utility.yul\":10576:10577   */\n      0x00\n        /* \"#utility.yul\":10567:10573   */\n      dup4\n        /* \"#utility.yul\":10562:10565   */\n      dup4\n        /* \"#utility.yul\":10558:10574   */\n      add\n        /* \"#utility.yul\":10551:10578   */\n      mstore\n        /* \"#utility.yul\":10437:10585   */\n      pop\n      pop\n      pop\n      jump\t// out\n        /* \"#utility.yul\":10591:11016   */\n    tag_155:\n        /* \"#utility.yul\":10669:10674   */\n      0x00\n        /* \"#utility.yul\":10694:10760   */\n      tag_289\n        /* \"#utility.yul\":10710:10759   */\n      tag_290\n        /* \"#utility.yul\":10752:10758   */\n      dup5\n        /* \"#utility.yul\":10710:10759   */\n      tag_153\n      jump\t// in\n    tag_290:\n        /* \"#utility.yul\":10694:10760   */\n      tag_152\n      jump\t// in\n    tag_289:\n        /* \"#utility.yul\":10685:10760   */\n      swap1\n      pop\n        /* \"#utility.yul\":10783:10789   */\n      dup3\n        /* \"#utility.yul\":10776:10781   */\n      dup2\n        /* \"#utility.yul\":10769:10790   */\n      mstore\n        /* \"#utility.yul\":10821:10825   */\n      0x20\n        /* \"#utility.yul\":10814:10819   */\n      dup2\n        /* \"#utility.yul\":10810:10826   */\n      add\n        /* \"#utility.yul\":10859:10862   */\n      dup5\n        /* \"#utility.yul\":10850:10856   */\n      dup5\n        /* \"#utility.yul\":10845:10848   */\n      dup5\n        /* \"#utility.yul\":10841:10857   */\n      add\n        /* \"#utility.yul\":10838:10863   */\n      gt\n        /* \"#utility.yul\":10835:10947   */\n      iszero\n      tag_291\n      jumpi\n        /* \"#utility.yul\":10866:10945   */\n      tag_292\n      tag_149\n      jump\t// in\n    tag_292:\n        /* \"#utility.yul\":10835:10947   */\n    tag_291:\n        /* \"#utility.yul\":10956:11010   */\n      tag_293\n        /* \"#utility.yul\":11003:11009   */\n      dup5\n        /* \"#utility.yul\":10998:11001   */\n      dup3\n        /* \"#utility.yul\":10993:10996   */\n      dup6\n        /* \"#utility.yul\":10956:11010   */\n      tag_154\n      jump\t// in\n    tag_293:\n        /* \"#utility.yul\":10675:11016   */\n      pop\n        /* \"#utility.yul\":10591:11016   */\n      swap4\n      swap3\n      pop\n      pop\n      pop\n      jump\t// out\n        /* \"#utility.yul\":11036:11376   */\n    tag_156:\n        /* \"#utility.yul\":11092:11097   */\n      0x00\n        /* \"#utility.yul\":11141:11144   */\n      dup3\n        /* \"#utility.yul\":11134:11138   */\n      0x1f\n        /* \"#utility.yul\":11126:11132   */\n      dup4\n        /* \"#utility.yul\":11122:11139   */\n      add\n        /* \"#utility.yul\":11118:11145   */\n      slt\n        /* \"#utility.yul\":11108:11230   */\n      tag_295\n      jumpi\n        /* \"#utility.yul\":11149:11228   */\n      tag_296\n      tag_148\n      jump\t// in\n    tag_296:\n        /* \"#utility.yul\":11108:11230   */\n    tag_295:\n        /* \"#utility.yul\":11266:11272   */\n      dup2\n        /* \"#utility.yul\":11253:11273   */\n      calldataload\n        /* \"#utility.yul\":11291:11370   */\n      tag_297\n        /* \"#utility.yul\":11366:11369   */\n      dup5\n        /* \"#utility.yul\":11358:11364   */\n      dup3\n        /* \"#utility.yul\":11351:11355   */\n      0x20\n        /* \"#utility.yul\":11343:11349   */\n      dup7\n        /* \"#utility.yul\":11339:11356   */\n      add\n        /* \"#utility.yul\":11291:11370   */\n      tag_155\n      jump\t// in\n    tag_297:\n        /* \"#utility.yul\":11282:11370   */\n      swap2\n      pop\n        /* \"#utility.yul\":11098:11376   */\n      pop\n        /* \"#utility.yul\":11036:11376   */\n      swap3\n      swap2\n      pop\n      pop\n      jump\t// out\n        /* \"#utility.yul\":11382:11891   */\n    tag_32:\n        /* \"#utility.yul\":11451:11457   */\n      0x00\n        /* \"#utility.yul\":11500:11502   */\n      0x20\n        /* \"#utility.yul\":11488:11497   */\n      dup3\n        /* \"#utility.yul\":11479:11486   */\n      dup5\n        /* \"#utility.yul\":11475:11498   */\n      sub\n        /* \"#utility.yul\":11471:11503   */\n      slt\n        /* \"#utility.yul\":11468:11587   */\n      iszero\n      tag_299\n      jumpi\n        /* \"#utility.yul\":11506:11585   */\n      tag_300\n      tag_119\n      jump\t// in\n    tag_300:\n        /* \"#utility.yul\":11468:11587   */\n    tag_299:\n        /* \"#utility.yul\":11654:11655   */\n      0x00\n        /* \"#utility.yul\":11643:11652   */\n      dup3\n        /* \"#utility.yul\":11639:11656   */\n      add\n        /* \"#utility.yul\":11626:11657   */\n      calldataload\n        /* \"#utility.yul\":11684:11702   */\n      0xffffffffffffffff\n        /* \"#utility.yul\":11676:11682   */\n      dup2\n        /* \"#utility.yul\":11673:11703   */\n      gt\n        /* \"#utility.yul\":11670:11787   */\n      iszero\n      tag_301\n      jumpi\n        /* \"#utility.yul\":11706:11785   */\n      tag_302\n      tag_120\n      jump\t// in\n    tag_302:\n        /* \"#utility.yul\":11670:11787   */\n    tag_301:\n        /* \"#utility.yul\":11811:11874   */\n      tag_303\n        /* \"#utility.yul\":11866:11873   */\n      dup5\n        /* \"#utility.yul\":11857:11863   */\n      dup3\n        /* \"#utility.yul\":11846:11855   */\n      dup6\n        /* \"#utility.yul\":11842:11864   */\n      add\n        /* \"#utility.yul\":11811:11874   */\n      tag_156\n      jump\t// in\n    tag_303:\n        /* \"#utility.yul\":11801:11874   */\n      swap2\n      pop\n        /* \"#utility.yul\":11597:11884   */\n      pop\n        /* \"#utility.yul\":11382:11891   */\n      swap3\n      swap2\n      pop\n      pop\n      jump\t// out\n        /* \"#utility.yul\":11897:12012   */\n    tag_157:\n        /* \"#utility.yul\":11982:12005   */\n      tag_305\n        /* \"#utility.yul\":11999:12004   */\n      dup2\n        /* \"#utility.yul\":11982:12005   */\n      tag_138\n      jump\t// in\n    tag_305:\n        /* \"#utility.yul\":11977:11980   */\n      dup3\n        /* \"#utility.yul\":11970:12006   */\n      mstore\n        /* \"#utility.yul\":11897:12012   */\n      pop\n      pop\n      jump\t// out\n        /* \"#utility.yul\":12018:12236   */\n    tag_37:\n        /* \"#utility.yul\":12109:12113   */\n      0x00\n        /* \"#utility.yul\":12147:12149   */\n      0x20\n        /* \"#utility.yul\":12136:12145   */\n      dup3\n        /* \"#utility.yul\":12132:12150   */\n      add\n        /* \"#utility.yul\":12124:12150   */\n      swap1\n      pop\n        /* \"#utility.yul\":12160:12229   */\n      tag_307\n        /* \"#utility.yul\":12226:12227   */\n      0x00\n        /* \"#utility.yul\":12215:12224   */\n      dup4\n        /* \"#utility.yul\":12211:12228   */\n      add\n        /* \"#utility.yul\":12202:12208   */\n      dup5\n        /* \"#utility.yul\":12160:12229   */\n      tag_157\n      jump\t// in\n    tag_307:\n        /* \"#utility.yul\":12018:12236   */\n      swap3\n      swap2\n      pop\n      pop\n      jump\t// out\n        /* \"#utility.yul\":12242:12422   */\n    tag_46:\n        /* \"#utility.yul\":12290:12367   */\n      0x4e487b7100000000000000000000000000000000000000000000000000000000\n        /* \"#utility.yul\":12287:12288   */\n      0x00\n        /* \"#utility.yul\":12280:12368   */\n      mstore\n        /* \"#utility.yul\":12387:12391   */\n      0x32\n        /* \"#utility.yul\":12384:12385   */\n      0x04\n        /* \"#utility.yul\":12377:12392   */\n      mstore\n        /* \"#utility.yul\":12411:12415   */\n      0x24\n        /* \"#utility.yul\":12408:12409   */\n      0x00\n        /* \"#utility.yul\":12401:12416   */\n      revert\n        /* \"#utility.yul\":12428:12608   */\n    tag_158:\n        /* \"#utility.yul\":12476:12553   */\n      0x4e487b7100000000000000000000000000000000000000000000000000000000\n        /* \"#utility.yul\":12473:12474   */\n      0x00\n        /* \"#utility.yul\":12466:12554   */\n      mstore\n        /* \"#utility.yul\":12573:12577   */\n      0x22\n        /* \"#utility.yul\":12570:12571   */\n      0x04\n        /* \"#utility.yul\":12563:12578   */\n      mstore\n        /* \"#utility.yul\":12597:12601   */\n      0x24\n        /* \"#utility.yul\":12594:12595   */\n      0x00\n        /* \"#utility.yul\":12587:12602   */\n      revert\n        /* \"#utility.yul\":12614:12934   */\n    tag_49:\n        /* \"#utility.yul\":12658:12664   */\n      0x00\n        /* \"#utility.yul\":12695:12696   */\n      0x02\n        /* \"#utility.yul\":12689:12693   */\n      dup3\n        /* \"#utility.yul\":12685:12697   */\n      div\n        /* \"#utility.yul\":12675:12697   */\n      swap1\n      pop\n        /* \"#utility.yul\":12742:12743   */\n      0x01\n        /* \"#utility.yul\":12736:12740   */\n      dup3\n        /* \"#utility.yul\":12732:12744   */\n      and\n        /* \"#utility.yul\":12763:12781   */\n      dup1\n        /* \"#utility.yul\":12753:12834   */\n      tag_311\n      jumpi\n        /* \"#utility.yul\":12819:12823   */\n      0x7f\n        /* \"#utility.yul\":12811:12817   */\n      dup3\n        /* \"#utility.yul\":12807:12824   */\n      and\n        /* \"#utility.yul\":12797:12824   */\n      swap2\n      pop\n        /* \"#utility.yul\":12753:12834   */\n    tag_311:\n        /* \"#utility.yul\":12881:12883   */\n      0x20\n        /* \"#utility.yul\":12873:12879   */\n      dup3\n        /* \"#utility.yul\":12870:12884   */\n      lt\n        /* \"#utility.yul\":12850:12868   */\n      dup2\n        /* \"#utility.yul\":12847:12885   */\n      sub\n        /* \"#utility.yul\":12844:12928   */\n      tag_312\n      jumpi\n        /* \"#utility.yul\":12900:12918   */\n      tag_313\n      tag_158\n      jump\t// in\n    tag_313:\n        /* \"#utility.yul\":12844:12928   */\n    tag_312:\n        /* \"#utility.yul\":12665:12934   */\n      pop\n        /* \"#utility.yul\":12614:12934   */\n      swap2\n      swap1\n      pop\n      jump\t// out\n        /* \"#utility.yul\":12940:13109   */\n    tag_159:\n        /* \"#utility.yul\":13024:13035   */\n      0x00\n        /* \"#utility.yul\":13058:13064   */\n      dup3\n        /* \"#utility.yul\":13053:13056   */\n      dup3\n        /* \"#utility.yul\":13046:13065   */\n      mstore\n        /* \"#utility.yul\":13098:13102   */\n      0x20\n        /* \"#utility.yul\":13093:13096   */\n      dup3\n        /* \"#utility.yul\":13089:13103   */\n      add\n        /* \"#utility.yul\":13074:13103   */\n      swap1\n      pop\n        /* \"#utility.yul\":12940:13109   */\n      swap3\n      swap2\n      pop\n      pop\n      jump\t// out\n        /* \"#utility.yul\":13115:13286   */\n    tag_160:\n        /* \"#utility.yul\":13255:13278   */\n      0x596f7520617265206e6f7420746865206f776e65720000000000000000000000\n        /* \"#utility.yul\":13251:13252   */\n      0x00\n        /* \"#utility.yul\":13243:13249   */\n      dup3\n        /* \"#utility.yul\":13239:13253   */\n      add\n        /* \"#utility.yul\":13232:13279   */\n      mstore\n        /* \"#utility.yul\":13115:13286   */\n      pop\n      jump\t// out\n        /* \"#utility.yul\":13292:13658   */\n    tag_161:\n        /* \"#utility.yul\":13434:13437   */\n      0x00\n        /* \"#utility.yul\":13455:13522   */\n      tag_317\n        /* \"#utility.yul\":13519:13521   */\n      0x15\n        /* \"#utility.yul\":13514:13517   */\n      dup4\n        /* \"#utility.yul\":13455:13522   */\n      tag_159\n      jump\t// in\n    tag_317:\n        /* \"#utility.yul\":13448:13522   */\n      swap2\n      pop\n        /* \"#utility.yul\":13531:13624   */\n      tag_318\n        /* \"#utility.yul\":13620:13623   */\n      dup3\n        /* \"#utility.yul\":13531:13624   */\n      tag_160\n      jump\t// in\n    tag_318:\n        /* \"#utility.yul\":13649:13651   */\n      0x20\n        /* \"#utility.yul\":13644:13647   */\n      dup3\n        /* \"#utility.yul\":13640:13652   */\n      add\n        /* \"#utility.yul\":13633:13652   */\n      swap1\n      pop\n        /* \"#utility.yul\":13292:13658   */\n      swap2\n      swap1\n      pop\n      jump\t// out\n        /* \"#utility.yul\":13664:14083   */\n    tag_57:\n        /* \"#utility.yul\":13830:13834   */\n      0x00\n        /* \"#utility.yul\":13868:13870   */\n      0x20\n        /* \"#utility.yul\":13857:13866   */\n      dup3\n        /* \"#utility.yul\":13853:13871   */\n      add\n        /* \"#utility.yul\":13845:13871   */\n      swap1\n      pop\n        /* \"#utility.yul\":13917:13926   */\n      dup2\n        /* \"#utility.yul\":13911:13915   */\n      dup2\n        /* \"#utility.yul\":13907:13927   */\n      sub\n        /* \"#utility.yul\":13903:13904   */\n      0x00\n        /* \"#utility.yul\":13892:13901   */\n      dup4\n        /* \"#utility.yul\":13888:13905   */\n      add\n        /* \"#utility.yul\":13881:13928   */\n      mstore\n        /* \"#utility.yul\":13945:14076   */\n      tag_320\n        /* \"#utility.yul\":14071:14075   */\n      dup2\n        /* \"#utility.yul\":13945:14076   */\n      tag_161\n      jump\t// in\n    tag_320:\n        /* \"#utility.yul\":13937:14076   */\n      swap1\n      pop\n        /* \"#utility.yul\":13664:14083   */\n      swap2\n      swap1\n      pop\n      jump\t// out\n        /* \"#utility.yul\":14089:14259   */\n    tag_162:\n        /* \"#utility.yul\":14229:14251   */\n      0x547765657420646f6573206e6f74206578697374000000000000000000000000\n        /* \"#utility.yul\":14225:14226   */\n      0x00\n        /* \"#utility.yul\":14217:14223   */\n      dup3\n        /* \"#utility.yul\":14213:14227   */\n      add\n        /* \"#utility.yul\":14206:14252   */\n      mstore\n        /* \"#utility.yul\":14089:14259   */\n      pop\n      jump\t// out\n        /* \"#utility.yul\":14265:14631   */\n    tag_163:\n        /* \"#utility.yul\":14407:14410   */\n      0x00\n        /* \"#utility.yul\":14428:14495   */\n      tag_323\n        /* \"#utility.yul\":14492:14494   */\n      0x14\n        /* \"#utility.yul\":14487:14490   */\n      dup4\n        /* \"#utility.yul\":14428:14495   */\n      tag_159\n      jump\t// in\n    tag_323:\n        /* \"#utility.yul\":14421:14495   */\n      swap2\n      pop\n        /* \"#utility.yul\":14504:14597   */\n      tag_324\n        /* \"#utility.yul\":14593:14596   */\n      dup3\n        /* \"#utility.yul\":14504:14597   */\n      tag_162\n      jump\t// in\n    tag_324:\n        /* \"#utility.yul\":14622:14624   */\n      0x20\n        /* \"#utility.yul\":14617:14620   */\n      dup3\n        /* \"#utility.yul\":14613:14625   */\n      add\n        /* \"#utility.yul\":14606:14625   */\n      swap1\n      pop\n        /* \"#utility.yul\":14265:14631   */\n      swap2\n      swap1\n      pop\n      jump\t// out\n        /* \"#utility.yul\":14637:15056   */\n    tag_65:\n        /* \"#utility.yul\":14803:14807   */\n      0x00\n        /* \"#utility.yul\":14841:14843   */\n      0x20\n        /* \"#utility.yul\":14830:14839   */\n      dup3\n        /* \"#utility.yul\":14826:14844   */\n      add\n        /* \"#utility.yul\":14818:14844   */\n      swap1\n      pop\n        /* \"#utility.yul\":14890:14899   */\n      dup2\n        /* \"#utility.yul\":14884:14888   */\n      dup2\n        /* \"#utility.yul\":14880:14900   */\n      sub\n        /* \"#utility.yul\":14876:14877   */\n      0x00\n        /* \"#utility.yul\":14865:14874   */\n      dup4\n        /* \"#utility.yul\":14861:14878   */\n      add\n        /* \"#utility.yul\":14854:14901   */\n      mstore\n        /* \"#utility.yul\":14918:15049   */\n      tag_326\n        /* \"#utility.yul\":15044:15048   */\n      dup2\n        /* \"#utility.yul\":14918:15049   */\n      tag_163\n      jump\t// in\n    tag_326:\n        /* \"#utility.yul\":14910:15049   */\n      swap1\n      pop\n        /* \"#utility.yul\":14637:15056   */\n      swap2\n      swap1\n      pop\n      jump\t// out\n        /* \"#utility.yul\":15062:15242   */\n    tag_164:\n        /* \"#utility.yul\":15110:15187   */\n      0x4e487b7100000000000000000000000000000000000000000000000000000000\n        /* \"#utility.yul\":15107:15108   */\n      0x00\n        /* \"#utility.yul\":15100:15188   */\n      mstore\n        /* \"#utility.yul\":15207:15211   */\n      0x11\n        /* \"#utility.yul\":15204:15205   */\n      0x04\n        /* \"#utility.yul\":15197:15212   */\n      mstore\n        /* \"#utility.yul\":15231:15235   */\n      0x24\n        /* \"#utility.yul\":15228:15229   */\n      0x00\n        /* \"#utility.yul\":15221:15236   */\n      revert\n        /* \"#utility.yul\":15248:15431   */\n    tag_70:\n        /* \"#utility.yul\":15286:15289   */\n      0x00\n        /* \"#utility.yul\":15309:15332   */\n      tag_329\n        /* \"#utility.yul\":15326:15331   */\n      dup3\n        /* \"#utility.yul\":15309:15332   */\n      tag_135\n      jump\t// in\n    tag_329:\n        /* \"#utility.yul\":15300:15332   */\n      swap2\n      pop\n        /* \"#utility.yul\":15354:15372   */\n      0xffffffffffffffff\n        /* \"#utility.yul\":15347:15352   */\n      dup3\n        /* \"#utility.yul\":15344:15373   */\n      sub\n        /* \"#utility.yul\":15341:15396   */\n      tag_330\n      jumpi\n        /* \"#utility.yul\":15376:15394   */\n      tag_331\n      tag_164\n      jump\t// in\n    tag_331:\n        /* \"#utility.yul\":15341:15396   */\n    tag_330:\n        /* \"#utility.yul\":15423:15424   */\n      0x01\n        /* \"#utility.yul\":15416:15421   */\n      dup3\n        /* \"#utility.yul\":15412:15425   */\n      add\n        /* \"#utility.yul\":15405:15425   */\n      swap1\n      pop\n        /* \"#utility.yul\":15248:15431   */\n      swap2\n      swap1\n      pop\n      jump\t// out\n        /* \"#utility.yul\":15437:15555   */\n    tag_165:\n        /* \"#utility.yul\":15524:15548   */\n      tag_333\n        /* \"#utility.yul\":15542:15547   */\n      dup2\n        /* \"#utility.yul\":15524:15548   */\n      tag_125\n      jump\t// in\n    tag_333:\n        /* \"#utility.yul\":15519:15522   */\n      dup3\n        /* \"#utility.yul\":15512:15549   */\n      mstore\n        /* \"#utility.yul\":15437:15555   */\n      pop\n      pop\n      jump\t// out\n        /* \"#utility.yul\":15561:15783   */\n    tag_75:\n        /* \"#utility.yul\":15654:15658   */\n      0x00\n        /* \"#utility.yul\":15692:15694   */\n      0x20\n        /* \"#utility.yul\":15681:15690   */\n      dup3\n        /* \"#utility.yul\":15677:15695   */\n      add\n        /* \"#utility.yul\":15669:15695   */\n      swap1\n      pop\n        /* \"#utility.yul\":15705:15776   */\n      tag_335\n        /* \"#utility.yul\":15773:15774   */\n      0x00\n        /* \"#utility.yul\":15762:15771   */\n      dup4\n        /* \"#utility.yul\":15758:15775   */\n      add\n        /* \"#utility.yul\":15749:15755   */\n      dup5\n        /* \"#utility.yul\":15705:15776   */\n      tag_165\n      jump\t// in\n    tag_335:\n        /* \"#utility.yul\":15561:15783   */\n      swap3\n      swap2\n      pop\n      pop\n      jump\t// out\n        /* \"#utility.yul\":15789:16026   */\n    tag_166:\n        /* \"#utility.yul\":15929:15963   */\n      0x596f75207573656420746865206d6178696d756d206e756d626572206f662063\n        /* \"#utility.yul\":15925:15926   */\n      0x00\n        /* \"#utility.yul\":15917:15923   */\n      dup3\n        /* \"#utility.yul\":15913:15927   */\n      add\n        /* \"#utility.yul\":15906:15964   */\n      mstore\n        /* \"#utility.yul\":15998:16018   */\n      0x68617261637465727320706f737369626c650000000000000000000000000000\n        /* \"#utility.yul\":15993:15995   */\n      0x20\n        /* \"#utility.yul\":15985:15991   */\n      dup3\n        /* \"#utility.yul\":15981:15996   */\n      add\n        /* \"#utility.yul\":15974:16019   */\n      mstore\n        /* \"#utility.yul\":15789:16026   */\n      pop\n      jump\t// out\n        /* \"#utility.yul\":16032:16398   */\n    tag_167:\n        /* \"#utility.yul\":16174:16177   */\n      0x00\n        /* \"#utility.yul\":16195:16262   */\n      tag_338\n        /* \"#utility.yul\":16259:16261   */\n      0x32\n        /* \"#utility.yul\":16254:16257   */\n      dup4\n        /* \"#utility.yul\":16195:16262   */\n      tag_159\n      jump\t// in\n    tag_338:\n        /* \"#utility.yul\":16188:16262   */\n      swap2\n      pop\n        /* \"#utility.yul\":16271:16364   */\n      tag_339\n        /* \"#utility.yul\":16360:16363   */\n      dup3\n        /* \"#utility.yul\":16271:16364   */\n      tag_166\n      jump\t// in\n    tag_339:\n        /* \"#utility.yul\":16389:16391   */\n      0x40\n        /* \"#utility.yul\":16384:16387   */\n      dup3\n        /* \"#utility.yul\":16380:16392   */\n      add\n        /* \"#utility.yul\":16373:16392   */\n      swap1\n      pop\n        /* \"#utility.yul\":16032:16398   */\n      swap2\n      swap1\n      pop\n      jump\t// out\n        /* \"#utility.yul\":16404:16823   */\n    tag_88:\n        /* \"#utility.yul\":16570:16574   */\n      0x00\n        /* \"#utility.yul\":16608:16610   */\n      0x20\n        /* \"#utility.yul\":16597:16606   */\n      dup3\n        /* \"#utility.yul\":16593:16611   */\n      add\n        /* \"#utility.yul\":16585:16611   */\n      swap1\n      pop\n        /* \"#utility.yul\":16657:16666   */\n      dup2\n        /* \"#utility.yul\":16651:16655   */\n      dup2\n        /* \"#utility.yul\":16647:16667   */\n      sub\n        /* \"#utility.yul\":16643:16644   */\n      0x00\n        /* \"#utility.yul\":16632:16641   */\n      dup4\n        /* \"#utility.yul\":16628:16645   */\n      add\n        /* \"#utility.yul\":16621:16668   */\n      mstore\n        /* \"#utility.yul\":16685:16816   */\n      tag_341\n        /* \"#utility.yul\":16811:16815   */\n      dup2\n        /* \"#utility.yul\":16685:16816   */\n      tag_167\n      jump\t// in\n    tag_341:\n        /* \"#utility.yul\":16677:16816   */\n      swap1\n      pop\n        /* \"#utility.yul\":16404:16823   */\n      swap2\n      swap1\n      pop\n      jump\t// out\n        /* \"#utility.yul\":16829:16970   */\n    tag_168:\n        /* \"#utility.yul\":16878:16882   */\n      0x00\n        /* \"#utility.yul\":16901:16904   */\n      dup2\n        /* \"#utility.yul\":16893:16904   */\n      swap1\n      pop\n        /* \"#utility.yul\":16924:16927   */\n      dup2\n        /* \"#utility.yul\":16921:16922   */\n      0x00\n        /* \"#utility.yul\":16914:16928   */\n      mstore\n        /* \"#utility.yul\":16958:16962   */\n      0x20\n        /* \"#utility.yul\":16955:16956   */\n      0x00\n        /* \"#utility.yul\":16945:16963   */\n      keccak256\n        /* \"#utility.yul\":16937:16963   */\n      swap1\n      pop\n        /* \"#utility.yul\":16829:16970   */\n      swap2\n      swap1\n      pop\n      jump\t// out\n        /* \"#utility.yul\":16976:17069   */\n    tag_169:\n        /* \"#utility.yul\":17013:17019   */\n      0x00\n        /* \"#utility.yul\":17060:17062   */\n      0x20\n        /* \"#utility.yul\":17055:17057   */\n      0x1f\n        /* \"#utility.yul\":17048:17053   */\n      dup4\n        /* \"#utility.yul\":17044:17058   */\n      add\n        /* \"#utility.yul\":17040:17063   */\n      div\n        /* \"#utility.yul\":17030:17063   */\n      swap1\n      pop\n        /* \"#utility.yul\":16976:17069   */\n      swap2\n      swap1\n      pop\n      jump\t// out\n        /* \"#utility.yul\":17075:17182   */\n    tag_170:\n        /* \"#utility.yul\":17119:17127   */\n      0x00\n        /* \"#utility.yul\":17169:17174   */\n      dup3\n        /* \"#utility.yul\":17163:17167   */\n      dup3\n        /* \"#utility.yul\":17159:17175   */\n      shl\n        /* \"#utility.yul\":17138:17175   */\n      swap1\n      pop\n        /* \"#utility.yul\":17075:17182   */\n      swap3\n      swap2\n      pop\n      pop\n      jump\t// out\n        /* \"#utility.yul\":17188:17581   */\n    tag_171:\n        /* \"#utility.yul\":17257:17263   */\n      0x00\n        /* \"#utility.yul\":17307:17308   */\n      0x08\n        /* \"#utility.yul\":17295:17305   */\n      dup4\n        /* \"#utility.yul\":17291:17309   */\n      mul\n        /* \"#utility.yul\":17330:17427   */\n      tag_346\n        /* \"#utility.yul\":17360:17426   */\n      0xffffffffffffffffffffffffffffffffffffffffffffffffffffffffffffffff\n        /* \"#utility.yul\":17349:17358   */\n      dup3\n        /* \"#utility.yul\":17330:17427   */\n      tag_170\n      jump\t// in\n    tag_346:\n        /* \"#utility.yul\":17448:17487   */\n      tag_347\n        /* \"#utility.yul\":17478:17486   */\n      dup7\n        /* \"#utility.yul\":17467:17476   */\n      dup4\n        /* \"#utility.yul\":17448:17487   */\n      tag_170\n      jump\t// in\n    tag_347:\n        /* \"#utility.yul\":17436:17487   */\n      swap6\n      pop\n        /* \"#utility.yul\":17520:17524   */\n      dup1\n        /* \"#utility.yul\":17516:17525   */\n      not\n        /* \"#utility.yul\":17509:17514   */\n      dup5\n        /* \"#utility.yul\":17505:17526   */\n      and\n        /* \"#utility.yul\":17496:17526   */\n      swap4\n      pop\n        /* \"#utility.yul\":17569:17573   */\n      dup1\n        /* \"#utility.yul\":17559:17567   */\n      dup7\n        /* \"#utility.yul\":17555:17574   */\n      and\n        /* \"#utility.yul\":17548:17553   */\n      dup5\n        /* \"#utility.yul\":17545:17575   */\n      or\n        /* \"#utility.yul\":17535:17575   */\n      swap3\n      pop\n        /* \"#utility.yul\":17264:17581   */\n      pop\n      pop\n        /* \"#utility.yul\":17188:17581   */\n      swap4\n      swap3\n      pop\n      pop\n      pop\n      jump\t// out\n        /* \"#utility.yul\":17587:17647   */\n    tag_172:\n        /* \"#utility.yul\":17615:17618   */\n      0x00\n        /* \"#utility.yul\":17636:17641   */\n      dup2\n        /* \"#utility.yul\":17629:17641   */\n      swap1\n      pop\n        /* \"#utility.yul\":17587:17647   */\n      swap2\n      swap1\n      pop\n      jump\t// out\n        /* \"#utility.yul\":17653:17795   */\n    tag_173:\n        /* \"#utility.yul\":17703:17712   */\n      0x00\n        /* \"#utility.yul\":17736:17789   */\n      tag_350\n        /* \"#utility.yul\":17754:17788   */\n      tag_351\n        /* \"#utility.yul\":17763:17787   */\n      tag_352\n        /* \"#utility.yul\":17781:17786   */\n      dup5\n        /* \"#utility.yul\":17763:17787   */\n      tag_125\n      jump\t// in\n    tag_352:\n        /* \"#utility.yul\":17754:17788   */\n      tag_172\n      jump\t// in\n    tag_351:\n        /* \"#utility.yul\":17736:17789   */\n      tag_125\n      jump\t// in\n    tag_350:\n        /* \"#utility.yul\":17723:17789   */\n      swap1\n      pop\n        /* \"#utility.yul\":17653:17795   */\n      swap2\n      swap1\n      pop\n      jump\t// out\n        /* \"#utility.yul\":17801:17876   */\n    tag_174:\n        /* \"#utility.yul\":17844:17847   */\n      0x00\n        /* \"#utility.yul\":17865:17870   */\n      dup2\n        /* \"#utility.yul\":17858:17870   */\n      swap1\n      pop\n        /* \"#utility.yul\":17801:17876   */\n      swap2\n      swap1\n      pop\n      jump\t// out\n        /* \"#utility.yul\":17882:18151   */\n    tag_175:\n        /* \"#utility.yul\":17992:18031   */\n      tag_355\n        /* \"#utility.yul\":18023:18030   */\n      dup4\n        /* \"#utility.yul\":17992:18031   */\n      tag_173\n      jump\t// in\n    tag_355:\n        /* \"#utility.yul\":18053:18144   */\n      tag_356\n        /* \"#utility.yul\":18102:18143   */\n      tag_357\n        /* \"#utility.yul\":18126:18142   */\n      dup3\n        /* \"#utility.yul\":18102:18143   */\n      tag_174\n      jump\t// in\n    tag_357:\n        /* \"#utility.yul\":18094:18100   */\n      dup5\n        /* \"#utility.yul\":18087:18091   */\n      dup5\n        /* \"#utility.yul\":18081:18092   */\n      sload\n        /* \"#utility.yul\":18053:18144   */\n      tag_171\n      jump\t// in\n    tag_356:\n        /* \"#utility.yul\":18047:18051   */\n      dup3\n        /* \"#utility.yul\":18040:18145   */\n      sstore\n        /* \"#utility.yul\":17958:18151   */\n      pop\n        /* \"#utility.yul\":17882:18151   */\n      pop\n      pop\n      pop\n      jump\t// out\n        /* \"#utility.yul\":18157:18230   */\n    tag_176:\n        /* \"#utility.yul\":18202:18205   */\n      0x00\n        /* \"#utility.yul\":18157:18230   */\n      swap1\n      jump\t// out\n        /* \"#utility.yul\":18236:18425   */\n    tag_177:\n        /* \"#utility.yul\":18313:18345   */\n      tag_360\n      tag_176\n      jump\t// in\n    tag_360:\n        /* \"#utility.yul\":18354:18419   */\n      tag_361\n        /* \"#utility.yul\":18412:18418   */\n      dup2\n        /* \"#utility.yul\":18404:18410   */\n      dup5\n        /* \"#utility.yul\":18398:18402   */\n      dup5\n        /* \"#utility.yul\":18354:18419   */\n      tag_175\n      jump\t// in\n    tag_361:\n        /* \"#utility.yul\":18289:18425   */\n      pop\n        /* \"#utility.yul\":18236:18425   */\n      pop\n      pop\n      jump\t// out\n        /* \"#utility.yul\":18431:18617   */\n    tag_178:\n        /* \"#utility.yul\":18491:18611   */\n    tag_363:\n        /* \"#utility.yul\":18508:18511   */\n      dup2\n        /* \"#utility.yul\":18501:18506   */\n      dup2\n        /* \"#utility.yul\":18498:18512   */\n      lt\n        /* \"#utility.yul\":18491:18611   */\n      iszero\n      tag_365\n      jumpi\n        /* \"#utility.yul\":18562:18601   */\n      tag_366\n        /* \"#utility.yul\":18599:18600   */\n      0x00\n        /* \"#utility.yul\":18592:18597   */\n      dup3\n        /* \"#utility.yul\":18562:18601   */\n      tag_177\n      jump\t// in\n    tag_366:\n        /* \"#utility.yul\":18535:18536   */\n      0x01\n        /* \"#utility.yul\":18528:18533   */\n      dup2\n        /* \"#utility.yul\":18524:18537   */\n      add\n        /* \"#utility.yul\":18515:18537   */\n      swap1\n      pop\n        /* \"#utility.yul\":18491:18611   */\n      jump(tag_363)\n    tag_365:\n        /* \"#utility.yul\":18431:18617   */\n      pop\n      pop\n      jump\t// out\n        /* \"#utility.yul\":18623:19166   */\n    tag_179:\n        /* \"#utility.yul\":18724:18726   */\n      0x1f\n        /* \"#utility.yul\":18719:18722   */\n      dup3\n        /* \"#utility.yul\":18716:18727   */\n      gt\n        /* \"#utility.yul\":18713:19159   */\n      iszero\n      tag_368\n      jumpi\n        /* \"#utility.yul\":18758:18796   */\n      tag_369\n        /* \"#utility.yul\":18790:18795   */\n      dup2\n        /* \"#utility.yul\":18758:18796   */\n      tag_168\n      jump\t// in\n    tag_369:\n        /* \"#utility.yul\":18842:18871   */\n      tag_370\n        /* \"#utility.yul\":18860:18870   */\n      dup5\n        /* \"#utility.yul\":18842:18871   */\n      tag_169\n      jump\t// in\n    tag_370:\n        /* \"#utility.yul\":18832:18840   */\n      dup2\n        /* \"#utility.yul\":18828:18872   */\n      add\n        /* \"#utility.yul\":19025:19027   */\n      0x20\n        /* \"#utility.yul\":19013:19023   */\n      dup6\n        /* \"#utility.yul\":19010:19028   */\n      lt\n        /* \"#utility.yul\":19007:19056   */\n      iszero\n      tag_371\n      jumpi\n        /* \"#utility.yul\":19046:19054   */\n      dup2\n        /* \"#utility.yul\":19031:19054   */\n      swap1\n      pop\n        /* \"#utility.yul\":19007:19056   */\n    tag_371:\n        /* \"#utility.yul\":19069:19149   */\n      tag_372\n        /* \"#utility.yul\":19125:19147   */\n      tag_373\n        /* \"#utility.yul\":19143:19146   */\n      dup6\n        /* \"#utility.yul\":19125:19147   */\n      tag_169\n      jump\t// in\n    tag_373:\n        /* \"#utility.yul\":19115:19123   */\n      dup4\n        /* \"#utility.yul\":19111:19148   */\n      add\n        /* \"#utility.yul\":19098:19109   */\n      dup3\n        /* \"#utility.yul\":19069:19149   */\n      tag_178\n      jump\t// in\n    tag_372:\n        /* \"#utility.yul\":18728:19159   */\n      pop\n      pop\n        /* \"#utility.yul\":18713:19159   */\n    tag_368:\n        /* \"#utility.yul\":18623:19166   */\n      pop\n      pop\n      pop\n      jump\t// out\n        /* \"#utility.yul\":19172:19289   */\n    tag_180:\n        /* \"#utility.yul\":19226:19234   */\n      0x00\n        /* \"#utility.yul\":19276:19281   */\n      dup3\n        /* \"#utility.yul\":19270:19274   */\n      dup3\n        /* \"#utility.yul\":19266:19282   */\n      shr\n        /* \"#utility.yul\":19245:19282   */\n      swap1\n      pop\n        /* \"#utility.yul\":19172:19289   */\n      swap3\n      swap2\n      pop\n      pop\n      jump\t// out\n        /* \"#utility.yul\":19295:19464   */\n    tag_181:\n        /* \"#utility.yul\":19339:19345   */\n      0x00\n        /* \"#utility.yul\":19372:19423   */\n      tag_376\n        /* \"#utility.yul\":19420:19421   */\n      0x00\n        /* \"#utility.yul\":19416:19422   */\n      not\n        /* \"#utility.yul\":19408:19413   */\n      dup5\n        /* \"#utility.yul\":19405:19406   */\n      0x08\n        /* \"#utility.yul\":19401:19414   */\n      mul\n        /* \"#utility.yul\":19372:19423   */\n      tag_180\n      jump\t// in\n    tag_376:\n        /* \"#utility.yul\":19368:19424   */\n      not\n        /* \"#utility.yul\":19453:19457   */\n      dup1\n        /* \"#utility.yul\":19447:19451   */\n      dup4\n        /* \"#utility.yul\":19443:19458   */\n      and\n        /* \"#utility.yul\":19433:19458   */\n      swap2\n      pop\n        /* \"#utility.yul\":19346:19464   */\n      pop\n        /* \"#utility.yul\":19295:19464   */\n      swap3\n      swap2\n      pop\n      pop\n      jump\t// out\n        /* \"#utility.yul\":19469:19764   */\n    tag_182:\n        /* \"#utility.yul\":19545:19549   */\n      0x00\n        /* \"#utility.yul\":19691:19720   */\n      tag_378\n        /* \"#utility.yul\":19716:19719   */\n      dup4\n        /* \"#utility.yul\":19710:19714   */\n      dup4\n        /* \"#utility.yul\":19691:19720   */\n      tag_181\n      jump\t// in\n    tag_378:\n        /* \"#utility.yul\":19683:19720   */\n      swap2\n      pop\n        /* \"#utility.yul\":19753:19756   */\n      dup3\n        /* \"#utility.yul\":19750:19751   */\n      0x02\n        /* \"#utility.yul\":19746:19757   */\n      mul\n        /* \"#utility.yul\":19740:19744   */\n      dup3\n        /* \"#utility.yul\":19737:19758   */\n      or\n        /* \"#utility.yul\":19729:19758   */\n      swap1\n      pop\n        /* \"#utility.yul\":19469:19764   */\n      swap3\n      swap2\n      pop\n      pop\n      jump\t// out\n        /* \"#utility.yul\":19769:21164   */\n    tag_91:\n        /* \"#utility.yul\":19886:19923   */\n      tag_380\n        /* \"#utility.yul\":19919:19922   */\n      dup3\n        /* \"#utility.yul\":19886:19923   */\n      tag_130\n      jump\t// in\n    tag_380:\n        /* \"#utility.yul\":19988:20006   */\n      0xffffffffffffffff\n        /* \"#utility.yul\":19980:19986   */\n      dup2\n        /* \"#utility.yul\":19977:20007   */\n      gt\n        /* \"#utility.yul\":19974:20030   */\n      iszero\n      tag_381\n      jumpi\n        /* \"#utility.yul\":20010:20028   */\n      tag_382\n      tag_150\n      jump\t// in\n    tag_382:\n        /* \"#utility.yul\":19974:20030   */\n    tag_381:\n        /* \"#utility.yul\":20054:20092   */\n      tag_383\n        /* \"#utility.yul\":20086:20090   */\n      dup3\n        /* \"#utility.yul\":20080:20091   */\n      sload\n        /* \"#utility.yul\":20054:20092   */\n      tag_49\n      jump\t// in\n    tag_383:\n        /* \"#utility.yul\":20139:20206   */\n      tag_384\n        /* \"#utility.yul\":20199:20205   */\n      dup3\n        /* \"#utility.yul\":20191:20197   */\n      dup3\n        /* \"#utility.yul\":20185:20189   */\n      dup6\n        /* \"#utility.yul\":20139:20206   */\n      tag_179\n      jump\t// in\n    tag_384:\n        /* \"#utility.yul\":20233:20234   */\n      0x00\n        /* \"#utility.yul\":20257:20261   */\n      0x20\n        /* \"#utility.yul\":20244:20261   */\n      swap1\n      pop\n        /* \"#utility.yul\":20289:20291   */\n      0x1f\n        /* \"#utility.yul\":20281:20287   */\n      dup4\n        /* \"#utility.yul\":20278:20292   */\n      gt\n        /* \"#utility.yul\":20306:20307   */\n      0x01\n        /* \"#utility.yul\":20301:20919   */\n      dup2\n      eq\n      tag_386\n      jumpi\n        /* \"#utility.yul\":20963:20964   */\n      0x00\n        /* \"#utility.yul\":20980:20986   */\n      dup5\n        /* \"#utility.yul\":20977:21054   */\n      iszero\n      tag_387\n      jumpi\n        /* \"#utility.yul\":21029:21038   */\n      dup3\n        /* \"#utility.yul\":21024:21027   */\n      dup8\n        /* \"#utility.yul\":21020:21039   */\n      add\n        /* \"#utility.yul\":21014:21040   */\n      mload\n        /* \"#utility.yul\":21005:21040   */\n      swap1\n      pop\n        /* \"#utility.yul\":20977:21054   */\n    tag_387:\n        /* \"#utility.yul\":21080:21147   */\n      tag_388\n        /* \"#utility.yul\":21140:21146   */\n      dup6\n        /* \"#utility.yul\":21133:21138   */\n      dup3\n        /* \"#utility.yul\":21080:21147   */\n      tag_182\n      jump\t// in\n    tag_388:\n        /* \"#utility.yul\":21074:21078   */\n      dup7\n        /* \"#utility.yul\":21067:21148   */\n      sstore\n        /* \"#utility.yul\":20936:21158   */\n      pop\n        /* \"#utility.yul\":20271:21158   */\n      jump(tag_385)\n        /* \"#utility.yul\":20301:20919   */\n    tag_386:\n        /* \"#utility.yul\":20353:20357   */\n      0x1f\n        /* \"#utility.yul\":20349:20358   */\n      not\n        /* \"#utility.yul\":20341:20347   */\n      dup5\n        /* \"#utility.yul\":20337:20359   */\n      and\n        /* \"#utility.yul\":20387:20424   */\n      tag_389\n        /* \"#utility.yul\":20419:20423   */\n      dup7\n        /* \"#utility.yul\":20387:20424   */\n      tag_168\n      jump\t// in\n    tag_389:\n        /* \"#utility.yul\":20446:20447   */\n      0x00\n        /* \"#utility.yul\":20460:20668   */\n    tag_390:\n        /* \"#utility.yul\":20474:20481   */\n      dup3\n        /* \"#utility.yul\":20471:20472   */\n      dup2\n        /* \"#utility.yul\":20468:20482   */\n      lt\n        /* \"#utility.yul\":20460:20668   */\n      iszero\n      tag_392\n      jumpi\n        /* \"#utility.yul\":20553:20562   */\n      dup5\n        /* \"#utility.yul\":20548:20551   */\n      dup10\n        /* \"#utility.yul\":20544:20563   */\n      add\n        /* \"#utility.yul\":20538:20564   */\n      mload\n        /* \"#utility.yul\":20530:20536   */\n      dup3\n        /* \"#utility.yul\":20523:20565   */\n      sstore\n        /* \"#utility.yul\":20604:20605   */\n      0x01\n        /* \"#utility.yul\":20596:20602   */\n      dup3\n        /* \"#utility.yul\":20592:20606   */\n      add\n        /* \"#utility.yul\":20582:20606   */\n      swap2\n      pop\n        /* \"#utility.yul\":20651:20653   */\n      0x20\n        /* \"#utility.yul\":20640:20649   */\n      dup6\n        /* \"#utility.yul\":20636:20654   */\n      add\n        /* \"#utility.yul\":20623:20654   */\n      swap5\n      pop\n        /* \"#utility.yul\":20497:20501   */\n      0x20\n        /* \"#utility.yul\":20494:20495   */\n      dup2\n        /* \"#utility.yul\":20490:20502   */\n      add\n        /* \"#utility.yul\":20485:20502   */\n      swap1\n      pop\n        /* \"#utility.yul\":20460:20668   */\n      jump(tag_390)\n    tag_392:\n        /* \"#utility.yul\":20696:20702   */\n      dup7\n        /* \"#utility.yul\":20687:20694   */\n      dup4\n        /* \"#utility.yul\":20684:20703   */\n      lt\n        /* \"#utility.yul\":20681:20860   */\n      iszero\n      tag_393\n      jumpi\n        /* \"#utility.yul\":20754:20763   */\n      dup5\n        /* \"#utility.yul\":20749:20752   */\n      dup10\n        /* \"#utility.yul\":20745:20764   */\n      add\n        /* \"#utility.yul\":20739:20765   */\n      mload\n        /* \"#utility.yul\":20797:20845   */\n      tag_394\n        /* \"#utility.yul\":20839:20843   */\n      0x1f\n        /* \"#utility.yul\":20831:20837   */\n      dup10\n        /* \"#utility.yul\":20827:20844   */\n      and\n        /* \"#utility.yul\":20816:20825   */\n      dup3\n        /* \"#utility.yul\":20797:20845   */\n      tag_181\n      jump\t// in\n    tag_394:\n        /* \"#utility.yul\":20789:20795   */\n      dup4\n        /* \"#utility.yul\":20782:20846   */\n      sstore\n        /* \"#utility.yul\":20704:20860   */\n      pop\n        /* \"#utility.yul\":20681:20860   */\n    tag_393:\n        /* \"#utility.yul\":20906:20907   */\n      0x01\n        /* \"#utility.yul\":20902:20903   */\n      0x02\n        /* \"#utility.yul\":20894:20900   */\n      dup9\n        /* \"#utility.yul\":20890:20904   */\n      mul\n        /* \"#utility.yul\":20886:20908   */\n      add\n        /* \"#utility.yul\":20880:20884   */\n      dup9\n        /* \"#utility.yul\":20873:20909   */\n      sstore\n        /* \"#utility.yul\":20308:20919   */\n      pop\n      pop\n      pop\n        /* \"#utility.yul\":20271:21158   */\n    tag_385:\n      pop\n        /* \"#utility.yul\":19861:21164   */\n      pop\n      pop\n      pop\n        /* \"#utility.yul\":19769:21164   */\n      pop\n      pop\n      jump\t// out\n        /* \"#utility.yul\":21170:21318   */\n    tag_183:\n        /* \"#utility.yul\":21272:21283   */\n      0x00\n        /* \"#utility.yul\":21309:21312   */\n      dup2\n        /* \"#utility.yul\":21294:21312   */\n      swap1\n      pop\n        /* \"#utility.yul\":21170:21318   */\n      swap3\n      swap2\n      pop\n      pop\n      jump\t// out\n        /* \"#utility.yul\":21324:21714   */\n    tag_184:\n        /* \"#utility.yul\":21430:21433   */\n      0x00\n        /* \"#utility.yul\":21458:21497   */\n      tag_397\n        /* \"#utility.yul\":21491:21496   */\n      dup3\n        /* \"#utility.yul\":21458:21497   */\n      tag_130\n      jump\t// in\n    tag_397:\n        /* \"#utility.yul\":21513:21602   */\n      tag_398\n        /* \"#utility.yul\":21595:21601   */\n      dup2\n        /* \"#utility.yul\":21590:21593   */\n      dup6\n        /* \"#utility.yul\":21513:21602   */\n      tag_183\n      jump\t// in\n    tag_398:\n        /* \"#utility.yul\":21506:21602   */\n      swap4\n      pop\n        /* \"#utility.yul\":21611:21676   */\n      tag_399\n        /* \"#utility.yul\":21669:21675   */\n      dup2\n        /* \"#utility.yul\":21664:21667   */\n      dup6\n        /* \"#utility.yul\":21657:21661   */\n      0x20\n        /* \"#utility.yul\":21650:21655   */\n      dup7\n        /* \"#utility.yul\":21646:21662   */\n      add\n        /* \"#utility.yul\":21611:21676   */\n      tag_132\n      jump\t// in\n    tag_399:\n        /* \"#utility.yul\":21701:21707   */\n      dup1\n        /* \"#utility.yul\":21696:21699   */\n      dup5\n        /* \"#utility.yul\":21692:21708   */\n      add\n        /* \"#utility.yul\":21685:21708   */\n      swap2\n      pop\n        /* \"#utility.yul\":21434:21714   */\n      pop\n        /* \"#utility.yul\":21324:21714   */\n      swap3\n      swap2\n      pop\n      pop\n      jump\t// out\n        /* \"#utility.yul\":21720:21995   */\n    tag_93:\n        /* \"#utility.yul\":21852:21855   */\n      0x00\n        /* \"#utility.yul\":21874:21969   */\n      tag_401\n        /* \"#utility.yul\":21965:21968   */\n      dup3\n        /* \"#utility.yul\":21956:21962   */\n      dup5\n        /* \"#utility.yul\":21874:21969   */\n      tag_184\n      jump\t// in\n    tag_401:\n        /* \"#utility.yul\":21867:21969   */\n      swap2\n      pop\n        /* \"#utility.yul\":21986:21989   */\n      dup2\n        /* \"#utility.yul\":21979:21989   */\n      swap1\n      pop\n        /* \"#utility.yul\":21720:21995   */\n      swap3\n      swap2\n      pop\n      pop\n      jump\t// out\n        /* \"#utility.yul\":22001:22165   */\n    tag_185:\n        /* \"#utility.yul\":22141:22157   */\n      0x4e65772054776565742062793a20000000000000000000000000000000000000\n        /* \"#utility.yul\":22137:22138   */\n      0x00\n        /* \"#utility.yul\":22129:22135   */\n      dup3\n        /* \"#utility.yul\":22125:22139   */\n      add\n        /* \"#utility.yul\":22118:22158   */\n      mstore\n        /* \"#utility.yul\":22001:22165   */\n      pop\n      jump\t// out\n        /* \"#utility.yul\":22171:22573   */\n    tag_186:\n        /* \"#utility.yul\":22331:22334   */\n      0x00\n        /* \"#utility.yul\":22352:22437   */\n      tag_404\n        /* \"#utility.yul\":22434:22436   */\n      0x0e\n        /* \"#utility.yul\":22429:22432   */\n      dup4\n        /* \"#utility.yul\":22352:22437   */\n      tag_183\n      jump\t// in\n    tag_404:\n        /* \"#utility.yul\":22345:22437   */\n      swap2\n      pop\n        /* \"#utility.yul\":22446:22539   */\n      tag_405\n        /* \"#utility.yul\":22535:22538   */\n      dup3\n        /* \"#utility.yul\":22446:22539   */\n      tag_185\n      jump\t// in\n    tag_405:\n        /* \"#utility.yul\":22564:22566   */\n      0x0e\n        /* \"#utility.yul\":22559:22562   */\n      dup3\n        /* \"#utility.yul\":22555:22567   */\n      add\n        /* \"#utility.yul\":22548:22567   */\n      swap1\n      pop\n        /* \"#utility.yul\":22171:22573   */\n      swap2\n      swap1\n      pop\n      jump\t// out\n        /* \"#utility.yul\":22579:22960   */\n    tag_95:\n        /* \"#utility.yul\":22764:22767   */\n      0x00\n        /* \"#utility.yul\":22786:22934   */\n      tag_407\n        /* \"#utility.yul\":22930:22933   */\n      dup3\n        /* \"#utility.yul\":22786:22934   */\n      tag_186\n      jump\t// in\n    tag_407:\n        /* \"#utility.yul\":22779:22934   */\n      swap2\n      pop\n        /* \"#utility.yul\":22951:22954   */\n      dup2\n        /* \"#utility.yul\":22944:22954   */\n      swap1\n      pop\n        /* \"#utility.yul\":22579:22960   */\n      swap2\n      swap1\n      pop\n      jump\t// out\n        /* \"#utility.yul\":22966:23128   */\n    tag_187:\n        /* \"#utility.yul\":23106:23120   */\n      0x4e6f7420706f737369626c650000000000000000000000000000000000000000\n        /* \"#utility.yul\":23102:23103   */\n      0x00\n        /* \"#utility.yul\":23094:23100   */\n      dup3\n        /* \"#utility.yul\":23090:23104   */\n      add\n        /* \"#utility.yul\":23083:23121   */\n      mstore\n        /* \"#utility.yul\":22966:23128   */\n      pop\n      jump\t// out\n        /* \"#utility.yul\":23134:23500   */\n    tag_188:\n        /* \"#utility.yul\":23276:23279   */\n      0x00\n        /* \"#utility.yul\":23297:23364   */\n      tag_410\n        /* \"#utility.yul\":23361:23363   */\n      0x0c\n        /* \"#utility.yul\":23356:23359   */\n      dup4\n        /* \"#utility.yul\":23297:23364   */\n      tag_159\n      jump\t// in\n    tag_410:\n        /* \"#utility.yul\":23290:23364   */\n      swap2\n      pop\n        /* \"#utility.yul\":23373:23466   */\n      tag_411\n        /* \"#utility.yul\":23462:23465   */\n      dup3\n        /* \"#utility.yul\":23373:23466   */\n      tag_187\n      jump\t// in\n    tag_411:\n        /* \"#utility.yul\":23491:23493   */\n      0x20\n        /* \"#utility.yul\":23486:23489   */\n      dup3\n        /* \"#utility.yul\":23482:23494   */\n      add\n        /* \"#utility.yul\":23475:23494   */\n      swap1\n      pop\n        /* \"#utility.yul\":23134:23500   */\n      swap2\n      swap1\n      pop\n      jump\t// out\n        /* \"#utility.yul\":23506:23925   */\n    tag_108:\n        /* \"#utility.yul\":23672:23676   */\n      0x00\n        /* \"#utility.yul\":23710:23712   */\n      0x20\n        /* \"#utility.yul\":23699:23708   */\n      dup3\n        /* \"#utility.yul\":23695:23713   */\n      add\n        /* \"#utility.yul\":23687:23713   */\n      swap1\n      pop\n        /* \"#utility.yul\":23759:23768   */\n      dup2\n        /* \"#utility.yul\":23753:23757   */\n      dup2\n        /* \"#utility.yul\":23749:23769   */\n      sub\n        /* \"#utility.yul\":23745:23746   */\n      0x00\n        /* \"#utility.yul\":23734:23743   */\n      dup4\n        /* \"#utility.yul\":23730:23747   */\n      add\n        /* \"#utility.yul\":23723:23770   */\n      mstore\n        /* \"#utility.yul\":23787:23918   */\n      tag_413\n        /* \"#utility.yul\":23913:23917   */\n      dup2\n        /* \"#utility.yul\":23787:23918   */\n      tag_188\n      jump\t// in\n    tag_413:\n        /* \"#utility.yul\":23779:23918   */\n      swap1\n      pop\n        /* \"#utility.yul\":23506:23925   */\n      swap2\n      swap1\n      pop\n      jump\t// out\n        /* \"#utility.yul\":23931:24100   */\n    tag_113:\n        /* \"#utility.yul\":23969:23972   */\n      0x00\n        /* \"#utility.yul\":23992:24015   */\n      tag_415\n        /* \"#utility.yul\":24009:24014   */\n      dup3\n        /* \"#utility.yul\":23992:24015   */\n      tag_135\n      jump\t// in\n    tag_415:\n        /* \"#utility.yul\":23983:24015   */\n      swap2\n      pop\n        /* \"#utility.yul\":24037:24041   */\n      0x00\n        /* \"#utility.yul\":24030:24035   */\n      dup3\n        /* \"#utility.yul\":24027:24042   */\n      sub\n        /* \"#utility.yul\":24024:24065   */\n      tag_416\n      jumpi\n        /* \"#utility.yul\":24045:24063   */\n      tag_417\n      tag_164\n      jump\t// in\n    tag_417:\n        /* \"#utility.yul\":24024:24065   */\n    tag_416:\n        /* \"#utility.yul\":24092:24093   */\n      0x01\n        /* \"#utility.yul\":24085:24090   */\n      dup3\n        /* \"#utility.yul\":24081:24094   */\n      sub\n        /* \"#utility.yul\":24074:24094   */\n      swap1\n      pop\n        /* \"#utility.yul\":23931:24100   */\n      swap2\n      swap1\n      pop\n      jump\t// out\n\n    auxdata: 0xa2646970667358221220814a9e756ef90703207e6ecfbddd28406f5f0419409769dba2f3686fd0c5ef0364736f6c634300081a0033\n}\n",
				"bytecode": {
					"linkReferences": {},
					"object": "608060405261011860025f6101000a81548163ffffffff021916908363ffffffff1602179055503480156030575f80fd5b50335f806101000a81548173ffffffffffffffffffffffffffffffffffffffff021916908373ffffffffffffffffffffffffffffffffffffffff1602179055506119208061007d5f395ff3fe608060405234801561000f575f80fd5b506004361061007b575f3560e01c80636a6cdab8116100595780636a6cdab8146100e75780637c9cd2bc14610117578063a2afce8814610133578063ae775e95146101515761007b565b8063112f54e31461007f578063318ea667146100af57806363378216146100cb575b5f80fd5b61009960048036038101906100949190610dcc565b61016d565b6040516100a69190610f2d565b60405180910390f35b6100c960048036038101906100c49190610f86565b61030c565b005b6100e560048036038101906100e09190610dcc565b6103bc565b005b61010160048036038101906100fc9190610fb1565b6105e8565b60405161010e919061110a565b60405180910390f35b610131600480360381019061012c9190611256565b6107aa565b005b61013b610a19565b60405161014891906112ac565b60405180910390f35b61016b60048036038101906101669190610dcc565b610a31565b005b610175610ce3565b60015f8473ffffffffffffffffffffffffffffffffffffffff1673ffffffffffffffffffffffffffffffffffffffff1681526020019081526020015f2082815481106101c4576101c36112c5565b5b905f5260205f2090600502016040518060a00160405290815f8201548152602001600182015f9054906101000a900473ffffffffffffffffffffffffffffffffffffffff1673ffffffffffffffffffffffffffffffffffffffff1673ffffffffffffffffffffffffffffffffffffffff1681526020016002820180546102499061131f565b80601f01602080910402602001604051908101604052809291908181526020018280546102759061131f565b80156102c05780601f10610297576101008083540402835291602001916102c0565b820191905f5260205f20905b8154815290600101906020018083116102a357829003601f168201915b5050505050815260200160038201548152602001600482015f9054906101000a900467ffffffffffffffff1667ffffffffffffffff1667ffffffffffffffff1681525050905092915050565b5f8054906101000a900473ffffffffffffffffffffffffffffffffffffffff1673ffffffffffffffffffffffffffffffffffffffff163373ffffffffffffffffffffffffffffffffffffffff1614610399576040517f08c379a0000000000000000000000000000000000000000000000000000000008152600401610390906113a9565b60405180910390fd5b8060025f6101000a81548163ffffffff021916908363ffffffff16021790555050565b8060015f8473ffffffffffffffffffffffffffffffffffffffff1673ffffffffffffffffffffffffffffffffffffffff1681526020019081526020015f20828154811061040c5761040b6112c5565b5b905f5260205f2090600502015f01541461045b576040517f08c379a000000000000000000000000000000000000000000000000000000000815260040161045290611411565b60405180910390fd5b60015f8373ffffffffffffffffffffffffffffffffffffffff1673ffffffffffffffffffffffffffffffffffffffff1681526020019081526020015f2081815481106104aa576104a96112c5565b5b905f5260205f2090600502016004015f81819054906101000a900467ffffffffffffffff16809291906104dc9061145c565b91906101000a81548167ffffffffffffffff021916908367ffffffffffffffff1602179055505060015f8373ffffffffffffffffffffffffffffffffffffffff1673ffffffffffffffffffffffffffffffffffffffff1681526020019081526020015f208181548110610552576105516112c5565b5b905f5260205f2090600502016004015f9054906101000a900467ffffffffffffffff1667ffffffffffffffff168273ffffffffffffffffffffffffffffffffffffffff163373ffffffffffffffffffffffffffffffffffffffff167f98b9265fbe61ab93c34e3313887637bb4e94bd304723622c0450fcc7572ddf1e426040516105dc919061149a565b60405180910390a45050565b606060015f8373ffffffffffffffffffffffffffffffffffffffff1673ffffffffffffffffffffffffffffffffffffffff1681526020019081526020015f20805480602002602001604051908101604052809291908181526020015f905b8282101561079f578382905f5260205f2090600502016040518060a00160405290815f8201548152602001600182015f9054906101000a900473ffffffffffffffffffffffffffffffffffffffff1673ffffffffffffffffffffffffffffffffffffffff1673ffffffffffffffffffffffffffffffffffffffff1681526020016002820180546106d59061131f565b80601f01602080910402602001604051908101604052809291908181526020018280546107019061131f565b801561074c5780601f106107235761010080835404028352916020019161074c565b820191905f5260205f20905b81548152906001019060200180831161072f57829003601f168201915b5050505050815260200160038201548152602001600482015f9054906101000a900467ffffffffffffffff1667ffffffffffffffff1667ffffffffffffffff168152505081526020019060010190610646565b505050509050919050565b60025f9054906101000a900463ffffffff1663ffffffff1681511115610805576040517f08c379a00000000000000000000000000000000000000000000000000000000081526004016107fc90611523565b60405180910390fd5b5f6040518060a0016040528060015f3373ffffffffffffffffffffffffffffffffffffffff1673ffffffffffffffffffffffffffffffffffffffff1681526020019081526020015f208054905081526020013373ffffffffffffffffffffffffffffffffffffffff1681526020018381526020014281526020015f67ffffffffffffffff16815250905060015f3373ffffffffffffffffffffffffffffffffffffffff1673ffffffffffffffffffffffffffffffffffffffff1681526020019081526020015f2081908060018154018082558091505060019003905f5260205f2090600502015f909190919091505f820151815f01556020820151816001015f6101000a81548173ffffffffffffffffffffffffffffffffffffffff021916908373ffffffffffffffffffffffffffffffffffffffff160217905550604082015181600201908161095691906116de565b50606082015181600301556080820151816004015f6101000a81548167ffffffffffffffff021916908367ffffffffffffffff160217905550505080604001516040516109a391906117e7565b6040518091039020816020015173ffffffffffffffffffffffffffffffffffffffff166040516109d290611847565b60405180910390207f24851db9152097137545b14424ac5e35714ad65b716771621cfdc771aa7876de8460600151604051610a0d919061149a565b60405180910390a45050565b5f60025f9054906101000a900463ffffffff16905090565b8060015f8473ffffffffffffffffffffffffffffffffffffffff1673ffffffffffffffffffffffffffffffffffffffff1681526020019081526020015f208281548110610a8157610a806112c5565b5b905f5260205f2090600502015f0154148015610b1757505f60015f8473ffffffffffffffffffffffffffffffffffffffff1673ffffffffffffffffffffffffffffffffffffffff1681526020019081526020015f208281548110610ae857610ae76112c5565b5b905f5260205f2090600502016004015f9054906101000a900467ffffffffffffffff1667ffffffffffffffff16115b610b56576040517f08c379a0000000000000000000000000000000000000000000000000000000008152600401610b4d906118a5565b60405180910390fd5b60015f8373ffffffffffffffffffffffffffffffffffffffff1673ffffffffffffffffffffffffffffffffffffffff1681526020019081526020015f208181548110610ba557610ba46112c5565b5b905f5260205f2090600502016004015f81819054906101000a900467ffffffffffffffff1680929190610bd7906118c3565b91906101000a81548167ffffffffffffffff021916908367ffffffffffffffff1602179055505060015f8373ffffffffffffffffffffffffffffffffffffffff1673ffffffffffffffffffffffffffffffffffffffff1681526020019081526020015f208181548110610c4d57610c4c6112c5565b5b905f5260205f2090600502016004015f9054906101000a900467ffffffffffffffff1667ffffffffffffffff168273ffffffffffffffffffffffffffffffffffffffff163373ffffffffffffffffffffffffffffffffffffffff167fbe0a9aa2bc4a5667d4eb4dd05b204ccc5f3b48133520a5074d875389bc88239242604051610cd7919061149a565b60405180910390a45050565b6040518060a001604052805f81526020015f73ffffffffffffffffffffffffffffffffffffffff168152602001606081526020015f81526020015f67ffffffffffffffff1681525090565b5f604051905090565b5f80fd5b5f80fd5b5f73ffffffffffffffffffffffffffffffffffffffff82169050919050565b5f610d6882610d3f565b9050919050565b610d7881610d5e565b8114610d82575f80fd5b50565b5f81359050610d9381610d6f565b92915050565b5f819050919050565b610dab81610d99565b8114610db5575f80fd5b50565b5f81359050610dc681610da2565b92915050565b5f8060408385031215610de257610de1610d37565b5b5f610def85828601610d85565b9250506020610e0085828601610db8565b9150509250929050565b610e1381610d99565b82525050565b610e2281610d5e565b82525050565b5f81519050919050565b5f82825260208201905092915050565b8281835e5f83830152505050565b5f601f19601f8301169050919050565b5f610e6a82610e28565b610e748185610e32565b9350610e84818560208601610e42565b610e8d81610e50565b840191505092915050565b5f67ffffffffffffffff82169050919050565b610eb481610e98565b82525050565b5f60a083015f830151610ecf5f860182610e0a565b506020830151610ee26020860182610e19565b5060408301518482036040860152610efa8282610e60565b9150506060830151610f0f6060860182610e0a565b506080830151610f226080860182610eab565b508091505092915050565b5f6020820190508181035f830152610f458184610eba565b905092915050565b5f63ffffffff82169050919050565b610f6581610f4d565b8114610f6f575f80fd5b50565b5f81359050610f8081610f5c565b92915050565b5f60208284031215610f9b57610f9a610d37565b5b5f610fa884828501610f72565b91505092915050565b5f60208284031215610fc657610fc5610d37565b5b5f610fd384828501610d85565b91505092915050565b5f81519050919050565b5f82825260208201905092915050565b5f819050602082019050919050565b5f60a083015f83015161101a5f860182610e0a565b50602083015161102d6020860182610e19565b50604083015184820360408601526110458282610e60565b915050606083015161105a6060860182610e0a565b50608083015161106d6080860182610eab565b508091505092915050565b5f6110838383611005565b905092915050565b5f602082019050919050565b5f6110a182610fdc565b6110ab8185610fe6565b9350836020820285016110bd85610ff6565b805f5b858110156110f857848403895281516110d98582611078565b94506110e48361108b565b925060208a019950506001810190506110c0565b50829750879550505050505092915050565b5f6020820190508181035f8301526111228184611097565b905092915050565b5f80fd5b5f80fd5b7f4e487b71000000000000000000000000000000000000000000000000000000005f52604160045260245ffd5b61116882610e50565b810181811067ffffffffffffffff8211171561118757611186611132565b5b80604052505050565b5f611199610d2e565b90506111a5828261115f565b919050565b5f67ffffffffffffffff8211156111c4576111c3611132565b5b6111cd82610e50565b9050602081019050919050565b828183375f83830152505050565b5f6111fa6111f5846111aa565b611190565b9050828152602081018484840111156112165761121561112e565b5b6112218482856111da565b509392505050565b5f82601f83011261123d5761123c61112a565b5b813561124d8482602086016111e8565b91505092915050565b5f6020828403121561126b5761126a610d37565b5b5f82013567ffffffffffffffff81111561128857611287610d3b565b5b61129484828501611229565b91505092915050565b6112a681610f4d565b82525050565b5f6020820190506112bf5f83018461129d565b92915050565b7f4e487b71000000000000000000000000000000000000000000000000000000005f52603260045260245ffd5b7f4e487b71000000000000000000000000000000000000000000000000000000005f52602260045260245ffd5b5f600282049050600182168061133657607f821691505b602082108103611349576113486112f2565b5b50919050565b5f82825260208201905092915050565b7f596f7520617265206e6f7420746865206f776e657200000000000000000000005f82015250565b5f61139360158361134f565b915061139e8261135f565b602082019050919050565b5f6020820190508181035f8301526113c081611387565b9050919050565b7f547765657420646f6573206e6f742065786973740000000000000000000000005f82015250565b5f6113fb60148361134f565b9150611406826113c7565b602082019050919050565b5f6020820190508181035f830152611428816113ef565b9050919050565b7f4e487b71000000000000000000000000000000000000000000000000000000005f52601160045260245ffd5b5f61146682610e98565b915067ffffffffffffffff82036114805761147f61142f565b5b600182019050919050565b61149481610d99565b82525050565b5f6020820190506114ad5f83018461148b565b92915050565b7f596f75207573656420746865206d6178696d756d206e756d626572206f6620635f8201527f68617261637465727320706f737369626c650000000000000000000000000000602082015250565b5f61150d60328361134f565b9150611518826114b3565b604082019050919050565b5f6020820190508181035f83015261153a81611501565b9050919050565b5f819050815f5260205f209050919050565b5f6020601f8301049050919050565b5f82821b905092915050565b5f6008830261159d7fffffffffffffffffffffffffffffffffffffffffffffffffffffffffffffffff82611562565b6115a78683611562565b95508019841693508086168417925050509392505050565b5f819050919050565b5f6115e26115dd6115d884610d99565b6115bf565b610d99565b9050919050565b5f819050919050565b6115fb836115c8565b61160f611607826115e9565b84845461156e565b825550505050565b5f90565b611623611617565b61162e8184846115f2565b505050565b5b81811015611651576116465f8261161b565b600181019050611634565b5050565b601f8211156116965761166781611541565b61167084611553565b8101602085101561167f578190505b61169361168b85611553565b830182611633565b50505b505050565b5f82821c905092915050565b5f6116b65f198460080261169b565b1980831691505092915050565b5f6116ce83836116a7565b9150826002028217905092915050565b6116e782610e28565b67ffffffffffffffff811115611700576116ff611132565b5b61170a825461131f565b611715828285611655565b5f60209050601f831160018114611746575f8415611734578287015190505b61173e85826116c3565b8655506117a5565b601f19841661175486611541565b5f5b8281101561177b57848901518255600182019150602085019450602081019050611756565b868310156117985784890151611794601f8916826116a7565b8355505b6001600288020188555050505b505050505050565b5f81905092915050565b5f6117c182610e28565b6117cb81856117ad565b93506117db818560208601610e42565b80840191505092915050565b5f6117f282846117b7565b915081905092915050565b7f4e65772054776565742062793a200000000000000000000000000000000000005f82015250565b5f611831600e836117ad565b915061183c826117fd565b600e82019050919050565b5f61185182611825565b9150819050919050565b7f4e6f7420706f737369626c6500000000000000000000000000000000000000005f82015250565b5f61188f600c8361134f565b915061189a8261185b565b602082019050919050565b5f6020820190508181035f8301526118bc81611883565b9050919050565b5f6118cd82610e98565b91505f82036118df576118de61142f565b5b60018203905091905056fea2646970667358221220814a9e756ef90703207e6ecfbddd28406f5f0419409769dba2f3686fd0c5ef0364736f6c634300081a0033",
					"opcodes": "PUSH1 0x80 PUSH1 0x40 MSTORE PUSH2 0x118 PUSH1 0x2 PUSH0 PUSH2 0x100 EXP DUP2 SLOAD DUP2 PUSH4 0xFFFFFFFF MUL NOT AND SWAP1 DUP4 PUSH4 0xFFFFFFFF AND MUL OR SWAP1 SSTORE POP CALLVALUE DUP1 ISZERO PUSH1 0x30 JUMPI PUSH0 DUP1 REVERT JUMPDEST POP CALLER PUSH0 DUP1 PUSH2 0x100 EXP DUP2 SLOAD DUP2 PUSH20 0xFFFFFFFFFFFFFFFFFFFFFFFFFFFFFFFFFFFFFFFF MUL NOT AND SWAP1 DUP4 PUSH20 0xFFFFFFFFFFFFFFFFFFFFFFFFFFFFFFFFFFFFFFFF AND MUL OR SWAP1 SSTORE POP PUSH2 0x1920 DUP1 PUSH2 0x7D PUSH0 CODECOPY PUSH0 RETURN INVALID PUSH1 0x80 PUSH1 0x40 MSTORE CALLVALUE DUP1 ISZERO PUSH2 0xF JUMPI PUSH0 DUP1 REVERT JUMPDEST POP PUSH1 0x4 CALLDATASIZE LT PUSH2 0x7B JUMPI PUSH0 CALLDATALOAD PUSH1 0xE0 SHR DUP1 PUSH4 0x6A6CDAB8 GT PUSH2 0x59 JUMPI DUP1 PUSH4 0x6A6CDAB8 EQ PUSH2 0xE7 JUMPI DUP1 PUSH4 0x7C9CD2BC EQ PUSH2 0x117 JUMPI DUP1 PUSH4 0xA2AFCE88 EQ PUSH2 0x133 JUMPI DUP1 PUSH4 0xAE775E95 EQ PUSH2 0x151 JUMPI PUSH2 0x7B JUMP JUMPDEST DUP1 PUSH4 0x112F54E3 EQ PUSH2 0x7F JUMPI DUP1 PUSH4 0x318EA667 EQ PUSH2 0xAF JUMPI DUP1 PUSH4 0x63378216 EQ PUSH2 0xCB JUMPI JUMPDEST PUSH0 DUP1 REVERT JUMPDEST PUSH2 0x99 PUSH1 0x4 DUP1 CALLDATASIZE SUB DUP2 ADD SWAP1 PUSH2 0x94 SWAP2 SWAP1 PUSH2 0xDCC JUMP JUMPDEST PUSH2 0x16D JUMP JUMPDEST PUSH1 0x40 MLOAD PUSH2 0xA6 SWAP2 SWAP1 PUSH2 0xF2D JUMP JUMPDEST PUSH1 0x40 MLOAD DUP1 SWAP2 SUB SWAP1 RETURN JUMPDEST PUSH2 0xC9 PUSH1 0x4 DUP1 CALLDATASIZE SUB DUP2 ADD SWAP1 PUSH2 0xC4 SWAP2 SWAP1 PUSH2 0xF86 JUMP JUMPDEST PUSH2 0x30C JUMP JUMPDEST STOP JUMPDEST PUSH2 0xE5 PUSH1 0x4 DUP1 CALLDATASIZE SUB DUP2 ADD SWAP1 PUSH2 0xE0 SWAP2 SWAP1 PUSH2 0xDCC JUMP JUMPDEST PUSH2 0x3BC JUMP JUMPDEST STOP JUMPDEST PUSH2 0x101 PUSH1 0x4 DUP1 CALLDATASIZE SUB DUP2 ADD SWAP1 PUSH2 0xFC SWAP2 SWAP1 PUSH2 0xFB1 JUMP JUMPDEST PUSH2 0x5E8 JUMP JUMPDEST PUSH1 0x40 MLOAD PUSH2 0x10E SWAP2 SWAP1 PUSH2 0x110A JUMP JUMPDEST PUSH1 0x40 MLOAD DUP1 SWAP2 SUB SWAP1 RETURN JUMPDEST PUSH2 0x131 PUSH1 0x4 DUP1 CALLDATASIZE SUB DUP2 ADD SWAP1 PUSH2 0x12C SWAP2 SWAP1 PUSH2 0x1256 JUMP JUMPDEST PUSH2 0x7AA JUMP JUMPDEST STOP JUMPDEST PUSH2 0x13B PUSH2 0xA19 JUMP JUMPDEST PUSH1 0x40 MLOAD PUSH2 0x148 SWAP2 SWAP1 PUSH2 0x12AC JUMP JUMPDEST PUSH1 0x40 MLOAD DUP1 SWAP2 SUB SWAP1 RETURN JUMPDEST PUSH2 0x16B PUSH1 0x4 DUP1 CALLDATASIZE SUB DUP2 ADD SWAP1 PUSH2 0x166 SWAP2 SWAP1 PUSH2 0xDCC JUMP JUMPDEST PUSH2 0xA31 JUMP JUMPDEST STOP JUMPDEST PUSH2 0x175 PUSH2 0xCE3 JUMP JUMPDEST PUSH1 0x1 PUSH0 DUP5 PUSH20 0xFFFFFFFFFFFFFFFFFFFFFFFFFFFFFFFFFFFFFFFF AND PUSH20 0xFFFFFFFFFFFFFFFFFFFFFFFFFFFFFFFFFFFFFFFF AND DUP2 MSTORE PUSH1 0x20 ADD SWAP1 DUP2 MSTORE PUSH1 0x20 ADD PUSH0 KECCAK256 DUP3 DUP2 SLOAD DUP2 LT PUSH2 0x1C4 JUMPI PUSH2 0x1C3 PUSH2 0x12C5 JUMP JUMPDEST JUMPDEST SWAP1 PUSH0 MSTORE PUSH1 0x20 PUSH0 KECCAK256 SWAP1 PUSH1 0x5 MUL ADD PUSH1 0x40 MLOAD DUP1 PUSH1 0xA0 ADD PUSH1 0x40 MSTORE SWAP1 DUP2 PUSH0 DUP3 ADD SLOAD DUP2 MSTORE PUSH1 0x20 ADD PUSH1 0x1 DUP3 ADD PUSH0 SWAP1 SLOAD SWAP1 PUSH2 0x100 EXP SWAP1 DIV PUSH20 0xFFFFFFFFFFFFFFFFFFFFFFFFFFFFFFFFFFFFFFFF AND PUSH20 0xFFFFFFFFFFFFFFFFFFFFFFFFFFFFFFFFFFFFFFFF AND PUSH20 0xFFFFFFFFFFFFFFFFFFFFFFFFFFFFFFFFFFFFFFFF AND DUP2 MSTORE PUSH1 0x20 ADD PUSH1 0x2 DUP3 ADD DUP1 SLOAD PUSH2 0x249 SWAP1 PUSH2 0x131F JUMP JUMPDEST DUP1 PUSH1 0x1F ADD PUSH1 0x20 DUP1 SWAP2 DIV MUL PUSH1 0x20 ADD PUSH1 0x40 MLOAD SWAP1 DUP2 ADD PUSH1 0x40 MSTORE DUP1 SWAP3 SWAP2 SWAP1 DUP2 DUP2 MSTORE PUSH1 0x20 ADD DUP3 DUP1 SLOAD PUSH2 0x275 SWAP1 PUSH2 0x131F JUMP JUMPDEST DUP1 ISZERO PUSH2 0x2C0 JUMPI DUP1 PUSH1 0x1F LT PUSH2 0x297 JUMPI PUSH2 0x100 DUP1 DUP4 SLOAD DIV MUL DUP4 MSTORE SWAP2 PUSH1 0x20 ADD SWAP2 PUSH2 0x2C0 JUMP JUMPDEST DUP3 ADD SWAP2 SWAP1 PUSH0 MSTORE PUSH1 0x20 PUSH0 KECCAK256 SWAP1 JUMPDEST DUP2 SLOAD DUP2 MSTORE SWAP1 PUSH1 0x1 ADD SWAP1 PUSH1 0x20 ADD DUP1 DUP4 GT PUSH2 0x2A3 JUMPI DUP3 SWAP1 SUB PUSH1 0x1F AND DUP3 ADD SWAP2 JUMPDEST POP POP POP POP POP DUP2 MSTORE PUSH1 0x20 ADD PUSH1 0x3 DUP3 ADD SLOAD DUP2 MSTORE PUSH1 0x20 ADD PUSH1 0x4 DUP3 ADD PUSH0 SWAP1 SLOAD SWAP1 PUSH2 0x100 EXP SWAP1 DIV PUSH8 0xFFFFFFFFFFFFFFFF AND PUSH8 0xFFFFFFFFFFFFFFFF AND PUSH8 0xFFFFFFFFFFFFFFFF AND DUP2 MSTORE POP POP SWAP1 POP SWAP3 SWAP2 POP POP JUMP JUMPDEST PUSH0 DUP1 SLOAD SWAP1 PUSH2 0x100 EXP SWAP1 DIV PUSH20 0xFFFFFFFFFFFFFFFFFFFFFFFFFFFFFFFFFFFFFFFF AND PUSH20 0xFFFFFFFFFFFFFFFFFFFFFFFFFFFFFFFFFFFFFFFF AND CALLER PUSH20 0xFFFFFFFFFFFFFFFFFFFFFFFFFFFFFFFFFFFFFFFF AND EQ PUSH2 0x399 JUMPI PUSH1 0x40 MLOAD PUSH32 0x8C379A000000000000000000000000000000000000000000000000000000000 DUP2 MSTORE PUSH1 0x4 ADD PUSH2 0x390 SWAP1 PUSH2 0x13A9 JUMP JUMPDEST PUSH1 0x40 MLOAD DUP1 SWAP2 SUB SWAP1 REVERT JUMPDEST DUP1 PUSH1 0x2 PUSH0 PUSH2 0x100 EXP DUP2 SLOAD DUP2 PUSH4 0xFFFFFFFF MUL NOT AND SWAP1 DUP4 PUSH4 0xFFFFFFFF AND MUL OR SWAP1 SSTORE POP POP JUMP JUMPDEST DUP1 PUSH1 0x1 PUSH0 DUP5 PUSH20 0xFFFFFFFFFFFFFFFFFFFFFFFFFFFFFFFFFFFFFFFF AND PUSH20 0xFFFFFFFFFFFFFFFFFFFFFFFFFFFFFFFFFFFFFFFF AND DUP2 MSTORE PUSH1 0x20 ADD SWAP1 DUP2 MSTORE PUSH1 0x20 ADD PUSH0 KECCAK256 DUP3 DUP2 SLOAD DUP2 LT PUSH2 0x40C JUMPI PUSH2 0x40B PUSH2 0x12C5 JUMP JUMPDEST JUMPDEST SWAP1 PUSH0 MSTORE PUSH1 0x20 PUSH0 KECCAK256 SWAP1 PUSH1 0x5 MUL ADD PUSH0 ADD SLOAD EQ PUSH2 0x45B JUMPI PUSH1 0x40 MLOAD PUSH32 0x8C379A000000000000000000000000000000000000000000000000000000000 DUP2 MSTORE PUSH1 0x4 ADD PUSH2 0x452 SWAP1 PUSH2 0x1411 JUMP JUMPDEST PUSH1 0x40 MLOAD DUP1 SWAP2 SUB SWAP1 REVERT JUMPDEST PUSH1 0x1 PUSH0 DUP4 PUSH20 0xFFFFFFFFFFFFFFFFFFFFFFFFFFFFFFFFFFFFFFFF AND PUSH20 0xFFFFFFFFFFFFFFFFFFFFFFFFFFFFFFFFFFFFFFFF AND DUP2 MSTORE PUSH1 0x20 ADD SWAP1 DUP2 MSTORE PUSH1 0x20 ADD PUSH0 KECCAK256 DUP2 DUP2 SLOAD DUP2 LT PUSH2 0x4AA JUMPI PUSH2 0x4A9 PUSH2 0x12C5 JUMP JUMPDEST JUMPDEST SWAP1 PUSH0 MSTORE PUSH1 0x20 PUSH0 KECCAK256 SWAP1 PUSH1 0x5 MUL ADD PUSH1 0x4 ADD PUSH0 DUP2 DUP2 SWAP1 SLOAD SWAP1 PUSH2 0x100 EXP SWAP1 DIV PUSH8 0xFFFFFFFFFFFFFFFF AND DUP1 SWAP3 SWAP2 SWAP1 PUSH2 0x4DC SWAP1 PUSH2 0x145C JUMP JUMPDEST SWAP2 SWAP1 PUSH2 0x100 EXP DUP2 SLOAD DUP2 PUSH8 0xFFFFFFFFFFFFFFFF MUL NOT AND SWAP1 DUP4 PUSH8 0xFFFFFFFFFFFFFFFF AND MUL OR SWAP1 SSTORE POP POP PUSH1 0x1 PUSH0 DUP4 PUSH20 0xFFFFFFFFFFFFFFFFFFFFFFFFFFFFFFFFFFFFFFFF AND PUSH20 0xFFFFFFFFFFFFFFFFFFFFFFFFFFFFFFFFFFFFFFFF AND DUP2 MSTORE PUSH1 0x20 ADD SWAP1 DUP2 MSTORE PUSH1 0x20 ADD PUSH0 KECCAK256 DUP2 DUP2 SLOAD DUP2 LT PUSH2 0x552 JUMPI PUSH2 0x551 PUSH2 0x12C5 JUMP JUMPDEST JUMPDEST SWAP1 PUSH0 MSTORE PUSH1 0x20 PUSH0 KECCAK256 SWAP1 PUSH1 0x5 MUL ADD PUSH1 0x4 ADD PUSH0 SWAP1 SLOAD SWAP1 PUSH2 0x100 EXP SWAP1 DIV PUSH8 0xFFFFFFFFFFFFFFFF AND PUSH8 0xFFFFFFFFFFFFFFFF AND DUP3 PUSH20 0xFFFFFFFFFFFFFFFFFFFFFFFFFFFFFFFFFFFFFFFF AND CALLER PUSH20 0xFFFFFFFFFFFFFFFFFFFFFFFFFFFFFFFFFFFFFFFF AND PUSH32 0x98B9265FBE61AB93C34E3313887637BB4E94BD304723622C0450FCC7572DDF1E TIMESTAMP PUSH1 0x40 MLOAD PUSH2 0x5DC SWAP2 SWAP1 PUSH2 0x149A JUMP JUMPDEST PUSH1 0x40 MLOAD DUP1 SWAP2 SUB SWAP1 LOG4 POP POP JUMP JUMPDEST PUSH1 0x60 PUSH1 0x1 PUSH0 DUP4 PUSH20 0xFFFFFFFFFFFFFFFFFFFFFFFFFFFFFFFFFFFFFFFF AND PUSH20 0xFFFFFFFFFFFFFFFFFFFFFFFFFFFFFFFFFFFFFFFF AND DUP2 MSTORE PUSH1 0x20 ADD SWAP1 DUP2 MSTORE PUSH1 0x20 ADD PUSH0 KECCAK256 DUP1 SLOAD DUP1 PUSH1 0x20 MUL PUSH1 0x20 ADD PUSH1 0x40 MLOAD SWAP1 DUP2 ADD PUSH1 0x40 MSTORE DUP1 SWAP3 SWAP2 SWAP1 DUP2 DUP2 MSTORE PUSH1 0x20 ADD PUSH0 SWAP1 JUMPDEST DUP3 DUP3 LT ISZERO PUSH2 0x79F JUMPI DUP4 DUP3 SWAP1 PUSH0 MSTORE PUSH1 0x20 PUSH0 KECCAK256 SWAP1 PUSH1 0x5 MUL ADD PUSH1 0x40 MLOAD DUP1 PUSH1 0xA0 ADD PUSH1 0x40 MSTORE SWAP1 DUP2 PUSH0 DUP3 ADD SLOAD DUP2 MSTORE PUSH1 0x20 ADD PUSH1 0x1 DUP3 ADD PUSH0 SWAP1 SLOAD SWAP1 PUSH2 0x100 EXP SWAP1 DIV PUSH20 0xFFFFFFFFFFFFFFFFFFFFFFFFFFFFFFFFFFFFFFFF AND PUSH20 0xFFFFFFFFFFFFFFFFFFFFFFFFFFFFFFFFFFFFFFFF AND PUSH20 0xFFFFFFFFFFFFFFFFFFFFFFFFFFFFFFFFFFFFFFFF AND DUP2 MSTORE PUSH1 0x20 ADD PUSH1 0x2 DUP3 ADD DUP1 SLOAD PUSH2 0x6D5 SWAP1 PUSH2 0x131F JUMP JUMPDEST DUP1 PUSH1 0x1F ADD PUSH1 0x20 DUP1 SWAP2 DIV MUL PUSH1 0x20 ADD PUSH1 0x40 MLOAD SWAP1 DUP2 ADD PUSH1 0x40 MSTORE DUP1 SWAP3 SWAP2 SWAP1 DUP2 DUP2 MSTORE PUSH1 0x20 ADD DUP3 DUP1 SLOAD PUSH2 0x701 SWAP1 PUSH2 0x131F JUMP JUMPDEST DUP1 ISZERO PUSH2 0x74C JUMPI DUP1 PUSH1 0x1F LT PUSH2 0x723 JUMPI PUSH2 0x100 DUP1 DUP4 SLOAD DIV MUL DUP4 MSTORE SWAP2 PUSH1 0x20 ADD SWAP2 PUSH2 0x74C JUMP JUMPDEST DUP3 ADD SWAP2 SWAP1 PUSH0 MSTORE PUSH1 0x20 PUSH0 KECCAK256 SWAP1 JUMPDEST DUP2 SLOAD DUP2 MSTORE SWAP1 PUSH1 0x1 ADD SWAP1 PUSH1 0x20 ADD DUP1 DUP4 GT PUSH2 0x72F JUMPI DUP3 SWAP1 SUB PUSH1 0x1F AND DUP3 ADD SWAP2 JUMPDEST POP POP POP POP POP DUP2 MSTORE PUSH1 0x20 ADD PUSH1 0x3 DUP3 ADD SLOAD DUP2 MSTORE PUSH1 0x20 ADD PUSH1 0x4 DUP3 ADD PUSH0 SWAP1 SLOAD SWAP1 PUSH2 0x100 EXP SWAP1 DIV PUSH8 0xFFFFFFFFFFFFFFFF AND PUSH8 0xFFFFFFFFFFFFFFFF AND PUSH8 0xFFFFFFFFFFFFFFFF AND DUP2 MSTORE POP POP DUP2 MSTORE PUSH1 0x20 ADD SWAP1 PUSH1 0x1 ADD SWAP1 PUSH2 0x646 JUMP JUMPDEST POP POP POP POP SWAP1 POP SWAP2 SWAP1 POP JUMP JUMPDEST PUSH1 0x2 PUSH0 SWAP1 SLOAD SWAP1 PUSH2 0x100 EXP SWAP1 DIV PUSH4 0xFFFFFFFF AND PUSH4 0xFFFFFFFF AND DUP2 MLOAD GT ISZERO PUSH2 0x805 JUMPI PUSH1 0x40 MLOAD PUSH32 0x8C379A000000000000000000000000000000000000000000000000000000000 DUP2 MSTORE PUSH1 0x4 ADD PUSH2 0x7FC SWAP1 PUSH2 0x1523 JUMP JUMPDEST PUSH1 0x40 MLOAD DUP1 SWAP2 SUB SWAP1 REVERT JUMPDEST PUSH0 PUSH1 0x40 MLOAD DUP1 PUSH1 0xA0 ADD PUSH1 0x40 MSTORE DUP1 PUSH1 0x1 PUSH0 CALLER PUSH20 0xFFFFFFFFFFFFFFFFFFFFFFFFFFFFFFFFFFFFFFFF AND PUSH20 0xFFFFFFFFFFFFFFFFFFFFFFFFFFFFFFFFFFFFFFFF AND DUP2 MSTORE PUSH1 0x20 ADD SWAP1 DUP2 MSTORE PUSH1 0x20 ADD PUSH0 KECCAK256 DUP1 SLOAD SWAP1 POP DUP2 MSTORE PUSH1 0x20 ADD CALLER PUSH20 0xFFFFFFFFFFFFFFFFFFFFFFFFFFFFFFFFFFFFFFFF AND DUP2 MSTORE PUSH1 0x20 ADD DUP4 DUP2 MSTORE PUSH1 0x20 ADD TIMESTAMP DUP2 MSTORE PUSH1 0x20 ADD PUSH0 PUSH8 0xFFFFFFFFFFFFFFFF AND DUP2 MSTORE POP SWAP1 POP PUSH1 0x1 PUSH0 CALLER PUSH20 0xFFFFFFFFFFFFFFFFFFFFFFFFFFFFFFFFFFFFFFFF AND PUSH20 0xFFFFFFFFFFFFFFFFFFFFFFFFFFFFFFFFFFFFFFFF AND DUP2 MSTORE PUSH1 0x20 ADD SWAP1 DUP2 MSTORE PUSH1 0x20 ADD PUSH0 KECCAK256 DUP2 SWAP1 DUP1 PUSH1 0x1 DUP2 SLOAD ADD DUP1 DUP3 SSTORE DUP1 SWAP2 POP POP PUSH1 0x1 SWAP1 SUB SWAP1 PUSH0 MSTORE PUSH1 0x20 PUSH0 KECCAK256 SWAP1 PUSH1 0x5 MUL ADD PUSH0 SWAP1 SWAP2 SWAP1 SWAP2 SWAP1 SWAP2 POP PUSH0 DUP3 ADD MLOAD DUP2 PUSH0 ADD SSTORE PUSH1 0x20 DUP3 ADD MLOAD DUP2 PUSH1 0x1 ADD PUSH0 PUSH2 0x100 EXP DUP2 SLOAD DUP2 PUSH20 0xFFFFFFFFFFFFFFFFFFFFFFFFFFFFFFFFFFFFFFFF MUL NOT AND SWAP1 DUP4 PUSH20 0xFFFFFFFFFFFFFFFFFFFFFFFFFFFFFFFFFFFFFFFF AND MUL OR SWAP1 SSTORE POP PUSH1 0x40 DUP3 ADD MLOAD DUP2 PUSH1 0x2 ADD SWAP1 DUP2 PUSH2 0x956 SWAP2 SWAP1 PUSH2 0x16DE JUMP JUMPDEST POP PUSH1 0x60 DUP3 ADD MLOAD DUP2 PUSH1 0x3 ADD SSTORE PUSH1 0x80 DUP3 ADD MLOAD DUP2 PUSH1 0x4 ADD PUSH0 PUSH2 0x100 EXP DUP2 SLOAD DUP2 PUSH8 0xFFFFFFFFFFFFFFFF MUL NOT AND SWAP1 DUP4 PUSH8 0xFFFFFFFFFFFFFFFF AND MUL OR SWAP1 SSTORE POP POP POP DUP1 PUSH1 0x40 ADD MLOAD PUSH1 0x40 MLOAD PUSH2 0x9A3 SWAP2 SWAP1 PUSH2 0x17E7 JUMP JUMPDEST PUSH1 0x40 MLOAD DUP1 SWAP2 SUB SWAP1 KECCAK256 DUP2 PUSH1 0x20 ADD MLOAD PUSH20 0xFFFFFFFFFFFFFFFFFFFFFFFFFFFFFFFFFFFFFFFF AND PUSH1 0x40 MLOAD PUSH2 0x9D2 SWAP1 PUSH2 0x1847 JUMP JUMPDEST PUSH1 0x40 MLOAD DUP1 SWAP2 SUB SWAP1 KECCAK256 PUSH32 0x24851DB9152097137545B14424AC5E35714AD65B716771621CFDC771AA7876DE DUP5 PUSH1 0x60 ADD MLOAD PUSH1 0x40 MLOAD PUSH2 0xA0D SWAP2 SWAP1 PUSH2 0x149A JUMP JUMPDEST PUSH1 0x40 MLOAD DUP1 SWAP2 SUB SWAP1 LOG4 POP POP JUMP JUMPDEST PUSH0 PUSH1 0x2 PUSH0 SWAP1 SLOAD SWAP1 PUSH2 0x100 EXP SWAP1 DIV PUSH4 0xFFFFFFFF AND SWAP1 POP SWAP1 JUMP JUMPDEST DUP1 PUSH1 0x1 PUSH0 DUP5 PUSH20 0xFFFFFFFFFFFFFFFFFFFFFFFFFFFFFFFFFFFFFFFF AND PUSH20 0xFFFFFFFFFFFFFFFFFFFFFFFFFFFFFFFFFFFFFFFF AND DUP2 MSTORE PUSH1 0x20 ADD SWAP1 DUP2 MSTORE PUSH1 0x20 ADD PUSH0 KECCAK256 DUP3 DUP2 SLOAD DUP2 LT PUSH2 0xA81 JUMPI PUSH2 0xA80 PUSH2 0x12C5 JUMP JUMPDEST JUMPDEST SWAP1 PUSH0 MSTORE PUSH1 0x20 PUSH0 KECCAK256 SWAP1 PUSH1 0x5 MUL ADD PUSH0 ADD SLOAD EQ DUP1 ISZERO PUSH2 0xB17 JUMPI POP PUSH0 PUSH1 0x1 PUSH0 DUP5 PUSH20 0xFFFFFFFFFFFFFFFFFFFFFFFFFFFFFFFFFFFFFFFF AND PUSH20 0xFFFFFFFFFFFFFFFFFFFFFFFFFFFFFFFFFFFFFFFF AND DUP2 MSTORE PUSH1 0x20 ADD SWAP1 DUP2 MSTORE PUSH1 0x20 ADD PUSH0 KECCAK256 DUP3 DUP2 SLOAD DUP2 LT PUSH2 0xAE8 JUMPI PUSH2 0xAE7 PUSH2 0x12C5 JUMP JUMPDEST JUMPDEST SWAP1 PUSH0 MSTORE PUSH1 0x20 PUSH0 KECCAK256 SWAP1 PUSH1 0x5 MUL ADD PUSH1 0x4 ADD PUSH0 SWAP1 SLOAD SWAP1 PUSH2 0x100 EXP SWAP1 DIV PUSH8 0xFFFFFFFFFFFFFFFF AND PUSH8 0xFFFFFFFFFFFFFFFF AND GT JUMPDEST PUSH2 0xB56 JUMPI PUSH1 0x40 MLOAD PUSH32 0x8C379A000000000000000000000000000000000000000000000000000000000 DUP2 MSTORE PUSH1 0x4 ADD PUSH2 0xB4D SWAP1 PUSH2 0x18A5 JUMP JUMPDEST PUSH1 0x40 MLOAD DUP1 SWAP2 SUB SWAP1 REVERT JUMPDEST PUSH1 0x1 PUSH0 DUP4 PUSH20 0xFFFFFFFFFFFFFFFFFFFFFFFFFFFFFFFFFFFFFFFF AND PUSH20 0xFFFFFFFFFFFFFFFFFFFFFFFFFFFFFFFFFFFFFFFF AND DUP2 MSTORE PUSH1 0x20 ADD SWAP1 DUP2 MSTORE PUSH1 0x20 ADD PUSH0 KECCAK256 DUP2 DUP2 SLOAD DUP2 LT PUSH2 0xBA5 JUMPI PUSH2 0xBA4 PUSH2 0x12C5 JUMP JUMPDEST JUMPDEST SWAP1 PUSH0 MSTORE PUSH1 0x20 PUSH0 KECCAK256 SWAP1 PUSH1 0x5 MUL ADD PUSH1 0x4 ADD PUSH0 DUP2 DUP2 SWAP1 SLOAD SWAP1 PUSH2 0x100 EXP SWAP1 DIV PUSH8 0xFFFFFFFFFFFFFFFF AND DUP1 SWAP3 SWAP2 SWAP1 PUSH2 0xBD7 SWAP1 PUSH2 0x18C3 JUMP JUMPDEST SWAP2 SWAP1 PUSH2 0x100 EXP DUP2 SLOAD DUP2 PUSH8 0xFFFFFFFFFFFFFFFF MUL NOT AND SWAP1 DUP4 PUSH8 0xFFFFFFFFFFFFFFFF AND MUL OR SWAP1 SSTORE POP POP PUSH1 0x1 PUSH0 DUP4 PUSH20 0xFFFFFFFFFFFFFFFFFFFFFFFFFFFFFFFFFFFFFFFF AND PUSH20 0xFFFFFFFFFFFFFFFFFFFFFFFFFFFFFFFFFFFFFFFF AND DUP2 MSTORE PUSH1 0x20 ADD SWAP1 DUP2 MSTORE PUSH1 0x20 ADD PUSH0 KECCAK256 DUP2 DUP2 SLOAD DUP2 LT PUSH2 0xC4D JUMPI PUSH2 0xC4C PUSH2 0x12C5 JUMP JUMPDEST JUMPDEST SWAP1 PUSH0 MSTORE PUSH1 0x20 PUSH0 KECCAK256 SWAP1 PUSH1 0x5 MUL ADD PUSH1 0x4 ADD PUSH0 SWAP1 SLOAD SWAP1 PUSH2 0x100 EXP SWAP1 DIV PUSH8 0xFFFFFFFFFFFFFFFF AND PUSH8 0xFFFFFFFFFFFFFFFF AND DUP3 PUSH20 0xFFFFFFFFFFFFFFFFFFFFFFFFFFFFFFFFFFFFFFFF AND CALLER PUSH20 0xFFFFFFFFFFFFFFFFFFFFFFFFFFFFFFFFFFFFFFFF AND PUSH32 0xBE0A9AA2BC4A5667D4EB4DD05B204CCC5F3B48133520A5074D875389BC882392 TIMESTAMP PUSH1 0x40 MLOAD PUSH2 0xCD7 SWAP2 SWAP1 PUSH2 0x149A JUMP JUMPDEST PUSH1 0x40 MLOAD DUP1 SWAP2 SUB SWAP1 LOG4 POP POP JUMP JUMPDEST PUSH1 0x40 MLOAD DUP1 PUSH1 0xA0 ADD PUSH1 0x40 MSTORE DUP1 PUSH0 DUP2 MSTORE PUSH1 0x20 ADD PUSH0 PUSH20 0xFFFFFFFFFFFFFFFFFFFFFFFFFFFFFFFFFFFFFFFF AND DUP2 MSTORE PUSH1 0x20 ADD PUSH1 0x60 DUP2 MSTORE PUSH1 0x20 ADD PUSH0 DUP2 MSTORE PUSH1 0x20 ADD PUSH0 PUSH8 0xFFFFFFFFFFFFFFFF AND DUP2 MSTORE POP SWAP1 JUMP JUMPDEST PUSH0 PUSH1 0x40 MLOAD SWAP1 POP SWAP1 JUMP JUMPDEST PUSH0 DUP1 REVERT JUMPDEST PUSH0 DUP1 REVERT JUMPDEST PUSH0 PUSH20 0xFFFFFFFFFFFFFFFFFFFFFFFFFFFFFFFFFFFFFFFF DUP3 AND SWAP1 POP SWAP2 SWAP1 POP JUMP JUMPDEST PUSH0 PUSH2 0xD68 DUP3 PUSH2 0xD3F JUMP JUMPDEST SWAP1 POP SWAP2 SWAP1 POP JUMP JUMPDEST PUSH2 0xD78 DUP2 PUSH2 0xD5E JUMP JUMPDEST DUP2 EQ PUSH2 0xD82 JUMPI PUSH0 DUP1 REVERT JUMPDEST POP JUMP JUMPDEST PUSH0 DUP2 CALLDATALOAD SWAP1 POP PUSH2 0xD93 DUP2 PUSH2 0xD6F JUMP JUMPDEST SWAP3 SWAP2 POP POP JUMP JUMPDEST PUSH0 DUP2 SWAP1 POP SWAP2 SWAP1 POP JUMP JUMPDEST PUSH2 0xDAB DUP2 PUSH2 0xD99 JUMP JUMPDEST DUP2 EQ PUSH2 0xDB5 JUMPI PUSH0 DUP1 REVERT JUMPDEST POP JUMP JUMPDEST PUSH0 DUP2 CALLDATALOAD SWAP1 POP PUSH2 0xDC6 DUP2 PUSH2 0xDA2 JUMP JUMPDEST SWAP3 SWAP2 POP POP JUMP JUMPDEST PUSH0 DUP1 PUSH1 0x40 DUP4 DUP6 SUB SLT ISZERO PUSH2 0xDE2 JUMPI PUSH2 0xDE1 PUSH2 0xD37 JUMP JUMPDEST JUMPDEST PUSH0 PUSH2 0xDEF DUP6 DUP3 DUP7 ADD PUSH2 0xD85 JUMP JUMPDEST SWAP3 POP POP PUSH1 0x20 PUSH2 0xE00 DUP6 DUP3 DUP7 ADD PUSH2 0xDB8 JUMP JUMPDEST SWAP2 POP POP SWAP3 POP SWAP3 SWAP1 POP JUMP JUMPDEST PUSH2 0xE13 DUP2 PUSH2 0xD99 JUMP JUMPDEST DUP3 MSTORE POP POP JUMP JUMPDEST PUSH2 0xE22 DUP2 PUSH2 0xD5E JUMP JUMPDEST DUP3 MSTORE POP POP JUMP JUMPDEST PUSH0 DUP2 MLOAD SWAP1 POP SWAP2 SWAP1 POP JUMP JUMPDEST PUSH0 DUP3 DUP3 MSTORE PUSH1 0x20 DUP3 ADD SWAP1 POP SWAP3 SWAP2 POP POP JUMP JUMPDEST DUP3 DUP2 DUP4 MCOPY PUSH0 DUP4 DUP4 ADD MSTORE POP POP POP JUMP JUMPDEST PUSH0 PUSH1 0x1F NOT PUSH1 0x1F DUP4 ADD AND SWAP1 POP SWAP2 SWAP1 POP JUMP JUMPDEST PUSH0 PUSH2 0xE6A DUP3 PUSH2 0xE28 JUMP JUMPDEST PUSH2 0xE74 DUP2 DUP6 PUSH2 0xE32 JUMP JUMPDEST SWAP4 POP PUSH2 0xE84 DUP2 DUP6 PUSH1 0x20 DUP7 ADD PUSH2 0xE42 JUMP JUMPDEST PUSH2 0xE8D DUP2 PUSH2 0xE50 JUMP JUMPDEST DUP5 ADD SWAP2 POP POP SWAP3 SWAP2 POP POP JUMP JUMPDEST PUSH0 PUSH8 0xFFFFFFFFFFFFFFFF DUP3 AND SWAP1 POP SWAP2 SWAP1 POP JUMP JUMPDEST PUSH2 0xEB4 DUP2 PUSH2 0xE98 JUMP JUMPDEST DUP3 MSTORE POP POP JUMP JUMPDEST PUSH0 PUSH1 0xA0 DUP4 ADD PUSH0 DUP4 ADD MLOAD PUSH2 0xECF PUSH0 DUP7 ADD DUP3 PUSH2 0xE0A JUMP JUMPDEST POP PUSH1 0x20 DUP4 ADD MLOAD PUSH2 0xEE2 PUSH1 0x20 DUP7 ADD DUP3 PUSH2 0xE19 JUMP JUMPDEST POP PUSH1 0x40 DUP4 ADD MLOAD DUP5 DUP3 SUB PUSH1 0x40 DUP7 ADD MSTORE PUSH2 0xEFA DUP3 DUP3 PUSH2 0xE60 JUMP JUMPDEST SWAP2 POP POP PUSH1 0x60 DUP4 ADD MLOAD PUSH2 0xF0F PUSH1 0x60 DUP7 ADD DUP3 PUSH2 0xE0A JUMP JUMPDEST POP PUSH1 0x80 DUP4 ADD MLOAD PUSH2 0xF22 PUSH1 0x80 DUP7 ADD DUP3 PUSH2 0xEAB JUMP JUMPDEST POP DUP1 SWAP2 POP POP SWAP3 SWAP2 POP POP JUMP JUMPDEST PUSH0 PUSH1 0x20 DUP3 ADD SWAP1 POP DUP2 DUP2 SUB PUSH0 DUP4 ADD MSTORE PUSH2 0xF45 DUP2 DUP5 PUSH2 0xEBA JUMP JUMPDEST SWAP1 POP SWAP3 SWAP2 POP POP JUMP JUMPDEST PUSH0 PUSH4 0xFFFFFFFF DUP3 AND SWAP1 POP SWAP2 SWAP1 POP JUMP JUMPDEST PUSH2 0xF65 DUP2 PUSH2 0xF4D JUMP JUMPDEST DUP2 EQ PUSH2 0xF6F JUMPI PUSH0 DUP1 REVERT JUMPDEST POP JUMP JUMPDEST PUSH0 DUP2 CALLDATALOAD SWAP1 POP PUSH2 0xF80 DUP2 PUSH2 0xF5C JUMP JUMPDEST SWAP3 SWAP2 POP POP JUMP JUMPDEST PUSH0 PUSH1 0x20 DUP3 DUP5 SUB SLT ISZERO PUSH2 0xF9B JUMPI PUSH2 0xF9A PUSH2 0xD37 JUMP JUMPDEST JUMPDEST PUSH0 PUSH2 0xFA8 DUP5 DUP3 DUP6 ADD PUSH2 0xF72 JUMP JUMPDEST SWAP2 POP POP SWAP3 SWAP2 POP POP JUMP JUMPDEST PUSH0 PUSH1 0x20 DUP3 DUP5 SUB SLT ISZERO PUSH2 0xFC6 JUMPI PUSH2 0xFC5 PUSH2 0xD37 JUMP JUMPDEST JUMPDEST PUSH0 PUSH2 0xFD3 DUP5 DUP3 DUP6 ADD PUSH2 0xD85 JUMP JUMPDEST SWAP2 POP POP SWAP3 SWAP2 POP POP JUMP JUMPDEST PUSH0 DUP2 MLOAD SWAP1 POP SWAP2 SWAP1 POP JUMP JUMPDEST PUSH0 DUP3 DUP3 MSTORE PUSH1 0x20 DUP3 ADD SWAP1 POP SWAP3 SWAP2 POP POP JUMP JUMPDEST PUSH0 DUP2 SWAP1 POP PUSH1 0x20 DUP3 ADD SWAP1 POP SWAP2 SWAP1 POP JUMP JUMPDEST PUSH0 PUSH1 0xA0 DUP4 ADD PUSH0 DUP4 ADD MLOAD PUSH2 0x101A PUSH0 DUP7 ADD DUP3 PUSH2 0xE0A JUMP JUMPDEST POP PUSH1 0x20 DUP4 ADD MLOAD PUSH2 0x102D PUSH1 0x20 DUP7 ADD DUP3 PUSH2 0xE19 JUMP JUMPDEST POP PUSH1 0x40 DUP4 ADD MLOAD DUP5 DUP3 SUB PUSH1 0x40 DUP7 ADD MSTORE PUSH2 0x1045 DUP3 DUP3 PUSH2 0xE60 JUMP JUMPDEST SWAP2 POP POP PUSH1 0x60 DUP4 ADD MLOAD PUSH2 0x105A PUSH1 0x60 DUP7 ADD DUP3 PUSH2 0xE0A JUMP JUMPDEST POP PUSH1 0x80 DUP4 ADD MLOAD PUSH2 0x106D PUSH1 0x80 DUP7 ADD DUP3 PUSH2 0xEAB JUMP JUMPDEST POP DUP1 SWAP2 POP POP SWAP3 SWAP2 POP POP JUMP JUMPDEST PUSH0 PUSH2 0x1083 DUP4 DUP4 PUSH2 0x1005 JUMP JUMPDEST SWAP1 POP SWAP3 SWAP2 POP POP JUMP JUMPDEST PUSH0 PUSH1 0x20 DUP3 ADD SWAP1 POP SWAP2 SWAP1 POP JUMP JUMPDEST PUSH0 PUSH2 0x10A1 DUP3 PUSH2 0xFDC JUMP JUMPDEST PUSH2 0x10AB DUP2 DUP6 PUSH2 0xFE6 JUMP JUMPDEST SWAP4 POP DUP4 PUSH1 0x20 DUP3 MUL DUP6 ADD PUSH2 0x10BD DUP6 PUSH2 0xFF6 JUMP JUMPDEST DUP1 PUSH0 JUMPDEST DUP6 DUP2 LT ISZERO PUSH2 0x10F8 JUMPI DUP5 DUP5 SUB DUP10 MSTORE DUP2 MLOAD PUSH2 0x10D9 DUP6 DUP3 PUSH2 0x1078 JUMP JUMPDEST SWAP5 POP PUSH2 0x10E4 DUP4 PUSH2 0x108B JUMP JUMPDEST SWAP3 POP PUSH1 0x20 DUP11 ADD SWAP10 POP POP PUSH1 0x1 DUP2 ADD SWAP1 POP PUSH2 0x10C0 JUMP JUMPDEST POP DUP3 SWAP8 POP DUP8 SWAP6 POP POP POP POP POP POP SWAP3 SWAP2 POP POP JUMP JUMPDEST PUSH0 PUSH1 0x20 DUP3 ADD SWAP1 POP DUP2 DUP2 SUB PUSH0 DUP4 ADD MSTORE PUSH2 0x1122 DUP2 DUP5 PUSH2 0x1097 JUMP JUMPDEST SWAP1 POP SWAP3 SWAP2 POP POP JUMP JUMPDEST PUSH0 DUP1 REVERT JUMPDEST PUSH0 DUP1 REVERT JUMPDEST PUSH32 0x4E487B7100000000000000000000000000000000000000000000000000000000 PUSH0 MSTORE PUSH1 0x41 PUSH1 0x4 MSTORE PUSH1 0x24 PUSH0 REVERT JUMPDEST PUSH2 0x1168 DUP3 PUSH2 0xE50 JUMP JUMPDEST DUP2 ADD DUP2 DUP2 LT PUSH8 0xFFFFFFFFFFFFFFFF DUP3 GT OR ISZERO PUSH2 0x1187 JUMPI PUSH2 0x1186 PUSH2 0x1132 JUMP JUMPDEST JUMPDEST DUP1 PUSH1 0x40 MSTORE POP POP POP JUMP JUMPDEST PUSH0 PUSH2 0x1199 PUSH2 0xD2E JUMP JUMPDEST SWAP1 POP PUSH2 0x11A5 DUP3 DUP3 PUSH2 0x115F JUMP JUMPDEST SWAP2 SWAP1 POP JUMP JUMPDEST PUSH0 PUSH8 0xFFFFFFFFFFFFFFFF DUP3 GT ISZERO PUSH2 0x11C4 JUMPI PUSH2 0x11C3 PUSH2 0x1132 JUMP JUMPDEST JUMPDEST PUSH2 0x11CD DUP3 PUSH2 0xE50 JUMP JUMPDEST SWAP1 POP PUSH1 0x20 DUP2 ADD SWAP1 POP SWAP2 SWAP1 POP JUMP JUMPDEST DUP3 DUP2 DUP4 CALLDATACOPY PUSH0 DUP4 DUP4 ADD MSTORE POP POP POP JUMP JUMPDEST PUSH0 PUSH2 0x11FA PUSH2 0x11F5 DUP5 PUSH2 0x11AA JUMP JUMPDEST PUSH2 0x1190 JUMP JUMPDEST SWAP1 POP DUP3 DUP2 MSTORE PUSH1 0x20 DUP2 ADD DUP5 DUP5 DUP5 ADD GT ISZERO PUSH2 0x1216 JUMPI PUSH2 0x1215 PUSH2 0x112E JUMP JUMPDEST JUMPDEST PUSH2 0x1221 DUP5 DUP3 DUP6 PUSH2 0x11DA JUMP JUMPDEST POP SWAP4 SWAP3 POP POP POP JUMP JUMPDEST PUSH0 DUP3 PUSH1 0x1F DUP4 ADD SLT PUSH2 0x123D JUMPI PUSH2 0x123C PUSH2 0x112A JUMP JUMPDEST JUMPDEST DUP2 CALLDATALOAD PUSH2 0x124D DUP5 DUP3 PUSH1 0x20 DUP7 ADD PUSH2 0x11E8 JUMP JUMPDEST SWAP2 POP POP SWAP3 SWAP2 POP POP JUMP JUMPDEST PUSH0 PUSH1 0x20 DUP3 DUP5 SUB SLT ISZERO PUSH2 0x126B JUMPI PUSH2 0x126A PUSH2 0xD37 JUMP JUMPDEST JUMPDEST PUSH0 DUP3 ADD CALLDATALOAD PUSH8 0xFFFFFFFFFFFFFFFF DUP2 GT ISZERO PUSH2 0x1288 JUMPI PUSH2 0x1287 PUSH2 0xD3B JUMP JUMPDEST JUMPDEST PUSH2 0x1294 DUP5 DUP3 DUP6 ADD PUSH2 0x1229 JUMP JUMPDEST SWAP2 POP POP SWAP3 SWAP2 POP POP JUMP JUMPDEST PUSH2 0x12A6 DUP2 PUSH2 0xF4D JUMP JUMPDEST DUP3 MSTORE POP POP JUMP JUMPDEST PUSH0 PUSH1 0x20 DUP3 ADD SWAP1 POP PUSH2 0x12BF PUSH0 DUP4 ADD DUP5 PUSH2 0x129D JUMP JUMPDEST SWAP3 SWAP2 POP POP JUMP JUMPDEST PUSH32 0x4E487B7100000000000000000000000000000000000000000000000000000000 PUSH0 MSTORE PUSH1 0x32 PUSH1 0x4 MSTORE PUSH1 0x24 PUSH0 REVERT JUMPDEST PUSH32 0x4E487B7100000000000000000000000000000000000000000000000000000000 PUSH0 MSTORE PUSH1 0x22 PUSH1 0x4 MSTORE PUSH1 0x24 PUSH0 REVERT JUMPDEST PUSH0 PUSH1 0x2 DUP3 DIV SWAP1 POP PUSH1 0x1 DUP3 AND DUP1 PUSH2 0x1336 JUMPI PUSH1 0x7F DUP3 AND SWAP2 POP JUMPDEST PUSH1 0x20 DUP3 LT DUP2 SUB PUSH2 0x1349 JUMPI PUSH2 0x1348 PUSH2 0x12F2 JUMP JUMPDEST JUMPDEST POP SWAP2 SWAP1 POP JUMP JUMPDEST PUSH0 DUP3 DUP3 MSTORE PUSH1 0x20 DUP3 ADD SWAP1 POP SWAP3 SWAP2 POP POP JUMP JUMPDEST PUSH32 0x596F7520617265206E6F7420746865206F776E65720000000000000000000000 PUSH0 DUP3 ADD MSTORE POP JUMP JUMPDEST PUSH0 PUSH2 0x1393 PUSH1 0x15 DUP4 PUSH2 0x134F JUMP JUMPDEST SWAP2 POP PUSH2 0x139E DUP3 PUSH2 0x135F JUMP JUMPDEST PUSH1 0x20 DUP3 ADD SWAP1 POP SWAP2 SWAP1 POP JUMP JUMPDEST PUSH0 PUSH1 0x20 DUP3 ADD SWAP1 POP DUP2 DUP2 SUB PUSH0 DUP4 ADD MSTORE PUSH2 0x13C0 DUP2 PUSH2 0x1387 JUMP JUMPDEST SWAP1 POP SWAP2 SWAP1 POP JUMP JUMPDEST PUSH32 0x547765657420646F6573206E6F74206578697374000000000000000000000000 PUSH0 DUP3 ADD MSTORE POP JUMP JUMPDEST PUSH0 PUSH2 0x13FB PUSH1 0x14 DUP4 PUSH2 0x134F JUMP JUMPDEST SWAP2 POP PUSH2 0x1406 DUP3 PUSH2 0x13C7 JUMP JUMPDEST PUSH1 0x20 DUP3 ADD SWAP1 POP SWAP2 SWAP1 POP JUMP JUMPDEST PUSH0 PUSH1 0x20 DUP3 ADD SWAP1 POP DUP2 DUP2 SUB PUSH0 DUP4 ADD MSTORE PUSH2 0x1428 DUP2 PUSH2 0x13EF JUMP JUMPDEST SWAP1 POP SWAP2 SWAP1 POP JUMP JUMPDEST PUSH32 0x4E487B7100000000000000000000000000000000000000000000000000000000 PUSH0 MSTORE PUSH1 0x11 PUSH1 0x4 MSTORE PUSH1 0x24 PUSH0 REVERT JUMPDEST PUSH0 PUSH2 0x1466 DUP3 PUSH2 0xE98 JUMP JUMPDEST SWAP2 POP PUSH8 0xFFFFFFFFFFFFFFFF DUP3 SUB PUSH2 0x1480 JUMPI PUSH2 0x147F PUSH2 0x142F JUMP JUMPDEST JUMPDEST PUSH1 0x1 DUP3 ADD SWAP1 POP SWAP2 SWAP1 POP JUMP JUMPDEST PUSH2 0x1494 DUP2 PUSH2 0xD99 JUMP JUMPDEST DUP3 MSTORE POP POP JUMP JUMPDEST PUSH0 PUSH1 0x20 DUP3 ADD SWAP1 POP PUSH2 0x14AD PUSH0 DUP4 ADD DUP5 PUSH2 0x148B JUMP JUMPDEST SWAP3 SWAP2 POP POP JUMP JUMPDEST PUSH32 0x596F75207573656420746865206D6178696D756D206E756D626572206F662063 PUSH0 DUP3 ADD MSTORE PUSH32 0x68617261637465727320706F737369626C650000000000000000000000000000 PUSH1 0x20 DUP3 ADD MSTORE POP JUMP JUMPDEST PUSH0 PUSH2 0x150D PUSH1 0x32 DUP4 PUSH2 0x134F JUMP JUMPDEST SWAP2 POP PUSH2 0x1518 DUP3 PUSH2 0x14B3 JUMP JUMPDEST PUSH1 0x40 DUP3 ADD SWAP1 POP SWAP2 SWAP1 POP JUMP JUMPDEST PUSH0 PUSH1 0x20 DUP3 ADD SWAP1 POP DUP2 DUP2 SUB PUSH0 DUP4 ADD MSTORE PUSH2 0x153A DUP2 PUSH2 0x1501 JUMP JUMPDEST SWAP1 POP SWAP2 SWAP1 POP JUMP JUMPDEST PUSH0 DUP2 SWAP1 POP DUP2 PUSH0 MSTORE PUSH1 0x20 PUSH0 KECCAK256 SWAP1 POP SWAP2 SWAP1 POP JUMP JUMPDEST PUSH0 PUSH1 0x20 PUSH1 0x1F DUP4 ADD DIV SWAP1 POP SWAP2 SWAP1 POP JUMP JUMPDEST PUSH0 DUP3 DUP3 SHL SWAP1 POP SWAP3 SWAP2 POP POP JUMP JUMPDEST PUSH0 PUSH1 0x8 DUP4 MUL PUSH2 0x159D PUSH32 0xFFFFFFFFFFFFFFFFFFFFFFFFFFFFFFFFFFFFFFFFFFFFFFFFFFFFFFFFFFFFFFFF DUP3 PUSH2 0x1562 JUMP JUMPDEST PUSH2 0x15A7 DUP7 DUP4 PUSH2 0x1562 JUMP JUMPDEST SWAP6 POP DUP1 NOT DUP5 AND SWAP4 POP DUP1 DUP7 AND DUP5 OR SWAP3 POP POP POP SWAP4 SWAP3 POP POP POP JUMP JUMPDEST PUSH0 DUP2 SWAP1 POP SWAP2 SWAP1 POP JUMP JUMPDEST PUSH0 PUSH2 0x15E2 PUSH2 0x15DD PUSH2 0x15D8 DUP5 PUSH2 0xD99 JUMP JUMPDEST PUSH2 0x15BF JUMP JUMPDEST PUSH2 0xD99 JUMP JUMPDEST SWAP1 POP SWAP2 SWAP1 POP JUMP JUMPDEST PUSH0 DUP2 SWAP1 POP SWAP2 SWAP1 POP JUMP JUMPDEST PUSH2 0x15FB DUP4 PUSH2 0x15C8 JUMP JUMPDEST PUSH2 0x160F PUSH2 0x1607 DUP3 PUSH2 0x15E9 JUMP JUMPDEST DUP5 DUP5 SLOAD PUSH2 0x156E JUMP JUMPDEST DUP3 SSTORE POP POP POP POP JUMP JUMPDEST PUSH0 SWAP1 JUMP JUMPDEST PUSH2 0x1623 PUSH2 0x1617 JUMP JUMPDEST PUSH2 0x162E DUP2 DUP5 DUP5 PUSH2 0x15F2 JUMP JUMPDEST POP POP POP JUMP JUMPDEST JUMPDEST DUP2 DUP2 LT ISZERO PUSH2 0x1651 JUMPI PUSH2 0x1646 PUSH0 DUP3 PUSH2 0x161B JUMP JUMPDEST PUSH1 0x1 DUP2 ADD SWAP1 POP PUSH2 0x1634 JUMP JUMPDEST POP POP JUMP JUMPDEST PUSH1 0x1F DUP3 GT ISZERO PUSH2 0x1696 JUMPI PUSH2 0x1667 DUP2 PUSH2 0x1541 JUMP JUMPDEST PUSH2 0x1670 DUP5 PUSH2 0x1553 JUMP JUMPDEST DUP2 ADD PUSH1 0x20 DUP6 LT ISZERO PUSH2 0x167F JUMPI DUP2 SWAP1 POP JUMPDEST PUSH2 0x1693 PUSH2 0x168B DUP6 PUSH2 0x1553 JUMP JUMPDEST DUP4 ADD DUP3 PUSH2 0x1633 JUMP JUMPDEST POP POP JUMPDEST POP POP POP JUMP JUMPDEST PUSH0 DUP3 DUP3 SHR SWAP1 POP SWAP3 SWAP2 POP POP JUMP JUMPDEST PUSH0 PUSH2 0x16B6 PUSH0 NOT DUP5 PUSH1 0x8 MUL PUSH2 0x169B JUMP JUMPDEST NOT DUP1 DUP4 AND SWAP2 POP POP SWAP3 SWAP2 POP POP JUMP JUMPDEST PUSH0 PUSH2 0x16CE DUP4 DUP4 PUSH2 0x16A7 JUMP JUMPDEST SWAP2 POP DUP3 PUSH1 0x2 MUL DUP3 OR SWAP1 POP SWAP3 SWAP2 POP POP JUMP JUMPDEST PUSH2 0x16E7 DUP3 PUSH2 0xE28 JUMP JUMPDEST PUSH8 0xFFFFFFFFFFFFFFFF DUP2 GT ISZERO PUSH2 0x1700 JUMPI PUSH2 0x16FF PUSH2 0x1132 JUMP JUMPDEST JUMPDEST PUSH2 0x170A DUP3 SLOAD PUSH2 0x131F JUMP JUMPDEST PUSH2 0x1715 DUP3 DUP3 DUP6 PUSH2 0x1655 JUMP JUMPDEST PUSH0 PUSH1 0x20 SWAP1 POP PUSH1 0x1F DUP4 GT PUSH1 0x1 DUP2 EQ PUSH2 0x1746 JUMPI PUSH0 DUP5 ISZERO PUSH2 0x1734 JUMPI DUP3 DUP8 ADD MLOAD SWAP1 POP JUMPDEST PUSH2 0x173E DUP6 DUP3 PUSH2 0x16C3 JUMP JUMPDEST DUP7 SSTORE POP PUSH2 0x17A5 JUMP JUMPDEST PUSH1 0x1F NOT DUP5 AND PUSH2 0x1754 DUP7 PUSH2 0x1541 JUMP JUMPDEST PUSH0 JUMPDEST DUP3 DUP2 LT ISZERO PUSH2 0x177B JUMPI DUP5 DUP10 ADD MLOAD DUP3 SSTORE PUSH1 0x1 DUP3 ADD SWAP2 POP PUSH1 0x20 DUP6 ADD SWAP5 POP PUSH1 0x20 DUP2 ADD SWAP1 POP PUSH2 0x1756 JUMP JUMPDEST DUP7 DUP4 LT ISZERO PUSH2 0x1798 JUMPI DUP5 DUP10 ADD MLOAD PUSH2 0x1794 PUSH1 0x1F DUP10 AND DUP3 PUSH2 0x16A7 JUMP JUMPDEST DUP4 SSTORE POP JUMPDEST PUSH1 0x1 PUSH1 0x2 DUP9 MUL ADD DUP9 SSTORE POP POP POP JUMPDEST POP POP POP POP POP POP JUMP JUMPDEST PUSH0 DUP2 SWAP1 POP SWAP3 SWAP2 POP POP JUMP JUMPDEST PUSH0 PUSH2 0x17C1 DUP3 PUSH2 0xE28 JUMP JUMPDEST PUSH2 0x17CB DUP2 DUP6 PUSH2 0x17AD JUMP JUMPDEST SWAP4 POP PUSH2 0x17DB DUP2 DUP6 PUSH1 0x20 DUP7 ADD PUSH2 0xE42 JUMP JUMPDEST DUP1 DUP5 ADD SWAP2 POP POP SWAP3 SWAP2 POP POP JUMP JUMPDEST PUSH0 PUSH2 0x17F2 DUP3 DUP5 PUSH2 0x17B7 JUMP JUMPDEST SWAP2 POP DUP2 SWAP1 POP SWAP3 SWAP2 POP POP JUMP JUMPDEST PUSH32 0x4E65772054776565742062793A20000000000000000000000000000000000000 PUSH0 DUP3 ADD MSTORE POP JUMP JUMPDEST PUSH0 PUSH2 0x1831 PUSH1 0xE DUP4 PUSH2 0x17AD JUMP JUMPDEST SWAP2 POP PUSH2 0x183C DUP3 PUSH2 0x17FD JUMP JUMPDEST PUSH1 0xE DUP3 ADD SWAP1 POP SWAP2 SWAP1 POP JUMP JUMPDEST PUSH0 PUSH2 0x1851 DUP3 PUSH2 0x1825 JUMP JUMPDEST SWAP2 POP DUP2 SWAP1 POP SWAP2 SWAP1 POP JUMP JUMPDEST PUSH32 0x4E6F7420706F737369626C650000000000000000000000000000000000000000 PUSH0 DUP3 ADD MSTORE POP JUMP JUMPDEST PUSH0 PUSH2 0x188F PUSH1 0xC DUP4 PUSH2 0x134F JUMP JUMPDEST SWAP2 POP PUSH2 0x189A DUP3 PUSH2 0x185B JUMP JUMPDEST PUSH1 0x20 DUP3 ADD SWAP1 POP SWAP2 SWAP1 POP JUMP JUMPDEST PUSH0 PUSH1 0x20 DUP3 ADD SWAP1 POP DUP2 DUP2 SUB PUSH0 DUP4 ADD MSTORE PUSH2 0x18BC DUP2 PUSH2 0x1883 JUMP JUMPDEST SWAP1 POP SWAP2 SWAP1 POP JUMP JUMPDEST PUSH0 PUSH2 0x18CD DUP3 PUSH2 0xE98 JUMP JUMPDEST SWAP2 POP PUSH0 DUP3 SUB PUSH2 0x18DF JUMPI PUSH2 0x18DE PUSH2 0x142F JUMP JUMPDEST JUMPDEST PUSH1 0x1 DUP3 SUB SWAP1 POP SWAP2 SWAP1 POP JUMP INVALID LOG2 PUSH5 0x6970667358 0x22 SLT KECCAK256 DUP2 BLOBBASEFEE SWAP15 PUSH22 0x6EF90703207E6ECFBDDD28406F5F0419409769DBA2F3 PUSH9 0x6FD0C5EF0364736F6C PUSH4 0x4300081A STOP CALLER "
				},
				"gasEstimates": {
					"creation": {
						"codeDepositCost": "1286400",
						"executionCost": "49864",
						"totalCost": "1336264"
					},
					"external": {
						"changeTweetLength(uint32)": "26862",
						"createTweet(string)": "infinite",
						"dislikeTweet(address,uint256)": "infinite",
						"getAllTwetts(address)": "infinite",
						"getTweet(address,uint256)": "infinite",
						"getTweetLength()": "2517",
						"likeTweet(address,uint256)": "infinite"
					}
				},
				"methodIdentifiers": {
					"changeTweetLength(uint32)": "318ea667",
					"createTweet(string)": "7c9cd2bc",
					"dislikeTweet(address,uint256)": "ae775e95",
					"getAllTwetts(address)": "6a6cdab8",
					"getTweet(address,uint256)": "112f54e3",
					"getTweetLength()": "a2afce88",
					"likeTweet(address,uint256)": "63378216"
				}
			},
			"storageLayout": {
				"storage": [
					{
						"astId": 3,
						"contract": "twitterCopy.sol:Twitter",
						"label": "owner",
						"offset": 0,
						"slot": "0",
						"type": "t_address"
					},
					{
						"astId": 29,
						"contract": "twitterCopy.sol:Twitter",
						"label": "UserTwetts",
						"offset": 0,
						"slot": "1",
						"type": "t_mapping(t_address,t_array(t_struct(Tweet)23_storage)dyn_storage)"
					},
					{
						"astId": 62,
						"contract": "twitterCopy.sol:Twitter",
						"label": "MAX_LENGTH",
						"offset": 0,
						"slot": "2",
						"type": "t_uint32"
					}
				],
				"types": {
					"t_address": {
						"encoding": "inplace",
						"label": "address",
						"numberOfBytes": "20"
					},
					"t_array(t_struct(Tweet)23_storage)dyn_storage": {
						"base": "t_struct(Tweet)23_storage",
						"encoding": "dynamic_array",
						"label": "struct Twitter.Tweet[]",
						"numberOfBytes": "32"
					},
					"t_mapping(t_address,t_array(t_struct(Tweet)23_storage)dyn_storage)": {
						"encoding": "mapping",
						"key": "t_address",
						"label": "mapping(address => struct Twitter.Tweet[])",
						"numberOfBytes": "32",
						"value": "t_array(t_struct(Tweet)23_storage)dyn_storage"
					},
					"t_string_storage": {
						"encoding": "bytes",
						"label": "string",
						"numberOfBytes": "32"
					},
					"t_struct(Tweet)23_storage": {
						"encoding": "inplace",
						"label": "struct Twitter.Tweet",
						"members": [
							{
								"astId": 14,
								"contract": "twitterCopy.sol:Twitter",
								"label": "ID",
								"offset": 0,
								"slot": "0",
								"type": "t_uint256"
							},
							{
								"astId": 16,
								"contract": "twitterCopy.sol:Twitter",
								"label": "author",
								"offset": 0,
								"slot": "1",
								"type": "t_address"
							},
							{
								"astId": 18,
								"contract": "twitterCopy.sol:Twitter",
								"label": "content",
								"offset": 0,
								"slot": "2",
								"type": "t_string_storage"
							},
							{
								"astId": 20,
								"contract": "twitterCopy.sol:Twitter",
								"label": "TimeStamp",
								"offset": 0,
								"slot": "3",
								"type": "t_uint256"
							},
							{
								"astId": 22,
								"contract": "twitterCopy.sol:Twitter",
								"label": "likes",
								"offset": 0,
								"slot": "4",
								"type": "t_uint64"
							}
						],
						"numberOfBytes": "160"
					},
					"t_uint256": {
						"encoding": "inplace",
						"label": "uint256",
						"numberOfBytes": "32"
					},
					"t_uint32": {
						"encoding": "inplace",
						"label": "uint32",
						"numberOfBytes": "4"
					},
					"t_uint64": {
						"encoding": "inplace",
						"label": "uint64",
						"numberOfBytes": "8"
					}
				}
			},
			"userdoc": {
				"kind": "user",
				"methods": {},
				"version": 1
			}
		}
	}
}