{
	"twitterCopy.sol": {
		"Twitter": {
			"abi": [
				{
					"inputs": [],
					"stateMutability": "nonpayable",
					"type": "constructor"
				},
				{
					"anonymous": false,
					"inputs": [
						{
							"indexed": true,
							"internalType": "string",
							"name": "notify",
							"type": "string"
						},
						{
							"indexed": true,
							"internalType": "address",
							"name": "tweetHost",
							"type": "address"
						}
					],
					"name": "newTweet",
					"type": "event"
				},
				{
					"inputs": [
						{
							"internalType": "string",
							"name": "tweet",
							"type": "string"
						}
					],
					"name": "createTweet",
					"outputs": [],
					"stateMutability": "nonpayable",
					"type": "function"
				},
				{
					"inputs": [
						{
							"internalType": "address",
							"name": "_owner",
							"type": "address"
						}
					],
					"name": "getAllTwetts",
					"outputs": [
						{
							"internalType": "string[]",
							"name": "",
							"type": "string[]"
						}
					],
					"stateMutability": "view",
					"type": "function"
				},
				{
					"inputs": [
						{
							"internalType": "address",
							"name": "user",
							"type": "address"
						},
						{
							"internalType": "uint256",
							"name": "_i",
							"type": "uint256"
						}
					],
					"name": "getTweet",
					"outputs": [
						{
							"internalType": "string",
							"name": "",
							"type": "string"
						}
					],
					"stateMutability": "view",
					"type": "function"
				}
			],
			"devdoc": {
				"kind": "dev",
				"methods": {},
				"version": 1
			},
			"evm": {
				"assembly": "    /* \"twitterCopy.sol\":64:725  contract Twitter{\r... */\n  mstore(0x40, 0x80)\n    /* \"twitterCopy.sol\":167:217  constructor(){\r... */\n  callvalue\n  dup1\n  iszero\n  tag_1\n  jumpi\n  0x00\n  dup1\n  revert\ntag_1:\n  pop\n    /* \"twitterCopy.sol\":199:209  msg.sender */\n  caller\n    /* \"twitterCopy.sol\":191:196  owner */\n  0x01\n  0x00\n    /* \"twitterCopy.sol\":191:209  owner = msg.sender */\n  0x0100\n  exp\n  dup2\n  sload\n  dup2\n  0xffffffffffffffffffffffffffffffffffffffff\n  mul\n  not\n  and\n  swap1\n  dup4\n  0xffffffffffffffffffffffffffffffffffffffff\n  and\n  mul\n  or\n  swap1\n  sstore\n  pop\n    /* \"twitterCopy.sol\":64:725  contract Twitter{\r... */\n  dataSize(sub_0)\n  dup1\n  dataOffset(sub_0)\n  0x00\n  codecopy\n  0x00\n  return\nstop\n\nsub_0: assembly {\n        /* \"twitterCopy.sol\":64:725  contract Twitter{\r... */\n      mstore(0x40, 0x80)\n      callvalue\n      dup1\n      iszero\n      tag_1\n      jumpi\n      0x00\n      dup1\n      revert\n    tag_1:\n      pop\n      jumpi(tag_2, lt(calldatasize, 0x04))\n      shr(0xe0, calldataload(0x00))\n      dup1\n      0x112f54e3\n      eq\n      tag_3\n      jumpi\n      dup1\n      0x6a6cdab8\n      eq\n      tag_4\n      jumpi\n      dup1\n      0x7c9cd2bc\n      eq\n      tag_5\n      jumpi\n    tag_2:\n      0x00\n      dup1\n      revert\n        /* \"twitterCopy.sol\":470:591  function getTweet(address user, uint _i)external view returns (string memory){\r... */\n    tag_3:\n      tag_6\n      0x04\n      dup1\n      calldatasize\n      sub\n      dup2\n      add\n      swap1\n      tag_7\n      swap2\n      swap1\n      tag_8\n      jump\t// in\n    tag_7:\n      tag_9\n      jump\t// in\n    tag_6:\n      mload(0x40)\n      tag_10\n      swap2\n      swap1\n      tag_11\n      jump\t// in\n    tag_10:\n      mload(0x40)\n      dup1\n      swap2\n      sub\n      swap1\n      return\n        /* \"twitterCopy.sol\":599:720  function getAllTwetts(address _owner) external view returns (string[] memory){\r... */\n    tag_4:\n      tag_12\n      0x04\n      dup1\n      calldatasize\n      sub\n      dup2\n      add\n      swap1\n      tag_13\n      swap2\n      swap1\n      tag_14\n      jump\t// in\n    tag_13:\n      tag_15\n      jump\t// in\n    tag_12:\n      mload(0x40)\n      tag_16\n      swap2\n      swap1\n      tag_17\n      jump\t// in\n    tag_16:\n      mload(0x40)\n      dup1\n      swap2\n      sub\n      swap1\n      return\n        /* \"twitterCopy.sol\":298:462  function createTweet(string memory tweet) external {\r... */\n    tag_5:\n      tag_18\n      0x04\n      dup1\n      calldatasize\n      sub\n      dup2\n      add\n      swap1\n      tag_19\n      swap2\n      swap1\n      tag_20\n      jump\t// in\n    tag_19:\n      tag_21\n      jump\t// in\n    tag_18:\n      stop\n        /* \"twitterCopy.sol\":470:591  function getTweet(address user, uint _i)external view returns (string memory){\r... */\n    tag_9:\n        /* \"twitterCopy.sol\":533:546  string memory */\n      0x60\n        /* \"twitterCopy.sol\":563:573  UserTwetts */\n      0x00\n        /* \"twitterCopy.sol\":563:579  UserTwetts[user] */\n      dup1\n        /* \"twitterCopy.sol\":574:578  user */\n      dup5\n        /* \"twitterCopy.sol\":563:579  UserTwetts[user] */\n      0xffffffffffffffffffffffffffffffffffffffff\n      and\n      0xffffffffffffffffffffffffffffffffffffffff\n      and\n      dup2\n      mstore\n      0x20\n      add\n      swap1\n      dup2\n      mstore\n      0x20\n      add\n      0x00\n      keccak256\n        /* \"twitterCopy.sol\":580:582  _i */\n      dup3\n        /* \"twitterCopy.sol\":563:583  UserTwetts[user][_i] */\n      dup2\n      sload\n      dup2\n      lt\n      tag_23\n      jumpi\n      mstore(0x00, 0x4e487b7100000000000000000000000000000000000000000000000000000000)\n      mstore(0x04, 0x32)\n      revert(0x00, 0x24)\n    tag_23:\n      swap1\n      0x00\n      mstore\n      keccak256(0x00, 0x20)\n      add\n        /* \"twitterCopy.sol\":556:583  return UserTwetts[user][_i] */\n      dup1\n      sload\n      tag_25\n      swap1\n      tag_26\n      jump\t// in\n    tag_25:\n      dup1\n      0x1f\n      add\n      0x20\n      dup1\n      swap2\n      div\n      mul\n      0x20\n      add\n      mload(0x40)\n      swap1\n      dup2\n      add\n      0x40\n      mstore\n      dup1\n      swap3\n      swap2\n      swap1\n      dup2\n      dup2\n      mstore\n      0x20\n      add\n      dup3\n      dup1\n      sload\n      tag_27\n      swap1\n      tag_26\n      jump\t// in\n    tag_27:\n      dup1\n      iszero\n      tag_28\n      jumpi\n      dup1\n      0x1f\n      lt\n      tag_29\n      jumpi\n      0x0100\n      dup1\n      dup4\n      sload\n      div\n      mul\n      dup4\n      mstore\n      swap2\n      0x20\n      add\n      swap2\n      jump(tag_28)\n    tag_29:\n      dup3\n      add\n      swap2\n      swap1\n      0x00\n      mstore\n      keccak256(0x00, 0x20)\n      swap1\n    tag_30:\n      dup2\n      sload\n      dup2\n      mstore\n      swap1\n      0x01\n      add\n      swap1\n      0x20\n      add\n      dup1\n      dup4\n      gt\n      tag_30\n      jumpi\n      dup3\n      swap1\n      sub\n      0x1f\n      and\n      dup3\n      add\n      swap2\n    tag_28:\n      pop\n      pop\n      pop\n      pop\n      pop\n      swap1\n      pop\n        /* \"twitterCopy.sol\":470:591  function getTweet(address user, uint _i)external view returns (string memory){\r... */\n      swap3\n      swap2\n      pop\n      pop\n      jump\t// out\n        /* \"twitterCopy.sol\":599:720  function getAllTwetts(address _owner) external view returns (string[] memory){\r... */\n    tag_15:\n        /* \"twitterCopy.sol\":660:675  string[] memory */\n      0x60\n        /* \"twitterCopy.sol\":694:704  UserTwetts */\n      0x00\n        /* \"twitterCopy.sol\":694:712  UserTwetts[_owner] */\n      dup1\n        /* \"twitterCopy.sol\":705:711  _owner */\n      dup4\n        /* \"twitterCopy.sol\":694:712  UserTwetts[_owner] */\n      0xffffffffffffffffffffffffffffffffffffffff\n      and\n      0xffffffffffffffffffffffffffffffffffffffff\n      and\n      dup2\n      mstore\n      0x20\n      add\n      swap1\n      dup2\n      mstore\n      0x20\n      add\n      0x00\n      keccak256\n        /* \"twitterCopy.sol\":687:712  return UserTwetts[_owner] */\n      dup1\n      sload\n      dup1\n      0x20\n      mul\n      0x20\n      add\n      mload(0x40)\n      swap1\n      dup2\n      add\n      0x40\n      mstore\n      dup1\n      swap3\n      swap2\n      swap1\n      dup2\n      dup2\n      mstore\n      0x20\n      add\n      0x00\n      swap1\n    tag_32:\n      dup3\n      dup3\n      lt\n      iszero\n      tag_33\n      jumpi\n      dup4\n      dup3\n      swap1\n      0x00\n      mstore\n      keccak256(0x00, 0x20)\n      add\n      dup1\n      sload\n      tag_35\n      swap1\n      tag_26\n      jump\t// in\n    tag_35:\n      dup1\n      0x1f\n      add\n      0x20\n      dup1\n      swap2\n      div\n      mul\n      0x20\n      add\n      mload(0x40)\n      swap1\n      dup2\n      add\n      0x40\n      mstore\n      dup1\n      swap3\n      swap2\n      swap1\n      dup2\n      dup2\n      mstore\n      0x20\n      add\n      dup3\n      dup1\n      sload\n      tag_36\n      swap1\n      tag_26\n      jump\t// in\n    tag_36:\n      dup1\n      iszero\n      tag_37\n      jumpi\n      dup1\n      0x1f\n      lt\n      tag_38\n      jumpi\n      0x0100\n      dup1\n      dup4\n      sload\n      div\n      mul\n      dup4\n      mstore\n      swap2\n      0x20\n      add\n      swap2\n      jump(tag_37)\n    tag_38:\n      dup3\n      add\n      swap2\n      swap1\n      0x00\n      mstore\n      keccak256(0x00, 0x20)\n      swap1\n    tag_39:\n      dup2\n      sload\n      dup2\n      mstore\n      swap1\n      0x01\n      add\n      swap1\n      0x20\n      add\n      dup1\n      dup4\n      gt\n      tag_39\n      jumpi\n      dup3\n      swap1\n      sub\n      0x1f\n      and\n      dup3\n      add\n      swap2\n    tag_37:\n      pop\n      pop\n      pop\n      pop\n      pop\n      dup2\n      mstore\n      0x20\n      add\n      swap1\n      0x01\n      add\n      swap1\n      jump(tag_32)\n    tag_33:\n      pop\n      pop\n      pop\n      pop\n      swap1\n      pop\n        /* \"twitterCopy.sol\":599:720  function getAllTwetts(address _owner) external view returns (string[] memory){\r... */\n      swap2\n      swap1\n      pop\n      jump\t// out\n        /* \"twitterCopy.sol\":298:462  function createTweet(string memory tweet) external {\r... */\n    tag_21:\n        /* \"twitterCopy.sol\":360:370  UserTwetts */\n      0x00\n        /* \"twitterCopy.sol\":360:382  UserTwetts[msg.sender] */\n      dup1\n        /* \"twitterCopy.sol\":371:381  msg.sender */\n      caller\n        /* \"twitterCopy.sol\":360:382  UserTwetts[msg.sender] */\n      0xffffffffffffffffffffffffffffffffffffffff\n      and\n      0xffffffffffffffffffffffffffffffffffffffff\n      and\n      dup2\n      mstore\n      0x20\n      add\n      swap1\n      dup2\n      mstore\n      0x20\n      add\n      0x00\n      keccak256\n        /* \"twitterCopy.sol\":388:393  tweet */\n      dup2\n        /* \"twitterCopy.sol\":360:394  UserTwetts[msg.sender].push(tweet) */\n      swap1\n      dup1\n      0x01\n      dup2\n      sload\n      add\n      dup1\n      dup3\n      sstore\n      dup1\n      swap2\n      pop\n      pop\n      0x01\n      swap1\n      sub\n      swap1\n      0x00\n      mstore\n      keccak256(0x00, 0x20)\n      add\n      0x00\n      swap1\n      swap2\n      swap1\n      swap2\n      swap1\n      swap2\n      pop\n      swap1\n      dup1\n      mload\n      swap1\n      0x20\n      add\n      swap1\n      tag_42\n      swap3\n      swap2\n      swap1\n      tag_43\n      jump\t// in\n    tag_42:\n      pop\n        /* \"twitterCopy.sol\":437:447  msg.sender */\n      caller\n        /* \"twitterCopy.sol\":410:448  newTweet(\"New Tweet by: \", msg.sender) */\n      0xffffffffffffffffffffffffffffffffffffffff\n      and\n      mload(0x40)\n      tag_44\n      swap1\n      tag_45\n      jump\t// in\n    tag_44:\n      mload(0x40)\n      dup1\n      swap2\n      sub\n      swap1\n      keccak256\n      0x603868ad8ed2ceedede940d1ef9840077b0cdf05154d52090b342a9d8b1a35fa\n      mload(0x40)\n      mload(0x40)\n      dup1\n      swap2\n      sub\n      swap1\n      log3\n        /* \"twitterCopy.sol\":298:462  function createTweet(string memory tweet) external {\r... */\n      pop\n      jump\t// out\n    tag_43:\n      dup3\n      dup1\n      sload\n      tag_46\n      swap1\n      tag_26\n      jump\t// in\n    tag_46:\n      swap1\n      0x00\n      mstore\n      keccak256(0x00, 0x20)\n      swap1\n      0x1f\n      add\n      0x20\n      swap1\n      div\n      dup2\n      add\n      swap3\n      dup3\n      tag_48\n      jumpi\n      0x00\n      dup6\n      sstore\n      jump(tag_47)\n    tag_48:\n      dup3\n      0x1f\n      lt\n      tag_49\n      jumpi\n      dup1\n      mload\n      not(0xff)\n      and\n      dup4\n      dup1\n      add\n      or\n      dup6\n      sstore\n      jump(tag_47)\n    tag_49:\n      dup3\n      dup1\n      add\n      0x01\n      add\n      dup6\n      sstore\n      dup3\n      iszero\n      tag_47\n      jumpi\n      swap2\n      dup3\n      add\n    tag_50:\n      dup3\n      dup2\n      gt\n      iszero\n      tag_51\n      jumpi\n      dup3\n      mload\n      dup3\n      sstore\n      swap2\n      0x20\n      add\n      swap2\n      swap1\n      0x01\n      add\n      swap1\n      jump(tag_50)\n    tag_51:\n    tag_47:\n      pop\n      swap1\n      pop\n      tag_52\n      swap2\n      swap1\n      tag_53\n      jump\t// in\n    tag_52:\n      pop\n      swap1\n      jump\t// out\n    tag_53:\n    tag_54:\n      dup1\n      dup3\n      gt\n      iszero\n      tag_55\n      jumpi\n      0x00\n      dup2\n      0x00\n      swap1\n      sstore\n      pop\n      0x01\n      add\n      jump(tag_54)\n    tag_55:\n      pop\n      swap1\n      jump\t// out\n        /* \"#utility.yul\":7:351   */\n    tag_57:\n      0x00\n        /* \"#utility.yul\":110:175   */\n      tag_59\n        /* \"#utility.yul\":125:174   */\n      tag_60\n        /* \"#utility.yul\":167:173   */\n      dup5\n        /* \"#utility.yul\":125:174   */\n      tag_61\n      jump\t// in\n    tag_60:\n        /* \"#utility.yul\":110:175   */\n      tag_62\n      jump\t// in\n    tag_59:\n        /* \"#utility.yul\":101:175   */\n      swap1\n      pop\n        /* \"#utility.yul\":198:204   */\n      dup3\n        /* \"#utility.yul\":191:196   */\n      dup2\n        /* \"#utility.yul\":184:205   */\n      mstore\n        /* \"#utility.yul\":236:240   */\n      0x20\n        /* \"#utility.yul\":229:234   */\n      dup2\n        /* \"#utility.yul\":225:241   */\n      add\n        /* \"#utility.yul\":274:277   */\n      dup5\n        /* \"#utility.yul\":265:271   */\n      dup5\n        /* \"#utility.yul\":260:263   */\n      dup5\n        /* \"#utility.yul\":256:272   */\n      add\n        /* \"#utility.yul\":253:278   */\n      gt\n        /* \"#utility.yul\":250:252   */\n      iszero\n      tag_63\n      jumpi\n        /* \"#utility.yul\":291:292   */\n      0x00\n        /* \"#utility.yul\":288:289   */\n      dup1\n        /* \"#utility.yul\":281:293   */\n      revert\n        /* \"#utility.yul\":250:252   */\n    tag_63:\n        /* \"#utility.yul\":304:345   */\n      tag_64\n        /* \"#utility.yul\":338:344   */\n      dup5\n        /* \"#utility.yul\":333:336   */\n      dup3\n        /* \"#utility.yul\":328:331   */\n      dup6\n        /* \"#utility.yul\":304:345   */\n      tag_65\n      jump\t// in\n    tag_64:\n        /* \"#utility.yul\":91:351   */\n      pop\n      swap4\n      swap3\n      pop\n      pop\n      pop\n      jump\t// out\n        /* \"#utility.yul\":357:496   */\n    tag_66:\n      0x00\n        /* \"#utility.yul\":441:447   */\n      dup2\n        /* \"#utility.yul\":428:448   */\n      calldataload\n        /* \"#utility.yul\":419:448   */\n      swap1\n      pop\n        /* \"#utility.yul\":457:490   */\n      tag_68\n        /* \"#utility.yul\":484:489   */\n      dup2\n        /* \"#utility.yul\":457:490   */\n      tag_69\n      jump\t// in\n    tag_68:\n        /* \"#utility.yul\":409:496   */\n      swap3\n      swap2\n      pop\n      pop\n      jump\t// out\n        /* \"#utility.yul\":516:789   */\n    tag_70:\n      0x00\n        /* \"#utility.yul\":621:624   */\n      dup3\n        /* \"#utility.yul\":614:618   */\n      0x1f\n        /* \"#utility.yul\":606:612   */\n      dup4\n        /* \"#utility.yul\":602:619   */\n      add\n        /* \"#utility.yul\":598:625   */\n      slt\n        /* \"#utility.yul\":588:590   */\n      tag_72\n      jumpi\n        /* \"#utility.yul\":639:640   */\n      0x00\n        /* \"#utility.yul\":636:637   */\n      dup1\n        /* \"#utility.yul\":629:641   */\n      revert\n        /* \"#utility.yul\":588:590   */\n    tag_72:\n        /* \"#utility.yul\":679:685   */\n      dup2\n        /* \"#utility.yul\":666:686   */\n      calldataload\n        /* \"#utility.yul\":704:783   */\n      tag_73\n        /* \"#utility.yul\":779:782   */\n      dup5\n        /* \"#utility.yul\":771:777   */\n      dup3\n        /* \"#utility.yul\":764:768   */\n      0x20\n        /* \"#utility.yul\":756:762   */\n      dup7\n        /* \"#utility.yul\":752:769   */\n      add\n        /* \"#utility.yul\":704:783   */\n      tag_57\n      jump\t// in\n    tag_73:\n        /* \"#utility.yul\":695:783   */\n      swap2\n      pop\n        /* \"#utility.yul\":578:789   */\n      pop\n      swap3\n      swap2\n      pop\n      pop\n      jump\t// out\n        /* \"#utility.yul\":795:934   */\n    tag_74:\n      0x00\n        /* \"#utility.yul\":879:885   */\n      dup2\n        /* \"#utility.yul\":866:886   */\n      calldataload\n        /* \"#utility.yul\":857:886   */\n      swap1\n      pop\n        /* \"#utility.yul\":895:928   */\n      tag_76\n        /* \"#utility.yul\":922:927   */\n      dup2\n        /* \"#utility.yul\":895:928   */\n      tag_77\n      jump\t// in\n    tag_76:\n        /* \"#utility.yul\":847:934   */\n      swap3\n      swap2\n      pop\n      pop\n      jump\t// out\n        /* \"#utility.yul\":940:1202   */\n    tag_14:\n      0x00\n        /* \"#utility.yul\":1048:1050   */\n      0x20\n        /* \"#utility.yul\":1036:1045   */\n      dup3\n        /* \"#utility.yul\":1027:1034   */\n      dup5\n        /* \"#utility.yul\":1023:1046   */\n      sub\n        /* \"#utility.yul\":1019:1051   */\n      slt\n        /* \"#utility.yul\":1016:1018   */\n      iszero\n      tag_79\n      jumpi\n        /* \"#utility.yul\":1064:1065   */\n      0x00\n        /* \"#utility.yul\":1061:1062   */\n      dup1\n        /* \"#utility.yul\":1054:1066   */\n      revert\n        /* \"#utility.yul\":1016:1018   */\n    tag_79:\n        /* \"#utility.yul\":1107:1108   */\n      0x00\n        /* \"#utility.yul\":1132:1185   */\n      tag_80\n        /* \"#utility.yul\":1177:1184   */\n      dup5\n        /* \"#utility.yul\":1168:1174   */\n      dup3\n        /* \"#utility.yul\":1157:1166   */\n      dup6\n        /* \"#utility.yul\":1153:1175   */\n      add\n        /* \"#utility.yul\":1132:1185   */\n      tag_66\n      jump\t// in\n    tag_80:\n        /* \"#utility.yul\":1122:1185   */\n      swap2\n      pop\n        /* \"#utility.yul\":1078:1195   */\n      pop\n        /* \"#utility.yul\":1006:1202   */\n      swap3\n      swap2\n      pop\n      pop\n      jump\t// out\n        /* \"#utility.yul\":1208:1615   */\n    tag_8:\n      0x00\n      dup1\n        /* \"#utility.yul\":1333:1335   */\n      0x40\n        /* \"#utility.yul\":1321:1330   */\n      dup4\n        /* \"#utility.yul\":1312:1319   */\n      dup6\n        /* \"#utility.yul\":1308:1331   */\n      sub\n        /* \"#utility.yul\":1304:1336   */\n      slt\n        /* \"#utility.yul\":1301:1303   */\n      iszero\n      tag_82\n      jumpi\n        /* \"#utility.yul\":1349:1350   */\n      0x00\n        /* \"#utility.yul\":1346:1347   */\n      dup1\n        /* \"#utility.yul\":1339:1351   */\n      revert\n        /* \"#utility.yul\":1301:1303   */\n    tag_82:\n        /* \"#utility.yul\":1392:1393   */\n      0x00\n        /* \"#utility.yul\":1417:1470   */\n      tag_83\n        /* \"#utility.yul\":1462:1469   */\n      dup6\n        /* \"#utility.yul\":1453:1459   */\n      dup3\n        /* \"#utility.yul\":1442:1451   */\n      dup7\n        /* \"#utility.yul\":1438:1460   */\n      add\n        /* \"#utility.yul\":1417:1470   */\n      tag_66\n      jump\t// in\n    tag_83:\n        /* \"#utility.yul\":1407:1470   */\n      swap3\n      pop\n        /* \"#utility.yul\":1363:1480   */\n      pop\n        /* \"#utility.yul\":1519:1521   */\n      0x20\n        /* \"#utility.yul\":1545:1598   */\n      tag_84\n        /* \"#utility.yul\":1590:1597   */\n      dup6\n        /* \"#utility.yul\":1581:1587   */\n      dup3\n        /* \"#utility.yul\":1570:1579   */\n      dup7\n        /* \"#utility.yul\":1566:1588   */\n      add\n        /* \"#utility.yul\":1545:1598   */\n      tag_74\n      jump\t// in\n    tag_84:\n        /* \"#utility.yul\":1535:1598   */\n      swap2\n      pop\n        /* \"#utility.yul\":1490:1608   */\n      pop\n        /* \"#utility.yul\":1291:1615   */\n      swap3\n      pop\n      swap3\n      swap1\n      pop\n      jump\t// out\n        /* \"#utility.yul\":1621:1996   */\n    tag_20:\n      0x00\n        /* \"#utility.yul\":1739:1741   */\n      0x20\n        /* \"#utility.yul\":1727:1736   */\n      dup3\n        /* \"#utility.yul\":1718:1725   */\n      dup5\n        /* \"#utility.yul\":1714:1737   */\n      sub\n        /* \"#utility.yul\":1710:1742   */\n      slt\n        /* \"#utility.yul\":1707:1709   */\n      iszero\n      tag_86\n      jumpi\n        /* \"#utility.yul\":1755:1756   */\n      0x00\n        /* \"#utility.yul\":1752:1753   */\n      dup1\n        /* \"#utility.yul\":1745:1757   */\n      revert\n        /* \"#utility.yul\":1707:1709   */\n    tag_86:\n        /* \"#utility.yul\":1826:1827   */\n      0x00\n        /* \"#utility.yul\":1815:1824   */\n      dup3\n        /* \"#utility.yul\":1811:1828   */\n      add\n        /* \"#utility.yul\":1798:1829   */\n      calldataload\n        /* \"#utility.yul\":1856:1874   */\n      0xffffffffffffffff\n        /* \"#utility.yul\":1848:1854   */\n      dup2\n        /* \"#utility.yul\":1845:1875   */\n      gt\n        /* \"#utility.yul\":1842:1844   */\n      iszero\n      tag_87\n      jumpi\n        /* \"#utility.yul\":1888:1889   */\n      0x00\n        /* \"#utility.yul\":1885:1886   */\n      dup1\n        /* \"#utility.yul\":1878:1890   */\n      revert\n        /* \"#utility.yul\":1842:1844   */\n    tag_87:\n        /* \"#utility.yul\":1916:1979   */\n      tag_88\n        /* \"#utility.yul\":1971:1978   */\n      dup5\n        /* \"#utility.yul\":1962:1968   */\n      dup3\n        /* \"#utility.yul\":1951:1960   */\n      dup6\n        /* \"#utility.yul\":1947:1969   */\n      add\n        /* \"#utility.yul\":1916:1979   */\n      tag_70\n      jump\t// in\n    tag_88:\n        /* \"#utility.yul\":1906:1979   */\n      swap2\n      pop\n        /* \"#utility.yul\":1769:1989   */\n      pop\n        /* \"#utility.yul\":1697:1996   */\n      swap3\n      swap2\n      pop\n      pop\n      jump\t// out\n        /* \"#utility.yul\":2002:2198   */\n    tag_89:\n      0x00\n        /* \"#utility.yul\":2126:2192   */\n      tag_91\n        /* \"#utility.yul\":2188:2191   */\n      dup4\n        /* \"#utility.yul\":2180:2186   */\n      dup4\n        /* \"#utility.yul\":2126:2192   */\n      tag_92\n      jump\t// in\n    tag_91:\n        /* \"#utility.yul\":2112:2192   */\n      swap1\n      pop\n        /* \"#utility.yul\":2102:2198   */\n      swap3\n      swap2\n      pop\n      pop\n      jump\t// out\n        /* \"#utility.yul\":2232:3223   */\n    tag_93:\n      0x00\n        /* \"#utility.yul\":2400:2464   */\n      tag_95\n        /* \"#utility.yul\":2458:2463   */\n      dup3\n        /* \"#utility.yul\":2400:2464   */\n      tag_96\n      jump\t// in\n    tag_95:\n        /* \"#utility.yul\":2480:2576   */\n      tag_97\n        /* \"#utility.yul\":2569:2575   */\n      dup2\n        /* \"#utility.yul\":2564:2567   */\n      dup6\n        /* \"#utility.yul\":2480:2576   */\n      tag_98\n      jump\t// in\n    tag_97:\n        /* \"#utility.yul\":2473:2576   */\n      swap4\n      pop\n        /* \"#utility.yul\":2602:2605   */\n      dup4\n        /* \"#utility.yul\":2647:2651   */\n      0x20\n        /* \"#utility.yul\":2639:2645   */\n      dup3\n        /* \"#utility.yul\":2635:2652   */\n      mul\n        /* \"#utility.yul\":2630:2633   */\n      dup6\n        /* \"#utility.yul\":2626:2653   */\n      add\n        /* \"#utility.yul\":2677:2743   */\n      tag_99\n        /* \"#utility.yul\":2737:2742   */\n      dup6\n        /* \"#utility.yul\":2677:2743   */\n      tag_100\n      jump\t// in\n    tag_99:\n        /* \"#utility.yul\":2766:2773   */\n      dup1\n        /* \"#utility.yul\":2797:2798   */\n      0x00\n        /* \"#utility.yul\":2782:3178   */\n    tag_101:\n        /* \"#utility.yul\":2807:2813   */\n      dup6\n        /* \"#utility.yul\":2804:2805   */\n      dup2\n        /* \"#utility.yul\":2801:2814   */\n      lt\n        /* \"#utility.yul\":2782:3178   */\n      iszero\n      tag_103\n      jumpi\n        /* \"#utility.yul\":2878:2887   */\n      dup5\n        /* \"#utility.yul\":2872:2876   */\n      dup5\n        /* \"#utility.yul\":2868:2888   */\n      sub\n        /* \"#utility.yul\":2863:2866   */\n      dup10\n        /* \"#utility.yul\":2856:2889   */\n      mstore\n        /* \"#utility.yul\":2929:2935   */\n      dup2\n        /* \"#utility.yul\":2923:2936   */\n      mload\n        /* \"#utility.yul\":2957:3041   */\n      tag_104\n        /* \"#utility.yul\":3036:3040   */\n      dup6\n        /* \"#utility.yul\":3021:3034   */\n      dup3\n        /* \"#utility.yul\":2957:3041   */\n      tag_89\n      jump\t// in\n    tag_104:\n        /* \"#utility.yul\":2949:3041   */\n      swap5\n      pop\n        /* \"#utility.yul\":3064:3134   */\n      tag_105\n        /* \"#utility.yul\":3127:3133   */\n      dup4\n        /* \"#utility.yul\":3064:3134   */\n      tag_106\n      jump\t// in\n    tag_105:\n        /* \"#utility.yul\":3054:3134   */\n      swap3\n      pop\n        /* \"#utility.yul\":3163:3167   */\n      0x20\n        /* \"#utility.yul\":3158:3161   */\n      dup11\n        /* \"#utility.yul\":3154:3168   */\n      add\n        /* \"#utility.yul\":3147:3168   */\n      swap10\n      pop\n        /* \"#utility.yul\":2842:3178   */\n      pop\n        /* \"#utility.yul\":2829:2830   */\n      0x01\n        /* \"#utility.yul\":2826:2827   */\n      dup2\n        /* \"#utility.yul\":2822:2831   */\n      add\n        /* \"#utility.yul\":2817:2831   */\n      swap1\n      pop\n        /* \"#utility.yul\":2782:3178   */\n      jump(tag_101)\n    tag_103:\n        /* \"#utility.yul\":2786:2800   */\n      pop\n        /* \"#utility.yul\":3194:3198   */\n      dup3\n        /* \"#utility.yul\":3187:3198   */\n      swap8\n      pop\n        /* \"#utility.yul\":3214:3217   */\n      dup8\n        /* \"#utility.yul\":3207:3217   */\n      swap6\n      pop\n        /* \"#utility.yul\":2376:3223   */\n      pop\n      pop\n      pop\n      pop\n      pop\n      swap3\n      swap2\n      pop\n      pop\n      jump\t// out\n        /* \"#utility.yul\":3229:3573   */\n    tag_92:\n      0x00\n        /* \"#utility.yul\":3335:3374   */\n      tag_108\n        /* \"#utility.yul\":3368:3373   */\n      dup3\n        /* \"#utility.yul\":3335:3374   */\n      tag_109\n      jump\t// in\n    tag_108:\n        /* \"#utility.yul\":3390:3451   */\n      tag_110\n        /* \"#utility.yul\":3444:3450   */\n      dup2\n        /* \"#utility.yul\":3439:3442   */\n      dup6\n        /* \"#utility.yul\":3390:3451   */\n      tag_111\n      jump\t// in\n    tag_110:\n        /* \"#utility.yul\":3383:3451   */\n      swap4\n      pop\n        /* \"#utility.yul\":3460:3512   */\n      tag_112\n        /* \"#utility.yul\":3505:3511   */\n      dup2\n        /* \"#utility.yul\":3500:3503   */\n      dup6\n        /* \"#utility.yul\":3493:3497   */\n      0x20\n        /* \"#utility.yul\":3486:3491   */\n      dup7\n        /* \"#utility.yul\":3482:3498   */\n      add\n        /* \"#utility.yul\":3460:3512   */\n      tag_113\n      jump\t// in\n    tag_112:\n        /* \"#utility.yul\":3537:3566   */\n      tag_114\n        /* \"#utility.yul\":3559:3565   */\n      dup2\n        /* \"#utility.yul\":3537:3566   */\n      tag_115\n      jump\t// in\n    tag_114:\n        /* \"#utility.yul\":3532:3535   */\n      dup5\n        /* \"#utility.yul\":3528:3567   */\n      add\n        /* \"#utility.yul\":3521:3567   */\n      swap2\n      pop\n        /* \"#utility.yul\":3311:3573   */\n      pop\n      swap3\n      swap2\n      pop\n      pop\n      jump\t// out\n        /* \"#utility.yul\":3579:3943   */\n    tag_116:\n      0x00\n        /* \"#utility.yul\":3695:3734   */\n      tag_118\n        /* \"#utility.yul\":3728:3733   */\n      dup3\n        /* \"#utility.yul\":3695:3734   */\n      tag_109\n      jump\t// in\n    tag_118:\n        /* \"#utility.yul\":3750:3821   */\n      tag_119\n        /* \"#utility.yul\":3814:3820   */\n      dup2\n        /* \"#utility.yul\":3809:3812   */\n      dup6\n        /* \"#utility.yul\":3750:3821   */\n      tag_120\n      jump\t// in\n    tag_119:\n        /* \"#utility.yul\":3743:3821   */\n      swap4\n      pop\n        /* \"#utility.yul\":3830:3882   */\n      tag_121\n        /* \"#utility.yul\":3875:3881   */\n      dup2\n        /* \"#utility.yul\":3870:3873   */\n      dup6\n        /* \"#utility.yul\":3863:3867   */\n      0x20\n        /* \"#utility.yul\":3856:3861   */\n      dup7\n        /* \"#utility.yul\":3852:3868   */\n      add\n        /* \"#utility.yul\":3830:3882   */\n      tag_113\n      jump\t// in\n    tag_121:\n        /* \"#utility.yul\":3907:3936   */\n      tag_122\n        /* \"#utility.yul\":3929:3935   */\n      dup2\n        /* \"#utility.yul\":3907:3936   */\n      tag_115\n      jump\t// in\n    tag_122:\n        /* \"#utility.yul\":3902:3905   */\n      dup5\n        /* \"#utility.yul\":3898:3937   */\n      add\n        /* \"#utility.yul\":3891:3937   */\n      swap2\n      pop\n        /* \"#utility.yul\":3671:3943   */\n      pop\n      swap3\n      swap2\n      pop\n      pop\n      jump\t// out\n        /* \"#utility.yul\":3949:4297   */\n    tag_123:\n      0x00\n        /* \"#utility.yul\":4130:4215   */\n      tag_125\n        /* \"#utility.yul\":4212:4214   */\n      0x0e\n        /* \"#utility.yul\":4207:4210   */\n      dup4\n        /* \"#utility.yul\":4130:4215   */\n      tag_126\n      jump\t// in\n    tag_125:\n        /* \"#utility.yul\":4123:4215   */\n      swap2\n      pop\n        /* \"#utility.yul\":4245:4261   */\n      0x4e65772054776565742062793a20000000000000000000000000000000000000\n        /* \"#utility.yul\":4241:4242   */\n      0x00\n        /* \"#utility.yul\":4236:4239   */\n      dup4\n        /* \"#utility.yul\":4232:4243   */\n      add\n        /* \"#utility.yul\":4225:4262   */\n      mstore\n        /* \"#utility.yul\":4288:4290   */\n      0x0e\n        /* \"#utility.yul\":4283:4286   */\n      dup3\n        /* \"#utility.yul\":4279:4291   */\n      add\n        /* \"#utility.yul\":4272:4291   */\n      swap1\n      pop\n        /* \"#utility.yul\":4113:4297   */\n      swap2\n      swap1\n      pop\n      jump\t// out\n        /* \"#utility.yul\":4303:4684   */\n    tag_45:\n      0x00\n        /* \"#utility.yul\":4510:4658   */\n      tag_128\n        /* \"#utility.yul\":4654:4657   */\n      dup3\n        /* \"#utility.yul\":4510:4658   */\n      tag_123\n      jump\t// in\n    tag_128:\n        /* \"#utility.yul\":4503:4658   */\n      swap2\n      pop\n        /* \"#utility.yul\":4675:4678   */\n      dup2\n        /* \"#utility.yul\":4668:4678   */\n      swap1\n      pop\n        /* \"#utility.yul\":4492:4684   */\n      swap2\n      swap1\n      pop\n      jump\t// out\n        /* \"#utility.yul\":4690:5103   */\n    tag_17:\n      0x00\n        /* \"#utility.yul\":4891:4893   */\n      0x20\n        /* \"#utility.yul\":4880:4889   */\n      dup3\n        /* \"#utility.yul\":4876:4894   */\n      add\n        /* \"#utility.yul\":4868:4894   */\n      swap1\n      pop\n        /* \"#utility.yul\":4940:4949   */\n      dup2\n        /* \"#utility.yul\":4934:4938   */\n      dup2\n        /* \"#utility.yul\":4930:4950   */\n      sub\n        /* \"#utility.yul\":4926:4927   */\n      0x00\n        /* \"#utility.yul\":4915:4924   */\n      dup4\n        /* \"#utility.yul\":4911:4928   */\n      add\n        /* \"#utility.yul\":4904:4951   */\n      mstore\n        /* \"#utility.yul\":4968:5096   */\n      tag_130\n        /* \"#utility.yul\":5091:5095   */\n      dup2\n        /* \"#utility.yul\":5082:5088   */\n      dup5\n        /* \"#utility.yul\":4968:5096   */\n      tag_93\n      jump\t// in\n    tag_130:\n        /* \"#utility.yul\":4960:5096   */\n      swap1\n      pop\n        /* \"#utility.yul\":4858:5103   */\n      swap3\n      swap2\n      pop\n      pop\n      jump\t// out\n        /* \"#utility.yul\":5109:5422   */\n    tag_11:\n      0x00\n        /* \"#utility.yul\":5260:5262   */\n      0x20\n        /* \"#utility.yul\":5249:5258   */\n      dup3\n        /* \"#utility.yul\":5245:5263   */\n      add\n        /* \"#utility.yul\":5237:5263   */\n      swap1\n      pop\n        /* \"#utility.yul\":5309:5318   */\n      dup2\n        /* \"#utility.yul\":5303:5307   */\n      dup2\n        /* \"#utility.yul\":5299:5319   */\n      sub\n        /* \"#utility.yul\":5295:5296   */\n      0x00\n        /* \"#utility.yul\":5284:5293   */\n      dup4\n        /* \"#utility.yul\":5280:5297   */\n      add\n        /* \"#utility.yul\":5273:5320   */\n      mstore\n        /* \"#utility.yul\":5337:5415   */\n      tag_132\n        /* \"#utility.yul\":5410:5414   */\n      dup2\n        /* \"#utility.yul\":5401:5407   */\n      dup5\n        /* \"#utility.yul\":5337:5415   */\n      tag_116\n      jump\t// in\n    tag_132:\n        /* \"#utility.yul\":5329:5415   */\n      swap1\n      pop\n        /* \"#utility.yul\":5227:5422   */\n      swap3\n      swap2\n      pop\n      pop\n      jump\t// out\n        /* \"#utility.yul\":5428:5711   */\n    tag_62:\n      0x00\n        /* \"#utility.yul\":5494:5496   */\n      0x40\n        /* \"#utility.yul\":5488:5497   */\n      mload\n        /* \"#utility.yul\":5478:5497   */\n      swap1\n      pop\n        /* \"#utility.yul\":5536:5540   */\n      dup2\n        /* \"#utility.yul\":5528:5534   */\n      dup2\n        /* \"#utility.yul\":5524:5541   */\n      add\n        /* \"#utility.yul\":5643:5649   */\n      dup2\n        /* \"#utility.yul\":5631:5641   */\n      dup2\n        /* \"#utility.yul\":5628:5650   */\n      lt\n        /* \"#utility.yul\":5607:5625   */\n      0xffffffffffffffff\n        /* \"#utility.yul\":5595:5605   */\n      dup3\n        /* \"#utility.yul\":5592:5626   */\n      gt\n        /* \"#utility.yul\":5589:5651   */\n      or\n        /* \"#utility.yul\":5586:5588   */\n      iszero\n      tag_134\n      jumpi\n        /* \"#utility.yul\":5654:5672   */\n      tag_135\n      tag_136\n      jump\t// in\n    tag_135:\n        /* \"#utility.yul\":5586:5588   */\n    tag_134:\n        /* \"#utility.yul\":5694:5704   */\n      dup1\n        /* \"#utility.yul\":5690:5692   */\n      0x40\n        /* \"#utility.yul\":5683:5705   */\n      mstore\n        /* \"#utility.yul\":5468:5711   */\n      pop\n      swap2\n      swap1\n      pop\n      jump\t// out\n        /* \"#utility.yul\":5717:6049   */\n    tag_61:\n      0x00\n        /* \"#utility.yul\":5869:5887   */\n      0xffffffffffffffff\n        /* \"#utility.yul\":5861:5867   */\n      dup3\n        /* \"#utility.yul\":5858:5888   */\n      gt\n        /* \"#utility.yul\":5855:5857   */\n      iszero\n      tag_138\n      jumpi\n        /* \"#utility.yul\":5891:5909   */\n      tag_139\n      tag_136\n      jump\t// in\n    tag_139:\n        /* \"#utility.yul\":5855:5857   */\n    tag_138:\n        /* \"#utility.yul\":5976:5980   */\n      0x1f\n        /* \"#utility.yul\":5972:5981   */\n      not\n        /* \"#utility.yul\":5965:5969   */\n      0x1f\n        /* \"#utility.yul\":5957:5963   */\n      dup4\n        /* \"#utility.yul\":5953:5970   */\n      add\n        /* \"#utility.yul\":5949:5982   */\n      and\n        /* \"#utility.yul\":5941:5982   */\n      swap1\n      pop\n        /* \"#utility.yul\":6037:6041   */\n      0x20\n        /* \"#utility.yul\":6031:6035   */\n      dup2\n        /* \"#utility.yul\":6027:6042   */\n      add\n        /* \"#utility.yul\":6019:6042   */\n      swap1\n      pop\n        /* \"#utility.yul\":5784:6049   */\n      swap2\n      swap1\n      pop\n      jump\t// out\n        /* \"#utility.yul\":6055:6197   */\n    tag_100:\n      0x00\n        /* \"#utility.yul\":6155:6158   */\n      dup2\n        /* \"#utility.yul\":6147:6158   */\n      swap1\n      pop\n        /* \"#utility.yul\":6185:6189   */\n      0x20\n        /* \"#utility.yul\":6180:6183   */\n      dup3\n        /* \"#utility.yul\":6176:6190   */\n      add\n        /* \"#utility.yul\":6168:6190   */\n      swap1\n      pop\n        /* \"#utility.yul\":6137:6197   */\n      swap2\n      swap1\n      pop\n      jump\t// out\n        /* \"#utility.yul\":6203:6327   */\n    tag_96:\n      0x00\n        /* \"#utility.yul\":6314:6319   */\n      dup2\n        /* \"#utility.yul\":6308:6320   */\n      mload\n        /* \"#utility.yul\":6298:6320   */\n      swap1\n      pop\n        /* \"#utility.yul\":6287:6327   */\n      swap2\n      swap1\n      pop\n      jump\t// out\n        /* \"#utility.yul\":6333:6432   */\n    tag_109:\n      0x00\n        /* \"#utility.yul\":6419:6424   */\n      dup2\n        /* \"#utility.yul\":6413:6425   */\n      mload\n        /* \"#utility.yul\":6403:6425   */\n      swap1\n      pop\n        /* \"#utility.yul\":6392:6432   */\n      swap2\n      swap1\n      pop\n      jump\t// out\n        /* \"#utility.yul\":6438:6561   */\n    tag_106:\n      0x00\n        /* \"#utility.yul\":6550:6554   */\n      0x20\n        /* \"#utility.yul\":6545:6548   */\n      dup3\n        /* \"#utility.yul\":6541:6555   */\n      add\n        /* \"#utility.yul\":6533:6555   */\n      swap1\n      pop\n        /* \"#utility.yul\":6523:6561   */\n      swap2\n      swap1\n      pop\n      jump\t// out\n        /* \"#utility.yul\":6567:6761   */\n    tag_98:\n      0x00\n        /* \"#utility.yul\":6710:6716   */\n      dup3\n        /* \"#utility.yul\":6705:6708   */\n      dup3\n        /* \"#utility.yul\":6698:6717   */\n      mstore\n        /* \"#utility.yul\":6750:6754   */\n      0x20\n        /* \"#utility.yul\":6745:6748   */\n      dup3\n        /* \"#utility.yul\":6741:6755   */\n      add\n        /* \"#utility.yul\":6726:6755   */\n      swap1\n      pop\n        /* \"#utility.yul\":6688:6761   */\n      swap3\n      swap2\n      pop\n      pop\n      jump\t// out\n        /* \"#utility.yul\":6767:6926   */\n    tag_111:\n      0x00\n        /* \"#utility.yul\":6875:6881   */\n      dup3\n        /* \"#utility.yul\":6870:6873   */\n      dup3\n        /* \"#utility.yul\":6863:6882   */\n      mstore\n        /* \"#utility.yul\":6915:6919   */\n      0x20\n        /* \"#utility.yul\":6910:6913   */\n      dup3\n        /* \"#utility.yul\":6906:6920   */\n      add\n        /* \"#utility.yul\":6891:6920   */\n      swap1\n      pop\n        /* \"#utility.yul\":6853:6926   */\n      swap3\n      swap2\n      pop\n      pop\n      jump\t// out\n        /* \"#utility.yul\":6932:7101   */\n    tag_120:\n      0x00\n        /* \"#utility.yul\":7050:7056   */\n      dup3\n        /* \"#utility.yul\":7045:7048   */\n      dup3\n        /* \"#utility.yul\":7038:7057   */\n      mstore\n        /* \"#utility.yul\":7090:7094   */\n      0x20\n        /* \"#utility.yul\":7085:7088   */\n      dup3\n        /* \"#utility.yul\":7081:7095   */\n      add\n        /* \"#utility.yul\":7066:7095   */\n      swap1\n      pop\n        /* \"#utility.yul\":7028:7101   */\n      swap3\n      swap2\n      pop\n      pop\n      jump\t// out\n        /* \"#utility.yul\":7107:7255   */\n    tag_126:\n      0x00\n        /* \"#utility.yul\":7246:7249   */\n      dup2\n        /* \"#utility.yul\":7231:7249   */\n      swap1\n      pop\n        /* \"#utility.yul\":7221:7255   */\n      swap3\n      swap2\n      pop\n      pop\n      jump\t// out\n        /* \"#utility.yul\":7261:7357   */\n    tag_148:\n      0x00\n        /* \"#utility.yul\":7327:7351   */\n      tag_150\n        /* \"#utility.yul\":7345:7350   */\n      dup3\n        /* \"#utility.yul\":7327:7351   */\n      tag_151\n      jump\t// in\n    tag_150:\n        /* \"#utility.yul\":7316:7351   */\n      swap1\n      pop\n        /* \"#utility.yul\":7306:7357   */\n      swap2\n      swap1\n      pop\n      jump\t// out\n        /* \"#utility.yul\":7363:7489   */\n    tag_151:\n      0x00\n        /* \"#utility.yul\":7440:7482   */\n      0xffffffffffffffffffffffffffffffffffffffff\n        /* \"#utility.yul\":7433:7438   */\n      dup3\n        /* \"#utility.yul\":7429:7483   */\n      and\n        /* \"#utility.yul\":7418:7483   */\n      swap1\n      pop\n        /* \"#utility.yul\":7408:7489   */\n      swap2\n      swap1\n      pop\n      jump\t// out\n        /* \"#utility.yul\":7495:7572   */\n    tag_153:\n      0x00\n        /* \"#utility.yul\":7561:7566   */\n      dup2\n        /* \"#utility.yul\":7550:7566   */\n      swap1\n      pop\n        /* \"#utility.yul\":7540:7572   */\n      swap2\n      swap1\n      pop\n      jump\t// out\n        /* \"#utility.yul\":7578:7732   */\n    tag_65:\n        /* \"#utility.yul\":7662:7668   */\n      dup3\n        /* \"#utility.yul\":7657:7660   */\n      dup2\n        /* \"#utility.yul\":7652:7655   */\n      dup4\n        /* \"#utility.yul\":7639:7669   */\n      calldatacopy\n        /* \"#utility.yul\":7724:7725   */\n      0x00\n        /* \"#utility.yul\":7715:7721   */\n      dup4\n        /* \"#utility.yul\":7710:7713   */\n      dup4\n        /* \"#utility.yul\":7706:7722   */\n      add\n        /* \"#utility.yul\":7699:7726   */\n      mstore\n        /* \"#utility.yul\":7629:7732   */\n      pop\n      pop\n      pop\n      jump\t// out\n        /* \"#utility.yul\":7738:8045   */\n    tag_113:\n        /* \"#utility.yul\":7806:7807   */\n      0x00\n        /* \"#utility.yul\":7816:7929   */\n    tag_157:\n        /* \"#utility.yul\":7830:7836   */\n      dup4\n        /* \"#utility.yul\":7827:7828   */\n      dup2\n        /* \"#utility.yul\":7824:7837   */\n      lt\n        /* \"#utility.yul\":7816:7929   */\n      iszero\n      tag_159\n      jumpi\n        /* \"#utility.yul\":7915:7916   */\n      dup1\n        /* \"#utility.yul\":7910:7913   */\n      dup3\n        /* \"#utility.yul\":7906:7917   */\n      add\n        /* \"#utility.yul\":7900:7918   */\n      mload\n        /* \"#utility.yul\":7896:7897   */\n      dup2\n        /* \"#utility.yul\":7891:7894   */\n      dup5\n        /* \"#utility.yul\":7887:7898   */\n      add\n        /* \"#utility.yul\":7880:7919   */\n      mstore\n        /* \"#utility.yul\":7852:7854   */\n      0x20\n        /* \"#utility.yul\":7849:7850   */\n      dup2\n        /* \"#utility.yul\":7845:7855   */\n      add\n        /* \"#utility.yul\":7840:7855   */\n      swap1\n      pop\n        /* \"#utility.yul\":7816:7929   */\n      jump(tag_157)\n    tag_159:\n        /* \"#utility.yul\":7947:7953   */\n      dup4\n        /* \"#utility.yul\":7944:7945   */\n      dup2\n        /* \"#utility.yul\":7941:7954   */\n      gt\n        /* \"#utility.yul\":7938:7940   */\n      iszero\n      tag_160\n      jumpi\n        /* \"#utility.yul\":8027:8028   */\n      0x00\n        /* \"#utility.yul\":8018:8024   */\n      dup5\n        /* \"#utility.yul\":8013:8016   */\n      dup5\n        /* \"#utility.yul\":8009:8025   */\n      add\n        /* \"#utility.yul\":8002:8029   */\n      mstore\n        /* \"#utility.yul\":7938:7940   */\n    tag_160:\n        /* \"#utility.yul\":7787:8045   */\n      pop\n      pop\n      pop\n      pop\n      jump\t// out\n        /* \"#utility.yul\":8051:8371   */\n    tag_26:\n      0x00\n        /* \"#utility.yul\":8132:8133   */\n      0x02\n        /* \"#utility.yul\":8126:8130   */\n      dup3\n        /* \"#utility.yul\":8122:8134   */\n      div\n        /* \"#utility.yul\":8112:8134   */\n      swap1\n      pop\n        /* \"#utility.yul\":8179:8180   */\n      0x01\n        /* \"#utility.yul\":8173:8177   */\n      dup3\n        /* \"#utility.yul\":8169:8181   */\n      and\n        /* \"#utility.yul\":8200:8218   */\n      dup1\n        /* \"#utility.yul\":8190:8192   */\n      tag_162\n      jumpi\n        /* \"#utility.yul\":8256:8260   */\n      0x7f\n        /* \"#utility.yul\":8248:8254   */\n      dup3\n        /* \"#utility.yul\":8244:8261   */\n      and\n        /* \"#utility.yul\":8234:8261   */\n      swap2\n      pop\n        /* \"#utility.yul\":8190:8192   */\n    tag_162:\n        /* \"#utility.yul\":8318:8320   */\n      0x20\n        /* \"#utility.yul\":8310:8316   */\n      dup3\n        /* \"#utility.yul\":8307:8321   */\n      lt\n        /* \"#utility.yul\":8287:8305   */\n      dup2\n        /* \"#utility.yul\":8284:8322   */\n      eq\n        /* \"#utility.yul\":8281:8283   */\n      iszero\n      tag_163\n      jumpi\n        /* \"#utility.yul\":8337:8355   */\n      tag_164\n      tag_165\n      jump\t// in\n    tag_164:\n        /* \"#utility.yul\":8281:8283   */\n    tag_163:\n        /* \"#utility.yul\":8102:8371   */\n      pop\n      swap2\n      swap1\n      pop\n      jump\t// out\n        /* \"#utility.yul\":8377:8557   */\n    tag_165:\n        /* \"#utility.yul\":8425:8502   */\n      0x4e487b7100000000000000000000000000000000000000000000000000000000\n        /* \"#utility.yul\":8422:8423   */\n      0x00\n        /* \"#utility.yul\":8415:8503   */\n      mstore\n        /* \"#utility.yul\":8522:8526   */\n      0x22\n        /* \"#utility.yul\":8519:8520   */\n      0x04\n        /* \"#utility.yul\":8512:8527   */\n      mstore\n        /* \"#utility.yul\":8546:8550   */\n      0x24\n        /* \"#utility.yul\":8543:8544   */\n      0x00\n        /* \"#utility.yul\":8536:8551   */\n      revert\n        /* \"#utility.yul\":8563:8743   */\n    tag_136:\n        /* \"#utility.yul\":8611:8688   */\n      0x4e487b7100000000000000000000000000000000000000000000000000000000\n        /* \"#utility.yul\":8608:8609   */\n      0x00\n        /* \"#utility.yul\":8601:8689   */\n      mstore\n        /* \"#utility.yul\":8708:8712   */\n      0x41\n        /* \"#utility.yul\":8705:8706   */\n      0x04\n        /* \"#utility.yul\":8698:8713   */\n      mstore\n        /* \"#utility.yul\":8732:8736   */\n      0x24\n        /* \"#utility.yul\":8729:8730   */\n      0x00\n        /* \"#utility.yul\":8722:8737   */\n      revert\n        /* \"#utility.yul\":8749:8851   */\n    tag_115:\n      0x00\n        /* \"#utility.yul\":8841:8843   */\n      0x1f\n        /* \"#utility.yul\":8837:8844   */\n      not\n        /* \"#utility.yul\":8832:8834   */\n      0x1f\n        /* \"#utility.yul\":8825:8830   */\n      dup4\n        /* \"#utility.yul\":8821:8835   */\n      add\n        /* \"#utility.yul\":8817:8845   */\n      and\n        /* \"#utility.yul\":8807:8845   */\n      swap1\n      pop\n        /* \"#utility.yul\":8797:8851   */\n      swap2\n      swap1\n      pop\n      jump\t// out\n        /* \"#utility.yul\":8857:8979   */\n    tag_69:\n        /* \"#utility.yul\":8930:8954   */\n      tag_170\n        /* \"#utility.yul\":8948:8953   */\n      dup2\n        /* \"#utility.yul\":8930:8954   */\n      tag_148\n      jump\t// in\n    tag_170:\n        /* \"#utility.yul\":8923:8928   */\n      dup2\n        /* \"#utility.yul\":8920:8955   */\n      eq\n        /* \"#utility.yul\":8910:8912   */\n      tag_171\n      jumpi\n        /* \"#utility.yul\":8969:8970   */\n      0x00\n        /* \"#utility.yul\":8966:8967   */\n      dup1\n        /* \"#utility.yul\":8959:8971   */\n      revert\n        /* \"#utility.yul\":8910:8912   */\n    tag_171:\n        /* \"#utility.yul\":8900:8979   */\n      pop\n      jump\t// out\n        /* \"#utility.yul\":8985:9107   */\n    tag_77:\n        /* \"#utility.yul\":9058:9082   */\n      tag_173\n        /* \"#utility.yul\":9076:9081   */\n      dup2\n        /* \"#utility.yul\":9058:9082   */\n      tag_153\n      jump\t// in\n    tag_173:\n        /* \"#utility.yul\":9051:9056   */\n      dup2\n        /* \"#utility.yul\":9048:9083   */\n      eq\n        /* \"#utility.yul\":9038:9040   */\n      tag_174\n      jumpi\n        /* \"#utility.yul\":9097:9098   */\n      0x00\n        /* \"#utility.yul\":9094:9095   */\n      dup1\n        /* \"#utility.yul\":9087:9099   */\n      revert\n        /* \"#utility.yul\":9038:9040   */\n    tag_174:\n        /* \"#utility.yul\":9028:9107   */\n      pop\n      jump\t// out\n\n    auxdata: 0xa2646970667358221220605dffeceb964d775617a8630b63a38325c788eb76afec224b1d607cb025f4c764736f6c63430008000033\n}\n",
				"bytecode": {
					"linkReferences": {},
					"object": "608060405234801561001057600080fd5b5033600160006101000a81548173ffffffffffffffffffffffffffffffffffffffff021916908373ffffffffffffffffffffffffffffffffffffffff160217905550610982806100616000396000f3fe608060405234801561001057600080fd5b50600436106100415760003560e01c8063112f54e3146100465780636a6cdab8146100765780637c9cd2bc146100a6575b600080fd5b610060600480360381019061005b919061051c565b6100c2565b60405161006d919061070b565b60405180910390f35b610090600480360381019061008b91906104f3565b6101d5565b60405161009d91906106e9565b60405180910390f35b6100c060048036038101906100bb9190610558565b6102ec565b005b60606000808473ffffffffffffffffffffffffffffffffffffffff1673ffffffffffffffffffffffffffffffffffffffff168152602001908152602001600020828154811061013a577f4e487b7100000000000000000000000000000000000000000000000000000000600052603260045260246000fd5b90600052602060002001805461014f9061087d565b80601f016020809104026020016040519081016040528092919081815260200182805461017b9061087d565b80156101c85780601f1061019d576101008083540402835291602001916101c8565b820191906000526020600020905b8154815290600101906020018083116101ab57829003601f168201915b5050505050905092915050565b60606000808373ffffffffffffffffffffffffffffffffffffffff1673ffffffffffffffffffffffffffffffffffffffff168152602001908152602001600020805480602002602001604051908101604052809291908181526020016000905b828210156102e15783829060005260206000200180546102549061087d565b80601f01602080910402602001604051908101604052809291908181526020018280546102809061087d565b80156102cd5780601f106102a2576101008083540402835291602001916102cd565b820191906000526020600020905b8154815290600101906020018083116102b057829003601f168201915b505050505081526020019060010190610235565b505050509050919050565b6000803373ffffffffffffffffffffffffffffffffffffffff1673ffffffffffffffffffffffffffffffffffffffff168152602001908152602001600020819080600181540180825580915050600190039060005260206000200160009091909190915090805190602001906103639291906103be565b503373ffffffffffffffffffffffffffffffffffffffff16604051610387906106d4565b60405180910390207f603868ad8ed2ceedede940d1ef9840077b0cdf05154d52090b342a9d8b1a35fa60405160405180910390a350565b8280546103ca9061087d565b90600052602060002090601f0160209004810192826103ec5760008555610433565b82601f1061040557805160ff1916838001178555610433565b82800160010185558215610433579182015b82811115610432578251825591602001919060010190610417565b5b5090506104409190610444565b5090565b5b8082111561045d576000816000905550600101610445565b5090565b600061047461046f8461075e565b61072d565b90508281526020810184848401111561048c57600080fd5b61049784828561083b565b509392505050565b6000813590506104ae8161091e565b92915050565b600082601f8301126104c557600080fd5b81356104d5848260208601610461565b91505092915050565b6000813590506104ed81610935565b92915050565b60006020828403121561050557600080fd5b60006105138482850161049f565b91505092915050565b6000806040838503121561052f57600080fd5b600061053d8582860161049f565b925050602061054e858286016104de565b9150509250929050565b60006020828403121561056a57600080fd5b600082013567ffffffffffffffff81111561058457600080fd5b610590848285016104b4565b91505092915050565b60006105a58383610622565b905092915050565b60006105b88261079e565b6105c281856107c1565b9350836020820285016105d48561078e565b8060005b8581101561061057848403895281516105f18582610599565b94506105fc836107b4565b925060208a019950506001810190506105d8565b50829750879550505050505092915050565b600061062d826107a9565b61063781856107d2565b935061064781856020860161084a565b6106508161090d565b840191505092915050565b6000610666826107a9565b61067081856107e3565b935061068081856020860161084a565b6106898161090d565b840191505092915050565b60006106a1600e836107f4565b91507f4e65772054776565742062793a200000000000000000000000000000000000006000830152600e82019050919050565b60006106df82610694565b9150819050919050565b6000602082019050818103600083015261070381846105ad565b905092915050565b60006020820190508181036000830152610725818461065b565b905092915050565b6000604051905081810181811067ffffffffffffffff82111715610754576107536108de565b5b8060405250919050565b600067ffffffffffffffff821115610779576107786108de565b5b601f19601f8301169050602081019050919050565b6000819050602082019050919050565b600081519050919050565b600081519050919050565b6000602082019050919050565b600082825260208201905092915050565b600082825260208201905092915050565b600082825260208201905092915050565b600081905092915050565b600061080a82610811565b9050919050565b600073ffffffffffffffffffffffffffffffffffffffff82169050919050565b6000819050919050565b82818337600083830152505050565b60005b8381101561086857808201518184015260208101905061084d565b83811115610877576000848401525b50505050565b6000600282049050600182168061089557607f821691505b602082108114156108a9576108a86108af565b5b50919050565b7f4e487b7100000000000000000000000000000000000000000000000000000000600052602260045260246000fd5b7f4e487b7100000000000000000000000000000000000000000000000000000000600052604160045260246000fd5b6000601f19601f8301169050919050565b610927816107ff565b811461093257600080fd5b50565b61093e81610831565b811461094957600080fd5b5056fea2646970667358221220605dffeceb964d775617a8630b63a38325c788eb76afec224b1d607cb025f4c764736f6c63430008000033",
					"opcodes": "PUSH1 0x80 PUSH1 0x40 MSTORE CALLVALUE DUP1 ISZERO PUSH2 0x10 JUMPI PUSH1 0x0 DUP1 REVERT JUMPDEST POP CALLER PUSH1 0x1 PUSH1 0x0 PUSH2 0x100 EXP DUP2 SLOAD DUP2 PUSH20 0xFFFFFFFFFFFFFFFFFFFFFFFFFFFFFFFFFFFFFFFF MUL NOT AND SWAP1 DUP4 PUSH20 0xFFFFFFFFFFFFFFFFFFFFFFFFFFFFFFFFFFFFFFFF AND MUL OR SWAP1 SSTORE POP PUSH2 0x982 DUP1 PUSH2 0x61 PUSH1 0x0 CODECOPY PUSH1 0x0 RETURN INVALID PUSH1 0x80 PUSH1 0x40 MSTORE CALLVALUE DUP1 ISZERO PUSH2 0x10 JUMPI PUSH1 0x0 DUP1 REVERT JUMPDEST POP PUSH1 0x4 CALLDATASIZE LT PUSH2 0x41 JUMPI PUSH1 0x0 CALLDATALOAD PUSH1 0xE0 SHR DUP1 PUSH4 0x112F54E3 EQ PUSH2 0x46 JUMPI DUP1 PUSH4 0x6A6CDAB8 EQ PUSH2 0x76 JUMPI DUP1 PUSH4 0x7C9CD2BC EQ PUSH2 0xA6 JUMPI JUMPDEST PUSH1 0x0 DUP1 REVERT JUMPDEST PUSH2 0x60 PUSH1 0x4 DUP1 CALLDATASIZE SUB DUP2 ADD SWAP1 PUSH2 0x5B SWAP2 SWAP1 PUSH2 0x51C JUMP JUMPDEST PUSH2 0xC2 JUMP JUMPDEST PUSH1 0x40 MLOAD PUSH2 0x6D SWAP2 SWAP1 PUSH2 0x70B JUMP JUMPDEST PUSH1 0x40 MLOAD DUP1 SWAP2 SUB SWAP1 RETURN JUMPDEST PUSH2 0x90 PUSH1 0x4 DUP1 CALLDATASIZE SUB DUP2 ADD SWAP1 PUSH2 0x8B SWAP2 SWAP1 PUSH2 0x4F3 JUMP JUMPDEST PUSH2 0x1D5 JUMP JUMPDEST PUSH1 0x40 MLOAD PUSH2 0x9D SWAP2 SWAP1 PUSH2 0x6E9 JUMP JUMPDEST PUSH1 0x40 MLOAD DUP1 SWAP2 SUB SWAP1 RETURN JUMPDEST PUSH2 0xC0 PUSH1 0x4 DUP1 CALLDATASIZE SUB DUP2 ADD SWAP1 PUSH2 0xBB SWAP2 SWAP1 PUSH2 0x558 JUMP JUMPDEST PUSH2 0x2EC JUMP JUMPDEST STOP JUMPDEST PUSH1 0x60 PUSH1 0x0 DUP1 DUP5 PUSH20 0xFFFFFFFFFFFFFFFFFFFFFFFFFFFFFFFFFFFFFFFF AND PUSH20 0xFFFFFFFFFFFFFFFFFFFFFFFFFFFFFFFFFFFFFFFF AND DUP2 MSTORE PUSH1 0x20 ADD SWAP1 DUP2 MSTORE PUSH1 0x20 ADD PUSH1 0x0 KECCAK256 DUP3 DUP2 SLOAD DUP2 LT PUSH2 0x13A JUMPI PUSH32 0x4E487B7100000000000000000000000000000000000000000000000000000000 PUSH1 0x0 MSTORE PUSH1 0x32 PUSH1 0x4 MSTORE PUSH1 0x24 PUSH1 0x0 REVERT JUMPDEST SWAP1 PUSH1 0x0 MSTORE PUSH1 0x20 PUSH1 0x0 KECCAK256 ADD DUP1 SLOAD PUSH2 0x14F SWAP1 PUSH2 0x87D JUMP JUMPDEST DUP1 PUSH1 0x1F ADD PUSH1 0x20 DUP1 SWAP2 DIV MUL PUSH1 0x20 ADD PUSH1 0x40 MLOAD SWAP1 DUP2 ADD PUSH1 0x40 MSTORE DUP1 SWAP3 SWAP2 SWAP1 DUP2 DUP2 MSTORE PUSH1 0x20 ADD DUP3 DUP1 SLOAD PUSH2 0x17B SWAP1 PUSH2 0x87D JUMP JUMPDEST DUP1 ISZERO PUSH2 0x1C8 JUMPI DUP1 PUSH1 0x1F LT PUSH2 0x19D JUMPI PUSH2 0x100 DUP1 DUP4 SLOAD DIV MUL DUP4 MSTORE SWAP2 PUSH1 0x20 ADD SWAP2 PUSH2 0x1C8 JUMP JUMPDEST DUP3 ADD SWAP2 SWAP1 PUSH1 0x0 MSTORE PUSH1 0x20 PUSH1 0x0 KECCAK256 SWAP1 JUMPDEST DUP2 SLOAD DUP2 MSTORE SWAP1 PUSH1 0x1 ADD SWAP1 PUSH1 0x20 ADD DUP1 DUP4 GT PUSH2 0x1AB JUMPI DUP3 SWAP1 SUB PUSH1 0x1F AND DUP3 ADD SWAP2 JUMPDEST POP POP POP POP POP SWAP1 POP SWAP3 SWAP2 POP POP JUMP JUMPDEST PUSH1 0x60 PUSH1 0x0 DUP1 DUP4 PUSH20 0xFFFFFFFFFFFFFFFFFFFFFFFFFFFFFFFFFFFFFFFF AND PUSH20 0xFFFFFFFFFFFFFFFFFFFFFFFFFFFFFFFFFFFFFFFF AND DUP2 MSTORE PUSH1 0x20 ADD SWAP1 DUP2 MSTORE PUSH1 0x20 ADD PUSH1 0x0 KECCAK256 DUP1 SLOAD DUP1 PUSH1 0x20 MUL PUSH1 0x20 ADD PUSH1 0x40 MLOAD SWAP1 DUP2 ADD PUSH1 0x40 MSTORE DUP1 SWAP3 SWAP2 SWAP1 DUP2 DUP2 MSTORE PUSH1 0x20 ADD PUSH1 0x0 SWAP1 JUMPDEST DUP3 DUP3 LT ISZERO PUSH2 0x2E1 JUMPI DUP4 DUP3 SWAP1 PUSH1 0x0 MSTORE PUSH1 0x20 PUSH1 0x0 KECCAK256 ADD DUP1 SLOAD PUSH2 0x254 SWAP1 PUSH2 0x87D JUMP JUMPDEST DUP1 PUSH1 0x1F ADD PUSH1 0x20 DUP1 SWAP2 DIV MUL PUSH1 0x20 ADD PUSH1 0x40 MLOAD SWAP1 DUP2 ADD PUSH1 0x40 MSTORE DUP1 SWAP3 SWAP2 SWAP1 DUP2 DUP2 MSTORE PUSH1 0x20 ADD DUP3 DUP1 SLOAD PUSH2 0x280 SWAP1 PUSH2 0x87D JUMP JUMPDEST DUP1 ISZERO PUSH2 0x2CD JUMPI DUP1 PUSH1 0x1F LT PUSH2 0x2A2 JUMPI PUSH2 0x100 DUP1 DUP4 SLOAD DIV MUL DUP4 MSTORE SWAP2 PUSH1 0x20 ADD SWAP2 PUSH2 0x2CD JUMP JUMPDEST DUP3 ADD SWAP2 SWAP1 PUSH1 0x0 MSTORE PUSH1 0x20 PUSH1 0x0 KECCAK256 SWAP1 JUMPDEST DUP2 SLOAD DUP2 MSTORE SWAP1 PUSH1 0x1 ADD SWAP1 PUSH1 0x20 ADD DUP1 DUP4 GT PUSH2 0x2B0 JUMPI DUP3 SWAP1 SUB PUSH1 0x1F AND DUP3 ADD SWAP2 JUMPDEST POP POP POP POP POP DUP2 MSTORE PUSH1 0x20 ADD SWAP1 PUSH1 0x1 ADD SWAP1 PUSH2 0x235 JUMP JUMPDEST POP POP POP POP SWAP1 POP SWAP2 SWAP1 POP JUMP JUMPDEST PUSH1 0x0 DUP1 CALLER PUSH20 0xFFFFFFFFFFFFFFFFFFFFFFFFFFFFFFFFFFFFFFFF AND PUSH20 0xFFFFFFFFFFFFFFFFFFFFFFFFFFFFFFFFFFFFFFFF AND DUP2 MSTORE PUSH1 0x20 ADD SWAP1 DUP2 MSTORE PUSH1 0x20 ADD PUSH1 0x0 KECCAK256 DUP2 SWAP1 DUP1 PUSH1 0x1 DUP2 SLOAD ADD DUP1 DUP3 SSTORE DUP1 SWAP2 POP POP PUSH1 0x1 SWAP1 SUB SWAP1 PUSH1 0x0 MSTORE PUSH1 0x20 PUSH1 0x0 KECCAK256 ADD PUSH1 0x0 SWAP1 SWAP2 SWAP1 SWAP2 SWAP1 SWAP2 POP SWAP1 DUP1 MLOAD SWAP1 PUSH1 0x20 ADD SWAP1 PUSH2 0x363 SWAP3 SWAP2 SWAP1 PUSH2 0x3BE JUMP JUMPDEST POP CALLER PUSH20 0xFFFFFFFFFFFFFFFFFFFFFFFFFFFFFFFFFFFFFFFF AND PUSH1 0x40 MLOAD PUSH2 0x387 SWAP1 PUSH2 0x6D4 JUMP JUMPDEST PUSH1 0x40 MLOAD DUP1 SWAP2 SUB SWAP1 KECCAK256 PUSH32 0x603868AD8ED2CEEDEDE940D1EF9840077B0CDF05154D52090B342A9D8B1A35FA PUSH1 0x40 MLOAD PUSH1 0x40 MLOAD DUP1 SWAP2 SUB SWAP1 LOG3 POP JUMP JUMPDEST DUP3 DUP1 SLOAD PUSH2 0x3CA SWAP1 PUSH2 0x87D JUMP JUMPDEST SWAP1 PUSH1 0x0 MSTORE PUSH1 0x20 PUSH1 0x0 KECCAK256 SWAP1 PUSH1 0x1F ADD PUSH1 0x20 SWAP1 DIV DUP2 ADD SWAP3 DUP3 PUSH2 0x3EC JUMPI PUSH1 0x0 DUP6 SSTORE PUSH2 0x433 JUMP JUMPDEST DUP3 PUSH1 0x1F LT PUSH2 0x405 JUMPI DUP1 MLOAD PUSH1 0xFF NOT AND DUP4 DUP1 ADD OR DUP6 SSTORE PUSH2 0x433 JUMP JUMPDEST DUP3 DUP1 ADD PUSH1 0x1 ADD DUP6 SSTORE DUP3 ISZERO PUSH2 0x433 JUMPI SWAP2 DUP3 ADD JUMPDEST DUP3 DUP2 GT ISZERO PUSH2 0x432 JUMPI DUP3 MLOAD DUP3 SSTORE SWAP2 PUSH1 0x20 ADD SWAP2 SWAP1 PUSH1 0x1 ADD SWAP1 PUSH2 0x417 JUMP JUMPDEST JUMPDEST POP SWAP1 POP PUSH2 0x440 SWAP2 SWAP1 PUSH2 0x444 JUMP JUMPDEST POP SWAP1 JUMP JUMPDEST JUMPDEST DUP1 DUP3 GT ISZERO PUSH2 0x45D JUMPI PUSH1 0x0 DUP2 PUSH1 0x0 SWAP1 SSTORE POP PUSH1 0x1 ADD PUSH2 0x445 JUMP JUMPDEST POP SWAP1 JUMP JUMPDEST PUSH1 0x0 PUSH2 0x474 PUSH2 0x46F DUP5 PUSH2 0x75E JUMP JUMPDEST PUSH2 0x72D JUMP JUMPDEST SWAP1 POP DUP3 DUP2 MSTORE PUSH1 0x20 DUP2 ADD DUP5 DUP5 DUP5 ADD GT ISZERO PUSH2 0x48C JUMPI PUSH1 0x0 DUP1 REVERT JUMPDEST PUSH2 0x497 DUP5 DUP3 DUP6 PUSH2 0x83B JUMP JUMPDEST POP SWAP4 SWAP3 POP POP POP JUMP JUMPDEST PUSH1 0x0 DUP2 CALLDATALOAD SWAP1 POP PUSH2 0x4AE DUP2 PUSH2 0x91E JUMP JUMPDEST SWAP3 SWAP2 POP POP JUMP JUMPDEST PUSH1 0x0 DUP3 PUSH1 0x1F DUP4 ADD SLT PUSH2 0x4C5 JUMPI PUSH1 0x0 DUP1 REVERT JUMPDEST DUP2 CALLDATALOAD PUSH2 0x4D5 DUP5 DUP3 PUSH1 0x20 DUP7 ADD PUSH2 0x461 JUMP JUMPDEST SWAP2 POP POP SWAP3 SWAP2 POP POP JUMP JUMPDEST PUSH1 0x0 DUP2 CALLDATALOAD SWAP1 POP PUSH2 0x4ED DUP2 PUSH2 0x935 JUMP JUMPDEST SWAP3 SWAP2 POP POP JUMP JUMPDEST PUSH1 0x0 PUSH1 0x20 DUP3 DUP5 SUB SLT ISZERO PUSH2 0x505 JUMPI PUSH1 0x0 DUP1 REVERT JUMPDEST PUSH1 0x0 PUSH2 0x513 DUP5 DUP3 DUP6 ADD PUSH2 0x49F JUMP JUMPDEST SWAP2 POP POP SWAP3 SWAP2 POP POP JUMP JUMPDEST PUSH1 0x0 DUP1 PUSH1 0x40 DUP4 DUP6 SUB SLT ISZERO PUSH2 0x52F JUMPI PUSH1 0x0 DUP1 REVERT JUMPDEST PUSH1 0x0 PUSH2 0x53D DUP6 DUP3 DUP7 ADD PUSH2 0x49F JUMP JUMPDEST SWAP3 POP POP PUSH1 0x20 PUSH2 0x54E DUP6 DUP3 DUP7 ADD PUSH2 0x4DE JUMP JUMPDEST SWAP2 POP POP SWAP3 POP SWAP3 SWAP1 POP JUMP JUMPDEST PUSH1 0x0 PUSH1 0x20 DUP3 DUP5 SUB SLT ISZERO PUSH2 0x56A JUMPI PUSH1 0x0 DUP1 REVERT JUMPDEST PUSH1 0x0 DUP3 ADD CALLDATALOAD PUSH8 0xFFFFFFFFFFFFFFFF DUP2 GT ISZERO PUSH2 0x584 JUMPI PUSH1 0x0 DUP1 REVERT JUMPDEST PUSH2 0x590 DUP5 DUP3 DUP6 ADD PUSH2 0x4B4 JUMP JUMPDEST SWAP2 POP POP SWAP3 SWAP2 POP POP JUMP JUMPDEST PUSH1 0x0 PUSH2 0x5A5 DUP4 DUP4 PUSH2 0x622 JUMP JUMPDEST SWAP1 POP SWAP3 SWAP2 POP POP JUMP JUMPDEST PUSH1 0x0 PUSH2 0x5B8 DUP3 PUSH2 0x79E JUMP JUMPDEST PUSH2 0x5C2 DUP2 DUP6 PUSH2 0x7C1 JUMP JUMPDEST SWAP4 POP DUP4 PUSH1 0x20 DUP3 MUL DUP6 ADD PUSH2 0x5D4 DUP6 PUSH2 0x78E JUMP JUMPDEST DUP1 PUSH1 0x0 JUMPDEST DUP6 DUP2 LT ISZERO PUSH2 0x610 JUMPI DUP5 DUP5 SUB DUP10 MSTORE DUP2 MLOAD PUSH2 0x5F1 DUP6 DUP3 PUSH2 0x599 JUMP JUMPDEST SWAP5 POP PUSH2 0x5FC DUP4 PUSH2 0x7B4 JUMP JUMPDEST SWAP3 POP PUSH1 0x20 DUP11 ADD SWAP10 POP POP PUSH1 0x1 DUP2 ADD SWAP1 POP PUSH2 0x5D8 JUMP JUMPDEST POP DUP3 SWAP8 POP DUP8 SWAP6 POP POP POP POP POP POP SWAP3 SWAP2 POP POP JUMP JUMPDEST PUSH1 0x0 PUSH2 0x62D DUP3 PUSH2 0x7A9 JUMP JUMPDEST PUSH2 0x637 DUP2 DUP6 PUSH2 0x7D2 JUMP JUMPDEST SWAP4 POP PUSH2 0x647 DUP2 DUP6 PUSH1 0x20 DUP7 ADD PUSH2 0x84A JUMP JUMPDEST PUSH2 0x650 DUP2 PUSH2 0x90D JUMP JUMPDEST DUP5 ADD SWAP2 POP POP SWAP3 SWAP2 POP POP JUMP JUMPDEST PUSH1 0x0 PUSH2 0x666 DUP3 PUSH2 0x7A9 JUMP JUMPDEST PUSH2 0x670 DUP2 DUP6 PUSH2 0x7E3 JUMP JUMPDEST SWAP4 POP PUSH2 0x680 DUP2 DUP6 PUSH1 0x20 DUP7 ADD PUSH2 0x84A JUMP JUMPDEST PUSH2 0x689 DUP2 PUSH2 0x90D JUMP JUMPDEST DUP5 ADD SWAP2 POP POP SWAP3 SWAP2 POP POP JUMP JUMPDEST PUSH1 0x0 PUSH2 0x6A1 PUSH1 0xE DUP4 PUSH2 0x7F4 JUMP JUMPDEST SWAP2 POP PUSH32 0x4E65772054776565742062793A20000000000000000000000000000000000000 PUSH1 0x0 DUP4 ADD MSTORE PUSH1 0xE DUP3 ADD SWAP1 POP SWAP2 SWAP1 POP JUMP JUMPDEST PUSH1 0x0 PUSH2 0x6DF DUP3 PUSH2 0x694 JUMP JUMPDEST SWAP2 POP DUP2 SWAP1 POP SWAP2 SWAP1 POP JUMP JUMPDEST PUSH1 0x0 PUSH1 0x20 DUP3 ADD SWAP1 POP DUP2 DUP2 SUB PUSH1 0x0 DUP4 ADD MSTORE PUSH2 0x703 DUP2 DUP5 PUSH2 0x5AD JUMP JUMPDEST SWAP1 POP SWAP3 SWAP2 POP POP JUMP JUMPDEST PUSH1 0x0 PUSH1 0x20 DUP3 ADD SWAP1 POP DUP2 DUP2 SUB PUSH1 0x0 DUP4 ADD MSTORE PUSH2 0x725 DUP2 DUP5 PUSH2 0x65B JUMP JUMPDEST SWAP1 POP SWAP3 SWAP2 POP POP JUMP JUMPDEST PUSH1 0x0 PUSH1 0x40 MLOAD SWAP1 POP DUP2 DUP2 ADD DUP2 DUP2 LT PUSH8 0xFFFFFFFFFFFFFFFF DUP3 GT OR ISZERO PUSH2 0x754 JUMPI PUSH2 0x753 PUSH2 0x8DE JUMP JUMPDEST JUMPDEST DUP1 PUSH1 0x40 MSTORE POP SWAP2 SWAP1 POP JUMP JUMPDEST PUSH1 0x0 PUSH8 0xFFFFFFFFFFFFFFFF DUP3 GT ISZERO PUSH2 0x779 JUMPI PUSH2 0x778 PUSH2 0x8DE JUMP JUMPDEST JUMPDEST PUSH1 0x1F NOT PUSH1 0x1F DUP4 ADD AND SWAP1 POP PUSH1 0x20 DUP2 ADD SWAP1 POP SWAP2 SWAP1 POP JUMP JUMPDEST PUSH1 0x0 DUP2 SWAP1 POP PUSH1 0x20 DUP3 ADD SWAP1 POP SWAP2 SWAP1 POP JUMP JUMPDEST PUSH1 0x0 DUP2 MLOAD SWAP1 POP SWAP2 SWAP1 POP JUMP JUMPDEST PUSH1 0x0 DUP2 MLOAD SWAP1 POP SWAP2 SWAP1 POP JUMP JUMPDEST PUSH1 0x0 PUSH1 0x20 DUP3 ADD SWAP1 POP SWAP2 SWAP1 POP JUMP JUMPDEST PUSH1 0x0 DUP3 DUP3 MSTORE PUSH1 0x20 DUP3 ADD SWAP1 POP SWAP3 SWAP2 POP POP JUMP JUMPDEST PUSH1 0x0 DUP3 DUP3 MSTORE PUSH1 0x20 DUP3 ADD SWAP1 POP SWAP3 SWAP2 POP POP JUMP JUMPDEST PUSH1 0x0 DUP3 DUP3 MSTORE PUSH1 0x20 DUP3 ADD SWAP1 POP SWAP3 SWAP2 POP POP JUMP JUMPDEST PUSH1 0x0 DUP2 SWAP1 POP SWAP3 SWAP2 POP POP JUMP JUMPDEST PUSH1 0x0 PUSH2 0x80A DUP3 PUSH2 0x811 JUMP JUMPDEST SWAP1 POP SWAP2 SWAP1 POP JUMP JUMPDEST PUSH1 0x0 PUSH20 0xFFFFFFFFFFFFFFFFFFFFFFFFFFFFFFFFFFFFFFFF DUP3 AND SWAP1 POP SWAP2 SWAP1 POP JUMP JUMPDEST PUSH1 0x0 DUP2 SWAP1 POP SWAP2 SWAP1 POP JUMP JUMPDEST DUP3 DUP2 DUP4 CALLDATACOPY PUSH1 0x0 DUP4 DUP4 ADD MSTORE POP POP POP JUMP JUMPDEST PUSH1 0x0 JUMPDEST DUP4 DUP2 LT ISZERO PUSH2 0x868 JUMPI DUP1 DUP3 ADD MLOAD DUP2 DUP5 ADD MSTORE PUSH1 0x20 DUP2 ADD SWAP1 POP PUSH2 0x84D JUMP JUMPDEST DUP4 DUP2 GT ISZERO PUSH2 0x877 JUMPI PUSH1 0x0 DUP5 DUP5 ADD MSTORE JUMPDEST POP POP POP POP JUMP JUMPDEST PUSH1 0x0 PUSH1 0x2 DUP3 DIV SWAP1 POP PUSH1 0x1 DUP3 AND DUP1 PUSH2 0x895 JUMPI PUSH1 0x7F DUP3 AND SWAP2 POP JUMPDEST PUSH1 0x20 DUP3 LT DUP2 EQ ISZERO PUSH2 0x8A9 JUMPI PUSH2 0x8A8 PUSH2 0x8AF JUMP JUMPDEST JUMPDEST POP SWAP2 SWAP1 POP JUMP JUMPDEST PUSH32 0x4E487B7100000000000000000000000000000000000000000000000000000000 PUSH1 0x0 MSTORE PUSH1 0x22 PUSH1 0x4 MSTORE PUSH1 0x24 PUSH1 0x0 REVERT JUMPDEST PUSH32 0x4E487B7100000000000000000000000000000000000000000000000000000000 PUSH1 0x0 MSTORE PUSH1 0x41 PUSH1 0x4 MSTORE PUSH1 0x24 PUSH1 0x0 REVERT JUMPDEST PUSH1 0x0 PUSH1 0x1F NOT PUSH1 0x1F DUP4 ADD AND SWAP1 POP SWAP2 SWAP1 POP JUMP JUMPDEST PUSH2 0x927 DUP2 PUSH2 0x7FF JUMP JUMPDEST DUP2 EQ PUSH2 0x932 JUMPI PUSH1 0x0 DUP1 REVERT JUMPDEST POP JUMP JUMPDEST PUSH2 0x93E DUP2 PUSH2 0x831 JUMP JUMPDEST DUP2 EQ PUSH2 0x949 JUMPI PUSH1 0x0 DUP1 REVERT JUMPDEST POP JUMP INVALID LOG2 PUSH5 0x6970667358 0x22 SLT KECCAK256 PUSH1 0x5D SELFDESTRUCT 0xEC 0xEB SWAP7 0x4D PUSH24 0x5617A8630B63A38325C788EB76AFEC224B1D607CB025F4C7 PUSH5 0x736F6C6343 STOP ADDMOD STOP STOP CALLER "
				},
				"gasEstimates": {
					"creation": {
						"codeDepositCost": "486800",
						"executionCost": "21390",
						"totalCost": "508190"
					},
					"external": {
						"createTweet(string)": "infinite",
						"getAllTwetts(address)": "infinite",
						"getTweet(address,uint256)": "infinite"
					}
				},
				"methodIdentifiers": {
					"createTweet(string)": "7c9cd2bc",
					"getAllTwetts(address)": "6a6cdab8",
					"getTweet(address,uint256)": "112f54e3"
				}
			},
			"storageLayout": {
				"storage": [
					{
						"astId": 6,
						"contract": "twitterCopy.sol:Twitter",
						"label": "UserTwetts",
						"offset": 0,
						"slot": "0",
						"type": "t_mapping(t_address,t_array(t_string_storage)dyn_storage)"
					},
					{
						"astId": 8,
						"contract": "twitterCopy.sol:Twitter",
						"label": "owner",
						"offset": 0,
						"slot": "1",
						"type": "t_address"
					}
				],
				"types": {
					"t_address": {
						"encoding": "inplace",
						"label": "address",
						"numberOfBytes": "20"
					},
					"t_array(t_string_storage)dyn_storage": {
						"base": "t_string_storage",
						"encoding": "dynamic_array",
						"label": "string[]",
						"numberOfBytes": "32"
					},
					"t_mapping(t_address,t_array(t_string_storage)dyn_storage)": {
						"encoding": "mapping",
						"key": "t_address",
						"label": "mapping(address => string[])",
						"numberOfBytes": "32",
						"value": "t_array(t_string_storage)dyn_storage"
					},
					"t_string_storage": {
						"encoding": "bytes",
						"label": "string",
						"numberOfBytes": "32"
					}
				}
			},
			"userdoc": {
				"kind": "user",
				"methods": {},
				"version": 1
			}
		}
	}
}