{
	"twitterCopy.sol": {
		"Twitter": {
			"abi": [
				{
					"inputs": [
						{
							"internalType": "address",
							"name": "_profileContract",
							"type": "address"
						}
					],
					"stateMutability": "nonpayable",
					"type": "constructor"
				},
				{
					"anonymous": false,
					"inputs": [
						{
							"indexed": true,
							"internalType": "address",
							"name": "previousOwner",
							"type": "address"
						},
						{
							"indexed": true,
							"internalType": "address",
							"name": "newOwner",
							"type": "address"
						}
					],
					"name": "OwnershipTransferred",
					"type": "event"
				},
				{
					"anonymous": false,
					"inputs": [
						{
							"indexed": true,
							"internalType": "address",
							"name": "liker",
							"type": "address"
						},
						{
							"indexed": true,
							"internalType": "address",
							"name": "author",
							"type": "address"
						},
						{
							"indexed": true,
							"internalType": "uint64",
							"name": "likeCount",
							"type": "uint64"
						},
						{
							"indexed": false,
							"internalType": "uint256",
							"name": "timestamp",
							"type": "uint256"
						}
					],
					"name": "TweetLiked",
					"type": "event"
				},
				{
					"anonymous": false,
					"inputs": [
						{
							"indexed": true,
							"internalType": "address",
							"name": "unliker",
							"type": "address"
						},
						{
							"indexed": true,
							"internalType": "address",
							"name": "author",
							"type": "address"
						},
						{
							"indexed": true,
							"internalType": "uint64",
							"name": "likeCount",
							"type": "uint64"
						},
						{
							"indexed": false,
							"internalType": "uint256",
							"name": "timestamp",
							"type": "uint256"
						}
					],
					"name": "TweetUnlike",
					"type": "event"
				},
				{
					"anonymous": false,
					"inputs": [
						{
							"indexed": true,
							"internalType": "string",
							"name": "notify",
							"type": "string"
						},
						{
							"indexed": true,
							"internalType": "address",
							"name": "tweetHost",
							"type": "address"
						},
						{
							"indexed": true,
							"internalType": "string",
							"name": "content",
							"type": "string"
						},
						{
							"indexed": false,
							"internalType": "uint256",
							"name": "timestamp",
							"type": "uint256"
						}
					],
					"name": "newTweet",
					"type": "event"
				},
				{
					"inputs": [
						{
							"internalType": "uint32",
							"name": "newMaxLength",
							"type": "uint32"
						}
					],
					"name": "changeTweetLength",
					"outputs": [],
					"stateMutability": "nonpayable",
					"type": "function"
				},
				{
					"inputs": [
						{
							"internalType": "string",
							"name": "_tweet",
							"type": "string"
						}
					],
					"name": "createTweet",
					"outputs": [],
					"stateMutability": "nonpayable",
					"type": "function"
				},
				{
					"inputs": [
						{
							"internalType": "address",
							"name": "author",
							"type": "address"
						},
						{
							"internalType": "uint256",
							"name": "_id",
							"type": "uint256"
						}
					],
					"name": "dislikeTweet",
					"outputs": [],
					"stateMutability": "nonpayable",
					"type": "function"
				},
				{
					"inputs": [
						{
							"internalType": "address",
							"name": "_ownerT",
							"type": "address"
						}
					],
					"name": "getAllTwetts",
					"outputs": [
						{
							"components": [
								{
									"internalType": "uint256",
									"name": "ID",
									"type": "uint256"
								},
								{
									"internalType": "address",
									"name": "author",
									"type": "address"
								},
								{
									"internalType": "string",
									"name": "content",
									"type": "string"
								},
								{
									"internalType": "uint256",
									"name": "TimeStamp",
									"type": "uint256"
								},
								{
									"internalType": "uint64",
									"name": "likes",
									"type": "uint64"
								}
							],
							"internalType": "struct Twitter.Tweet[]",
							"name": "",
							"type": "tuple[]"
						}
					],
					"stateMutability": "view",
					"type": "function"
				},
				{
					"inputs": [
						{
							"internalType": "address",
							"name": "author",
							"type": "address"
						}
					],
					"name": "getTotalLikes",
					"outputs": [
						{
							"internalType": "uint64",
							"name": "",
							"type": "uint64"
						}
					],
					"stateMutability": "view",
					"type": "function"
				},
				{
					"inputs": [
						{
							"internalType": "address",
							"name": "user",
							"type": "address"
						},
						{
							"internalType": "uint256",
							"name": "_i",
							"type": "uint256"
						}
					],
					"name": "getTweet",
					"outputs": [
						{
							"components": [
								{
									"internalType": "uint256",
									"name": "ID",
									"type": "uint256"
								},
								{
									"internalType": "address",
									"name": "author",
									"type": "address"
								},
								{
									"internalType": "string",
									"name": "content",
									"type": "string"
								},
								{
									"internalType": "uint256",
									"name": "TimeStamp",
									"type": "uint256"
								},
								{
									"internalType": "uint64",
									"name": "likes",
									"type": "uint64"
								}
							],
							"internalType": "struct Twitter.Tweet",
							"name": "",
							"type": "tuple"
						}
					],
					"stateMutability": "view",
					"type": "function"
				},
				{
					"inputs": [],
					"name": "getTweetLength",
					"outputs": [
						{
							"internalType": "uint32",
							"name": "",
							"type": "uint32"
						}
					],
					"stateMutability": "view",
					"type": "function"
				},
				{
					"inputs": [
						{
							"internalType": "address",
							"name": "author",
							"type": "address"
						},
						{
							"internalType": "uint256",
							"name": "_id",
							"type": "uint256"
						}
					],
					"name": "likeTweet",
					"outputs": [],
					"stateMutability": "nonpayable",
					"type": "function"
				},
				{
					"inputs": [],
					"name": "owner",
					"outputs": [
						{
							"internalType": "address",
							"name": "",
							"type": "address"
						}
					],
					"stateMutability": "view",
					"type": "function"
				},
				{
					"inputs": [],
					"name": "renounceOwnership",
					"outputs": [],
					"stateMutability": "nonpayable",
					"type": "function"
				},
				{
					"inputs": [
						{
							"internalType": "address",
							"name": "newOwner",
							"type": "address"
						}
					],
					"name": "transferOwnership",
					"outputs": [],
					"stateMutability": "nonpayable",
					"type": "function"
				}
			],
			"devdoc": {
				"kind": "dev",
				"methods": {
					"owner()": {
						"details": "Returns the address of the current owner."
					},
					"renounceOwnership()": {
						"details": "Leaves the contract without owner. It will not be possible to call `onlyOwner` functions. Can only be called by the current owner. NOTE: Renouncing ownership will leave the contract without an owner, thereby disabling any functionality that is only available to the owner."
					},
					"transferOwnership(address)": {
						"details": "Transfers ownership of the contract to a new account (`newOwner`). Can only be called by the current owner."
					}
				},
				"version": 1
			},
			"evm": {
				"assembly": "    /* \"twitterCopy.sol\":353:3693  contract Twitter is Ownable {... */\n  mstore(0x40, 0x80)\n    /* \"twitterCopy.sol\":1466:1469  280 */\n  0x0118\n    /* \"twitterCopy.sol\":1438:1469  uint32 private MAX_LENGTH = 280 */\n  0x04\n  exp(0x0100, 0x00)\n  dup2\n  sload\n  dup2\n  0xffffffff\n  mul\n  not\n  and\n  swap1\n  dup4\n  0xffffffff\n  and\n  mul\n  or\n  swap1\n  sstore\n  pop\n    /* \"twitterCopy.sol\":447:546  constructor(address _profileContract) {... */\n  callvalue\n  dup1\n  iszero\n  tag_1\n  jumpi\n  0x00\n  dup1\n  revert\ntag_1:\n  pop\n  mload(0x40)\n  sub(codesize, bytecodeSize)\n  dup1\n  bytecodeSize\n  dup4\n  codecopy\n  dup2\n  dup2\n  add\n  0x40\n  mstore\n  dup2\n  add\n  swap1\n  tag_2\n  swap2\n  swap1\n  tag_3\n  jump\t// in\ntag_2:\n    /* \"https://github.com/OpenZeppelin/openzeppelin-contracts/blob/v4.9.0/contracts/access/Ownable.sol\":936:968  _transferOwnership(_msgSender()) */\n  tag_7\n    /* \"https://github.com/OpenZeppelin/openzeppelin-contracts/blob/v4.9.0/contracts/access/Ownable.sol\":955:967  _msgSender() */\n  tag_8\n    /* \"https://github.com/OpenZeppelin/openzeppelin-contracts/blob/v4.9.0/contracts/access/Ownable.sol\":955:965  _msgSender */\n  shl(0x20, tag_9)\n    /* \"https://github.com/OpenZeppelin/openzeppelin-contracts/blob/v4.9.0/contracts/access/Ownable.sol\":955:967  _msgSender() */\n  0x20\n  shr\n  jump\t// in\ntag_8:\n    /* \"https://github.com/OpenZeppelin/openzeppelin-contracts/blob/v4.9.0/contracts/access/Ownable.sol\":936:954  _transferOwnership */\n  shl(0x20, tag_10)\n    /* \"https://github.com/OpenZeppelin/openzeppelin-contracts/blob/v4.9.0/contracts/access/Ownable.sol\":936:968  _transferOwnership(_msgSender()) */\n  0x20\n  shr\n  jump\t// in\ntag_7:\n    /* \"twitterCopy.sol\":522:538  _profileContract */\n  dup1\n    /* \"twitterCopy.sol\":495:510  profileContract */\n  0x02\n  0x00\n    /* \"twitterCopy.sol\":495:539  profileContract = IProfile(_profileContract) */\n  0x0100\n  exp\n  dup2\n  sload\n  dup2\n  0xffffffffffffffffffffffffffffffffffffffff\n  mul\n  not\n  and\n  swap1\n  dup4\n  0xffffffffffffffffffffffffffffffffffffffff\n  and\n  mul\n  or\n  swap1\n  sstore\n  pop\n    /* \"twitterCopy.sol\":447:546  constructor(address _profileContract) {... */\n  pop\n    /* \"twitterCopy.sol\":353:3693  contract Twitter is Ownable {... */\n  jump(tag_12)\n    /* \"https://github.com/OpenZeppelin/openzeppelin-contracts/blob/v4.9.0/contracts/utils/Context.sol\":640:736  function _msgSender() internal view virtual returns (address) {... */\ntag_9:\n    /* \"https://github.com/OpenZeppelin/openzeppelin-contracts/blob/v4.9.0/contracts/utils/Context.sol\":693:700  address */\n  0x00\n    /* \"https://github.com/OpenZeppelin/openzeppelin-contracts/blob/v4.9.0/contracts/utils/Context.sol\":719:729  msg.sender */\n  caller\n    /* \"https://github.com/OpenZeppelin/openzeppelin-contracts/blob/v4.9.0/contracts/utils/Context.sol\":712:729  return msg.sender */\n  swap1\n  pop\n    /* \"https://github.com/OpenZeppelin/openzeppelin-contracts/blob/v4.9.0/contracts/utils/Context.sol\":640:736  function _msgSender() internal view virtual returns (address) {... */\n  swap1\n  jump\t// out\n    /* \"https://github.com/OpenZeppelin/openzeppelin-contracts/blob/v4.9.0/contracts/access/Ownable.sol\":2426:2613  function _transferOwnership(address newOwner) internal virtual {... */\ntag_10:\n    /* \"https://github.com/OpenZeppelin/openzeppelin-contracts/blob/v4.9.0/contracts/access/Ownable.sol\":2499:2515  address oldOwner */\n  0x00\n    /* \"https://github.com/OpenZeppelin/openzeppelin-contracts/blob/v4.9.0/contracts/access/Ownable.sol\":2518:2524  _owner */\n  dup1\n  0x00\n  swap1\n  sload\n  swap1\n  0x0100\n  exp\n  swap1\n  div\n  0xffffffffffffffffffffffffffffffffffffffff\n  and\n    /* \"https://github.com/OpenZeppelin/openzeppelin-contracts/blob/v4.9.0/contracts/access/Ownable.sol\":2499:2524  address oldOwner = _owner */\n  swap1\n  pop\n    /* \"https://github.com/OpenZeppelin/openzeppelin-contracts/blob/v4.9.0/contracts/access/Ownable.sol\":2543:2551  newOwner */\n  dup2\n    /* \"https://github.com/OpenZeppelin/openzeppelin-contracts/blob/v4.9.0/contracts/access/Ownable.sol\":2534:2540  _owner */\n  0x00\n  dup1\n    /* \"https://github.com/OpenZeppelin/openzeppelin-contracts/blob/v4.9.0/contracts/access/Ownable.sol\":2534:2551  _owner = newOwner */\n  0x0100\n  exp\n  dup2\n  sload\n  dup2\n  0xffffffffffffffffffffffffffffffffffffffff\n  mul\n  not\n  and\n  swap1\n  dup4\n  0xffffffffffffffffffffffffffffffffffffffff\n  and\n  mul\n  or\n  swap1\n  sstore\n  pop\n    /* \"https://github.com/OpenZeppelin/openzeppelin-contracts/blob/v4.9.0/contracts/access/Ownable.sol\":2597:2605  newOwner */\n  dup2\n    /* \"https://github.com/OpenZeppelin/openzeppelin-contracts/blob/v4.9.0/contracts/access/Ownable.sol\":2566:2606  OwnershipTransferred(oldOwner, newOwner) */\n  0xffffffffffffffffffffffffffffffffffffffff\n  and\n    /* \"https://github.com/OpenZeppelin/openzeppelin-contracts/blob/v4.9.0/contracts/access/Ownable.sol\":2587:2595  oldOwner */\n  dup2\n    /* \"https://github.com/OpenZeppelin/openzeppelin-contracts/blob/v4.9.0/contracts/access/Ownable.sol\":2566:2606  OwnershipTransferred(oldOwner, newOwner) */\n  0xffffffffffffffffffffffffffffffffffffffff\n  and\n  0x8be0079c531659141344cd1fd0a4f28419497f9722a3daafe3b4186f6b6457e0\n  mload(0x40)\n  mload(0x40)\n  dup1\n  swap2\n  sub\n  swap1\n  log3\n    /* \"https://github.com/OpenZeppelin/openzeppelin-contracts/blob/v4.9.0/contracts/access/Ownable.sol\":2489:2613  {... */\n  pop\n    /* \"https://github.com/OpenZeppelin/openzeppelin-contracts/blob/v4.9.0/contracts/access/Ownable.sol\":2426:2613  function _transferOwnership(address newOwner) internal virtual {... */\n  pop\n  jump\t// out\n    /* \"#utility.yul\":88:205   */\ntag_16:\n    /* \"#utility.yul\":197:198   */\n  0x00\n    /* \"#utility.yul\":194:195   */\n  dup1\n    /* \"#utility.yul\":187:199   */\n  revert\n    /* \"#utility.yul\":334:460   */\ntag_18:\n    /* \"#utility.yul\":371:378   */\n  0x00\n    /* \"#utility.yul\":411:453   */\n  0xffffffffffffffffffffffffffffffffffffffff\n    /* \"#utility.yul\":404:409   */\n  dup3\n    /* \"#utility.yul\":400:454   */\n  and\n    /* \"#utility.yul\":389:454   */\n  swap1\n  pop\n    /* \"#utility.yul\":334:460   */\n  swap2\n  swap1\n  pop\n  jump\t// out\n    /* \"#utility.yul\":466:562   */\ntag_19:\n    /* \"#utility.yul\":503:510   */\n  0x00\n    /* \"#utility.yul\":532:556   */\n  tag_28\n    /* \"#utility.yul\":550:555   */\n  dup3\n    /* \"#utility.yul\":532:556   */\n  tag_18\n  jump\t// in\ntag_28:\n    /* \"#utility.yul\":521:556   */\n  swap1\n  pop\n    /* \"#utility.yul\":466:562   */\n  swap2\n  swap1\n  pop\n  jump\t// out\n    /* \"#utility.yul\":568:690   */\ntag_20:\n    /* \"#utility.yul\":641:665   */\n  tag_30\n    /* \"#utility.yul\":659:664   */\n  dup2\n    /* \"#utility.yul\":641:665   */\n  tag_19\n  jump\t// in\ntag_30:\n    /* \"#utility.yul\":634:639   */\n  dup2\n    /* \"#utility.yul\":631:666   */\n  eq\n    /* \"#utility.yul\":621:684   */\n  tag_31\n  jumpi\n    /* \"#utility.yul\":680:681   */\n  0x00\n    /* \"#utility.yul\":677:678   */\n  dup1\n    /* \"#utility.yul\":670:682   */\n  revert\n    /* \"#utility.yul\":621:684   */\ntag_31:\n    /* \"#utility.yul\":568:690   */\n  pop\n  jump\t// out\n    /* \"#utility.yul\":696:839   */\ntag_21:\n    /* \"#utility.yul\":753:758   */\n  0x00\n    /* \"#utility.yul\":784:790   */\n  dup2\n    /* \"#utility.yul\":778:791   */\n  mload\n    /* \"#utility.yul\":769:791   */\n  swap1\n  pop\n    /* \"#utility.yul\":800:833   */\n  tag_33\n    /* \"#utility.yul\":827:832   */\n  dup2\n    /* \"#utility.yul\":800:833   */\n  tag_20\n  jump\t// in\ntag_33:\n    /* \"#utility.yul\":696:839   */\n  swap3\n  swap2\n  pop\n  pop\n  jump\t// out\n    /* \"#utility.yul\":845:1196   */\ntag_3:\n    /* \"#utility.yul\":915:921   */\n  0x00\n    /* \"#utility.yul\":964:966   */\n  0x20\n    /* \"#utility.yul\":952:961   */\n  dup3\n    /* \"#utility.yul\":943:950   */\n  dup5\n    /* \"#utility.yul\":939:962   */\n  sub\n    /* \"#utility.yul\":935:967   */\n  slt\n    /* \"#utility.yul\":932:1051   */\n  iszero\n  tag_35\n  jumpi\n    /* \"#utility.yul\":970:1049   */\n  tag_36\n  tag_16\n  jump\t// in\ntag_36:\n    /* \"#utility.yul\":932:1051   */\ntag_35:\n    /* \"#utility.yul\":1090:1091   */\n  0x00\n    /* \"#utility.yul\":1115:1179   */\n  tag_37\n    /* \"#utility.yul\":1171:1178   */\n  dup5\n    /* \"#utility.yul\":1162:1168   */\n  dup3\n    /* \"#utility.yul\":1151:1160   */\n  dup6\n    /* \"#utility.yul\":1147:1169   */\n  add\n    /* \"#utility.yul\":1115:1179   */\n  tag_21\n  jump\t// in\ntag_37:\n    /* \"#utility.yul\":1105:1179   */\n  swap2\n  pop\n    /* \"#utility.yul\":1061:1189   */\n  pop\n    /* \"#utility.yul\":845:1196   */\n  swap3\n  swap2\n  pop\n  pop\n  jump\t// out\n    /* \"twitterCopy.sol\":353:3693  contract Twitter is Ownable {... */\ntag_12:\n  dataSize(sub_0)\n  dup1\n  dataOffset(sub_0)\n  0x00\n  codecopy\n  0x00\n  return\nstop\n\nsub_0: assembly {\n        /* \"twitterCopy.sol\":353:3693  contract Twitter is Ownable {... */\n      mstore(0x40, 0x80)\n      callvalue\n      dup1\n      iszero\n      tag_1\n      jumpi\n      0x00\n      dup1\n      revert\n    tag_1:\n      pop\n      jumpi(tag_2, lt(calldatasize, 0x04))\n      shr(0xe0, calldataload(0x00))\n      dup1\n      0x7c9cd2bc\n      gt\n      tag_14\n      jumpi\n      dup1\n      0x7c9cd2bc\n      eq\n      tag_8\n      jumpi\n      dup1\n      0x820785cc\n      eq\n      tag_9\n      jumpi\n      dup1\n      0x8da5cb5b\n      eq\n      tag_10\n      jumpi\n      dup1\n      0xa2afce88\n      eq\n      tag_11\n      jumpi\n      dup1\n      0xae775e95\n      eq\n      tag_12\n      jumpi\n      dup1\n      0xf2fde38b\n      eq\n      tag_13\n      jumpi\n      jump(tag_2)\n    tag_14:\n      dup1\n      0x112f54e3\n      eq\n      tag_3\n      jumpi\n      dup1\n      0x318ea667\n      eq\n      tag_4\n      jumpi\n      dup1\n      0x63378216\n      eq\n      tag_5\n      jumpi\n      dup1\n      0x6a6cdab8\n      eq\n      tag_6\n      jumpi\n      dup1\n      0x715018a6\n      eq\n      tag_7\n      jumpi\n    tag_2:\n      0x00\n      dup1\n      revert\n        /* \"twitterCopy.sol\":2324:2477  function getTweet(address user, uint256 _i)... */\n    tag_3:\n      tag_15\n      0x04\n      dup1\n      calldatasize\n      sub\n      dup2\n      add\n      swap1\n      tag_16\n      swap2\n      swap1\n      tag_17\n      jump\t// in\n    tag_16:\n      tag_18\n      jump\t// in\n    tag_15:\n      mload(0x40)\n      tag_19\n      swap2\n      swap1\n      tag_20\n      jump\t// in\n    tag_19:\n      mload(0x40)\n      dup1\n      swap2\n      sub\n      swap1\n      return\n        /* \"twitterCopy.sol\":1476:1582  function changeTweetLength(uint32 newMaxLength) public onlyOwner{... */\n    tag_4:\n      tag_21\n      0x04\n      dup1\n      calldatasize\n      sub\n      dup2\n      add\n      swap1\n      tag_22\n      swap2\n      swap1\n      tag_23\n      jump\t// in\n    tag_22:\n      tag_24\n      jump\t// in\n    tag_21:\n      stop\n        /* \"twitterCopy.sol\":2638:2986  function likeTweet(address author, uint256 _id) external onlyRegistered {... */\n    tag_5:\n      tag_25\n      0x04\n      dup1\n      calldatasize\n      sub\n      dup2\n      add\n      swap1\n      tag_26\n      swap2\n      swap1\n      tag_17\n      jump\t// in\n    tag_26:\n      tag_27\n      jump\t// in\n    tag_25:\n      stop\n        /* \"twitterCopy.sol\":2483:2632  function getAllTwetts(address _ownerT)... */\n    tag_6:\n      tag_28\n      0x04\n      dup1\n      calldatasize\n      sub\n      dup2\n      add\n      swap1\n      tag_29\n      swap2\n      swap1\n      tag_30\n      jump\t// in\n    tag_29:\n      tag_31\n      jump\t// in\n    tag_28:\n      mload(0x40)\n      tag_32\n      swap2\n      swap1\n      tag_33\n      jump\t// in\n    tag_32:\n      mload(0x40)\n      dup1\n      swap2\n      sub\n      swap1\n      return\n        /* \"https://github.com/OpenZeppelin/openzeppelin-contracts/blob/v4.9.0/contracts/access/Ownable.sol\":1824:1925  function renounceOwnership() public virtual onlyOwner {... */\n    tag_7:\n      tag_34\n      tag_35\n      jump\t// in\n    tag_34:\n      stop\n        /* \"twitterCopy.sol\":1683:2318  function createTweet(string memory _tweet) external onlyRegistered {... */\n    tag_8:\n      tag_36\n      0x04\n      dup1\n      calldatasize\n      sub\n      dup2\n      add\n      swap1\n      tag_37\n      swap2\n      swap1\n      tag_38\n      jump\t// in\n    tag_37:\n      tag_39\n      jump\t// in\n    tag_36:\n      stop\n        /* \"twitterCopy.sol\":3429:3691  function getTotalLikes(address author) external view returns (uint64) {... */\n    tag_9:\n      tag_40\n      0x04\n      dup1\n      calldatasize\n      sub\n      dup2\n      add\n      swap1\n      tag_41\n      swap2\n      swap1\n      tag_30\n      jump\t// in\n    tag_41:\n      tag_42\n      jump\t// in\n    tag_40:\n      mload(0x40)\n      tag_43\n      swap2\n      swap1\n      tag_44\n      jump\t// in\n    tag_43:\n      mload(0x40)\n      dup1\n      swap2\n      sub\n      swap1\n      return\n        /* \"https://github.com/OpenZeppelin/openzeppelin-contracts/blob/v4.9.0/contracts/access/Ownable.sol\":1201:1286  function owner() public view virtual returns (address) {... */\n    tag_10:\n      tag_45\n      tag_46\n      jump\t// in\n    tag_45:\n      mload(0x40)\n      tag_47\n      swap2\n      swap1\n      tag_48\n      jump\t// in\n    tag_47:\n      mload(0x40)\n      dup1\n      swap2\n      sub\n      swap1\n      return\n        /* \"twitterCopy.sol\":1588:1677  function getTweetLength() public view returns (uint32) {... */\n    tag_11:\n      tag_49\n      tag_50\n      jump\t// in\n    tag_49:\n      mload(0x40)\n      tag_51\n      swap2\n      swap1\n      tag_52\n      jump\t// in\n    tag_51:\n      mload(0x40)\n      dup1\n      swap2\n      sub\n      swap1\n      return\n        /* \"twitterCopy.sol\":2992:3423  function dislikeTweet(address author, uint256 _id) external onlyRegistered {... */\n    tag_12:\n      tag_53\n      0x04\n      dup1\n      calldatasize\n      sub\n      dup2\n      add\n      swap1\n      tag_54\n      swap2\n      swap1\n      tag_17\n      jump\t// in\n    tag_54:\n      tag_55\n      jump\t// in\n    tag_53:\n      stop\n        /* \"https://github.com/OpenZeppelin/openzeppelin-contracts/blob/v4.9.0/contracts/access/Ownable.sol\":2074:2272  function transferOwnership(address newOwner) public virtual onlyOwner {... */\n    tag_13:\n      tag_56\n      0x04\n      dup1\n      calldatasize\n      sub\n      dup2\n      add\n      swap1\n      tag_57\n      swap2\n      swap1\n      tag_30\n      jump\t// in\n    tag_57:\n      tag_58\n      jump\t// in\n    tag_56:\n      stop\n        /* \"twitterCopy.sol\":2324:2477  function getTweet(address user, uint256 _i)... */\n    tag_18:\n        /* \"twitterCopy.sol\":2415:2427  Tweet memory */\n      tag_59\n      tag_60\n      jump\t// in\n    tag_59:\n        /* \"twitterCopy.sol\":2450:2460  UserTwetts */\n      0x03\n        /* \"twitterCopy.sol\":2450:2466  UserTwetts[user] */\n      0x00\n        /* \"twitterCopy.sol\":2461:2465  user */\n      dup5\n        /* \"twitterCopy.sol\":2450:2466  UserTwetts[user] */\n      0xffffffffffffffffffffffffffffffffffffffff\n      and\n      0xffffffffffffffffffffffffffffffffffffffff\n      and\n      dup2\n      mstore\n      0x20\n      add\n      swap1\n      dup2\n      mstore\n      0x20\n      add\n      0x00\n      keccak256\n        /* \"twitterCopy.sol\":2467:2469  _i */\n      dup3\n        /* \"twitterCopy.sol\":2450:2470  UserTwetts[user][_i] */\n      dup2\n      sload\n      dup2\n      lt\n      tag_62\n      jumpi\n      tag_63\n      tag_64\n      jump\t// in\n    tag_63:\n    tag_62:\n      swap1\n      0x00\n      mstore\n      keccak256(0x00, 0x20)\n      swap1\n      0x05\n      mul\n      add\n        /* \"twitterCopy.sol\":2443:2470  return UserTwetts[user][_i] */\n      mload(0x40)\n      dup1\n      0xa0\n      add\n      0x40\n      mstore\n      swap1\n      dup2\n      0x00\n      dup3\n      add\n      sload\n      dup2\n      mstore\n      0x20\n      add\n      0x01\n      dup3\n      add\n      0x00\n      swap1\n      sload\n      swap1\n      0x0100\n      exp\n      swap1\n      div\n      0xffffffffffffffffffffffffffffffffffffffff\n      and\n      0xffffffffffffffffffffffffffffffffffffffff\n      and\n      0xffffffffffffffffffffffffffffffffffffffff\n      and\n      dup2\n      mstore\n      0x20\n      add\n      0x02\n      dup3\n      add\n      dup1\n      sload\n      tag_66\n      swap1\n      tag_67\n      jump\t// in\n    tag_66:\n      dup1\n      0x1f\n      add\n      0x20\n      dup1\n      swap2\n      div\n      mul\n      0x20\n      add\n      mload(0x40)\n      swap1\n      dup2\n      add\n      0x40\n      mstore\n      dup1\n      swap3\n      swap2\n      swap1\n      dup2\n      dup2\n      mstore\n      0x20\n      add\n      dup3\n      dup1\n      sload\n      tag_68\n      swap1\n      tag_67\n      jump\t// in\n    tag_68:\n      dup1\n      iszero\n      tag_69\n      jumpi\n      dup1\n      0x1f\n      lt\n      tag_70\n      jumpi\n      0x0100\n      dup1\n      dup4\n      sload\n      div\n      mul\n      dup4\n      mstore\n      swap2\n      0x20\n      add\n      swap2\n      jump(tag_69)\n    tag_70:\n      dup3\n      add\n      swap2\n      swap1\n      0x00\n      mstore\n      keccak256(0x00, 0x20)\n      swap1\n    tag_71:\n      dup2\n      sload\n      dup2\n      mstore\n      swap1\n      0x01\n      add\n      swap1\n      0x20\n      add\n      dup1\n      dup4\n      gt\n      tag_71\n      jumpi\n      dup3\n      swap1\n      sub\n      0x1f\n      and\n      dup3\n      add\n      swap2\n    tag_69:\n      pop\n      pop\n      pop\n      pop\n      pop\n      dup2\n      mstore\n      0x20\n      add\n      0x03\n      dup3\n      add\n      sload\n      dup2\n      mstore\n      0x20\n      add\n      0x04\n      dup3\n      add\n      0x00\n      swap1\n      sload\n      swap1\n      0x0100\n      exp\n      swap1\n      div\n      0xffffffffffffffff\n      and\n      0xffffffffffffffff\n      and\n      0xffffffffffffffff\n      and\n      dup2\n      mstore\n      pop\n      pop\n      swap1\n      pop\n        /* \"twitterCopy.sol\":2324:2477  function getTweet(address user, uint256 _i)... */\n      swap3\n      swap2\n      pop\n      pop\n      jump\t// out\n        /* \"twitterCopy.sol\":1476:1582  function changeTweetLength(uint32 newMaxLength) public onlyOwner{... */\n    tag_24:\n        /* \"https://github.com/OpenZeppelin/openzeppelin-contracts/blob/v4.9.0/contracts/access/Ownable.sol\":1094:1107  _checkOwner() */\n      tag_73\n        /* \"https://github.com/OpenZeppelin/openzeppelin-contracts/blob/v4.9.0/contracts/access/Ownable.sol\":1094:1105  _checkOwner */\n      tag_74\n        /* \"https://github.com/OpenZeppelin/openzeppelin-contracts/blob/v4.9.0/contracts/access/Ownable.sol\":1094:1107  _checkOwner() */\n      jump\t// in\n    tag_73:\n        /* \"twitterCopy.sol\":1563:1575  newMaxLength */\n      dup1\n        /* \"twitterCopy.sol\":1550:1560  MAX_LENGTH */\n      0x04\n      0x00\n        /* \"twitterCopy.sol\":1550:1575  MAX_LENGTH = newMaxLength */\n      0x0100\n      exp\n      dup2\n      sload\n      dup2\n      0xffffffff\n      mul\n      not\n      and\n      swap1\n      dup4\n      0xffffffff\n      and\n      mul\n      or\n      swap1\n      sstore\n      pop\n        /* \"twitterCopy.sol\":1476:1582  function changeTweetLength(uint32 newMaxLength) public onlyOwner{... */\n      pop\n      jump\t// out\n        /* \"twitterCopy.sol\":2638:2986  function likeTweet(address author, uint256 _id) external onlyRegistered {... */\n    tag_27:\n        /* \"twitterCopy.sol\":589:632  IProfile.UserProfile memory userProfileTemp */\n      0x00\n        /* \"twitterCopy.sol\":635:650  profileContract */\n      0x02\n      0x00\n      swap1\n      sload\n      swap1\n      0x0100\n      exp\n      swap1\n      div\n      0xffffffffffffffffffffffffffffffffffffffff\n      and\n        /* \"twitterCopy.sol\":635:661  profileContract.getProfile */\n      0xffffffffffffffffffffffffffffffffffffffff\n      and\n      0x0f53a470\n        /* \"twitterCopy.sol\":662:672  msg.sender */\n      caller\n        /* \"twitterCopy.sol\":635:673  profileContract.getProfile(msg.sender) */\n      mload(0x40)\n      dup3\n      0xffffffff\n      and\n      0xe0\n      shl\n      dup2\n      mstore\n      0x04\n      add\n      tag_77\n      swap2\n      swap1\n      tag_48\n      jump\t// in\n    tag_77:\n      0x00\n      mload(0x40)\n      dup1\n      dup4\n      sub\n      dup2\n      dup7\n      gas\n      staticcall\n      iszero\n      dup1\n      iszero\n      tag_79\n      jumpi\n      returndatasize\n      0x00\n      dup1\n      returndatacopy\n      revert(0x00, returndatasize)\n    tag_79:\n      pop\n      pop\n      pop\n      pop\n      mload(0x40)\n      returndatasize\n      0x00\n      dup3\n      returndatacopy\n      returndatasize\n      not(0x1f)\n      0x1f\n      dup3\n      add\n      and\n      dup3\n      add\n      dup1\n      0x40\n      mstore\n      pop\n      dup2\n      add\n      swap1\n      tag_80\n      swap2\n      swap1\n      tag_81\n      jump\t// in\n    tag_80:\n        /* \"twitterCopy.sol\":589:673  IProfile.UserProfile memory userProfileTemp = profileContract.getProfile(msg.sender) */\n      swap1\n      pop\n        /* \"twitterCopy.sol\":735:736  0 */\n      0x00\n        /* \"twitterCopy.sol\":697:712  userProfileTemp */\n      dup2\n        /* \"twitterCopy.sol\":697:724  userProfileTemp.displayName */\n      0x00\n      add\n      mload\n        /* \"twitterCopy.sol\":691:732  bytes(userProfileTemp.displayName).length */\n      mload\n        /* \"twitterCopy.sol\":691:736  bytes(userProfileTemp.displayName).length > 0 */\n      gt\n        /* \"twitterCopy.sol\":683:759  require(bytes(userProfileTemp.displayName).length > 0,\"User not Registered\") */\n      tag_82\n      jumpi\n      mload(0x40)\n      0x08c379a000000000000000000000000000000000000000000000000000000000\n      dup2\n      mstore\n      0x04\n      add\n      tag_83\n      swap1\n      tag_84\n      jump\t// in\n    tag_83:\n      mload(0x40)\n      dup1\n      swap2\n      sub\n      swap1\n      revert\n    tag_82:\n        /* \"twitterCopy.sol\":2758:2761  _id */\n      dup2\n        /* \"twitterCopy.sol\":2728:2738  UserTwetts */\n      0x03\n        /* \"twitterCopy.sol\":2728:2746  UserTwetts[author] */\n      0x00\n        /* \"twitterCopy.sol\":2739:2745  author */\n      dup6\n        /* \"twitterCopy.sol\":2728:2746  UserTwetts[author] */\n      0xffffffffffffffffffffffffffffffffffffffff\n      and\n      0xffffffffffffffffffffffffffffffffffffffff\n      and\n      dup2\n      mstore\n      0x20\n      add\n      swap1\n      dup2\n      mstore\n      0x20\n      add\n      0x00\n      keccak256\n        /* \"twitterCopy.sol\":2747:2750  _id */\n      dup4\n        /* \"twitterCopy.sol\":2728:2751  UserTwetts[author][_id] */\n      dup2\n      sload\n      dup2\n      lt\n      tag_86\n      jumpi\n      tag_87\n      tag_64\n      jump\t// in\n    tag_87:\n    tag_86:\n      swap1\n      0x00\n      mstore\n      keccak256(0x00, 0x20)\n      swap1\n      0x05\n      mul\n      add\n        /* \"twitterCopy.sol\":2728:2754  UserTwetts[author][_id].ID */\n      0x00\n      add\n      sload\n        /* \"twitterCopy.sol\":2728:2761  UserTwetts[author][_id].ID == _id */\n      eq\n        /* \"twitterCopy.sol\":2720:2786  require(UserTwetts[author][_id].ID == _id, \"Tweet does not exist\") */\n      tag_89\n      jumpi\n      mload(0x40)\n      0x08c379a000000000000000000000000000000000000000000000000000000000\n      dup2\n      mstore\n      0x04\n      add\n      tag_90\n      swap1\n      tag_91\n      jump\t// in\n    tag_90:\n      mload(0x40)\n      dup1\n      swap2\n      sub\n      swap1\n      revert\n    tag_89:\n        /* \"twitterCopy.sol\":2796:2806  UserTwetts */\n      0x03\n        /* \"twitterCopy.sol\":2796:2814  UserTwetts[author] */\n      0x00\n        /* \"twitterCopy.sol\":2807:2813  author */\n      dup5\n        /* \"twitterCopy.sol\":2796:2814  UserTwetts[author] */\n      0xffffffffffffffffffffffffffffffffffffffff\n      and\n      0xffffffffffffffffffffffffffffffffffffffff\n      and\n      dup2\n      mstore\n      0x20\n      add\n      swap1\n      dup2\n      mstore\n      0x20\n      add\n      0x00\n      keccak256\n        /* \"twitterCopy.sol\":2815:2818  _id */\n      dup3\n        /* \"twitterCopy.sol\":2796:2819  UserTwetts[author][_id] */\n      dup2\n      sload\n      dup2\n      lt\n      tag_92\n      jumpi\n      tag_93\n      tag_64\n      jump\t// in\n    tag_93:\n    tag_92:\n      swap1\n      0x00\n      mstore\n      keccak256(0x00, 0x20)\n      swap1\n      0x05\n      mul\n      add\n        /* \"twitterCopy.sol\":2796:2825  UserTwetts[author][_id].likes */\n      0x04\n      add\n      0x00\n        /* \"twitterCopy.sol\":2796:2827  UserTwetts[author][_id].likes++ */\n      dup2\n      dup2\n      swap1\n      sload\n      swap1\n      0x0100\n      exp\n      swap1\n      div\n      0xffffffffffffffff\n      and\n      dup1\n      swap3\n      swap2\n      swap1\n      tag_95\n      swap1\n      tag_96\n      jump\t// in\n    tag_95:\n      swap2\n      swap1\n      0x0100\n      exp\n      dup2\n      sload\n      dup2\n      0xffffffffffffffff\n      mul\n      not\n      and\n      swap1\n      dup4\n      0xffffffffffffffff\n      and\n      mul\n      or\n      swap1\n      sstore\n      pop\n      pop\n        /* \"twitterCopy.sol\":2911:2921  UserTwetts */\n      0x03\n        /* \"twitterCopy.sol\":2911:2929  UserTwetts[author] */\n      0x00\n        /* \"twitterCopy.sol\":2922:2928  author */\n      dup5\n        /* \"twitterCopy.sol\":2911:2929  UserTwetts[author] */\n      0xffffffffffffffffffffffffffffffffffffffff\n      and\n      0xffffffffffffffffffffffffffffffffffffffff\n      and\n      dup2\n      mstore\n      0x20\n      add\n      swap1\n      dup2\n      mstore\n      0x20\n      add\n      0x00\n      keccak256\n        /* \"twitterCopy.sol\":2930:2933  _id */\n      dup3\n        /* \"twitterCopy.sol\":2911:2934  UserTwetts[author][_id] */\n      dup2\n      sload\n      dup2\n      lt\n      tag_97\n      jumpi\n      tag_98\n      tag_64\n      jump\t// in\n    tag_98:\n    tag_97:\n      swap1\n      0x00\n      mstore\n      keccak256(0x00, 0x20)\n      swap1\n      0x05\n      mul\n      add\n        /* \"twitterCopy.sol\":2911:2940  UserTwetts[author][_id].likes */\n      0x04\n      add\n      0x00\n      swap1\n      sload\n      swap1\n      0x0100\n      exp\n      swap1\n      div\n      0xffffffffffffffff\n      and\n        /* \"twitterCopy.sol\":2843:2979  TweetLiked(... */\n      0xffffffffffffffff\n      and\n        /* \"twitterCopy.sol\":2891:2897  author */\n      dup4\n        /* \"twitterCopy.sol\":2843:2979  TweetLiked(... */\n      0xffffffffffffffffffffffffffffffffffffffff\n      and\n        /* \"twitterCopy.sol\":2867:2877  msg.sender */\n      caller\n        /* \"twitterCopy.sol\":2843:2979  TweetLiked(... */\n      0xffffffffffffffffffffffffffffffffffffffff\n      and\n      0x98b9265fbe61ab93c34e3313887637bb4e94bd304723622c0450fcc7572ddf1e\n        /* \"twitterCopy.sol\":2954:2969  block.timestamp */\n      timestamp\n        /* \"twitterCopy.sol\":2843:2979  TweetLiked(... */\n      mload(0x40)\n      tag_100\n      swap2\n      swap1\n      tag_101\n      jump\t// in\n    tag_100:\n      mload(0x40)\n      dup1\n      swap2\n      sub\n      swap1\n      log4\n        /* \"twitterCopy.sol\":579:777  {... */\n      pop\n        /* \"twitterCopy.sol\":2638:2986  function likeTweet(address author, uint256 _id) external onlyRegistered {... */\n      pop\n      pop\n      jump\t// out\n        /* \"twitterCopy.sol\":2483:2632  function getAllTwetts(address _ownerT)... */\n    tag_31:\n        /* \"twitterCopy.sol\":2569:2583  Tweet[] memory */\n      0x60\n        /* \"twitterCopy.sol\":2606:2616  UserTwetts */\n      0x03\n        /* \"twitterCopy.sol\":2606:2625  UserTwetts[_ownerT] */\n      0x00\n        /* \"twitterCopy.sol\":2617:2624  _ownerT */\n      dup4\n        /* \"twitterCopy.sol\":2606:2625  UserTwetts[_ownerT] */\n      0xffffffffffffffffffffffffffffffffffffffff\n      and\n      0xffffffffffffffffffffffffffffffffffffffff\n      and\n      dup2\n      mstore\n      0x20\n      add\n      swap1\n      dup2\n      mstore\n      0x20\n      add\n      0x00\n      keccak256\n        /* \"twitterCopy.sol\":2599:2625  return UserTwetts[_ownerT] */\n      dup1\n      sload\n      dup1\n      0x20\n      mul\n      0x20\n      add\n      mload(0x40)\n      swap1\n      dup2\n      add\n      0x40\n      mstore\n      dup1\n      swap3\n      swap2\n      swap1\n      dup2\n      dup2\n      mstore\n      0x20\n      add\n      0x00\n      swap1\n    tag_103:\n      dup3\n      dup3\n      lt\n      iszero\n      tag_104\n      jumpi\n      dup4\n      dup3\n      swap1\n      0x00\n      mstore\n      keccak256(0x00, 0x20)\n      swap1\n      0x05\n      mul\n      add\n      mload(0x40)\n      dup1\n      0xa0\n      add\n      0x40\n      mstore\n      swap1\n      dup2\n      0x00\n      dup3\n      add\n      sload\n      dup2\n      mstore\n      0x20\n      add\n      0x01\n      dup3\n      add\n      0x00\n      swap1\n      sload\n      swap1\n      0x0100\n      exp\n      swap1\n      div\n      0xffffffffffffffffffffffffffffffffffffffff\n      and\n      0xffffffffffffffffffffffffffffffffffffffff\n      and\n      0xffffffffffffffffffffffffffffffffffffffff\n      and\n      dup2\n      mstore\n      0x20\n      add\n      0x02\n      dup3\n      add\n      dup1\n      sload\n      tag_106\n      swap1\n      tag_67\n      jump\t// in\n    tag_106:\n      dup1\n      0x1f\n      add\n      0x20\n      dup1\n      swap2\n      div\n      mul\n      0x20\n      add\n      mload(0x40)\n      swap1\n      dup2\n      add\n      0x40\n      mstore\n      dup1\n      swap3\n      swap2\n      swap1\n      dup2\n      dup2\n      mstore\n      0x20\n      add\n      dup3\n      dup1\n      sload\n      tag_107\n      swap1\n      tag_67\n      jump\t// in\n    tag_107:\n      dup1\n      iszero\n      tag_108\n      jumpi\n      dup1\n      0x1f\n      lt\n      tag_109\n      jumpi\n      0x0100\n      dup1\n      dup4\n      sload\n      div\n      mul\n      dup4\n      mstore\n      swap2\n      0x20\n      add\n      swap2\n      jump(tag_108)\n    tag_109:\n      dup3\n      add\n      swap2\n      swap1\n      0x00\n      mstore\n      keccak256(0x00, 0x20)\n      swap1\n    tag_110:\n      dup2\n      sload\n      dup2\n      mstore\n      swap1\n      0x01\n      add\n      swap1\n      0x20\n      add\n      dup1\n      dup4\n      gt\n      tag_110\n      jumpi\n      dup3\n      swap1\n      sub\n      0x1f\n      and\n      dup3\n      add\n      swap2\n    tag_108:\n      pop\n      pop\n      pop\n      pop\n      pop\n      dup2\n      mstore\n      0x20\n      add\n      0x03\n      dup3\n      add\n      sload\n      dup2\n      mstore\n      0x20\n      add\n      0x04\n      dup3\n      add\n      0x00\n      swap1\n      sload\n      swap1\n      0x0100\n      exp\n      swap1\n      div\n      0xffffffffffffffff\n      and\n      0xffffffffffffffff\n      and\n      0xffffffffffffffff\n      and\n      dup2\n      mstore\n      pop\n      pop\n      dup2\n      mstore\n      0x20\n      add\n      swap1\n      0x01\n      add\n      swap1\n      jump(tag_103)\n    tag_104:\n      pop\n      pop\n      pop\n      pop\n      swap1\n      pop\n        /* \"twitterCopy.sol\":2483:2632  function getAllTwetts(address _ownerT)... */\n      swap2\n      swap1\n      pop\n      jump\t// out\n        /* \"https://github.com/OpenZeppelin/openzeppelin-contracts/blob/v4.9.0/contracts/access/Ownable.sol\":1824:1925  function renounceOwnership() public virtual onlyOwner {... */\n    tag_35:\n        /* \"https://github.com/OpenZeppelin/openzeppelin-contracts/blob/v4.9.0/contracts/access/Ownable.sol\":1094:1107  _checkOwner() */\n      tag_112\n        /* \"https://github.com/OpenZeppelin/openzeppelin-contracts/blob/v4.9.0/contracts/access/Ownable.sol\":1094:1105  _checkOwner */\n      tag_74\n        /* \"https://github.com/OpenZeppelin/openzeppelin-contracts/blob/v4.9.0/contracts/access/Ownable.sol\":1094:1107  _checkOwner() */\n      jump\t// in\n    tag_112:\n        /* \"https://github.com/OpenZeppelin/openzeppelin-contracts/blob/v4.9.0/contracts/access/Ownable.sol\":1888:1918  _transferOwnership(address(0)) */\n      tag_114\n        /* \"https://github.com/OpenZeppelin/openzeppelin-contracts/blob/v4.9.0/contracts/access/Ownable.sol\":1915:1916  0 */\n      0x00\n        /* \"https://github.com/OpenZeppelin/openzeppelin-contracts/blob/v4.9.0/contracts/access/Ownable.sol\":1888:1906  _transferOwnership */\n      tag_115\n        /* \"https://github.com/OpenZeppelin/openzeppelin-contracts/blob/v4.9.0/contracts/access/Ownable.sol\":1888:1918  _transferOwnership(address(0)) */\n      jump\t// in\n    tag_114:\n        /* \"https://github.com/OpenZeppelin/openzeppelin-contracts/blob/v4.9.0/contracts/access/Ownable.sol\":1824:1925  function renounceOwnership() public virtual onlyOwner {... */\n      jump\t// out\n        /* \"twitterCopy.sol\":1683:2318  function createTweet(string memory _tweet) external onlyRegistered {... */\n    tag_39:\n        /* \"twitterCopy.sol\":589:632  IProfile.UserProfile memory userProfileTemp */\n      0x00\n        /* \"twitterCopy.sol\":635:650  profileContract */\n      0x02\n      0x00\n      swap1\n      sload\n      swap1\n      0x0100\n      exp\n      swap1\n      div\n      0xffffffffffffffffffffffffffffffffffffffff\n      and\n        /* \"twitterCopy.sol\":635:661  profileContract.getProfile */\n      0xffffffffffffffffffffffffffffffffffffffff\n      and\n      0x0f53a470\n        /* \"twitterCopy.sol\":662:672  msg.sender */\n      caller\n        /* \"twitterCopy.sol\":635:673  profileContract.getProfile(msg.sender) */\n      mload(0x40)\n      dup3\n      0xffffffff\n      and\n      0xe0\n      shl\n      dup2\n      mstore\n      0x04\n      add\n      tag_117\n      swap2\n      swap1\n      tag_48\n      jump\t// in\n    tag_117:\n      0x00\n      mload(0x40)\n      dup1\n      dup4\n      sub\n      dup2\n      dup7\n      gas\n      staticcall\n      iszero\n      dup1\n      iszero\n      tag_119\n      jumpi\n      returndatasize\n      0x00\n      dup1\n      returndatacopy\n      revert(0x00, returndatasize)\n    tag_119:\n      pop\n      pop\n      pop\n      pop\n      mload(0x40)\n      returndatasize\n      0x00\n      dup3\n      returndatacopy\n      returndatasize\n      not(0x1f)\n      0x1f\n      dup3\n      add\n      and\n      dup3\n      add\n      dup1\n      0x40\n      mstore\n      pop\n      dup2\n      add\n      swap1\n      tag_120\n      swap2\n      swap1\n      tag_81\n      jump\t// in\n    tag_120:\n        /* \"twitterCopy.sol\":589:673  IProfile.UserProfile memory userProfileTemp = profileContract.getProfile(msg.sender) */\n      swap1\n      pop\n        /* \"twitterCopy.sol\":735:736  0 */\n      0x00\n        /* \"twitterCopy.sol\":697:712  userProfileTemp */\n      dup2\n        /* \"twitterCopy.sol\":697:724  userProfileTemp.displayName */\n      0x00\n      add\n      mload\n        /* \"twitterCopy.sol\":691:732  bytes(userProfileTemp.displayName).length */\n      mload\n        /* \"twitterCopy.sol\":691:736  bytes(userProfileTemp.displayName).length > 0 */\n      gt\n        /* \"twitterCopy.sol\":683:759  require(bytes(userProfileTemp.displayName).length > 0,\"User not Registered\") */\n      tag_121\n      jumpi\n      mload(0x40)\n      0x08c379a000000000000000000000000000000000000000000000000000000000\n      dup2\n      mstore\n      0x04\n      add\n      tag_122\n      swap1\n      tag_84\n      jump\t// in\n    tag_122:\n      mload(0x40)\n      dup1\n      swap2\n      sub\n      swap1\n      revert\n    tag_121:\n        /* \"twitterCopy.sol\":1805:1815  MAX_LENGTH */\n      0x04\n      0x00\n      swap1\n      sload\n      swap1\n      0x0100\n      exp\n      swap1\n      div\n      0xffffffff\n      and\n        /* \"twitterCopy.sol\":1781:1815  bytes(_tweet).length <= MAX_LENGTH */\n      0xffffffff\n      and\n        /* \"twitterCopy.sol\":1787:1793  _tweet */\n      dup3\n        /* \"twitterCopy.sol\":1781:1801  bytes(_tweet).length */\n      mload\n        /* \"twitterCopy.sol\":1781:1815  bytes(_tweet).length <= MAX_LENGTH */\n      gt\n      iszero\n        /* \"twitterCopy.sol\":1760:1891  require(... */\n      tag_124\n      jumpi\n      mload(0x40)\n      0x08c379a000000000000000000000000000000000000000000000000000000000\n      dup2\n      mstore\n      0x04\n      add\n      tag_125\n      swap1\n      tag_126\n      jump\t// in\n    tag_125:\n      mload(0x40)\n      dup1\n      swap2\n      sub\n      swap1\n      revert\n    tag_124:\n        /* \"twitterCopy.sol\":1902:1922  Tweet memory newTwet */\n      0x00\n        /* \"twitterCopy.sol\":1925:2112  Tweet({... */\n      mload(0x40)\n      dup1\n      0xa0\n      add\n      0x40\n      mstore\n      dup1\n        /* \"twitterCopy.sol\":1949:1959  UserTwetts */\n      0x03\n        /* \"twitterCopy.sol\":1949:1971  UserTwetts[msg.sender] */\n      0x00\n        /* \"twitterCopy.sol\":1960:1970  msg.sender */\n      caller\n        /* \"twitterCopy.sol\":1949:1971  UserTwetts[msg.sender] */\n      0xffffffffffffffffffffffffffffffffffffffff\n      and\n      0xffffffffffffffffffffffffffffffffffffffff\n      and\n      dup2\n      mstore\n      0x20\n      add\n      swap1\n      dup2\n      mstore\n      0x20\n      add\n      0x00\n      keccak256\n        /* \"twitterCopy.sol\":1949:1978  UserTwetts[msg.sender].length */\n      dup1\n      sload\n      swap1\n      pop\n        /* \"twitterCopy.sol\":1925:2112  Tweet({... */\n      dup2\n      mstore\n      0x20\n      add\n        /* \"twitterCopy.sol\":2000:2010  msg.sender */\n      caller\n        /* \"twitterCopy.sol\":1925:2112  Tweet({... */\n      0xffffffffffffffffffffffffffffffffffffffff\n      and\n      dup2\n      mstore\n      0x20\n      add\n        /* \"twitterCopy.sol\":2033:2039  _tweet */\n      dup5\n        /* \"twitterCopy.sol\":1925:2112  Tweet({... */\n      dup2\n      mstore\n      0x20\n      add\n        /* \"twitterCopy.sol\":2064:2079  block.timestamp */\n      timestamp\n        /* \"twitterCopy.sol\":1925:2112  Tweet({... */\n      dup2\n      mstore\n      0x20\n      add\n        /* \"twitterCopy.sol\":2100:2101  0 */\n      0x00\n        /* \"twitterCopy.sol\":1925:2112  Tweet({... */\n      0xffffffffffffffff\n      and\n      dup2\n      mstore\n      pop\n        /* \"twitterCopy.sol\":1902:2112  Tweet memory newTwet = Tweet({... */\n      swap1\n      pop\n        /* \"twitterCopy.sol\":2123:2133  UserTwetts */\n      0x03\n        /* \"twitterCopy.sol\":2123:2145  UserTwetts[msg.sender] */\n      0x00\n        /* \"twitterCopy.sol\":2134:2144  msg.sender */\n      caller\n        /* \"twitterCopy.sol\":2123:2145  UserTwetts[msg.sender] */\n      0xffffffffffffffffffffffffffffffffffffffff\n      and\n      0xffffffffffffffffffffffffffffffffffffffff\n      and\n      dup2\n      mstore\n      0x20\n      add\n      swap1\n      dup2\n      mstore\n      0x20\n      add\n      0x00\n      keccak256\n        /* \"twitterCopy.sol\":2151:2158  newTwet */\n      dup2\n        /* \"twitterCopy.sol\":2123:2159  UserTwetts[msg.sender].push(newTwet) */\n      swap1\n      dup1\n      0x01\n      dup2\n      sload\n      add\n      dup1\n      dup3\n      sstore\n      dup1\n      swap2\n      pop\n      pop\n      0x01\n      swap1\n      sub\n      swap1\n      0x00\n      mstore\n      keccak256(0x00, 0x20)\n      swap1\n      0x05\n      mul\n      add\n      0x00\n      swap1\n      swap2\n      swap1\n      swap2\n      swap1\n      swap2\n      pop\n      0x00\n      dup3\n      add\n      mload\n      dup2\n      0x00\n      add\n      sstore\n      0x20\n      dup3\n      add\n      mload\n      dup2\n      0x01\n      add\n      exp(0x0100, 0x00)\n      dup2\n      sload\n      dup2\n      0xffffffffffffffffffffffffffffffffffffffff\n      mul\n      not\n      and\n      swap1\n      dup4\n      0xffffffffffffffffffffffffffffffffffffffff\n      and\n      mul\n      or\n      swap1\n      sstore\n      pop\n      0x40\n      dup3\n      add\n      mload\n      dup2\n      0x02\n      add\n      swap1\n      dup2\n      tag_128\n      swap2\n      swap1\n      tag_129\n      jump\t// in\n    tag_128:\n      pop\n      0x60\n      dup3\n      add\n      mload\n      dup2\n      0x03\n      add\n      sstore\n      0x80\n      dup3\n      add\n      mload\n      dup2\n      0x04\n      add\n      exp(0x0100, 0x00)\n      dup2\n      sload\n      dup2\n      0xffffffffffffffff\n      mul\n      not\n      and\n      swap1\n      dup4\n      0xffffffffffffffff\n      and\n      mul\n      or\n      swap1\n      sstore\n      pop\n      pop\n      pop\n        /* \"twitterCopy.sol\":2255:2262  newTwet */\n      dup1\n        /* \"twitterCopy.sol\":2255:2270  newTwet.content */\n      0x40\n      add\n      mload\n        /* \"twitterCopy.sol\":2175:2311  newTweet(... */\n      mload(0x40)\n      tag_130\n      swap2\n      swap1\n      tag_131\n      jump\t// in\n    tag_130:\n      mload(0x40)\n      dup1\n      swap2\n      sub\n      swap1\n      keccak256\n        /* \"twitterCopy.sol\":2227:2234  newTwet */\n      dup2\n        /* \"twitterCopy.sol\":2227:2241  newTwet.author */\n      0x20\n      add\n      mload\n        /* \"twitterCopy.sol\":2175:2311  newTweet(... */\n      0xffffffffffffffffffffffffffffffffffffffff\n      and\n      mload(0x40)\n      tag_132\n      swap1\n      tag_133\n      jump\t// in\n    tag_132:\n      mload(0x40)\n      dup1\n      swap2\n      sub\n      swap1\n      keccak256\n      0x24851db9152097137545b14424ac5e35714ad65b716771621cfdc771aa7876de\n        /* \"twitterCopy.sol\":2284:2291  newTwet */\n      dup5\n        /* \"twitterCopy.sol\":2284:2301  newTwet.TimeStamp */\n      0x60\n      add\n      mload\n        /* \"twitterCopy.sol\":2175:2311  newTweet(... */\n      mload(0x40)\n      tag_134\n      swap2\n      swap1\n      tag_101\n      jump\t// in\n    tag_134:\n      mload(0x40)\n      dup1\n      swap2\n      sub\n      swap1\n      log4\n        /* \"twitterCopy.sol\":1750:2318  {... */\n      pop\n        /* \"twitterCopy.sol\":579:777  {... */\n      pop\n        /* \"twitterCopy.sol\":1683:2318  function createTweet(string memory _tweet) external onlyRegistered {... */\n      pop\n      jump\t// out\n        /* \"twitterCopy.sol\":3429:3691  function getTotalLikes(address author) external view returns (uint64) {... */\n    tag_42:\n        /* \"twitterCopy.sol\":3491:3497  uint64 */\n      0x00\n        /* \"twitterCopy.sol\":3509:3526  uint64 totalLikes */\n      dup1\n        /* \"twitterCopy.sol\":3529:3530  0 */\n      0x00\n        /* \"twitterCopy.sol\":3509:3530  uint64 totalLikes = 0 */\n      swap1\n      pop\n        /* \"twitterCopy.sol\":3546:3554  uint64 i */\n      0x00\n        /* \"twitterCopy.sol\":3541:3658  for (uint64 i; i < UserTwetts[author].length; i++) {... */\n    tag_136:\n        /* \"twitterCopy.sol\":3560:3570  UserTwetts */\n      0x03\n        /* \"twitterCopy.sol\":3560:3578  UserTwetts[author] */\n      0x00\n        /* \"twitterCopy.sol\":3571:3577  author */\n      dup6\n        /* \"twitterCopy.sol\":3560:3578  UserTwetts[author] */\n      0xffffffffffffffffffffffffffffffffffffffff\n      and\n      0xffffffffffffffffffffffffffffffffffffffff\n      and\n      dup2\n      mstore\n      0x20\n      add\n      swap1\n      dup2\n      mstore\n      0x20\n      add\n      0x00\n      keccak256\n        /* \"twitterCopy.sol\":3560:3585  UserTwetts[author].length */\n      dup1\n      sload\n      swap1\n      pop\n        /* \"twitterCopy.sol\":3556:3557  i */\n      dup2\n        /* \"twitterCopy.sol\":3556:3585  i < UserTwetts[author].length */\n      0xffffffffffffffff\n      and\n      lt\n        /* \"twitterCopy.sol\":3541:3658  for (uint64 i; i < UserTwetts[author].length; i++) {... */\n      iszero\n      tag_137\n      jumpi\n        /* \"twitterCopy.sol\":3620:3630  UserTwetts */\n      0x03\n        /* \"twitterCopy.sol\":3620:3638  UserTwetts[author] */\n      0x00\n        /* \"twitterCopy.sol\":3631:3637  author */\n      dup6\n        /* \"twitterCopy.sol\":3620:3638  UserTwetts[author] */\n      0xffffffffffffffffffffffffffffffffffffffff\n      and\n      0xffffffffffffffffffffffffffffffffffffffff\n      and\n      dup2\n      mstore\n      0x20\n      add\n      swap1\n      dup2\n      mstore\n      0x20\n      add\n      0x00\n      keccak256\n        /* \"twitterCopy.sol\":3639:3640  i */\n      dup2\n        /* \"twitterCopy.sol\":3620:3641  UserTwetts[author][i] */\n      0xffffffffffffffff\n      and\n      dup2\n      sload\n      dup2\n      lt\n      tag_139\n      jumpi\n      tag_140\n      tag_64\n      jump\t// in\n    tag_140:\n    tag_139:\n      swap1\n      0x00\n      mstore\n      keccak256(0x00, 0x20)\n      swap1\n      0x05\n      mul\n      add\n        /* \"twitterCopy.sol\":3620:3647  UserTwetts[author][i].likes */\n      0x04\n      add\n      0x00\n      swap1\n      sload\n      swap1\n      0x0100\n      exp\n      swap1\n      div\n      0xffffffffffffffff\n      and\n        /* \"twitterCopy.sol\":3606:3647  totalLikes += UserTwetts[author][i].likes */\n      dup3\n      tag_142\n      swap2\n      swap1\n      tag_143\n      jump\t// in\n    tag_142:\n      swap2\n      pop\n        /* \"twitterCopy.sol\":3587:3590  i++ */\n      dup1\n      dup1\n      tag_144\n      swap1\n      tag_96\n      jump\t// in\n    tag_144:\n      swap2\n      pop\n      pop\n        /* \"twitterCopy.sol\":3541:3658  for (uint64 i; i < UserTwetts[author].length; i++) {... */\n      jump(tag_136)\n    tag_137:\n      pop\n        /* \"twitterCopy.sol\":3674:3684  totalLikes */\n      dup1\n        /* \"twitterCopy.sol\":3667:3684  return totalLikes */\n      swap2\n      pop\n      pop\n        /* \"twitterCopy.sol\":3429:3691  function getTotalLikes(address author) external view returns (uint64) {... */\n      swap2\n      swap1\n      pop\n      jump\t// out\n        /* \"https://github.com/OpenZeppelin/openzeppelin-contracts/blob/v4.9.0/contracts/access/Ownable.sol\":1201:1286  function owner() public view virtual returns (address) {... */\n    tag_46:\n        /* \"https://github.com/OpenZeppelin/openzeppelin-contracts/blob/v4.9.0/contracts/access/Ownable.sol\":1247:1254  address */\n      0x00\n        /* \"https://github.com/OpenZeppelin/openzeppelin-contracts/blob/v4.9.0/contracts/access/Ownable.sol\":1273:1279  _owner */\n      dup1\n      0x00\n      swap1\n      sload\n      swap1\n      0x0100\n      exp\n      swap1\n      div\n      0xffffffffffffffffffffffffffffffffffffffff\n      and\n        /* \"https://github.com/OpenZeppelin/openzeppelin-contracts/blob/v4.9.0/contracts/access/Ownable.sol\":1266:1279  return _owner */\n      swap1\n      pop\n        /* \"https://github.com/OpenZeppelin/openzeppelin-contracts/blob/v4.9.0/contracts/access/Ownable.sol\":1201:1286  function owner() public view virtual returns (address) {... */\n      swap1\n      jump\t// out\n        /* \"twitterCopy.sol\":1588:1677  function getTweetLength() public view returns (uint32) {... */\n    tag_50:\n        /* \"twitterCopy.sol\":1635:1641  uint32 */\n      0x00\n        /* \"twitterCopy.sol\":1660:1670  MAX_LENGTH */\n      0x04\n      0x00\n      swap1\n      sload\n      swap1\n      0x0100\n      exp\n      swap1\n      div\n      0xffffffff\n      and\n        /* \"twitterCopy.sol\":1653:1670  return MAX_LENGTH */\n      swap1\n      pop\n        /* \"twitterCopy.sol\":1588:1677  function getTweetLength() public view returns (uint32) {... */\n      swap1\n      jump\t// out\n        /* \"twitterCopy.sol\":2992:3423  function dislikeTweet(address author, uint256 _id) external onlyRegistered {... */\n    tag_55:\n        /* \"twitterCopy.sol\":589:632  IProfile.UserProfile memory userProfileTemp */\n      0x00\n        /* \"twitterCopy.sol\":635:650  profileContract */\n      0x02\n      0x00\n      swap1\n      sload\n      swap1\n      0x0100\n      exp\n      swap1\n      div\n      0xffffffffffffffffffffffffffffffffffffffff\n      and\n        /* \"twitterCopy.sol\":635:661  profileContract.getProfile */\n      0xffffffffffffffffffffffffffffffffffffffff\n      and\n      0x0f53a470\n        /* \"twitterCopy.sol\":662:672  msg.sender */\n      caller\n        /* \"twitterCopy.sol\":635:673  profileContract.getProfile(msg.sender) */\n      mload(0x40)\n      dup3\n      0xffffffff\n      and\n      0xe0\n      shl\n      dup2\n      mstore\n      0x04\n      add\n      tag_148\n      swap2\n      swap1\n      tag_48\n      jump\t// in\n    tag_148:\n      0x00\n      mload(0x40)\n      dup1\n      dup4\n      sub\n      dup2\n      dup7\n      gas\n      staticcall\n      iszero\n      dup1\n      iszero\n      tag_150\n      jumpi\n      returndatasize\n      0x00\n      dup1\n      returndatacopy\n      revert(0x00, returndatasize)\n    tag_150:\n      pop\n      pop\n      pop\n      pop\n      mload(0x40)\n      returndatasize\n      0x00\n      dup3\n      returndatacopy\n      returndatasize\n      not(0x1f)\n      0x1f\n      dup3\n      add\n      and\n      dup3\n      add\n      dup1\n      0x40\n      mstore\n      pop\n      dup2\n      add\n      swap1\n      tag_151\n      swap2\n      swap1\n      tag_81\n      jump\t// in\n    tag_151:\n        /* \"twitterCopy.sol\":589:673  IProfile.UserProfile memory userProfileTemp = profileContract.getProfile(msg.sender) */\n      swap1\n      pop\n        /* \"twitterCopy.sol\":735:736  0 */\n      0x00\n        /* \"twitterCopy.sol\":697:712  userProfileTemp */\n      dup2\n        /* \"twitterCopy.sol\":697:724  userProfileTemp.displayName */\n      0x00\n      add\n      mload\n        /* \"twitterCopy.sol\":691:732  bytes(userProfileTemp.displayName).length */\n      mload\n        /* \"twitterCopy.sol\":691:736  bytes(userProfileTemp.displayName).length > 0 */\n      gt\n        /* \"twitterCopy.sol\":683:759  require(bytes(userProfileTemp.displayName).length > 0,\"User not Registered\") */\n      tag_152\n      jumpi\n      mload(0x40)\n      0x08c379a000000000000000000000000000000000000000000000000000000000\n      dup2\n      mstore\n      0x04\n      add\n      tag_153\n      swap1\n      tag_84\n      jump\t// in\n    tag_153:\n      mload(0x40)\n      dup1\n      swap2\n      sub\n      swap1\n      revert\n    tag_152:\n        /* \"twitterCopy.sol\":3128:3131  _id */\n      dup2\n        /* \"twitterCopy.sol\":3098:3108  UserTwetts */\n      0x03\n        /* \"twitterCopy.sol\":3098:3116  UserTwetts[author] */\n      0x00\n        /* \"twitterCopy.sol\":3109:3115  author */\n      dup6\n        /* \"twitterCopy.sol\":3098:3116  UserTwetts[author] */\n      0xffffffffffffffffffffffffffffffffffffffff\n      and\n      0xffffffffffffffffffffffffffffffffffffffff\n      and\n      dup2\n      mstore\n      0x20\n      add\n      swap1\n      dup2\n      mstore\n      0x20\n      add\n      0x00\n      keccak256\n        /* \"twitterCopy.sol\":3117:3120  _id */\n      dup4\n        /* \"twitterCopy.sol\":3098:3121  UserTwetts[author][_id] */\n      dup2\n      sload\n      dup2\n      lt\n      tag_155\n      jumpi\n      tag_156\n      tag_64\n      jump\t// in\n    tag_156:\n    tag_155:\n      swap1\n      0x00\n      mstore\n      keccak256(0x00, 0x20)\n      swap1\n      0x05\n      mul\n      add\n        /* \"twitterCopy.sol\":3098:3124  UserTwetts[author][_id].ID */\n      0x00\n      add\n      sload\n        /* \"twitterCopy.sol\":3098:3131  UserTwetts[author][_id].ID == _id */\n      eq\n        /* \"twitterCopy.sol\":3098:3184  UserTwetts[author][_id].ID == _id &&... */\n      dup1\n      iszero\n      tag_158\n      jumpi\n      pop\n        /* \"twitterCopy.sol\":3183:3184  0 */\n      0x00\n        /* \"twitterCopy.sol\":3151:3161  UserTwetts */\n      0x03\n        /* \"twitterCopy.sol\":3151:3169  UserTwetts[author] */\n      0x00\n        /* \"twitterCopy.sol\":3162:3168  author */\n      dup6\n        /* \"twitterCopy.sol\":3151:3169  UserTwetts[author] */\n      0xffffffffffffffffffffffffffffffffffffffff\n      and\n      0xffffffffffffffffffffffffffffffffffffffff\n      and\n      dup2\n      mstore\n      0x20\n      add\n      swap1\n      dup2\n      mstore\n      0x20\n      add\n      0x00\n      keccak256\n        /* \"twitterCopy.sol\":3170:3173  _id */\n      dup4\n        /* \"twitterCopy.sol\":3151:3174  UserTwetts[author][_id] */\n      dup2\n      sload\n      dup2\n      lt\n      tag_159\n      jumpi\n      tag_160\n      tag_64\n      jump\t// in\n    tag_160:\n    tag_159:\n      swap1\n      0x00\n      mstore\n      keccak256(0x00, 0x20)\n      swap1\n      0x05\n      mul\n      add\n        /* \"twitterCopy.sol\":3151:3180  UserTwetts[author][_id].likes */\n      0x04\n      add\n      0x00\n      swap1\n      sload\n      swap1\n      0x0100\n      exp\n      swap1\n      div\n      0xffffffffffffffff\n      and\n        /* \"twitterCopy.sol\":3151:3184  UserTwetts[author][_id].likes > 0 */\n      0xffffffffffffffff\n      and\n      gt\n        /* \"twitterCopy.sol\":3098:3184  UserTwetts[author][_id].ID == _id &&... */\n    tag_158:\n        /* \"twitterCopy.sol\":3077:3222  require(... */\n      tag_162\n      jumpi\n      mload(0x40)\n      0x08c379a000000000000000000000000000000000000000000000000000000000\n      dup2\n      mstore\n      0x04\n      add\n      tag_163\n      swap1\n      tag_164\n      jump\t// in\n    tag_163:\n      mload(0x40)\n      dup1\n      swap2\n      sub\n      swap1\n      revert\n    tag_162:\n        /* \"twitterCopy.sol\":3232:3242  UserTwetts */\n      0x03\n        /* \"twitterCopy.sol\":3232:3250  UserTwetts[author] */\n      0x00\n        /* \"twitterCopy.sol\":3243:3249  author */\n      dup5\n        /* \"twitterCopy.sol\":3232:3250  UserTwetts[author] */\n      0xffffffffffffffffffffffffffffffffffffffff\n      and\n      0xffffffffffffffffffffffffffffffffffffffff\n      and\n      dup2\n      mstore\n      0x20\n      add\n      swap1\n      dup2\n      mstore\n      0x20\n      add\n      0x00\n      keccak256\n        /* \"twitterCopy.sol\":3251:3254  _id */\n      dup3\n        /* \"twitterCopy.sol\":3232:3255  UserTwetts[author][_id] */\n      dup2\n      sload\n      dup2\n      lt\n      tag_165\n      jumpi\n      tag_166\n      tag_64\n      jump\t// in\n    tag_166:\n    tag_165:\n      swap1\n      0x00\n      mstore\n      keccak256(0x00, 0x20)\n      swap1\n      0x05\n      mul\n      add\n        /* \"twitterCopy.sol\":3232:3261  UserTwetts[author][_id].likes */\n      0x04\n      add\n      0x00\n        /* \"twitterCopy.sol\":3232:3263  UserTwetts[author][_id].likes-- */\n      dup2\n      dup2\n      swap1\n      sload\n      swap1\n      0x0100\n      exp\n      swap1\n      div\n      0xffffffffffffffff\n      and\n      dup1\n      swap3\n      swap2\n      swap1\n      tag_168\n      swap1\n      tag_169\n      jump\t// in\n    tag_168:\n      swap2\n      swap1\n      0x0100\n      exp\n      dup2\n      sload\n      dup2\n      0xffffffffffffffff\n      mul\n      not\n      and\n      swap1\n      dup4\n      0xffffffffffffffff\n      and\n      mul\n      or\n      swap1\n      sstore\n      pop\n      pop\n        /* \"twitterCopy.sol\":3348:3358  UserTwetts */\n      0x03\n        /* \"twitterCopy.sol\":3348:3366  UserTwetts[author] */\n      0x00\n        /* \"twitterCopy.sol\":3359:3365  author */\n      dup5\n        /* \"twitterCopy.sol\":3348:3366  UserTwetts[author] */\n      0xffffffffffffffffffffffffffffffffffffffff\n      and\n      0xffffffffffffffffffffffffffffffffffffffff\n      and\n      dup2\n      mstore\n      0x20\n      add\n      swap1\n      dup2\n      mstore\n      0x20\n      add\n      0x00\n      keccak256\n        /* \"twitterCopy.sol\":3367:3370  _id */\n      dup3\n        /* \"twitterCopy.sol\":3348:3371  UserTwetts[author][_id] */\n      dup2\n      sload\n      dup2\n      lt\n      tag_170\n      jumpi\n      tag_171\n      tag_64\n      jump\t// in\n    tag_171:\n    tag_170:\n      swap1\n      0x00\n      mstore\n      keccak256(0x00, 0x20)\n      swap1\n      0x05\n      mul\n      add\n        /* \"twitterCopy.sol\":3348:3377  UserTwetts[author][_id].likes */\n      0x04\n      add\n      0x00\n      swap1\n      sload\n      swap1\n      0x0100\n      exp\n      swap1\n      div\n      0xffffffffffffffff\n      and\n        /* \"twitterCopy.sol\":3279:3416  TweetUnlike(... */\n      0xffffffffffffffff\n      and\n        /* \"twitterCopy.sol\":3328:3334  author */\n      dup4\n        /* \"twitterCopy.sol\":3279:3416  TweetUnlike(... */\n      0xffffffffffffffffffffffffffffffffffffffff\n      and\n        /* \"twitterCopy.sol\":3304:3314  msg.sender */\n      caller\n        /* \"twitterCopy.sol\":3279:3416  TweetUnlike(... */\n      0xffffffffffffffffffffffffffffffffffffffff\n      and\n      0xbe0a9aa2bc4a5667d4eb4dd05b204ccc5f3b48133520a5074d875389bc882392\n        /* \"twitterCopy.sol\":3391:3406  block.timestamp */\n      timestamp\n        /* \"twitterCopy.sol\":3279:3416  TweetUnlike(... */\n      mload(0x40)\n      tag_173\n      swap2\n      swap1\n      tag_101\n      jump\t// in\n    tag_173:\n      mload(0x40)\n      dup1\n      swap2\n      sub\n      swap1\n      log4\n        /* \"twitterCopy.sol\":579:777  {... */\n      pop\n        /* \"twitterCopy.sol\":2992:3423  function dislikeTweet(address author, uint256 _id) external onlyRegistered {... */\n      pop\n      pop\n      jump\t// out\n        /* \"https://github.com/OpenZeppelin/openzeppelin-contracts/blob/v4.9.0/contracts/access/Ownable.sol\":2074:2272  function transferOwnership(address newOwner) public virtual onlyOwner {... */\n    tag_58:\n        /* \"https://github.com/OpenZeppelin/openzeppelin-contracts/blob/v4.9.0/contracts/access/Ownable.sol\":1094:1107  _checkOwner() */\n      tag_175\n        /* \"https://github.com/OpenZeppelin/openzeppelin-contracts/blob/v4.9.0/contracts/access/Ownable.sol\":1094:1105  _checkOwner */\n      tag_74\n        /* \"https://github.com/OpenZeppelin/openzeppelin-contracts/blob/v4.9.0/contracts/access/Ownable.sol\":1094:1107  _checkOwner() */\n      jump\t// in\n    tag_175:\n        /* \"https://github.com/OpenZeppelin/openzeppelin-contracts/blob/v4.9.0/contracts/access/Ownable.sol\":2182:2183  0 */\n      0x00\n        /* \"https://github.com/OpenZeppelin/openzeppelin-contracts/blob/v4.9.0/contracts/access/Ownable.sol\":2162:2184  newOwner != address(0) */\n      0xffffffffffffffffffffffffffffffffffffffff\n      and\n        /* \"https://github.com/OpenZeppelin/openzeppelin-contracts/blob/v4.9.0/contracts/access/Ownable.sol\":2162:2170  newOwner */\n      dup2\n        /* \"https://github.com/OpenZeppelin/openzeppelin-contracts/blob/v4.9.0/contracts/access/Ownable.sol\":2162:2184  newOwner != address(0) */\n      0xffffffffffffffffffffffffffffffffffffffff\n      and\n      sub\n        /* \"https://github.com/OpenZeppelin/openzeppelin-contracts/blob/v4.9.0/contracts/access/Ownable.sol\":2154:2227  require(newOwner != address(0), \"Ownable: new owner is the zero address\") */\n      tag_177\n      jumpi\n      mload(0x40)\n      0x08c379a000000000000000000000000000000000000000000000000000000000\n      dup2\n      mstore\n      0x04\n      add\n      tag_178\n      swap1\n      tag_179\n      jump\t// in\n    tag_178:\n      mload(0x40)\n      dup1\n      swap2\n      sub\n      swap1\n      revert\n    tag_177:\n        /* \"https://github.com/OpenZeppelin/openzeppelin-contracts/blob/v4.9.0/contracts/access/Ownable.sol\":2237:2265  _transferOwnership(newOwner) */\n      tag_180\n        /* \"https://github.com/OpenZeppelin/openzeppelin-contracts/blob/v4.9.0/contracts/access/Ownable.sol\":2256:2264  newOwner */\n      dup2\n        /* \"https://github.com/OpenZeppelin/openzeppelin-contracts/blob/v4.9.0/contracts/access/Ownable.sol\":2237:2255  _transferOwnership */\n      tag_115\n        /* \"https://github.com/OpenZeppelin/openzeppelin-contracts/blob/v4.9.0/contracts/access/Ownable.sol\":2237:2265  _transferOwnership(newOwner) */\n      jump\t// in\n    tag_180:\n        /* \"https://github.com/OpenZeppelin/openzeppelin-contracts/blob/v4.9.0/contracts/access/Ownable.sol\":2074:2272  function transferOwnership(address newOwner) public virtual onlyOwner {... */\n      pop\n      jump\t// out\n        /* \"https://github.com/OpenZeppelin/openzeppelin-contracts/blob/v4.9.0/contracts/access/Ownable.sol\":1359:1489  function _checkOwner() internal view virtual {... */\n    tag_74:\n        /* \"https://github.com/OpenZeppelin/openzeppelin-contracts/blob/v4.9.0/contracts/access/Ownable.sol\":1433:1445  _msgSender() */\n      tag_182\n        /* \"https://github.com/OpenZeppelin/openzeppelin-contracts/blob/v4.9.0/contracts/access/Ownable.sol\":1433:1443  _msgSender */\n      tag_183\n        /* \"https://github.com/OpenZeppelin/openzeppelin-contracts/blob/v4.9.0/contracts/access/Ownable.sol\":1433:1445  _msgSender() */\n      jump\t// in\n    tag_182:\n        /* \"https://github.com/OpenZeppelin/openzeppelin-contracts/blob/v4.9.0/contracts/access/Ownable.sol\":1422:1445  owner() == _msgSender() */\n      0xffffffffffffffffffffffffffffffffffffffff\n      and\n        /* \"https://github.com/OpenZeppelin/openzeppelin-contracts/blob/v4.9.0/contracts/access/Ownable.sol\":1422:1429  owner() */\n      tag_184\n        /* \"https://github.com/OpenZeppelin/openzeppelin-contracts/blob/v4.9.0/contracts/access/Ownable.sol\":1422:1427  owner */\n      tag_46\n        /* \"https://github.com/OpenZeppelin/openzeppelin-contracts/blob/v4.9.0/contracts/access/Ownable.sol\":1422:1429  owner() */\n      jump\t// in\n    tag_184:\n        /* \"https://github.com/OpenZeppelin/openzeppelin-contracts/blob/v4.9.0/contracts/access/Ownable.sol\":1422:1445  owner() == _msgSender() */\n      0xffffffffffffffffffffffffffffffffffffffff\n      and\n      eq\n        /* \"https://github.com/OpenZeppelin/openzeppelin-contracts/blob/v4.9.0/contracts/access/Ownable.sol\":1414:1482  require(owner() == _msgSender(), \"Ownable: caller is not the owner\") */\n      tag_185\n      jumpi\n      mload(0x40)\n      0x08c379a000000000000000000000000000000000000000000000000000000000\n      dup2\n      mstore\n      0x04\n      add\n      tag_186\n      swap1\n      tag_187\n      jump\t// in\n    tag_186:\n      mload(0x40)\n      dup1\n      swap2\n      sub\n      swap1\n      revert\n    tag_185:\n        /* \"https://github.com/OpenZeppelin/openzeppelin-contracts/blob/v4.9.0/contracts/access/Ownable.sol\":1359:1489  function _checkOwner() internal view virtual {... */\n      jump\t// out\n        /* \"https://github.com/OpenZeppelin/openzeppelin-contracts/blob/v4.9.0/contracts/access/Ownable.sol\":2426:2613  function _transferOwnership(address newOwner) internal virtual {... */\n    tag_115:\n        /* \"https://github.com/OpenZeppelin/openzeppelin-contracts/blob/v4.9.0/contracts/access/Ownable.sol\":2499:2515  address oldOwner */\n      0x00\n        /* \"https://github.com/OpenZeppelin/openzeppelin-contracts/blob/v4.9.0/contracts/access/Ownable.sol\":2518:2524  _owner */\n      dup1\n      0x00\n      swap1\n      sload\n      swap1\n      0x0100\n      exp\n      swap1\n      div\n      0xffffffffffffffffffffffffffffffffffffffff\n      and\n        /* \"https://github.com/OpenZeppelin/openzeppelin-contracts/blob/v4.9.0/contracts/access/Ownable.sol\":2499:2524  address oldOwner = _owner */\n      swap1\n      pop\n        /* \"https://github.com/OpenZeppelin/openzeppelin-contracts/blob/v4.9.0/contracts/access/Ownable.sol\":2543:2551  newOwner */\n      dup2\n        /* \"https://github.com/OpenZeppelin/openzeppelin-contracts/blob/v4.9.0/contracts/access/Ownable.sol\":2534:2540  _owner */\n      0x00\n      dup1\n        /* \"https://github.com/OpenZeppelin/openzeppelin-contracts/blob/v4.9.0/contracts/access/Ownable.sol\":2534:2551  _owner = newOwner */\n      0x0100\n      exp\n      dup2\n      sload\n      dup2\n      0xffffffffffffffffffffffffffffffffffffffff\n      mul\n      not\n      and\n      swap1\n      dup4\n      0xffffffffffffffffffffffffffffffffffffffff\n      and\n      mul\n      or\n      swap1\n      sstore\n      pop\n        /* \"https://github.com/OpenZeppelin/openzeppelin-contracts/blob/v4.9.0/contracts/access/Ownable.sol\":2597:2605  newOwner */\n      dup2\n        /* \"https://github.com/OpenZeppelin/openzeppelin-contracts/blob/v4.9.0/contracts/access/Ownable.sol\":2566:2606  OwnershipTransferred(oldOwner, newOwner) */\n      0xffffffffffffffffffffffffffffffffffffffff\n      and\n        /* \"https://github.com/OpenZeppelin/openzeppelin-contracts/blob/v4.9.0/contracts/access/Ownable.sol\":2587:2595  oldOwner */\n      dup2\n        /* \"https://github.com/OpenZeppelin/openzeppelin-contracts/blob/v4.9.0/contracts/access/Ownable.sol\":2566:2606  OwnershipTransferred(oldOwner, newOwner) */\n      0xffffffffffffffffffffffffffffffffffffffff\n      and\n      0x8be0079c531659141344cd1fd0a4f28419497f9722a3daafe3b4186f6b6457e0\n      mload(0x40)\n      mload(0x40)\n      dup1\n      swap2\n      sub\n      swap1\n      log3\n        /* \"https://github.com/OpenZeppelin/openzeppelin-contracts/blob/v4.9.0/contracts/access/Ownable.sol\":2489:2613  {... */\n      pop\n        /* \"https://github.com/OpenZeppelin/openzeppelin-contracts/blob/v4.9.0/contracts/access/Ownable.sol\":2426:2613  function _transferOwnership(address newOwner) internal virtual {... */\n      pop\n      jump\t// out\n        /* \"https://github.com/OpenZeppelin/openzeppelin-contracts/blob/v4.9.0/contracts/utils/Context.sol\":640:736  function _msgSender() internal view virtual returns (address) {... */\n    tag_183:\n        /* \"https://github.com/OpenZeppelin/openzeppelin-contracts/blob/v4.9.0/contracts/utils/Context.sol\":693:700  address */\n      0x00\n        /* \"https://github.com/OpenZeppelin/openzeppelin-contracts/blob/v4.9.0/contracts/utils/Context.sol\":719:729  msg.sender */\n      caller\n        /* \"https://github.com/OpenZeppelin/openzeppelin-contracts/blob/v4.9.0/contracts/utils/Context.sol\":712:729  return msg.sender */\n      swap1\n      pop\n        /* \"https://github.com/OpenZeppelin/openzeppelin-contracts/blob/v4.9.0/contracts/utils/Context.sol\":640:736  function _msgSender() internal view virtual returns (address) {... */\n      swap1\n      jump\t// out\n    tag_60:\n      mload(0x40)\n      dup1\n      0xa0\n      add\n      0x40\n      mstore\n      dup1\n      0x00\n      dup2\n      mstore\n      0x20\n      add\n      and(0xffffffffffffffffffffffffffffffffffffffff, 0x00)\n      dup2\n      mstore\n      0x20\n      add\n      0x60\n      dup2\n      mstore\n      0x20\n      add\n      0x00\n      dup2\n      mstore\n      0x20\n      add\n      and(0xffffffffffffffff, 0x00)\n      dup2\n      mstore\n      pop\n      swap1\n      jump\t// out\n        /* \"#utility.yul\":7:82   */\n    tag_190:\n        /* \"#utility.yul\":40:46   */\n      0x00\n        /* \"#utility.yul\":73:75   */\n      0x40\n        /* \"#utility.yul\":67:76   */\n      mload\n        /* \"#utility.yul\":57:76   */\n      swap1\n      pop\n        /* \"#utility.yul\":7:82   */\n      swap1\n      jump\t// out\n        /* \"#utility.yul\":88:205   */\n    tag_191:\n        /* \"#utility.yul\":197:198   */\n      0x00\n        /* \"#utility.yul\":194:195   */\n      dup1\n        /* \"#utility.yul\":187:199   */\n      revert\n        /* \"#utility.yul\":211:328   */\n    tag_192:\n        /* \"#utility.yul\":320:321   */\n      0x00\n        /* \"#utility.yul\":317:318   */\n      dup1\n        /* \"#utility.yul\":310:322   */\n      revert\n        /* \"#utility.yul\":334:460   */\n    tag_193:\n        /* \"#utility.yul\":371:378   */\n      0x00\n        /* \"#utility.yul\":411:453   */\n      0xffffffffffffffffffffffffffffffffffffffff\n        /* \"#utility.yul\":404:409   */\n      dup3\n        /* \"#utility.yul\":400:454   */\n      and\n        /* \"#utility.yul\":389:454   */\n      swap1\n      pop\n        /* \"#utility.yul\":334:460   */\n      swap2\n      swap1\n      pop\n      jump\t// out\n        /* \"#utility.yul\":466:562   */\n    tag_194:\n        /* \"#utility.yul\":503:510   */\n      0x00\n        /* \"#utility.yul\":532:556   */\n      tag_278\n        /* \"#utility.yul\":550:555   */\n      dup3\n        /* \"#utility.yul\":532:556   */\n      tag_193\n      jump\t// in\n    tag_278:\n        /* \"#utility.yul\":521:556   */\n      swap1\n      pop\n        /* \"#utility.yul\":466:562   */\n      swap2\n      swap1\n      pop\n      jump\t// out\n        /* \"#utility.yul\":568:690   */\n    tag_195:\n        /* \"#utility.yul\":641:665   */\n      tag_280\n        /* \"#utility.yul\":659:664   */\n      dup2\n        /* \"#utility.yul\":641:665   */\n      tag_194\n      jump\t// in\n    tag_280:\n        /* \"#utility.yul\":634:639   */\n      dup2\n        /* \"#utility.yul\":631:666   */\n      eq\n        /* \"#utility.yul\":621:684   */\n      tag_281\n      jumpi\n        /* \"#utility.yul\":680:681   */\n      0x00\n        /* \"#utility.yul\":677:678   */\n      dup1\n        /* \"#utility.yul\":670:682   */\n      revert\n        /* \"#utility.yul\":621:684   */\n    tag_281:\n        /* \"#utility.yul\":568:690   */\n      pop\n      jump\t// out\n        /* \"#utility.yul\":696:835   */\n    tag_196:\n        /* \"#utility.yul\":742:747   */\n      0x00\n        /* \"#utility.yul\":780:786   */\n      dup2\n        /* \"#utility.yul\":767:787   */\n      calldataload\n        /* \"#utility.yul\":758:787   */\n      swap1\n      pop\n        /* \"#utility.yul\":796:829   */\n      tag_283\n        /* \"#utility.yul\":823:828   */\n      dup2\n        /* \"#utility.yul\":796:829   */\n      tag_195\n      jump\t// in\n    tag_283:\n        /* \"#utility.yul\":696:835   */\n      swap3\n      swap2\n      pop\n      pop\n      jump\t// out\n        /* \"#utility.yul\":841:918   */\n    tag_197:\n        /* \"#utility.yul\":878:885   */\n      0x00\n        /* \"#utility.yul\":907:912   */\n      dup2\n        /* \"#utility.yul\":896:912   */\n      swap1\n      pop\n        /* \"#utility.yul\":841:918   */\n      swap2\n      swap1\n      pop\n      jump\t// out\n        /* \"#utility.yul\":924:1046   */\n    tag_198:\n        /* \"#utility.yul\":997:1021   */\n      tag_286\n        /* \"#utility.yul\":1015:1020   */\n      dup2\n        /* \"#utility.yul\":997:1021   */\n      tag_197\n      jump\t// in\n    tag_286:\n        /* \"#utility.yul\":990:995   */\n      dup2\n        /* \"#utility.yul\":987:1022   */\n      eq\n        /* \"#utility.yul\":977:1040   */\n      tag_287\n      jumpi\n        /* \"#utility.yul\":1036:1037   */\n      0x00\n        /* \"#utility.yul\":1033:1034   */\n      dup1\n        /* \"#utility.yul\":1026:1038   */\n      revert\n        /* \"#utility.yul\":977:1040   */\n    tag_287:\n        /* \"#utility.yul\":924:1046   */\n      pop\n      jump\t// out\n        /* \"#utility.yul\":1052:1191   */\n    tag_199:\n        /* \"#utility.yul\":1098:1103   */\n      0x00\n        /* \"#utility.yul\":1136:1142   */\n      dup2\n        /* \"#utility.yul\":1123:1143   */\n      calldataload\n        /* \"#utility.yul\":1114:1143   */\n      swap1\n      pop\n        /* \"#utility.yul\":1152:1185   */\n      tag_289\n        /* \"#utility.yul\":1179:1184   */\n      dup2\n        /* \"#utility.yul\":1152:1185   */\n      tag_198\n      jump\t// in\n    tag_289:\n        /* \"#utility.yul\":1052:1191   */\n      swap3\n      swap2\n      pop\n      pop\n      jump\t// out\n        /* \"#utility.yul\":1197:1671   */\n    tag_17:\n        /* \"#utility.yul\":1265:1271   */\n      0x00\n        /* \"#utility.yul\":1273:1279   */\n      dup1\n        /* \"#utility.yul\":1322:1324   */\n      0x40\n        /* \"#utility.yul\":1310:1319   */\n      dup4\n        /* \"#utility.yul\":1301:1308   */\n      dup6\n        /* \"#utility.yul\":1297:1320   */\n      sub\n        /* \"#utility.yul\":1293:1325   */\n      slt\n        /* \"#utility.yul\":1290:1409   */\n      iszero\n      tag_291\n      jumpi\n        /* \"#utility.yul\":1328:1407   */\n      tag_292\n      tag_191\n      jump\t// in\n    tag_292:\n        /* \"#utility.yul\":1290:1409   */\n    tag_291:\n        /* \"#utility.yul\":1448:1449   */\n      0x00\n        /* \"#utility.yul\":1473:1526   */\n      tag_293\n        /* \"#utility.yul\":1518:1525   */\n      dup6\n        /* \"#utility.yul\":1509:1515   */\n      dup3\n        /* \"#utility.yul\":1498:1507   */\n      dup7\n        /* \"#utility.yul\":1494:1516   */\n      add\n        /* \"#utility.yul\":1473:1526   */\n      tag_196\n      jump\t// in\n    tag_293:\n        /* \"#utility.yul\":1463:1526   */\n      swap3\n      pop\n        /* \"#utility.yul\":1419:1536   */\n      pop\n        /* \"#utility.yul\":1575:1577   */\n      0x20\n        /* \"#utility.yul\":1601:1654   */\n      tag_294\n        /* \"#utility.yul\":1646:1653   */\n      dup6\n        /* \"#utility.yul\":1637:1643   */\n      dup3\n        /* \"#utility.yul\":1626:1635   */\n      dup7\n        /* \"#utility.yul\":1622:1644   */\n      add\n        /* \"#utility.yul\":1601:1654   */\n      tag_199\n      jump\t// in\n    tag_294:\n        /* \"#utility.yul\":1591:1654   */\n      swap2\n      pop\n        /* \"#utility.yul\":1546:1664   */\n      pop\n        /* \"#utility.yul\":1197:1671   */\n      swap3\n      pop\n      swap3\n      swap1\n      pop\n      jump\t// out\n        /* \"#utility.yul\":1677:1785   */\n    tag_200:\n        /* \"#utility.yul\":1754:1778   */\n      tag_296\n        /* \"#utility.yul\":1772:1777   */\n      dup2\n        /* \"#utility.yul\":1754:1778   */\n      tag_197\n      jump\t// in\n    tag_296:\n        /* \"#utility.yul\":1749:1752   */\n      dup3\n        /* \"#utility.yul\":1742:1779   */\n      mstore\n        /* \"#utility.yul\":1677:1785   */\n      pop\n      pop\n      jump\t// out\n        /* \"#utility.yul\":1791:1899   */\n    tag_201:\n        /* \"#utility.yul\":1868:1892   */\n      tag_298\n        /* \"#utility.yul\":1886:1891   */\n      dup2\n        /* \"#utility.yul\":1868:1892   */\n      tag_194\n      jump\t// in\n    tag_298:\n        /* \"#utility.yul\":1863:1866   */\n      dup3\n        /* \"#utility.yul\":1856:1893   */\n      mstore\n        /* \"#utility.yul\":1791:1899   */\n      pop\n      pop\n      jump\t// out\n        /* \"#utility.yul\":1905:2004   */\n    tag_202:\n        /* \"#utility.yul\":1957:1963   */\n      0x00\n        /* \"#utility.yul\":1991:1996   */\n      dup2\n        /* \"#utility.yul\":1985:1997   */\n      mload\n        /* \"#utility.yul\":1975:1997   */\n      swap1\n      pop\n        /* \"#utility.yul\":1905:2004   */\n      swap2\n      swap1\n      pop\n      jump\t// out\n        /* \"#utility.yul\":2010:2169   */\n    tag_203:\n        /* \"#utility.yul\":2084:2095   */\n      0x00\n        /* \"#utility.yul\":2118:2124   */\n      dup3\n        /* \"#utility.yul\":2113:2116   */\n      dup3\n        /* \"#utility.yul\":2106:2125   */\n      mstore\n        /* \"#utility.yul\":2158:2162   */\n      0x20\n        /* \"#utility.yul\":2153:2156   */\n      dup3\n        /* \"#utility.yul\":2149:2163   */\n      add\n        /* \"#utility.yul\":2134:2163   */\n      swap1\n      pop\n        /* \"#utility.yul\":2010:2169   */\n      swap3\n      swap2\n      pop\n      pop\n      jump\t// out\n        /* \"#utility.yul\":2175:2314   */\n    tag_204:\n        /* \"#utility.yul\":2264:2270   */\n      dup3\n        /* \"#utility.yul\":2259:2262   */\n      dup2\n        /* \"#utility.yul\":2254:2257   */\n      dup4\n        /* \"#utility.yul\":2248:2271   */\n      mcopy\n        /* \"#utility.yul\":2305:2306   */\n      0x00\n        /* \"#utility.yul\":2296:2302   */\n      dup4\n        /* \"#utility.yul\":2291:2294   */\n      dup4\n        /* \"#utility.yul\":2287:2303   */\n      add\n        /* \"#utility.yul\":2280:2307   */\n      mstore\n        /* \"#utility.yul\":2175:2314   */\n      pop\n      pop\n      pop\n      jump\t// out\n        /* \"#utility.yul\":2320:2422   */\n    tag_205:\n        /* \"#utility.yul\":2361:2367   */\n      0x00\n        /* \"#utility.yul\":2412:2414   */\n      0x1f\n        /* \"#utility.yul\":2408:2415   */\n      not\n        /* \"#utility.yul\":2403:2405   */\n      0x1f\n        /* \"#utility.yul\":2396:2401   */\n      dup4\n        /* \"#utility.yul\":2392:2406   */\n      add\n        /* \"#utility.yul\":2388:2416   */\n      and\n        /* \"#utility.yul\":2378:2416   */\n      swap1\n      pop\n        /* \"#utility.yul\":2320:2422   */\n      swap2\n      swap1\n      pop\n      jump\t// out\n        /* \"#utility.yul\":2428:2785   */\n    tag_206:\n        /* \"#utility.yul\":2506:2509   */\n      0x00\n        /* \"#utility.yul\":2534:2573   */\n      tag_304\n        /* \"#utility.yul\":2567:2572   */\n      dup3\n        /* \"#utility.yul\":2534:2573   */\n      tag_202\n      jump\t// in\n    tag_304:\n        /* \"#utility.yul\":2589:2650   */\n      tag_305\n        /* \"#utility.yul\":2643:2649   */\n      dup2\n        /* \"#utility.yul\":2638:2641   */\n      dup6\n        /* \"#utility.yul\":2589:2650   */\n      tag_203\n      jump\t// in\n    tag_305:\n        /* \"#utility.yul\":2582:2650   */\n      swap4\n      pop\n        /* \"#utility.yul\":2659:2724   */\n      tag_306\n        /* \"#utility.yul\":2717:2723   */\n      dup2\n        /* \"#utility.yul\":2712:2715   */\n      dup6\n        /* \"#utility.yul\":2705:2709   */\n      0x20\n        /* \"#utility.yul\":2698:2703   */\n      dup7\n        /* \"#utility.yul\":2694:2710   */\n      add\n        /* \"#utility.yul\":2659:2724   */\n      tag_204\n      jump\t// in\n    tag_306:\n        /* \"#utility.yul\":2749:2778   */\n      tag_307\n        /* \"#utility.yul\":2771:2777   */\n      dup2\n        /* \"#utility.yul\":2749:2778   */\n      tag_205\n      jump\t// in\n    tag_307:\n        /* \"#utility.yul\":2744:2747   */\n      dup5\n        /* \"#utility.yul\":2740:2779   */\n      add\n        /* \"#utility.yul\":2733:2779   */\n      swap2\n      pop\n        /* \"#utility.yul\":2510:2785   */\n      pop\n        /* \"#utility.yul\":2428:2785   */\n      swap3\n      swap2\n      pop\n      pop\n      jump\t// out\n        /* \"#utility.yul\":2791:2892   */\n    tag_207:\n        /* \"#utility.yul\":2827:2834   */\n      0x00\n        /* \"#utility.yul\":2867:2885   */\n      0xffffffffffffffff\n        /* \"#utility.yul\":2860:2865   */\n      dup3\n        /* \"#utility.yul\":2856:2886   */\n      and\n        /* \"#utility.yul\":2845:2886   */\n      swap1\n      pop\n        /* \"#utility.yul\":2791:2892   */\n      swap2\n      swap1\n      pop\n      jump\t// out\n        /* \"#utility.yul\":2898:3003   */\n    tag_208:\n        /* \"#utility.yul\":2973:2996   */\n      tag_310\n        /* \"#utility.yul\":2990:2995   */\n      dup2\n        /* \"#utility.yul\":2973:2996   */\n      tag_207\n      jump\t// in\n    tag_310:\n        /* \"#utility.yul\":2968:2971   */\n      dup3\n        /* \"#utility.yul\":2961:2997   */\n      mstore\n        /* \"#utility.yul\":2898:3003   */\n      pop\n      pop\n      jump\t// out\n        /* \"#utility.yul\":3061:4190   */\n    tag_209:\n        /* \"#utility.yul\":3174:3177   */\n      0x00\n        /* \"#utility.yul\":3210:3214   */\n      0xa0\n        /* \"#utility.yul\":3205:3208   */\n      dup4\n        /* \"#utility.yul\":3201:3215   */\n      add\n        /* \"#utility.yul\":3295:3299   */\n      0x00\n        /* \"#utility.yul\":3288:3293   */\n      dup4\n        /* \"#utility.yul\":3284:3300   */\n      add\n        /* \"#utility.yul\":3278:3301   */\n      mload\n        /* \"#utility.yul\":3314:3377   */\n      tag_312\n        /* \"#utility.yul\":3371:3375   */\n      0x00\n        /* \"#utility.yul\":3366:3369   */\n      dup7\n        /* \"#utility.yul\":3362:3376   */\n      add\n        /* \"#utility.yul\":3348:3360   */\n      dup3\n        /* \"#utility.yul\":3314:3377   */\n      tag_200\n      jump\t// in\n    tag_312:\n        /* \"#utility.yul\":3225:3387   */\n      pop\n        /* \"#utility.yul\":3471:3475   */\n      0x20\n        /* \"#utility.yul\":3464:3469   */\n      dup4\n        /* \"#utility.yul\":3460:3476   */\n      add\n        /* \"#utility.yul\":3454:3477   */\n      mload\n        /* \"#utility.yul\":3490:3553   */\n      tag_313\n        /* \"#utility.yul\":3547:3551   */\n      0x20\n        /* \"#utility.yul\":3542:3545   */\n      dup7\n        /* \"#utility.yul\":3538:3552   */\n      add\n        /* \"#utility.yul\":3524:3536   */\n      dup3\n        /* \"#utility.yul\":3490:3553   */\n      tag_201\n      jump\t// in\n    tag_313:\n        /* \"#utility.yul\":3397:3563   */\n      pop\n        /* \"#utility.yul\":3648:3652   */\n      0x40\n        /* \"#utility.yul\":3641:3646   */\n      dup4\n        /* \"#utility.yul\":3637:3653   */\n      add\n        /* \"#utility.yul\":3631:3654   */\n      mload\n        /* \"#utility.yul\":3701:3704   */\n      dup5\n        /* \"#utility.yul\":3695:3699   */\n      dup3\n        /* \"#utility.yul\":3691:3705   */\n      sub\n        /* \"#utility.yul\":3684:3688   */\n      0x40\n        /* \"#utility.yul\":3679:3682   */\n      dup7\n        /* \"#utility.yul\":3675:3689   */\n      add\n        /* \"#utility.yul\":3668:3706   */\n      mstore\n        /* \"#utility.yul\":3727:3800   */\n      tag_314\n        /* \"#utility.yul\":3795:3799   */\n      dup3\n        /* \"#utility.yul\":3781:3793   */\n      dup3\n        /* \"#utility.yul\":3727:3800   */\n      tag_206\n      jump\t// in\n    tag_314:\n        /* \"#utility.yul\":3719:3800   */\n      swap2\n      pop\n        /* \"#utility.yul\":3573:3811   */\n      pop\n        /* \"#utility.yul\":3898:3902   */\n      0x60\n        /* \"#utility.yul\":3891:3896   */\n      dup4\n        /* \"#utility.yul\":3887:3903   */\n      add\n        /* \"#utility.yul\":3881:3904   */\n      mload\n        /* \"#utility.yul\":3917:3980   */\n      tag_315\n        /* \"#utility.yul\":3974:3978   */\n      0x60\n        /* \"#utility.yul\":3969:3972   */\n      dup7\n        /* \"#utility.yul\":3965:3979   */\n      add\n        /* \"#utility.yul\":3951:3963   */\n      dup3\n        /* \"#utility.yul\":3917:3980   */\n      tag_200\n      jump\t// in\n    tag_315:\n        /* \"#utility.yul\":3821:3990   */\n      pop\n        /* \"#utility.yul\":4073:4077   */\n      0x80\n        /* \"#utility.yul\":4066:4071   */\n      dup4\n        /* \"#utility.yul\":4062:4078   */\n      add\n        /* \"#utility.yul\":4056:4079   */\n      mload\n        /* \"#utility.yul\":4092:4153   */\n      tag_316\n        /* \"#utility.yul\":4147:4151   */\n      0x80\n        /* \"#utility.yul\":4142:4145   */\n      dup7\n        /* \"#utility.yul\":4138:4152   */\n      add\n        /* \"#utility.yul\":4124:4136   */\n      dup3\n        /* \"#utility.yul\":4092:4153   */\n      tag_208\n      jump\t// in\n    tag_316:\n        /* \"#utility.yul\":4000:4163   */\n      pop\n        /* \"#utility.yul\":4180:4184   */\n      dup1\n        /* \"#utility.yul\":4173:4184   */\n      swap2\n      pop\n        /* \"#utility.yul\":3179:4190   */\n      pop\n        /* \"#utility.yul\":3061:4190   */\n      swap3\n      swap2\n      pop\n      pop\n      jump\t// out\n        /* \"#utility.yul\":4196:4557   */\n    tag_20:\n        /* \"#utility.yul\":4333:4337   */\n      0x00\n        /* \"#utility.yul\":4371:4373   */\n      0x20\n        /* \"#utility.yul\":4360:4369   */\n      dup3\n        /* \"#utility.yul\":4356:4374   */\n      add\n        /* \"#utility.yul\":4348:4374   */\n      swap1\n      pop\n        /* \"#utility.yul\":4420:4429   */\n      dup2\n        /* \"#utility.yul\":4414:4418   */\n      dup2\n        /* \"#utility.yul\":4410:4430   */\n      sub\n        /* \"#utility.yul\":4406:4407   */\n      0x00\n        /* \"#utility.yul\":4395:4404   */\n      dup4\n        /* \"#utility.yul\":4391:4408   */\n      add\n        /* \"#utility.yul\":4384:4431   */\n      mstore\n        /* \"#utility.yul\":4448:4550   */\n      tag_318\n        /* \"#utility.yul\":4545:4549   */\n      dup2\n        /* \"#utility.yul\":4536:4542   */\n      dup5\n        /* \"#utility.yul\":4448:4550   */\n      tag_209\n      jump\t// in\n    tag_318:\n        /* \"#utility.yul\":4440:4550   */\n      swap1\n      pop\n        /* \"#utility.yul\":4196:4557   */\n      swap3\n      swap2\n      pop\n      pop\n      jump\t// out\n        /* \"#utility.yul\":4563:4656   */\n    tag_210:\n        /* \"#utility.yul\":4599:4606   */\n      0x00\n        /* \"#utility.yul\":4639:4649   */\n      0xffffffff\n        /* \"#utility.yul\":4632:4637   */\n      dup3\n        /* \"#utility.yul\":4628:4650   */\n      and\n        /* \"#utility.yul\":4617:4650   */\n      swap1\n      pop\n        /* \"#utility.yul\":4563:4656   */\n      swap2\n      swap1\n      pop\n      jump\t// out\n        /* \"#utility.yul\":4662:4782   */\n    tag_211:\n        /* \"#utility.yul\":4734:4757   */\n      tag_321\n        /* \"#utility.yul\":4751:4756   */\n      dup2\n        /* \"#utility.yul\":4734:4757   */\n      tag_210\n      jump\t// in\n    tag_321:\n        /* \"#utility.yul\":4727:4732   */\n      dup2\n        /* \"#utility.yul\":4724:4758   */\n      eq\n        /* \"#utility.yul\":4714:4776   */\n      tag_322\n      jumpi\n        /* \"#utility.yul\":4772:4773   */\n      0x00\n        /* \"#utility.yul\":4769:4770   */\n      dup1\n        /* \"#utility.yul\":4762:4774   */\n      revert\n        /* \"#utility.yul\":4714:4776   */\n    tag_322:\n        /* \"#utility.yul\":4662:4782   */\n      pop\n      jump\t// out\n        /* \"#utility.yul\":4788:4925   */\n    tag_212:\n        /* \"#utility.yul\":4833:4838   */\n      0x00\n        /* \"#utility.yul\":4871:4877   */\n      dup2\n        /* \"#utility.yul\":4858:4878   */\n      calldataload\n        /* \"#utility.yul\":4849:4878   */\n      swap1\n      pop\n        /* \"#utility.yul\":4887:4919   */\n      tag_324\n        /* \"#utility.yul\":4913:4918   */\n      dup2\n        /* \"#utility.yul\":4887:4919   */\n      tag_211\n      jump\t// in\n    tag_324:\n        /* \"#utility.yul\":4788:4925   */\n      swap3\n      swap2\n      pop\n      pop\n      jump\t// out\n        /* \"#utility.yul\":4931:5258   */\n    tag_23:\n        /* \"#utility.yul\":4989:4995   */\n      0x00\n        /* \"#utility.yul\":5038:5040   */\n      0x20\n        /* \"#utility.yul\":5026:5035   */\n      dup3\n        /* \"#utility.yul\":5017:5024   */\n      dup5\n        /* \"#utility.yul\":5013:5036   */\n      sub\n        /* \"#utility.yul\":5009:5041   */\n      slt\n        /* \"#utility.yul\":5006:5125   */\n      iszero\n      tag_326\n      jumpi\n        /* \"#utility.yul\":5044:5123   */\n      tag_327\n      tag_191\n      jump\t// in\n    tag_327:\n        /* \"#utility.yul\":5006:5125   */\n    tag_326:\n        /* \"#utility.yul\":5164:5165   */\n      0x00\n        /* \"#utility.yul\":5189:5241   */\n      tag_328\n        /* \"#utility.yul\":5233:5240   */\n      dup5\n        /* \"#utility.yul\":5224:5230   */\n      dup3\n        /* \"#utility.yul\":5213:5222   */\n      dup6\n        /* \"#utility.yul\":5209:5231   */\n      add\n        /* \"#utility.yul\":5189:5241   */\n      tag_212\n      jump\t// in\n    tag_328:\n        /* \"#utility.yul\":5179:5241   */\n      swap2\n      pop\n        /* \"#utility.yul\":5135:5251   */\n      pop\n        /* \"#utility.yul\":4931:5258   */\n      swap3\n      swap2\n      pop\n      pop\n      jump\t// out\n        /* \"#utility.yul\":5264:5593   */\n    tag_30:\n        /* \"#utility.yul\":5323:5329   */\n      0x00\n        /* \"#utility.yul\":5372:5374   */\n      0x20\n        /* \"#utility.yul\":5360:5369   */\n      dup3\n        /* \"#utility.yul\":5351:5358   */\n      dup5\n        /* \"#utility.yul\":5347:5370   */\n      sub\n        /* \"#utility.yul\":5343:5375   */\n      slt\n        /* \"#utility.yul\":5340:5459   */\n      iszero\n      tag_330\n      jumpi\n        /* \"#utility.yul\":5378:5457   */\n      tag_331\n      tag_191\n      jump\t// in\n    tag_331:\n        /* \"#utility.yul\":5340:5459   */\n    tag_330:\n        /* \"#utility.yul\":5498:5499   */\n      0x00\n        /* \"#utility.yul\":5523:5576   */\n      tag_332\n        /* \"#utility.yul\":5568:5575   */\n      dup5\n        /* \"#utility.yul\":5559:5565   */\n      dup3\n        /* \"#utility.yul\":5548:5557   */\n      dup6\n        /* \"#utility.yul\":5544:5566   */\n      add\n        /* \"#utility.yul\":5523:5576   */\n      tag_196\n      jump\t// in\n    tag_332:\n        /* \"#utility.yul\":5513:5576   */\n      swap2\n      pop\n        /* \"#utility.yul\":5469:5586   */\n      pop\n        /* \"#utility.yul\":5264:5593   */\n      swap3\n      swap2\n      pop\n      pop\n      jump\t// out\n        /* \"#utility.yul\":5599:5735   */\n    tag_213:\n        /* \"#utility.yul\":5688:5694   */\n      0x00\n        /* \"#utility.yul\":5722:5727   */\n      dup2\n        /* \"#utility.yul\":5716:5728   */\n      mload\n        /* \"#utility.yul\":5706:5728   */\n      swap1\n      pop\n        /* \"#utility.yul\":5599:5735   */\n      swap2\n      swap1\n      pop\n      jump\t// out\n        /* \"#utility.yul\":5741:5947   */\n    tag_214:\n        /* \"#utility.yul\":5862:5873   */\n      0x00\n        /* \"#utility.yul\":5896:5902   */\n      dup3\n        /* \"#utility.yul\":5891:5894   */\n      dup3\n        /* \"#utility.yul\":5884:5903   */\n      mstore\n        /* \"#utility.yul\":5936:5940   */\n      0x20\n        /* \"#utility.yul\":5931:5934   */\n      dup3\n        /* \"#utility.yul\":5927:5941   */\n      add\n        /* \"#utility.yul\":5912:5941   */\n      swap1\n      pop\n        /* \"#utility.yul\":5741:5947   */\n      swap3\n      swap2\n      pop\n      pop\n      jump\t// out\n        /* \"#utility.yul\":5953:6107   */\n    tag_215:\n        /* \"#utility.yul\":6042:6046   */\n      0x00\n        /* \"#utility.yul\":6065:6068   */\n      dup2\n        /* \"#utility.yul\":6057:6068   */\n      swap1\n      pop\n        /* \"#utility.yul\":6095:6099   */\n      0x20\n        /* \"#utility.yul\":6090:6093   */\n      dup3\n        /* \"#utility.yul\":6086:6100   */\n      add\n        /* \"#utility.yul\":6078:6100   */\n      swap1\n      pop\n        /* \"#utility.yul\":5953:6107   */\n      swap2\n      swap1\n      pop\n      jump\t// out\n        /* \"#utility.yul\":6165:7284   */\n    tag_216:\n        /* \"#utility.yul\":6268:6271   */\n      0x00\n        /* \"#utility.yul\":6304:6308   */\n      0xa0\n        /* \"#utility.yul\":6299:6302   */\n      dup4\n        /* \"#utility.yul\":6295:6309   */\n      add\n        /* \"#utility.yul\":6389:6393   */\n      0x00\n        /* \"#utility.yul\":6382:6387   */\n      dup4\n        /* \"#utility.yul\":6378:6394   */\n      add\n        /* \"#utility.yul\":6372:6395   */\n      mload\n        /* \"#utility.yul\":6408:6471   */\n      tag_337\n        /* \"#utility.yul\":6465:6469   */\n      0x00\n        /* \"#utility.yul\":6460:6463   */\n      dup7\n        /* \"#utility.yul\":6456:6470   */\n      add\n        /* \"#utility.yul\":6442:6454   */\n      dup3\n        /* \"#utility.yul\":6408:6471   */\n      tag_200\n      jump\t// in\n    tag_337:\n        /* \"#utility.yul\":6319:6481   */\n      pop\n        /* \"#utility.yul\":6565:6569   */\n      0x20\n        /* \"#utility.yul\":6558:6563   */\n      dup4\n        /* \"#utility.yul\":6554:6570   */\n      add\n        /* \"#utility.yul\":6548:6571   */\n      mload\n        /* \"#utility.yul\":6584:6647   */\n      tag_338\n        /* \"#utility.yul\":6641:6645   */\n      0x20\n        /* \"#utility.yul\":6636:6639   */\n      dup7\n        /* \"#utility.yul\":6632:6646   */\n      add\n        /* \"#utility.yul\":6618:6630   */\n      dup3\n        /* \"#utility.yul\":6584:6647   */\n      tag_201\n      jump\t// in\n    tag_338:\n        /* \"#utility.yul\":6491:6657   */\n      pop\n        /* \"#utility.yul\":6742:6746   */\n      0x40\n        /* \"#utility.yul\":6735:6740   */\n      dup4\n        /* \"#utility.yul\":6731:6747   */\n      add\n        /* \"#utility.yul\":6725:6748   */\n      mload\n        /* \"#utility.yul\":6795:6798   */\n      dup5\n        /* \"#utility.yul\":6789:6793   */\n      dup3\n        /* \"#utility.yul\":6785:6799   */\n      sub\n        /* \"#utility.yul\":6778:6782   */\n      0x40\n        /* \"#utility.yul\":6773:6776   */\n      dup7\n        /* \"#utility.yul\":6769:6783   */\n      add\n        /* \"#utility.yul\":6762:6800   */\n      mstore\n        /* \"#utility.yul\":6821:6894   */\n      tag_339\n        /* \"#utility.yul\":6889:6893   */\n      dup3\n        /* \"#utility.yul\":6875:6887   */\n      dup3\n        /* \"#utility.yul\":6821:6894   */\n      tag_206\n      jump\t// in\n    tag_339:\n        /* \"#utility.yul\":6813:6894   */\n      swap2\n      pop\n        /* \"#utility.yul\":6667:6905   */\n      pop\n        /* \"#utility.yul\":6992:6996   */\n      0x60\n        /* \"#utility.yul\":6985:6990   */\n      dup4\n        /* \"#utility.yul\":6981:6997   */\n      add\n        /* \"#utility.yul\":6975:6998   */\n      mload\n        /* \"#utility.yul\":7011:7074   */\n      tag_340\n        /* \"#utility.yul\":7068:7072   */\n      0x60\n        /* \"#utility.yul\":7063:7066   */\n      dup7\n        /* \"#utility.yul\":7059:7073   */\n      add\n        /* \"#utility.yul\":7045:7057   */\n      dup3\n        /* \"#utility.yul\":7011:7074   */\n      tag_200\n      jump\t// in\n    tag_340:\n        /* \"#utility.yul\":6915:7084   */\n      pop\n        /* \"#utility.yul\":7167:7171   */\n      0x80\n        /* \"#utility.yul\":7160:7165   */\n      dup4\n        /* \"#utility.yul\":7156:7172   */\n      add\n        /* \"#utility.yul\":7150:7173   */\n      mload\n        /* \"#utility.yul\":7186:7247   */\n      tag_341\n        /* \"#utility.yul\":7241:7245   */\n      0x80\n        /* \"#utility.yul\":7236:7239   */\n      dup7\n        /* \"#utility.yul\":7232:7246   */\n      add\n        /* \"#utility.yul\":7218:7230   */\n      dup3\n        /* \"#utility.yul\":7186:7247   */\n      tag_208\n      jump\t// in\n    tag_341:\n        /* \"#utility.yul\":7094:7257   */\n      pop\n        /* \"#utility.yul\":7274:7278   */\n      dup1\n        /* \"#utility.yul\":7267:7278   */\n      swap2\n      pop\n        /* \"#utility.yul\":6273:7284   */\n      pop\n        /* \"#utility.yul\":6165:7284   */\n      swap3\n      swap2\n      pop\n      pop\n      jump\t// out\n        /* \"#utility.yul\":7290:7534   */\n    tag_217:\n        /* \"#utility.yul\":7403:7413   */\n      0x00\n        /* \"#utility.yul\":7438:7528   */\n      tag_343\n        /* \"#utility.yul\":7524:7527   */\n      dup4\n        /* \"#utility.yul\":7516:7522   */\n      dup4\n        /* \"#utility.yul\":7438:7528   */\n      tag_216\n      jump\t// in\n    tag_343:\n        /* \"#utility.yul\":7424:7528   */\n      swap1\n      pop\n        /* \"#utility.yul\":7290:7534   */\n      swap3\n      swap2\n      pop\n      pop\n      jump\t// out\n        /* \"#utility.yul\":7540:7675   */\n    tag_218:\n        /* \"#utility.yul\":7632:7636   */\n      0x00\n        /* \"#utility.yul\":7664:7668   */\n      0x20\n        /* \"#utility.yul\":7659:7662   */\n      dup3\n        /* \"#utility.yul\":7655:7669   */\n      add\n        /* \"#utility.yul\":7647:7669   */\n      swap1\n      pop\n        /* \"#utility.yul\":7540:7675   */\n      swap2\n      swap1\n      pop\n      jump\t// out\n        /* \"#utility.yul\":7737:8824   */\n    tag_219:\n        /* \"#utility.yul\":7900:7903   */\n      0x00\n        /* \"#utility.yul\":7929:8005   */\n      tag_346\n        /* \"#utility.yul\":7999:8004   */\n      dup3\n        /* \"#utility.yul\":7929:8005   */\n      tag_213\n      jump\t// in\n    tag_346:\n        /* \"#utility.yul\":8021:8129   */\n      tag_347\n        /* \"#utility.yul\":8122:8128   */\n      dup2\n        /* \"#utility.yul\":8117:8120   */\n      dup6\n        /* \"#utility.yul\":8021:8129   */\n      tag_214\n      jump\t// in\n    tag_347:\n        /* \"#utility.yul\":8014:8129   */\n      swap4\n      pop\n        /* \"#utility.yul\":8155:8158   */\n      dup4\n        /* \"#utility.yul\":8200:8204   */\n      0x20\n        /* \"#utility.yul\":8192:8198   */\n      dup3\n        /* \"#utility.yul\":8188:8205   */\n      mul\n        /* \"#utility.yul\":8183:8186   */\n      dup6\n        /* \"#utility.yul\":8179:8206   */\n      add\n        /* \"#utility.yul\":8230:8308   */\n      tag_348\n        /* \"#utility.yul\":8302:8307   */\n      dup6\n        /* \"#utility.yul\":8230:8308   */\n      tag_215\n      jump\t// in\n    tag_348:\n        /* \"#utility.yul\":8331:8338   */\n      dup1\n        /* \"#utility.yul\":8362:8363   */\n      0x00\n        /* \"#utility.yul\":8347:8779   */\n    tag_349:\n        /* \"#utility.yul\":8372:8378   */\n      dup6\n        /* \"#utility.yul\":8369:8370   */\n      dup2\n        /* \"#utility.yul\":8366:8379   */\n      lt\n        /* \"#utility.yul\":8347:8779   */\n      iszero\n      tag_351\n      jumpi\n        /* \"#utility.yul\":8443:8452   */\n      dup5\n        /* \"#utility.yul\":8437:8441   */\n      dup5\n        /* \"#utility.yul\":8433:8453   */\n      sub\n        /* \"#utility.yul\":8428:8431   */\n      dup10\n        /* \"#utility.yul\":8421:8454   */\n      mstore\n        /* \"#utility.yul\":8494:8500   */\n      dup2\n        /* \"#utility.yul\":8488:8501   */\n      mload\n        /* \"#utility.yul\":8522:8630   */\n      tag_352\n        /* \"#utility.yul\":8625:8629   */\n      dup6\n        /* \"#utility.yul\":8610:8623   */\n      dup3\n        /* \"#utility.yul\":8522:8630   */\n      tag_217\n      jump\t// in\n    tag_352:\n        /* \"#utility.yul\":8514:8630   */\n      swap5\n      pop\n        /* \"#utility.yul\":8653:8735   */\n      tag_353\n        /* \"#utility.yul\":8728:8734   */\n      dup4\n        /* \"#utility.yul\":8653:8735   */\n      tag_218\n      jump\t// in\n    tag_353:\n        /* \"#utility.yul\":8643:8735   */\n      swap3\n      pop\n        /* \"#utility.yul\":8764:8768   */\n      0x20\n        /* \"#utility.yul\":8759:8762   */\n      dup11\n        /* \"#utility.yul\":8755:8769   */\n      add\n        /* \"#utility.yul\":8748:8769   */\n      swap10\n      pop\n        /* \"#utility.yul\":8407:8779   */\n      pop\n        /* \"#utility.yul\":8394:8395   */\n      0x01\n        /* \"#utility.yul\":8391:8392   */\n      dup2\n        /* \"#utility.yul\":8387:8396   */\n      add\n        /* \"#utility.yul\":8382:8396   */\n      swap1\n      pop\n        /* \"#utility.yul\":8347:8779   */\n      jump(tag_349)\n    tag_351:\n        /* \"#utility.yul\":8351:8365   */\n      pop\n        /* \"#utility.yul\":8795:8799   */\n      dup3\n        /* \"#utility.yul\":8788:8799   */\n      swap8\n      pop\n        /* \"#utility.yul\":8815:8818   */\n      dup8\n        /* \"#utility.yul\":8808:8818   */\n      swap6\n      pop\n        /* \"#utility.yul\":7905:8824   */\n      pop\n      pop\n      pop\n      pop\n      pop\n        /* \"#utility.yul\":7737:8824   */\n      swap3\n      swap2\n      pop\n      pop\n      jump\t// out\n        /* \"#utility.yul\":8830:9291   */\n    tag_33:\n        /* \"#utility.yul\":9017:9021   */\n      0x00\n        /* \"#utility.yul\":9055:9057   */\n      0x20\n        /* \"#utility.yul\":9044:9053   */\n      dup3\n        /* \"#utility.yul\":9040:9058   */\n      add\n        /* \"#utility.yul\":9032:9058   */\n      swap1\n      pop\n        /* \"#utility.yul\":9104:9113   */\n      dup2\n        /* \"#utility.yul\":9098:9102   */\n      dup2\n        /* \"#utility.yul\":9094:9114   */\n      sub\n        /* \"#utility.yul\":9090:9091   */\n      0x00\n        /* \"#utility.yul\":9079:9088   */\n      dup4\n        /* \"#utility.yul\":9075:9092   */\n      add\n        /* \"#utility.yul\":9068:9115   */\n      mstore\n        /* \"#utility.yul\":9132:9284   */\n      tag_355\n        /* \"#utility.yul\":9279:9283   */\n      dup2\n        /* \"#utility.yul\":9270:9276   */\n      dup5\n        /* \"#utility.yul\":9132:9284   */\n      tag_219\n      jump\t// in\n    tag_355:\n        /* \"#utility.yul\":9124:9284   */\n      swap1\n      pop\n        /* \"#utility.yul\":8830:9291   */\n      swap3\n      swap2\n      pop\n      pop\n      jump\t// out\n        /* \"#utility.yul\":9297:9414   */\n    tag_220:\n        /* \"#utility.yul\":9406:9407   */\n      0x00\n        /* \"#utility.yul\":9403:9404   */\n      dup1\n        /* \"#utility.yul\":9396:9408   */\n      revert\n        /* \"#utility.yul\":9420:9537   */\n    tag_221:\n        /* \"#utility.yul\":9529:9530   */\n      0x00\n        /* \"#utility.yul\":9526:9527   */\n      dup1\n        /* \"#utility.yul\":9519:9531   */\n      revert\n        /* \"#utility.yul\":9543:9723   */\n    tag_222:\n        /* \"#utility.yul\":9591:9668   */\n      0x4e487b7100000000000000000000000000000000000000000000000000000000\n        /* \"#utility.yul\":9588:9589   */\n      0x00\n        /* \"#utility.yul\":9581:9669   */\n      mstore\n        /* \"#utility.yul\":9688:9692   */\n      0x41\n        /* \"#utility.yul\":9685:9686   */\n      0x04\n        /* \"#utility.yul\":9678:9693   */\n      mstore\n        /* \"#utility.yul\":9712:9716   */\n      0x24\n        /* \"#utility.yul\":9709:9710   */\n      0x00\n        /* \"#utility.yul\":9702:9717   */\n      revert\n        /* \"#utility.yul\":9729:10010   */\n    tag_223:\n        /* \"#utility.yul\":9812:9839   */\n      tag_360\n        /* \"#utility.yul\":9834:9838   */\n      dup3\n        /* \"#utility.yul\":9812:9839   */\n      tag_205\n      jump\t// in\n    tag_360:\n        /* \"#utility.yul\":9804:9810   */\n      dup2\n        /* \"#utility.yul\":9800:9840   */\n      add\n        /* \"#utility.yul\":9942:9948   */\n      dup2\n        /* \"#utility.yul\":9930:9940   */\n      dup2\n        /* \"#utility.yul\":9927:9949   */\n      lt\n        /* \"#utility.yul\":9906:9924   */\n      0xffffffffffffffff\n        /* \"#utility.yul\":9894:9904   */\n      dup3\n        /* \"#utility.yul\":9891:9925   */\n      gt\n        /* \"#utility.yul\":9888:9950   */\n      or\n        /* \"#utility.yul\":9885:9973   */\n      iszero\n      tag_361\n      jumpi\n        /* \"#utility.yul\":9953:9971   */\n      tag_362\n      tag_222\n      jump\t// in\n    tag_362:\n        /* \"#utility.yul\":9885:9973   */\n    tag_361:\n        /* \"#utility.yul\":9993:10003   */\n      dup1\n        /* \"#utility.yul\":9989:9991   */\n      0x40\n        /* \"#utility.yul\":9982:10004   */\n      mstore\n        /* \"#utility.yul\":9772:10010   */\n      pop\n        /* \"#utility.yul\":9729:10010   */\n      pop\n      pop\n      jump\t// out\n        /* \"#utility.yul\":10016:10145   */\n    tag_224:\n        /* \"#utility.yul\":10050:10056   */\n      0x00\n        /* \"#utility.yul\":10077:10097   */\n      tag_364\n      tag_190\n      jump\t// in\n    tag_364:\n        /* \"#utility.yul\":10067:10097   */\n      swap1\n      pop\n        /* \"#utility.yul\":10106:10139   */\n      tag_365\n        /* \"#utility.yul\":10134:10138   */\n      dup3\n        /* \"#utility.yul\":10126:10132   */\n      dup3\n        /* \"#utility.yul\":10106:10139   */\n      tag_223\n      jump\t// in\n    tag_365:\n        /* \"#utility.yul\":10016:10145   */\n      swap2\n      swap1\n      pop\n      jump\t// out\n        /* \"#utility.yul\":10151:10459   */\n    tag_225:\n        /* \"#utility.yul\":10213:10217   */\n      0x00\n        /* \"#utility.yul\":10303:10321   */\n      0xffffffffffffffff\n        /* \"#utility.yul\":10295:10301   */\n      dup3\n        /* \"#utility.yul\":10292:10322   */\n      gt\n        /* \"#utility.yul\":10289:10345   */\n      iszero\n      tag_367\n      jumpi\n        /* \"#utility.yul\":10325:10343   */\n      tag_368\n      tag_222\n      jump\t// in\n    tag_368:\n        /* \"#utility.yul\":10289:10345   */\n    tag_367:\n        /* \"#utility.yul\":10363:10392   */\n      tag_369\n        /* \"#utility.yul\":10385:10391   */\n      dup3\n        /* \"#utility.yul\":10363:10392   */\n      tag_205\n      jump\t// in\n    tag_369:\n        /* \"#utility.yul\":10355:10392   */\n      swap1\n      pop\n        /* \"#utility.yul\":10447:10451   */\n      0x20\n        /* \"#utility.yul\":10441:10445   */\n      dup2\n        /* \"#utility.yul\":10437:10452   */\n      add\n        /* \"#utility.yul\":10429:10452   */\n      swap1\n      pop\n        /* \"#utility.yul\":10151:10459   */\n      swap2\n      swap1\n      pop\n      jump\t// out\n        /* \"#utility.yul\":10465:10613   */\n    tag_226:\n        /* \"#utility.yul\":10563:10569   */\n      dup3\n        /* \"#utility.yul\":10558:10561   */\n      dup2\n        /* \"#utility.yul\":10553:10556   */\n      dup4\n        /* \"#utility.yul\":10540:10570   */\n      calldatacopy\n        /* \"#utility.yul\":10604:10605   */\n      0x00\n        /* \"#utility.yul\":10595:10601   */\n      dup4\n        /* \"#utility.yul\":10590:10593   */\n      dup4\n        /* \"#utility.yul\":10586:10602   */\n      add\n        /* \"#utility.yul\":10579:10606   */\n      mstore\n        /* \"#utility.yul\":10465:10613   */\n      pop\n      pop\n      pop\n      jump\t// out\n        /* \"#utility.yul\":10619:11044   */\n    tag_227:\n        /* \"#utility.yul\":10697:10702   */\n      0x00\n        /* \"#utility.yul\":10722:10788   */\n      tag_372\n        /* \"#utility.yul\":10738:10787   */\n      tag_373\n        /* \"#utility.yul\":10780:10786   */\n      dup5\n        /* \"#utility.yul\":10738:10787   */\n      tag_225\n      jump\t// in\n    tag_373:\n        /* \"#utility.yul\":10722:10788   */\n      tag_224\n      jump\t// in\n    tag_372:\n        /* \"#utility.yul\":10713:10788   */\n      swap1\n      pop\n        /* \"#utility.yul\":10811:10817   */\n      dup3\n        /* \"#utility.yul\":10804:10809   */\n      dup2\n        /* \"#utility.yul\":10797:10818   */\n      mstore\n        /* \"#utility.yul\":10849:10853   */\n      0x20\n        /* \"#utility.yul\":10842:10847   */\n      dup2\n        /* \"#utility.yul\":10838:10854   */\n      add\n        /* \"#utility.yul\":10887:10890   */\n      dup5\n        /* \"#utility.yul\":10878:10884   */\n      dup5\n        /* \"#utility.yul\":10873:10876   */\n      dup5\n        /* \"#utility.yul\":10869:10885   */\n      add\n        /* \"#utility.yul\":10866:10891   */\n      gt\n        /* \"#utility.yul\":10863:10975   */\n      iszero\n      tag_374\n      jumpi\n        /* \"#utility.yul\":10894:10973   */\n      tag_375\n      tag_221\n      jump\t// in\n    tag_375:\n        /* \"#utility.yul\":10863:10975   */\n    tag_374:\n        /* \"#utility.yul\":10984:11038   */\n      tag_376\n        /* \"#utility.yul\":11031:11037   */\n      dup5\n        /* \"#utility.yul\":11026:11029   */\n      dup3\n        /* \"#utility.yul\":11021:11024   */\n      dup6\n        /* \"#utility.yul\":10984:11038   */\n      tag_226\n      jump\t// in\n    tag_376:\n        /* \"#utility.yul\":10703:11044   */\n      pop\n        /* \"#utility.yul\":10619:11044   */\n      swap4\n      swap3\n      pop\n      pop\n      pop\n      jump\t// out\n        /* \"#utility.yul\":11064:11404   */\n    tag_228:\n        /* \"#utility.yul\":11120:11125   */\n      0x00\n        /* \"#utility.yul\":11169:11172   */\n      dup3\n        /* \"#utility.yul\":11162:11166   */\n      0x1f\n        /* \"#utility.yul\":11154:11160   */\n      dup4\n        /* \"#utility.yul\":11150:11167   */\n      add\n        /* \"#utility.yul\":11146:11173   */\n      slt\n        /* \"#utility.yul\":11136:11258   */\n      tag_378\n      jumpi\n        /* \"#utility.yul\":11177:11256   */\n      tag_379\n      tag_220\n      jump\t// in\n    tag_379:\n        /* \"#utility.yul\":11136:11258   */\n    tag_378:\n        /* \"#utility.yul\":11294:11300   */\n      dup2\n        /* \"#utility.yul\":11281:11301   */\n      calldataload\n        /* \"#utility.yul\":11319:11398   */\n      tag_380\n        /* \"#utility.yul\":11394:11397   */\n      dup5\n        /* \"#utility.yul\":11386:11392   */\n      dup3\n        /* \"#utility.yul\":11379:11383   */\n      0x20\n        /* \"#utility.yul\":11371:11377   */\n      dup7\n        /* \"#utility.yul\":11367:11384   */\n      add\n        /* \"#utility.yul\":11319:11398   */\n      tag_227\n      jump\t// in\n    tag_380:\n        /* \"#utility.yul\":11310:11398   */\n      swap2\n      pop\n        /* \"#utility.yul\":11126:11404   */\n      pop\n        /* \"#utility.yul\":11064:11404   */\n      swap3\n      swap2\n      pop\n      pop\n      jump\t// out\n        /* \"#utility.yul\":11410:11919   */\n    tag_38:\n        /* \"#utility.yul\":11479:11485   */\n      0x00\n        /* \"#utility.yul\":11528:11530   */\n      0x20\n        /* \"#utility.yul\":11516:11525   */\n      dup3\n        /* \"#utility.yul\":11507:11514   */\n      dup5\n        /* \"#utility.yul\":11503:11526   */\n      sub\n        /* \"#utility.yul\":11499:11531   */\n      slt\n        /* \"#utility.yul\":11496:11615   */\n      iszero\n      tag_382\n      jumpi\n        /* \"#utility.yul\":11534:11613   */\n      tag_383\n      tag_191\n      jump\t// in\n    tag_383:\n        /* \"#utility.yul\":11496:11615   */\n    tag_382:\n        /* \"#utility.yul\":11682:11683   */\n      0x00\n        /* \"#utility.yul\":11671:11680   */\n      dup3\n        /* \"#utility.yul\":11667:11684   */\n      add\n        /* \"#utility.yul\":11654:11685   */\n      calldataload\n        /* \"#utility.yul\":11712:11730   */\n      0xffffffffffffffff\n        /* \"#utility.yul\":11704:11710   */\n      dup2\n        /* \"#utility.yul\":11701:11731   */\n      gt\n        /* \"#utility.yul\":11698:11815   */\n      iszero\n      tag_384\n      jumpi\n        /* \"#utility.yul\":11734:11813   */\n      tag_385\n      tag_192\n      jump\t// in\n    tag_385:\n        /* \"#utility.yul\":11698:11815   */\n    tag_384:\n        /* \"#utility.yul\":11839:11902   */\n      tag_386\n        /* \"#utility.yul\":11894:11901   */\n      dup5\n        /* \"#utility.yul\":11885:11891   */\n      dup3\n        /* \"#utility.yul\":11874:11883   */\n      dup6\n        /* \"#utility.yul\":11870:11892   */\n      add\n        /* \"#utility.yul\":11839:11902   */\n      tag_228\n      jump\t// in\n    tag_386:\n        /* \"#utility.yul\":11829:11902   */\n      swap2\n      pop\n        /* \"#utility.yul\":11625:11912   */\n      pop\n        /* \"#utility.yul\":11410:11919   */\n      swap3\n      swap2\n      pop\n      pop\n      jump\t// out\n        /* \"#utility.yul\":11925:12040   */\n    tag_229:\n        /* \"#utility.yul\":12010:12033   */\n      tag_388\n        /* \"#utility.yul\":12027:12032   */\n      dup2\n        /* \"#utility.yul\":12010:12033   */\n      tag_207\n      jump\t// in\n    tag_388:\n        /* \"#utility.yul\":12005:12008   */\n      dup3\n        /* \"#utility.yul\":11998:12034   */\n      mstore\n        /* \"#utility.yul\":11925:12040   */\n      pop\n      pop\n      jump\t// out\n        /* \"#utility.yul\":12046:12264   */\n    tag_44:\n        /* \"#utility.yul\":12137:12141   */\n      0x00\n        /* \"#utility.yul\":12175:12177   */\n      0x20\n        /* \"#utility.yul\":12164:12173   */\n      dup3\n        /* \"#utility.yul\":12160:12178   */\n      add\n        /* \"#utility.yul\":12152:12178   */\n      swap1\n      pop\n        /* \"#utility.yul\":12188:12257   */\n      tag_390\n        /* \"#utility.yul\":12254:12255   */\n      0x00\n        /* \"#utility.yul\":12243:12252   */\n      dup4\n        /* \"#utility.yul\":12239:12256   */\n      add\n        /* \"#utility.yul\":12230:12236   */\n      dup5\n        /* \"#utility.yul\":12188:12257   */\n      tag_229\n      jump\t// in\n    tag_390:\n        /* \"#utility.yul\":12046:12264   */\n      swap3\n      swap2\n      pop\n      pop\n      jump\t// out\n        /* \"#utility.yul\":12270:12388   */\n    tag_230:\n        /* \"#utility.yul\":12357:12381   */\n      tag_392\n        /* \"#utility.yul\":12375:12380   */\n      dup2\n        /* \"#utility.yul\":12357:12381   */\n      tag_194\n      jump\t// in\n    tag_392:\n        /* \"#utility.yul\":12352:12355   */\n      dup3\n        /* \"#utility.yul\":12345:12382   */\n      mstore\n        /* \"#utility.yul\":12270:12388   */\n      pop\n      pop\n      jump\t// out\n        /* \"#utility.yul\":12394:12616   */\n    tag_48:\n        /* \"#utility.yul\":12487:12491   */\n      0x00\n        /* \"#utility.yul\":12525:12527   */\n      0x20\n        /* \"#utility.yul\":12514:12523   */\n      dup3\n        /* \"#utility.yul\":12510:12528   */\n      add\n        /* \"#utility.yul\":12502:12528   */\n      swap1\n      pop\n        /* \"#utility.yul\":12538:12609   */\n      tag_394\n        /* \"#utility.yul\":12606:12607   */\n      0x00\n        /* \"#utility.yul\":12595:12604   */\n      dup4\n        /* \"#utility.yul\":12591:12608   */\n      add\n        /* \"#utility.yul\":12582:12588   */\n      dup5\n        /* \"#utility.yul\":12538:12609   */\n      tag_230\n      jump\t// in\n    tag_394:\n        /* \"#utility.yul\":12394:12616   */\n      swap3\n      swap2\n      pop\n      pop\n      jump\t// out\n        /* \"#utility.yul\":12622:12737   */\n    tag_231:\n        /* \"#utility.yul\":12707:12730   */\n      tag_396\n        /* \"#utility.yul\":12724:12729   */\n      dup2\n        /* \"#utility.yul\":12707:12730   */\n      tag_210\n      jump\t// in\n    tag_396:\n        /* \"#utility.yul\":12702:12705   */\n      dup3\n        /* \"#utility.yul\":12695:12731   */\n      mstore\n        /* \"#utility.yul\":12622:12737   */\n      pop\n      pop\n      jump\t// out\n        /* \"#utility.yul\":12743:12961   */\n    tag_52:\n        /* \"#utility.yul\":12834:12838   */\n      0x00\n        /* \"#utility.yul\":12872:12874   */\n      0x20\n        /* \"#utility.yul\":12861:12870   */\n      dup3\n        /* \"#utility.yul\":12857:12875   */\n      add\n        /* \"#utility.yul\":12849:12875   */\n      swap1\n      pop\n        /* \"#utility.yul\":12885:12954   */\n      tag_398\n        /* \"#utility.yul\":12951:12952   */\n      0x00\n        /* \"#utility.yul\":12940:12949   */\n      dup4\n        /* \"#utility.yul\":12936:12953   */\n      add\n        /* \"#utility.yul\":12927:12933   */\n      dup5\n        /* \"#utility.yul\":12885:12954   */\n      tag_231\n      jump\t// in\n    tag_398:\n        /* \"#utility.yul\":12743:12961   */\n      swap3\n      swap2\n      pop\n      pop\n      jump\t// out\n        /* \"#utility.yul\":12967:13147   */\n    tag_64:\n        /* \"#utility.yul\":13015:13092   */\n      0x4e487b7100000000000000000000000000000000000000000000000000000000\n        /* \"#utility.yul\":13012:13013   */\n      0x00\n        /* \"#utility.yul\":13005:13093   */\n      mstore\n        /* \"#utility.yul\":13112:13116   */\n      0x32\n        /* \"#utility.yul\":13109:13110   */\n      0x04\n        /* \"#utility.yul\":13102:13117   */\n      mstore\n        /* \"#utility.yul\":13136:13140   */\n      0x24\n        /* \"#utility.yul\":13133:13134   */\n      0x00\n        /* \"#utility.yul\":13126:13141   */\n      revert\n        /* \"#utility.yul\":13153:13333   */\n    tag_232:\n        /* \"#utility.yul\":13201:13278   */\n      0x4e487b7100000000000000000000000000000000000000000000000000000000\n        /* \"#utility.yul\":13198:13199   */\n      0x00\n        /* \"#utility.yul\":13191:13279   */\n      mstore\n        /* \"#utility.yul\":13298:13302   */\n      0x22\n        /* \"#utility.yul\":13295:13296   */\n      0x04\n        /* \"#utility.yul\":13288:13303   */\n      mstore\n        /* \"#utility.yul\":13322:13326   */\n      0x24\n        /* \"#utility.yul\":13319:13320   */\n      0x00\n        /* \"#utility.yul\":13312:13327   */\n      revert\n        /* \"#utility.yul\":13339:13659   */\n    tag_67:\n        /* \"#utility.yul\":13383:13389   */\n      0x00\n        /* \"#utility.yul\":13420:13421   */\n      0x02\n        /* \"#utility.yul\":13414:13418   */\n      dup3\n        /* \"#utility.yul\":13410:13422   */\n      div\n        /* \"#utility.yul\":13400:13422   */\n      swap1\n      pop\n        /* \"#utility.yul\":13467:13468   */\n      0x01\n        /* \"#utility.yul\":13461:13465   */\n      dup3\n        /* \"#utility.yul\":13457:13469   */\n      and\n        /* \"#utility.yul\":13488:13506   */\n      dup1\n        /* \"#utility.yul\":13478:13559   */\n      tag_402\n      jumpi\n        /* \"#utility.yul\":13544:13548   */\n      0x7f\n        /* \"#utility.yul\":13536:13542   */\n      dup3\n        /* \"#utility.yul\":13532:13549   */\n      and\n        /* \"#utility.yul\":13522:13549   */\n      swap2\n      pop\n        /* \"#utility.yul\":13478:13559   */\n    tag_402:\n        /* \"#utility.yul\":13606:13608   */\n      0x20\n        /* \"#utility.yul\":13598:13604   */\n      dup3\n        /* \"#utility.yul\":13595:13609   */\n      lt\n        /* \"#utility.yul\":13575:13593   */\n      dup2\n        /* \"#utility.yul\":13572:13610   */\n      sub\n        /* \"#utility.yul\":13569:13653   */\n      tag_403\n      jumpi\n        /* \"#utility.yul\":13625:13643   */\n      tag_404\n      tag_232\n      jump\t// in\n    tag_404:\n        /* \"#utility.yul\":13569:13653   */\n    tag_403:\n        /* \"#utility.yul\":13390:13659   */\n      pop\n        /* \"#utility.yul\":13339:13659   */\n      swap2\n      swap1\n      pop\n      jump\t// out\n        /* \"#utility.yul\":13665:13782   */\n    tag_233:\n        /* \"#utility.yul\":13774:13775   */\n      0x00\n        /* \"#utility.yul\":13771:13772   */\n      dup1\n        /* \"#utility.yul\":13764:13776   */\n      revert\n        /* \"#utility.yul\":13788:13905   */\n    tag_234:\n        /* \"#utility.yul\":13897:13898   */\n      0x00\n        /* \"#utility.yul\":13894:13895   */\n      dup1\n        /* \"#utility.yul\":13887:13899   */\n      revert\n        /* \"#utility.yul\":13911:14345   */\n    tag_235:\n        /* \"#utility.yul\":14000:14005   */\n      0x00\n        /* \"#utility.yul\":14025:14091   */\n      tag_408\n        /* \"#utility.yul\":14041:14090   */\n      tag_409\n        /* \"#utility.yul\":14083:14089   */\n      dup5\n        /* \"#utility.yul\":14041:14090   */\n      tag_225\n      jump\t// in\n    tag_409:\n        /* \"#utility.yul\":14025:14091   */\n      tag_224\n      jump\t// in\n    tag_408:\n        /* \"#utility.yul\":14016:14091   */\n      swap1\n      pop\n        /* \"#utility.yul\":14114:14120   */\n      dup3\n        /* \"#utility.yul\":14107:14112   */\n      dup2\n        /* \"#utility.yul\":14100:14121   */\n      mstore\n        /* \"#utility.yul\":14152:14156   */\n      0x20\n        /* \"#utility.yul\":14145:14150   */\n      dup2\n        /* \"#utility.yul\":14141:14157   */\n      add\n        /* \"#utility.yul\":14190:14193   */\n      dup5\n        /* \"#utility.yul\":14181:14187   */\n      dup5\n        /* \"#utility.yul\":14176:14179   */\n      dup5\n        /* \"#utility.yul\":14172:14188   */\n      add\n        /* \"#utility.yul\":14169:14194   */\n      gt\n        /* \"#utility.yul\":14166:14278   */\n      iszero\n      tag_410\n      jumpi\n        /* \"#utility.yul\":14197:14276   */\n      tag_411\n      tag_221\n      jump\t// in\n    tag_411:\n        /* \"#utility.yul\":14166:14278   */\n    tag_410:\n        /* \"#utility.yul\":14287:14339   */\n      tag_412\n        /* \"#utility.yul\":14332:14338   */\n      dup5\n        /* \"#utility.yul\":14327:14330   */\n      dup3\n        /* \"#utility.yul\":14322:14325   */\n      dup6\n        /* \"#utility.yul\":14287:14339   */\n      tag_204\n      jump\t// in\n    tag_412:\n        /* \"#utility.yul\":14006:14345   */\n      pop\n        /* \"#utility.yul\":13911:14345   */\n      swap4\n      swap3\n      pop\n      pop\n      pop\n      jump\t// out\n        /* \"#utility.yul\":14365:14720   */\n    tag_236:\n        /* \"#utility.yul\":14432:14437   */\n      0x00\n        /* \"#utility.yul\":14481:14484   */\n      dup3\n        /* \"#utility.yul\":14474:14478   */\n      0x1f\n        /* \"#utility.yul\":14466:14472   */\n      dup4\n        /* \"#utility.yul\":14462:14479   */\n      add\n        /* \"#utility.yul\":14458:14485   */\n      slt\n        /* \"#utility.yul\":14448:14570   */\n      tag_414\n      jumpi\n        /* \"#utility.yul\":14489:14568   */\n      tag_415\n      tag_220\n      jump\t// in\n    tag_415:\n        /* \"#utility.yul\":14448:14570   */\n    tag_414:\n        /* \"#utility.yul\":14599:14605   */\n      dup2\n        /* \"#utility.yul\":14593:14606   */\n      mload\n        /* \"#utility.yul\":14624:14714   */\n      tag_416\n        /* \"#utility.yul\":14710:14713   */\n      dup5\n        /* \"#utility.yul\":14702:14708   */\n      dup3\n        /* \"#utility.yul\":14695:14699   */\n      0x20\n        /* \"#utility.yul\":14687:14693   */\n      dup7\n        /* \"#utility.yul\":14683:14700   */\n      add\n        /* \"#utility.yul\":14624:14714   */\n      tag_235\n      jump\t// in\n    tag_416:\n        /* \"#utility.yul\":14615:14714   */\n      swap2\n      pop\n        /* \"#utility.yul\":14438:14720   */\n      pop\n        /* \"#utility.yul\":14365:14720   */\n      swap3\n      swap2\n      pop\n      pop\n      jump\t// out\n        /* \"#utility.yul\":14761:15703   */\n    tag_237:\n        /* \"#utility.yul\":14849:14854   */\n      0x00\n        /* \"#utility.yul\":14893:14897   */\n      0x40\n        /* \"#utility.yul\":14881:14890   */\n      dup3\n        /* \"#utility.yul\":14876:14879   */\n      dup5\n        /* \"#utility.yul\":14872:14891   */\n      sub\n        /* \"#utility.yul\":14868:14898   */\n      slt\n        /* \"#utility.yul\":14865:14982   */\n      iszero\n      tag_418\n      jumpi\n        /* \"#utility.yul\":14901:14980   */\n      tag_419\n      tag_233\n      jump\t// in\n    tag_419:\n        /* \"#utility.yul\":14865:14982   */\n    tag_418:\n        /* \"#utility.yul\":15000:15021   */\n      tag_420\n        /* \"#utility.yul\":15016:15020   */\n      0x40\n        /* \"#utility.yul\":15000:15021   */\n      tag_224\n      jump\t// in\n    tag_420:\n        /* \"#utility.yul\":14991:15021   */\n      swap1\n      pop\n        /* \"#utility.yul\":15108:15109   */\n      0x00\n        /* \"#utility.yul\":15097:15106   */\n      dup3\n        /* \"#utility.yul\":15093:15110   */\n      add\n        /* \"#utility.yul\":15087:15111   */\n      mload\n        /* \"#utility.yul\":15138:15156   */\n      0xffffffffffffffff\n        /* \"#utility.yul\":15130:15136   */\n      dup2\n        /* \"#utility.yul\":15127:15157   */\n      gt\n        /* \"#utility.yul\":15124:15241   */\n      iszero\n      tag_421\n      jumpi\n        /* \"#utility.yul\":15160:15239   */\n      tag_422\n      tag_234\n      jump\t// in\n    tag_422:\n        /* \"#utility.yul\":15124:15241   */\n    tag_421:\n        /* \"#utility.yul\":15280:15350   */\n      tag_423\n        /* \"#utility.yul\":15346:15349   */\n      dup5\n        /* \"#utility.yul\":15337:15343   */\n      dup3\n        /* \"#utility.yul\":15326:15335   */\n      dup6\n        /* \"#utility.yul\":15322:15344   */\n      add\n        /* \"#utility.yul\":15280:15350   */\n      tag_236\n      jump\t// in\n    tag_423:\n        /* \"#utility.yul\":15273:15277   */\n      0x00\n        /* \"#utility.yul\":15266:15271   */\n      dup4\n        /* \"#utility.yul\":15262:15278   */\n      add\n        /* \"#utility.yul\":15255:15351   */\n      mstore\n        /* \"#utility.yul\":15031:15362   */\n      pop\n        /* \"#utility.yul\":15441:15443   */\n      0x20\n        /* \"#utility.yul\":15430:15439   */\n      dup3\n        /* \"#utility.yul\":15426:15444   */\n      add\n        /* \"#utility.yul\":15420:15445   */\n      mload\n        /* \"#utility.yul\":15472:15490   */\n      0xffffffffffffffff\n        /* \"#utility.yul\":15464:15470   */\n      dup2\n        /* \"#utility.yul\":15461:15491   */\n      gt\n        /* \"#utility.yul\":15458:15575   */\n      iszero\n      tag_424\n      jumpi\n        /* \"#utility.yul\":15494:15573   */\n      tag_425\n      tag_234\n      jump\t// in\n    tag_425:\n        /* \"#utility.yul\":15458:15575   */\n    tag_424:\n        /* \"#utility.yul\":15614:15684   */\n      tag_426\n        /* \"#utility.yul\":15680:15683   */\n      dup5\n        /* \"#utility.yul\":15671:15677   */\n      dup3\n        /* \"#utility.yul\":15660:15669   */\n      dup6\n        /* \"#utility.yul\":15656:15678   */\n      add\n        /* \"#utility.yul\":15614:15684   */\n      tag_236\n      jump\t// in\n    tag_426:\n        /* \"#utility.yul\":15607:15611   */\n      0x20\n        /* \"#utility.yul\":15600:15605   */\n      dup4\n        /* \"#utility.yul\":15596:15612   */\n      add\n        /* \"#utility.yul\":15589:15685   */\n      mstore\n        /* \"#utility.yul\":15372:15696   */\n      pop\n        /* \"#utility.yul\":14761:15703   */\n      swap3\n      swap2\n      pop\n      pop\n      jump\t// out\n        /* \"#utility.yul\":15709:16269   */\n    tag_81:\n        /* \"#utility.yul\":15807:15813   */\n      0x00\n        /* \"#utility.yul\":15856:15858   */\n      0x20\n        /* \"#utility.yul\":15844:15853   */\n      dup3\n        /* \"#utility.yul\":15835:15842   */\n      dup5\n        /* \"#utility.yul\":15831:15854   */\n      sub\n        /* \"#utility.yul\":15827:15859   */\n      slt\n        /* \"#utility.yul\":15824:15943   */\n      iszero\n      tag_428\n      jumpi\n        /* \"#utility.yul\":15862:15941   */\n      tag_429\n      tag_191\n      jump\t// in\n    tag_429:\n        /* \"#utility.yul\":15824:15943   */\n    tag_428:\n        /* \"#utility.yul\":16003:16004   */\n      0x00\n        /* \"#utility.yul\":15992:16001   */\n      dup3\n        /* \"#utility.yul\":15988:16005   */\n      add\n        /* \"#utility.yul\":15982:16006   */\n      mload\n        /* \"#utility.yul\":16033:16051   */\n      0xffffffffffffffff\n        /* \"#utility.yul\":16025:16031   */\n      dup2\n        /* \"#utility.yul\":16022:16052   */\n      gt\n        /* \"#utility.yul\":16019:16136   */\n      iszero\n      tag_430\n      jumpi\n        /* \"#utility.yul\":16055:16134   */\n      tag_431\n      tag_192\n      jump\t// in\n    tag_431:\n        /* \"#utility.yul\":16019:16136   */\n    tag_430:\n        /* \"#utility.yul\":16160:16252   */\n      tag_432\n        /* \"#utility.yul\":16244:16251   */\n      dup5\n        /* \"#utility.yul\":16235:16241   */\n      dup3\n        /* \"#utility.yul\":16224:16233   */\n      dup6\n        /* \"#utility.yul\":16220:16242   */\n      add\n        /* \"#utility.yul\":16160:16252   */\n      tag_237\n      jump\t// in\n    tag_432:\n        /* \"#utility.yul\":16150:16252   */\n      swap2\n      pop\n        /* \"#utility.yul\":15953:16262   */\n      pop\n        /* \"#utility.yul\":15709:16269   */\n      swap3\n      swap2\n      pop\n      pop\n      jump\t// out\n        /* \"#utility.yul\":16275:16444   */\n    tag_238:\n        /* \"#utility.yul\":16359:16370   */\n      0x00\n        /* \"#utility.yul\":16393:16399   */\n      dup3\n        /* \"#utility.yul\":16388:16391   */\n      dup3\n        /* \"#utility.yul\":16381:16400   */\n      mstore\n        /* \"#utility.yul\":16433:16437   */\n      0x20\n        /* \"#utility.yul\":16428:16431   */\n      dup3\n        /* \"#utility.yul\":16424:16438   */\n      add\n        /* \"#utility.yul\":16409:16438   */\n      swap1\n      pop\n        /* \"#utility.yul\":16275:16444   */\n      swap3\n      swap2\n      pop\n      pop\n      jump\t// out\n        /* \"#utility.yul\":16450:16619   */\n    tag_239:\n        /* \"#utility.yul\":16590:16611   */\n      0x55736572206e6f74205265676973746572656400000000000000000000000000\n        /* \"#utility.yul\":16586:16587   */\n      0x00\n        /* \"#utility.yul\":16578:16584   */\n      dup3\n        /* \"#utility.yul\":16574:16588   */\n      add\n        /* \"#utility.yul\":16567:16612   */\n      mstore\n        /* \"#utility.yul\":16450:16619   */\n      pop\n      jump\t// out\n        /* \"#utility.yul\":16625:16991   */\n    tag_240:\n        /* \"#utility.yul\":16767:16770   */\n      0x00\n        /* \"#utility.yul\":16788:16855   */\n      tag_436\n        /* \"#utility.yul\":16852:16854   */\n      0x13\n        /* \"#utility.yul\":16847:16850   */\n      dup4\n        /* \"#utility.yul\":16788:16855   */\n      tag_238\n      jump\t// in\n    tag_436:\n        /* \"#utility.yul\":16781:16855   */\n      swap2\n      pop\n        /* \"#utility.yul\":16864:16957   */\n      tag_437\n        /* \"#utility.yul\":16953:16956   */\n      dup3\n        /* \"#utility.yul\":16864:16957   */\n      tag_239\n      jump\t// in\n    tag_437:\n        /* \"#utility.yul\":16982:16984   */\n      0x20\n        /* \"#utility.yul\":16977:16980   */\n      dup3\n        /* \"#utility.yul\":16973:16985   */\n      add\n        /* \"#utility.yul\":16966:16985   */\n      swap1\n      pop\n        /* \"#utility.yul\":16625:16991   */\n      swap2\n      swap1\n      pop\n      jump\t// out\n        /* \"#utility.yul\":16997:17416   */\n    tag_84:\n        /* \"#utility.yul\":17163:17167   */\n      0x00\n        /* \"#utility.yul\":17201:17203   */\n      0x20\n        /* \"#utility.yul\":17190:17199   */\n      dup3\n        /* \"#utility.yul\":17186:17204   */\n      add\n        /* \"#utility.yul\":17178:17204   */\n      swap1\n      pop\n        /* \"#utility.yul\":17250:17259   */\n      dup2\n        /* \"#utility.yul\":17244:17248   */\n      dup2\n        /* \"#utility.yul\":17240:17260   */\n      sub\n        /* \"#utility.yul\":17236:17237   */\n      0x00\n        /* \"#utility.yul\":17225:17234   */\n      dup4\n        /* \"#utility.yul\":17221:17238   */\n      add\n        /* \"#utility.yul\":17214:17261   */\n      mstore\n        /* \"#utility.yul\":17278:17409   */\n      tag_439\n        /* \"#utility.yul\":17404:17408   */\n      dup2\n        /* \"#utility.yul\":17278:17409   */\n      tag_240\n      jump\t// in\n    tag_439:\n        /* \"#utility.yul\":17270:17409   */\n      swap1\n      pop\n        /* \"#utility.yul\":16997:17416   */\n      swap2\n      swap1\n      pop\n      jump\t// out\n        /* \"#utility.yul\":17422:17592   */\n    tag_241:\n        /* \"#utility.yul\":17562:17584   */\n      0x547765657420646f6573206e6f74206578697374000000000000000000000000\n        /* \"#utility.yul\":17558:17559   */\n      0x00\n        /* \"#utility.yul\":17550:17556   */\n      dup3\n        /* \"#utility.yul\":17546:17560   */\n      add\n        /* \"#utility.yul\":17539:17585   */\n      mstore\n        /* \"#utility.yul\":17422:17592   */\n      pop\n      jump\t// out\n        /* \"#utility.yul\":17598:17964   */\n    tag_242:\n        /* \"#utility.yul\":17740:17743   */\n      0x00\n        /* \"#utility.yul\":17761:17828   */\n      tag_442\n        /* \"#utility.yul\":17825:17827   */\n      0x14\n        /* \"#utility.yul\":17820:17823   */\n      dup4\n        /* \"#utility.yul\":17761:17828   */\n      tag_238\n      jump\t// in\n    tag_442:\n        /* \"#utility.yul\":17754:17828   */\n      swap2\n      pop\n        /* \"#utility.yul\":17837:17930   */\n      tag_443\n        /* \"#utility.yul\":17926:17929   */\n      dup3\n        /* \"#utility.yul\":17837:17930   */\n      tag_241\n      jump\t// in\n    tag_443:\n        /* \"#utility.yul\":17955:17957   */\n      0x20\n        /* \"#utility.yul\":17950:17953   */\n      dup3\n        /* \"#utility.yul\":17946:17958   */\n      add\n        /* \"#utility.yul\":17939:17958   */\n      swap1\n      pop\n        /* \"#utility.yul\":17598:17964   */\n      swap2\n      swap1\n      pop\n      jump\t// out\n        /* \"#utility.yul\":17970:18389   */\n    tag_91:\n        /* \"#utility.yul\":18136:18140   */\n      0x00\n        /* \"#utility.yul\":18174:18176   */\n      0x20\n        /* \"#utility.yul\":18163:18172   */\n      dup3\n        /* \"#utility.yul\":18159:18177   */\n      add\n        /* \"#utility.yul\":18151:18177   */\n      swap1\n      pop\n        /* \"#utility.yul\":18223:18232   */\n      dup2\n        /* \"#utility.yul\":18217:18221   */\n      dup2\n        /* \"#utility.yul\":18213:18233   */\n      sub\n        /* \"#utility.yul\":18209:18210   */\n      0x00\n        /* \"#utility.yul\":18198:18207   */\n      dup4\n        /* \"#utility.yul\":18194:18211   */\n      add\n        /* \"#utility.yul\":18187:18234   */\n      mstore\n        /* \"#utility.yul\":18251:18382   */\n      tag_445\n        /* \"#utility.yul\":18377:18381   */\n      dup2\n        /* \"#utility.yul\":18251:18382   */\n      tag_242\n      jump\t// in\n    tag_445:\n        /* \"#utility.yul\":18243:18382   */\n      swap1\n      pop\n        /* \"#utility.yul\":17970:18389   */\n      swap2\n      swap1\n      pop\n      jump\t// out\n        /* \"#utility.yul\":18395:18575   */\n    tag_243:\n        /* \"#utility.yul\":18443:18520   */\n      0x4e487b7100000000000000000000000000000000000000000000000000000000\n        /* \"#utility.yul\":18440:18441   */\n      0x00\n        /* \"#utility.yul\":18433:18521   */\n      mstore\n        /* \"#utility.yul\":18540:18544   */\n      0x11\n        /* \"#utility.yul\":18537:18538   */\n      0x04\n        /* \"#utility.yul\":18530:18545   */\n      mstore\n        /* \"#utility.yul\":18564:18568   */\n      0x24\n        /* \"#utility.yul\":18561:18562   */\n      0x00\n        /* \"#utility.yul\":18554:18569   */\n      revert\n        /* \"#utility.yul\":18581:18764   */\n    tag_96:\n        /* \"#utility.yul\":18619:18622   */\n      0x00\n        /* \"#utility.yul\":18642:18665   */\n      tag_448\n        /* \"#utility.yul\":18659:18664   */\n      dup3\n        /* \"#utility.yul\":18642:18665   */\n      tag_207\n      jump\t// in\n    tag_448:\n        /* \"#utility.yul\":18633:18665   */\n      swap2\n      pop\n        /* \"#utility.yul\":18687:18705   */\n      0xffffffffffffffff\n        /* \"#utility.yul\":18680:18685   */\n      dup3\n        /* \"#utility.yul\":18677:18706   */\n      sub\n        /* \"#utility.yul\":18674:18729   */\n      tag_449\n      jumpi\n        /* \"#utility.yul\":18709:18727   */\n      tag_450\n      tag_243\n      jump\t// in\n    tag_450:\n        /* \"#utility.yul\":18674:18729   */\n    tag_449:\n        /* \"#utility.yul\":18756:18757   */\n      0x01\n        /* \"#utility.yul\":18749:18754   */\n      dup3\n        /* \"#utility.yul\":18745:18758   */\n      add\n        /* \"#utility.yul\":18738:18758   */\n      swap1\n      pop\n        /* \"#utility.yul\":18581:18764   */\n      swap2\n      swap1\n      pop\n      jump\t// out\n        /* \"#utility.yul\":18770:18888   */\n    tag_244:\n        /* \"#utility.yul\":18857:18881   */\n      tag_452\n        /* \"#utility.yul\":18875:18880   */\n      dup2\n        /* \"#utility.yul\":18857:18881   */\n      tag_197\n      jump\t// in\n    tag_452:\n        /* \"#utility.yul\":18852:18855   */\n      dup3\n        /* \"#utility.yul\":18845:18882   */\n      mstore\n        /* \"#utility.yul\":18770:18888   */\n      pop\n      pop\n      jump\t// out\n        /* \"#utility.yul\":18894:19116   */\n    tag_101:\n        /* \"#utility.yul\":18987:18991   */\n      0x00\n        /* \"#utility.yul\":19025:19027   */\n      0x20\n        /* \"#utility.yul\":19014:19023   */\n      dup3\n        /* \"#utility.yul\":19010:19028   */\n      add\n        /* \"#utility.yul\":19002:19028   */\n      swap1\n      pop\n        /* \"#utility.yul\":19038:19109   */\n      tag_454\n        /* \"#utility.yul\":19106:19107   */\n      0x00\n        /* \"#utility.yul\":19095:19104   */\n      dup4\n        /* \"#utility.yul\":19091:19108   */\n      add\n        /* \"#utility.yul\":19082:19088   */\n      dup5\n        /* \"#utility.yul\":19038:19109   */\n      tag_244\n      jump\t// in\n    tag_454:\n        /* \"#utility.yul\":18894:19116   */\n      swap3\n      swap2\n      pop\n      pop\n      jump\t// out\n        /* \"#utility.yul\":19122:19359   */\n    tag_245:\n        /* \"#utility.yul\":19262:19296   */\n      0x596f75207573656420746865206d6178696d756d206e756d626572206f662063\n        /* \"#utility.yul\":19258:19259   */\n      0x00\n        /* \"#utility.yul\":19250:19256   */\n      dup3\n        /* \"#utility.yul\":19246:19260   */\n      add\n        /* \"#utility.yul\":19239:19297   */\n      mstore\n        /* \"#utility.yul\":19331:19351   */\n      0x68617261637465727320706f737369626c650000000000000000000000000000\n        /* \"#utility.yul\":19326:19328   */\n      0x20\n        /* \"#utility.yul\":19318:19324   */\n      dup3\n        /* \"#utility.yul\":19314:19329   */\n      add\n        /* \"#utility.yul\":19307:19352   */\n      mstore\n        /* \"#utility.yul\":19122:19359   */\n      pop\n      jump\t// out\n        /* \"#utility.yul\":19365:19731   */\n    tag_246:\n        /* \"#utility.yul\":19507:19510   */\n      0x00\n        /* \"#utility.yul\":19528:19595   */\n      tag_457\n        /* \"#utility.yul\":19592:19594   */\n      0x32\n        /* \"#utility.yul\":19587:19590   */\n      dup4\n        /* \"#utility.yul\":19528:19595   */\n      tag_238\n      jump\t// in\n    tag_457:\n        /* \"#utility.yul\":19521:19595   */\n      swap2\n      pop\n        /* \"#utility.yul\":19604:19697   */\n      tag_458\n        /* \"#utility.yul\":19693:19696   */\n      dup3\n        /* \"#utility.yul\":19604:19697   */\n      tag_245\n      jump\t// in\n    tag_458:\n        /* \"#utility.yul\":19722:19724   */\n      0x40\n        /* \"#utility.yul\":19717:19720   */\n      dup3\n        /* \"#utility.yul\":19713:19725   */\n      add\n        /* \"#utility.yul\":19706:19725   */\n      swap1\n      pop\n        /* \"#utility.yul\":19365:19731   */\n      swap2\n      swap1\n      pop\n      jump\t// out\n        /* \"#utility.yul\":19737:20156   */\n    tag_126:\n        /* \"#utility.yul\":19903:19907   */\n      0x00\n        /* \"#utility.yul\":19941:19943   */\n      0x20\n        /* \"#utility.yul\":19930:19939   */\n      dup3\n        /* \"#utility.yul\":19926:19944   */\n      add\n        /* \"#utility.yul\":19918:19944   */\n      swap1\n      pop\n        /* \"#utility.yul\":19990:19999   */\n      dup2\n        /* \"#utility.yul\":19984:19988   */\n      dup2\n        /* \"#utility.yul\":19980:20000   */\n      sub\n        /* \"#utility.yul\":19976:19977   */\n      0x00\n        /* \"#utility.yul\":19965:19974   */\n      dup4\n        /* \"#utility.yul\":19961:19978   */\n      add\n        /* \"#utility.yul\":19954:20001   */\n      mstore\n        /* \"#utility.yul\":20018:20149   */\n      tag_460\n        /* \"#utility.yul\":20144:20148   */\n      dup2\n        /* \"#utility.yul\":20018:20149   */\n      tag_246\n      jump\t// in\n    tag_460:\n        /* \"#utility.yul\":20010:20149   */\n      swap1\n      pop\n        /* \"#utility.yul\":19737:20156   */\n      swap2\n      swap1\n      pop\n      jump\t// out\n        /* \"#utility.yul\":20162:20303   */\n    tag_247:\n        /* \"#utility.yul\":20211:20215   */\n      0x00\n        /* \"#utility.yul\":20234:20237   */\n      dup2\n        /* \"#utility.yul\":20226:20237   */\n      swap1\n      pop\n        /* \"#utility.yul\":20257:20260   */\n      dup2\n        /* \"#utility.yul\":20254:20255   */\n      0x00\n        /* \"#utility.yul\":20247:20261   */\n      mstore\n        /* \"#utility.yul\":20291:20295   */\n      0x20\n        /* \"#utility.yul\":20288:20289   */\n      0x00\n        /* \"#utility.yul\":20278:20296   */\n      keccak256\n        /* \"#utility.yul\":20270:20296   */\n      swap1\n      pop\n        /* \"#utility.yul\":20162:20303   */\n      swap2\n      swap1\n      pop\n      jump\t// out\n        /* \"#utility.yul\":20309:20402   */\n    tag_248:\n        /* \"#utility.yul\":20346:20352   */\n      0x00\n        /* \"#utility.yul\":20393:20395   */\n      0x20\n        /* \"#utility.yul\":20388:20390   */\n      0x1f\n        /* \"#utility.yul\":20381:20386   */\n      dup4\n        /* \"#utility.yul\":20377:20391   */\n      add\n        /* \"#utility.yul\":20373:20396   */\n      div\n        /* \"#utility.yul\":20363:20396   */\n      swap1\n      pop\n        /* \"#utility.yul\":20309:20402   */\n      swap2\n      swap1\n      pop\n      jump\t// out\n        /* \"#utility.yul\":20408:20515   */\n    tag_249:\n        /* \"#utility.yul\":20452:20460   */\n      0x00\n        /* \"#utility.yul\":20502:20507   */\n      dup3\n        /* \"#utility.yul\":20496:20500   */\n      dup3\n        /* \"#utility.yul\":20492:20508   */\n      shl\n        /* \"#utility.yul\":20471:20508   */\n      swap1\n      pop\n        /* \"#utility.yul\":20408:20515   */\n      swap3\n      swap2\n      pop\n      pop\n      jump\t// out\n        /* \"#utility.yul\":20521:20914   */\n    tag_250:\n        /* \"#utility.yul\":20590:20596   */\n      0x00\n        /* \"#utility.yul\":20640:20641   */\n      0x08\n        /* \"#utility.yul\":20628:20638   */\n      dup4\n        /* \"#utility.yul\":20624:20642   */\n      mul\n        /* \"#utility.yul\":20663:20760   */\n      tag_465\n        /* \"#utility.yul\":20693:20759   */\n      0xffffffffffffffffffffffffffffffffffffffffffffffffffffffffffffffff\n        /* \"#utility.yul\":20682:20691   */\n      dup3\n        /* \"#utility.yul\":20663:20760   */\n      tag_249\n      jump\t// in\n    tag_465:\n        /* \"#utility.yul\":20781:20820   */\n      tag_466\n        /* \"#utility.yul\":20811:20819   */\n      dup7\n        /* \"#utility.yul\":20800:20809   */\n      dup4\n        /* \"#utility.yul\":20781:20820   */\n      tag_249\n      jump\t// in\n    tag_466:\n        /* \"#utility.yul\":20769:20820   */\n      swap6\n      pop\n        /* \"#utility.yul\":20853:20857   */\n      dup1\n        /* \"#utility.yul\":20849:20858   */\n      not\n        /* \"#utility.yul\":20842:20847   */\n      dup5\n        /* \"#utility.yul\":20838:20859   */\n      and\n        /* \"#utility.yul\":20829:20859   */\n      swap4\n      pop\n        /* \"#utility.yul\":20902:20906   */\n      dup1\n        /* \"#utility.yul\":20892:20900   */\n      dup7\n        /* \"#utility.yul\":20888:20907   */\n      and\n        /* \"#utility.yul\":20881:20886   */\n      dup5\n        /* \"#utility.yul\":20878:20908   */\n      or\n        /* \"#utility.yul\":20868:20908   */\n      swap3\n      pop\n        /* \"#utility.yul\":20597:20914   */\n      pop\n      pop\n        /* \"#utility.yul\":20521:20914   */\n      swap4\n      swap3\n      pop\n      pop\n      pop\n      jump\t// out\n        /* \"#utility.yul\":20920:20980   */\n    tag_251:\n        /* \"#utility.yul\":20948:20951   */\n      0x00\n        /* \"#utility.yul\":20969:20974   */\n      dup2\n        /* \"#utility.yul\":20962:20974   */\n      swap1\n      pop\n        /* \"#utility.yul\":20920:20980   */\n      swap2\n      swap1\n      pop\n      jump\t// out\n        /* \"#utility.yul\":20986:21128   */\n    tag_252:\n        /* \"#utility.yul\":21036:21045   */\n      0x00\n        /* \"#utility.yul\":21069:21122   */\n      tag_469\n        /* \"#utility.yul\":21087:21121   */\n      tag_470\n        /* \"#utility.yul\":21096:21120   */\n      tag_471\n        /* \"#utility.yul\":21114:21119   */\n      dup5\n        /* \"#utility.yul\":21096:21120   */\n      tag_197\n      jump\t// in\n    tag_471:\n        /* \"#utility.yul\":21087:21121   */\n      tag_251\n      jump\t// in\n    tag_470:\n        /* \"#utility.yul\":21069:21122   */\n      tag_197\n      jump\t// in\n    tag_469:\n        /* \"#utility.yul\":21056:21122   */\n      swap1\n      pop\n        /* \"#utility.yul\":20986:21128   */\n      swap2\n      swap1\n      pop\n      jump\t// out\n        /* \"#utility.yul\":21134:21209   */\n    tag_253:\n        /* \"#utility.yul\":21177:21180   */\n      0x00\n        /* \"#utility.yul\":21198:21203   */\n      dup2\n        /* \"#utility.yul\":21191:21203   */\n      swap1\n      pop\n        /* \"#utility.yul\":21134:21209   */\n      swap2\n      swap1\n      pop\n      jump\t// out\n        /* \"#utility.yul\":21215:21484   */\n    tag_254:\n        /* \"#utility.yul\":21325:21364   */\n      tag_474\n        /* \"#utility.yul\":21356:21363   */\n      dup4\n        /* \"#utility.yul\":21325:21364   */\n      tag_252\n      jump\t// in\n    tag_474:\n        /* \"#utility.yul\":21386:21477   */\n      tag_475\n        /* \"#utility.yul\":21435:21476   */\n      tag_476\n        /* \"#utility.yul\":21459:21475   */\n      dup3\n        /* \"#utility.yul\":21435:21476   */\n      tag_253\n      jump\t// in\n    tag_476:\n        /* \"#utility.yul\":21427:21433   */\n      dup5\n        /* \"#utility.yul\":21420:21424   */\n      dup5\n        /* \"#utility.yul\":21414:21425   */\n      sload\n        /* \"#utility.yul\":21386:21477   */\n      tag_250\n      jump\t// in\n    tag_475:\n        /* \"#utility.yul\":21380:21384   */\n      dup3\n        /* \"#utility.yul\":21373:21478   */\n      sstore\n        /* \"#utility.yul\":21291:21484   */\n      pop\n        /* \"#utility.yul\":21215:21484   */\n      pop\n      pop\n      pop\n      jump\t// out\n        /* \"#utility.yul\":21490:21563   */\n    tag_255:\n        /* \"#utility.yul\":21535:21538   */\n      0x00\n        /* \"#utility.yul\":21490:21563   */\n      swap1\n      jump\t// out\n        /* \"#utility.yul\":21569:21758   */\n    tag_256:\n        /* \"#utility.yul\":21646:21678   */\n      tag_479\n      tag_255\n      jump\t// in\n    tag_479:\n        /* \"#utility.yul\":21687:21752   */\n      tag_480\n        /* \"#utility.yul\":21745:21751   */\n      dup2\n        /* \"#utility.yul\":21737:21743   */\n      dup5\n        /* \"#utility.yul\":21731:21735   */\n      dup5\n        /* \"#utility.yul\":21687:21752   */\n      tag_254\n      jump\t// in\n    tag_480:\n        /* \"#utility.yul\":21622:21758   */\n      pop\n        /* \"#utility.yul\":21569:21758   */\n      pop\n      pop\n      jump\t// out\n        /* \"#utility.yul\":21764:21950   */\n    tag_257:\n        /* \"#utility.yul\":21824:21944   */\n    tag_482:\n        /* \"#utility.yul\":21841:21844   */\n      dup2\n        /* \"#utility.yul\":21834:21839   */\n      dup2\n        /* \"#utility.yul\":21831:21845   */\n      lt\n        /* \"#utility.yul\":21824:21944   */\n      iszero\n      tag_484\n      jumpi\n        /* \"#utility.yul\":21895:21934   */\n      tag_485\n        /* \"#utility.yul\":21932:21933   */\n      0x00\n        /* \"#utility.yul\":21925:21930   */\n      dup3\n        /* \"#utility.yul\":21895:21934   */\n      tag_256\n      jump\t// in\n    tag_485:\n        /* \"#utility.yul\":21868:21869   */\n      0x01\n        /* \"#utility.yul\":21861:21866   */\n      dup2\n        /* \"#utility.yul\":21857:21870   */\n      add\n        /* \"#utility.yul\":21848:21870   */\n      swap1\n      pop\n        /* \"#utility.yul\":21824:21944   */\n      jump(tag_482)\n    tag_484:\n        /* \"#utility.yul\":21764:21950   */\n      pop\n      pop\n      jump\t// out\n        /* \"#utility.yul\":21956:22499   */\n    tag_258:\n        /* \"#utility.yul\":22057:22059   */\n      0x1f\n        /* \"#utility.yul\":22052:22055   */\n      dup3\n        /* \"#utility.yul\":22049:22060   */\n      gt\n        /* \"#utility.yul\":22046:22492   */\n      iszero\n      tag_487\n      jumpi\n        /* \"#utility.yul\":22091:22129   */\n      tag_488\n        /* \"#utility.yul\":22123:22128   */\n      dup2\n        /* \"#utility.yul\":22091:22129   */\n      tag_247\n      jump\t// in\n    tag_488:\n        /* \"#utility.yul\":22175:22204   */\n      tag_489\n        /* \"#utility.yul\":22193:22203   */\n      dup5\n        /* \"#utility.yul\":22175:22204   */\n      tag_248\n      jump\t// in\n    tag_489:\n        /* \"#utility.yul\":22165:22173   */\n      dup2\n        /* \"#utility.yul\":22161:22205   */\n      add\n        /* \"#utility.yul\":22358:22360   */\n      0x20\n        /* \"#utility.yul\":22346:22356   */\n      dup6\n        /* \"#utility.yul\":22343:22361   */\n      lt\n        /* \"#utility.yul\":22340:22389   */\n      iszero\n      tag_490\n      jumpi\n        /* \"#utility.yul\":22379:22387   */\n      dup2\n        /* \"#utility.yul\":22364:22387   */\n      swap1\n      pop\n        /* \"#utility.yul\":22340:22389   */\n    tag_490:\n        /* \"#utility.yul\":22402:22482   */\n      tag_491\n        /* \"#utility.yul\":22458:22480   */\n      tag_492\n        /* \"#utility.yul\":22476:22479   */\n      dup6\n        /* \"#utility.yul\":22458:22480   */\n      tag_248\n      jump\t// in\n    tag_492:\n        /* \"#utility.yul\":22448:22456   */\n      dup4\n        /* \"#utility.yul\":22444:22481   */\n      add\n        /* \"#utility.yul\":22431:22442   */\n      dup3\n        /* \"#utility.yul\":22402:22482   */\n      tag_257\n      jump\t// in\n    tag_491:\n        /* \"#utility.yul\":22061:22492   */\n      pop\n      pop\n        /* \"#utility.yul\":22046:22492   */\n    tag_487:\n        /* \"#utility.yul\":21956:22499   */\n      pop\n      pop\n      pop\n      jump\t// out\n        /* \"#utility.yul\":22505:22622   */\n    tag_259:\n        /* \"#utility.yul\":22559:22567   */\n      0x00\n        /* \"#utility.yul\":22609:22614   */\n      dup3\n        /* \"#utility.yul\":22603:22607   */\n      dup3\n        /* \"#utility.yul\":22599:22615   */\n      shr\n        /* \"#utility.yul\":22578:22615   */\n      swap1\n      pop\n        /* \"#utility.yul\":22505:22622   */\n      swap3\n      swap2\n      pop\n      pop\n      jump\t// out\n        /* \"#utility.yul\":22628:22797   */\n    tag_260:\n        /* \"#utility.yul\":22672:22678   */\n      0x00\n        /* \"#utility.yul\":22705:22756   */\n      tag_495\n        /* \"#utility.yul\":22753:22754   */\n      0x00\n        /* \"#utility.yul\":22749:22755   */\n      not\n        /* \"#utility.yul\":22741:22746   */\n      dup5\n        /* \"#utility.yul\":22738:22739   */\n      0x08\n        /* \"#utility.yul\":22734:22747   */\n      mul\n        /* \"#utility.yul\":22705:22756   */\n      tag_259\n      jump\t// in\n    tag_495:\n        /* \"#utility.yul\":22701:22757   */\n      not\n        /* \"#utility.yul\":22786:22790   */\n      dup1\n        /* \"#utility.yul\":22780:22784   */\n      dup4\n        /* \"#utility.yul\":22776:22791   */\n      and\n        /* \"#utility.yul\":22766:22791   */\n      swap2\n      pop\n        /* \"#utility.yul\":22679:22797   */\n      pop\n        /* \"#utility.yul\":22628:22797   */\n      swap3\n      swap2\n      pop\n      pop\n      jump\t// out\n        /* \"#utility.yul\":22802:23097   */\n    tag_261:\n        /* \"#utility.yul\":22878:22882   */\n      0x00\n        /* \"#utility.yul\":23024:23053   */\n      tag_497\n        /* \"#utility.yul\":23049:23052   */\n      dup4\n        /* \"#utility.yul\":23043:23047   */\n      dup4\n        /* \"#utility.yul\":23024:23053   */\n      tag_260\n      jump\t// in\n    tag_497:\n        /* \"#utility.yul\":23016:23053   */\n      swap2\n      pop\n        /* \"#utility.yul\":23086:23089   */\n      dup3\n        /* \"#utility.yul\":23083:23084   */\n      0x02\n        /* \"#utility.yul\":23079:23090   */\n      mul\n        /* \"#utility.yul\":23073:23077   */\n      dup3\n        /* \"#utility.yul\":23070:23091   */\n      or\n        /* \"#utility.yul\":23062:23091   */\n      swap1\n      pop\n        /* \"#utility.yul\":22802:23097   */\n      swap3\n      swap2\n      pop\n      pop\n      jump\t// out\n        /* \"#utility.yul\":23102:24497   */\n    tag_129:\n        /* \"#utility.yul\":23219:23256   */\n      tag_499\n        /* \"#utility.yul\":23252:23255   */\n      dup3\n        /* \"#utility.yul\":23219:23256   */\n      tag_202\n      jump\t// in\n    tag_499:\n        /* \"#utility.yul\":23321:23339   */\n      0xffffffffffffffff\n        /* \"#utility.yul\":23313:23319   */\n      dup2\n        /* \"#utility.yul\":23310:23340   */\n      gt\n        /* \"#utility.yul\":23307:23363   */\n      iszero\n      tag_500\n      jumpi\n        /* \"#utility.yul\":23343:23361   */\n      tag_501\n      tag_222\n      jump\t// in\n    tag_501:\n        /* \"#utility.yul\":23307:23363   */\n    tag_500:\n        /* \"#utility.yul\":23387:23425   */\n      tag_502\n        /* \"#utility.yul\":23419:23423   */\n      dup3\n        /* \"#utility.yul\":23413:23424   */\n      sload\n        /* \"#utility.yul\":23387:23425   */\n      tag_67\n      jump\t// in\n    tag_502:\n        /* \"#utility.yul\":23472:23539   */\n      tag_503\n        /* \"#utility.yul\":23532:23538   */\n      dup3\n        /* \"#utility.yul\":23524:23530   */\n      dup3\n        /* \"#utility.yul\":23518:23522   */\n      dup6\n        /* \"#utility.yul\":23472:23539   */\n      tag_258\n      jump\t// in\n    tag_503:\n        /* \"#utility.yul\":23566:23567   */\n      0x00\n        /* \"#utility.yul\":23590:23594   */\n      0x20\n        /* \"#utility.yul\":23577:23594   */\n      swap1\n      pop\n        /* \"#utility.yul\":23622:23624   */\n      0x1f\n        /* \"#utility.yul\":23614:23620   */\n      dup4\n        /* \"#utility.yul\":23611:23625   */\n      gt\n        /* \"#utility.yul\":23639:23640   */\n      0x01\n        /* \"#utility.yul\":23634:24252   */\n      dup2\n      eq\n      tag_505\n      jumpi\n        /* \"#utility.yul\":24296:24297   */\n      0x00\n        /* \"#utility.yul\":24313:24319   */\n      dup5\n        /* \"#utility.yul\":24310:24387   */\n      iszero\n      tag_506\n      jumpi\n        /* \"#utility.yul\":24362:24371   */\n      dup3\n        /* \"#utility.yul\":24357:24360   */\n      dup8\n        /* \"#utility.yul\":24353:24372   */\n      add\n        /* \"#utility.yul\":24347:24373   */\n      mload\n        /* \"#utility.yul\":24338:24373   */\n      swap1\n      pop\n        /* \"#utility.yul\":24310:24387   */\n    tag_506:\n        /* \"#utility.yul\":24413:24480   */\n      tag_507\n        /* \"#utility.yul\":24473:24479   */\n      dup6\n        /* \"#utility.yul\":24466:24471   */\n      dup3\n        /* \"#utility.yul\":24413:24480   */\n      tag_261\n      jump\t// in\n    tag_507:\n        /* \"#utility.yul\":24407:24411   */\n      dup7\n        /* \"#utility.yul\":24400:24481   */\n      sstore\n        /* \"#utility.yul\":24269:24491   */\n      pop\n        /* \"#utility.yul\":23604:24491   */\n      jump(tag_504)\n        /* \"#utility.yul\":23634:24252   */\n    tag_505:\n        /* \"#utility.yul\":23686:23690   */\n      0x1f\n        /* \"#utility.yul\":23682:23691   */\n      not\n        /* \"#utility.yul\":23674:23680   */\n      dup5\n        /* \"#utility.yul\":23670:23692   */\n      and\n        /* \"#utility.yul\":23720:23757   */\n      tag_508\n        /* \"#utility.yul\":23752:23756   */\n      dup7\n        /* \"#utility.yul\":23720:23757   */\n      tag_247\n      jump\t// in\n    tag_508:\n        /* \"#utility.yul\":23779:23780   */\n      0x00\n        /* \"#utility.yul\":23793:24001   */\n    tag_509:\n        /* \"#utility.yul\":23807:23814   */\n      dup3\n        /* \"#utility.yul\":23804:23805   */\n      dup2\n        /* \"#utility.yul\":23801:23815   */\n      lt\n        /* \"#utility.yul\":23793:24001   */\n      iszero\n      tag_511\n      jumpi\n        /* \"#utility.yul\":23886:23895   */\n      dup5\n        /* \"#utility.yul\":23881:23884   */\n      dup10\n        /* \"#utility.yul\":23877:23896   */\n      add\n        /* \"#utility.yul\":23871:23897   */\n      mload\n        /* \"#utility.yul\":23863:23869   */\n      dup3\n        /* \"#utility.yul\":23856:23898   */\n      sstore\n        /* \"#utility.yul\":23937:23938   */\n      0x01\n        /* \"#utility.yul\":23929:23935   */\n      dup3\n        /* \"#utility.yul\":23925:23939   */\n      add\n        /* \"#utility.yul\":23915:23939   */\n      swap2\n      pop\n        /* \"#utility.yul\":23984:23986   */\n      0x20\n        /* \"#utility.yul\":23973:23982   */\n      dup6\n        /* \"#utility.yul\":23969:23987   */\n      add\n        /* \"#utility.yul\":23956:23987   */\n      swap5\n      pop\n        /* \"#utility.yul\":23830:23834   */\n      0x20\n        /* \"#utility.yul\":23827:23828   */\n      dup2\n        /* \"#utility.yul\":23823:23835   */\n      add\n        /* \"#utility.yul\":23818:23835   */\n      swap1\n      pop\n        /* \"#utility.yul\":23793:24001   */\n      jump(tag_509)\n    tag_511:\n        /* \"#utility.yul\":24029:24035   */\n      dup7\n        /* \"#utility.yul\":24020:24027   */\n      dup4\n        /* \"#utility.yul\":24017:24036   */\n      lt\n        /* \"#utility.yul\":24014:24193   */\n      iszero\n      tag_512\n      jumpi\n        /* \"#utility.yul\":24087:24096   */\n      dup5\n        /* \"#utility.yul\":24082:24085   */\n      dup10\n        /* \"#utility.yul\":24078:24097   */\n      add\n        /* \"#utility.yul\":24072:24098   */\n      mload\n        /* \"#utility.yul\":24130:24178   */\n      tag_513\n        /* \"#utility.yul\":24172:24176   */\n      0x1f\n        /* \"#utility.yul\":24164:24170   */\n      dup10\n        /* \"#utility.yul\":24160:24177   */\n      and\n        /* \"#utility.yul\":24149:24158   */\n      dup3\n        /* \"#utility.yul\":24130:24178   */\n      tag_260\n      jump\t// in\n    tag_513:\n        /* \"#utility.yul\":24122:24128   */\n      dup4\n        /* \"#utility.yul\":24115:24179   */\n      sstore\n        /* \"#utility.yul\":24037:24193   */\n      pop\n        /* \"#utility.yul\":24014:24193   */\n    tag_512:\n        /* \"#utility.yul\":24239:24240   */\n      0x01\n        /* \"#utility.yul\":24235:24236   */\n      0x02\n        /* \"#utility.yul\":24227:24233   */\n      dup9\n        /* \"#utility.yul\":24223:24237   */\n      mul\n        /* \"#utility.yul\":24219:24241   */\n      add\n        /* \"#utility.yul\":24213:24217   */\n      dup9\n        /* \"#utility.yul\":24206:24242   */\n      sstore\n        /* \"#utility.yul\":23641:24252   */\n      pop\n      pop\n      pop\n        /* \"#utility.yul\":23604:24491   */\n    tag_504:\n      pop\n        /* \"#utility.yul\":23194:24497   */\n      pop\n      pop\n      pop\n        /* \"#utility.yul\":23102:24497   */\n      pop\n      pop\n      jump\t// out\n        /* \"#utility.yul\":24503:24651   */\n    tag_262:\n        /* \"#utility.yul\":24605:24616   */\n      0x00\n        /* \"#utility.yul\":24642:24645   */\n      dup2\n        /* \"#utility.yul\":24627:24645   */\n      swap1\n      pop\n        /* \"#utility.yul\":24503:24651   */\n      swap3\n      swap2\n      pop\n      pop\n      jump\t// out\n        /* \"#utility.yul\":24657:25047   */\n    tag_263:\n        /* \"#utility.yul\":24763:24766   */\n      0x00\n        /* \"#utility.yul\":24791:24830   */\n      tag_516\n        /* \"#utility.yul\":24824:24829   */\n      dup3\n        /* \"#utility.yul\":24791:24830   */\n      tag_202\n      jump\t// in\n    tag_516:\n        /* \"#utility.yul\":24846:24935   */\n      tag_517\n        /* \"#utility.yul\":24928:24934   */\n      dup2\n        /* \"#utility.yul\":24923:24926   */\n      dup6\n        /* \"#utility.yul\":24846:24935   */\n      tag_262\n      jump\t// in\n    tag_517:\n        /* \"#utility.yul\":24839:24935   */\n      swap4\n      pop\n        /* \"#utility.yul\":24944:25009   */\n      tag_518\n        /* \"#utility.yul\":25002:25008   */\n      dup2\n        /* \"#utility.yul\":24997:25000   */\n      dup6\n        /* \"#utility.yul\":24990:24994   */\n      0x20\n        /* \"#utility.yul\":24983:24988   */\n      dup7\n        /* \"#utility.yul\":24979:24995   */\n      add\n        /* \"#utility.yul\":24944:25009   */\n      tag_204\n      jump\t// in\n    tag_518:\n        /* \"#utility.yul\":25034:25040   */\n      dup1\n        /* \"#utility.yul\":25029:25032   */\n      dup5\n        /* \"#utility.yul\":25025:25041   */\n      add\n        /* \"#utility.yul\":25018:25041   */\n      swap2\n      pop\n        /* \"#utility.yul\":24767:25047   */\n      pop\n        /* \"#utility.yul\":24657:25047   */\n      swap3\n      swap2\n      pop\n      pop\n      jump\t// out\n        /* \"#utility.yul\":25053:25328   */\n    tag_131:\n        /* \"#utility.yul\":25185:25188   */\n      0x00\n        /* \"#utility.yul\":25207:25302   */\n      tag_520\n        /* \"#utility.yul\":25298:25301   */\n      dup3\n        /* \"#utility.yul\":25289:25295   */\n      dup5\n        /* \"#utility.yul\":25207:25302   */\n      tag_263\n      jump\t// in\n    tag_520:\n        /* \"#utility.yul\":25200:25302   */\n      swap2\n      pop\n        /* \"#utility.yul\":25319:25322   */\n      dup2\n        /* \"#utility.yul\":25312:25322   */\n      swap1\n      pop\n        /* \"#utility.yul\":25053:25328   */\n      swap3\n      swap2\n      pop\n      pop\n      jump\t// out\n        /* \"#utility.yul\":25334:25498   */\n    tag_264:\n        /* \"#utility.yul\":25474:25490   */\n      0x4e65772054776565742062793a20000000000000000000000000000000000000\n        /* \"#utility.yul\":25470:25471   */\n      0x00\n        /* \"#utility.yul\":25462:25468   */\n      dup3\n        /* \"#utility.yul\":25458:25472   */\n      add\n        /* \"#utility.yul\":25451:25491   */\n      mstore\n        /* \"#utility.yul\":25334:25498   */\n      pop\n      jump\t// out\n        /* \"#utility.yul\":25504:25906   */\n    tag_265:\n        /* \"#utility.yul\":25664:25667   */\n      0x00\n        /* \"#utility.yul\":25685:25770   */\n      tag_523\n        /* \"#utility.yul\":25767:25769   */\n      0x0e\n        /* \"#utility.yul\":25762:25765   */\n      dup4\n        /* \"#utility.yul\":25685:25770   */\n      tag_262\n      jump\t// in\n    tag_523:\n        /* \"#utility.yul\":25678:25770   */\n      swap2\n      pop\n        /* \"#utility.yul\":25779:25872   */\n      tag_524\n        /* \"#utility.yul\":25868:25871   */\n      dup3\n        /* \"#utility.yul\":25779:25872   */\n      tag_264\n      jump\t// in\n    tag_524:\n        /* \"#utility.yul\":25897:25899   */\n      0x0e\n        /* \"#utility.yul\":25892:25895   */\n      dup3\n        /* \"#utility.yul\":25888:25900   */\n      add\n        /* \"#utility.yul\":25881:25900   */\n      swap1\n      pop\n        /* \"#utility.yul\":25504:25906   */\n      swap2\n      swap1\n      pop\n      jump\t// out\n        /* \"#utility.yul\":25912:26293   */\n    tag_133:\n        /* \"#utility.yul\":26097:26100   */\n      0x00\n        /* \"#utility.yul\":26119:26267   */\n      tag_526\n        /* \"#utility.yul\":26263:26266   */\n      dup3\n        /* \"#utility.yul\":26119:26267   */\n      tag_265\n      jump\t// in\n    tag_526:\n        /* \"#utility.yul\":26112:26267   */\n      swap2\n      pop\n        /* \"#utility.yul\":26284:26287   */\n      dup2\n        /* \"#utility.yul\":26277:26287   */\n      swap1\n      pop\n        /* \"#utility.yul\":25912:26293   */\n      swap2\n      swap1\n      pop\n      jump\t// out\n        /* \"#utility.yul\":26299:26504   */\n    tag_143:\n        /* \"#utility.yul\":26338:26341   */\n      0x00\n        /* \"#utility.yul\":26357:26376   */\n      tag_528\n        /* \"#utility.yul\":26374:26375   */\n      dup3\n        /* \"#utility.yul\":26357:26376   */\n      tag_207\n      jump\t// in\n    tag_528:\n        /* \"#utility.yul\":26352:26376   */\n      swap2\n      pop\n        /* \"#utility.yul\":26390:26409   */\n      tag_529\n        /* \"#utility.yul\":26407:26408   */\n      dup4\n        /* \"#utility.yul\":26390:26409   */\n      tag_207\n      jump\t// in\n    tag_529:\n        /* \"#utility.yul\":26385:26409   */\n      swap3\n      pop\n        /* \"#utility.yul\":26432:26433   */\n      dup3\n        /* \"#utility.yul\":26429:26430   */\n      dup3\n        /* \"#utility.yul\":26425:26434   */\n      add\n        /* \"#utility.yul\":26418:26434   */\n      swap1\n      pop\n        /* \"#utility.yul\":26455:26473   */\n      0xffffffffffffffff\n        /* \"#utility.yul\":26450:26453   */\n      dup2\n        /* \"#utility.yul\":26447:26474   */\n      gt\n        /* \"#utility.yul\":26444:26497   */\n      iszero\n      tag_530\n      jumpi\n        /* \"#utility.yul\":26477:26495   */\n      tag_531\n      tag_243\n      jump\t// in\n    tag_531:\n        /* \"#utility.yul\":26444:26497   */\n    tag_530:\n        /* \"#utility.yul\":26299:26504   */\n      swap3\n      swap2\n      pop\n      pop\n      jump\t// out\n        /* \"#utility.yul\":26510:26672   */\n    tag_266:\n        /* \"#utility.yul\":26650:26664   */\n      0x4e6f7420706f737369626c650000000000000000000000000000000000000000\n        /* \"#utility.yul\":26646:26647   */\n      0x00\n        /* \"#utility.yul\":26638:26644   */\n      dup3\n        /* \"#utility.yul\":26634:26648   */\n      add\n        /* \"#utility.yul\":26627:26665   */\n      mstore\n        /* \"#utility.yul\":26510:26672   */\n      pop\n      jump\t// out\n        /* \"#utility.yul\":26678:27044   */\n    tag_267:\n        /* \"#utility.yul\":26820:26823   */\n      0x00\n        /* \"#utility.yul\":26841:26908   */\n      tag_534\n        /* \"#utility.yul\":26905:26907   */\n      0x0c\n        /* \"#utility.yul\":26900:26903   */\n      dup4\n        /* \"#utility.yul\":26841:26908   */\n      tag_238\n      jump\t// in\n    tag_534:\n        /* \"#utility.yul\":26834:26908   */\n      swap2\n      pop\n        /* \"#utility.yul\":26917:27010   */\n      tag_535\n        /* \"#utility.yul\":27006:27009   */\n      dup3\n        /* \"#utility.yul\":26917:27010   */\n      tag_266\n      jump\t// in\n    tag_535:\n        /* \"#utility.yul\":27035:27037   */\n      0x20\n        /* \"#utility.yul\":27030:27033   */\n      dup3\n        /* \"#utility.yul\":27026:27038   */\n      add\n        /* \"#utility.yul\":27019:27038   */\n      swap1\n      pop\n        /* \"#utility.yul\":26678:27044   */\n      swap2\n      swap1\n      pop\n      jump\t// out\n        /* \"#utility.yul\":27050:27469   */\n    tag_164:\n        /* \"#utility.yul\":27216:27220   */\n      0x00\n        /* \"#utility.yul\":27254:27256   */\n      0x20\n        /* \"#utility.yul\":27243:27252   */\n      dup3\n        /* \"#utility.yul\":27239:27257   */\n      add\n        /* \"#utility.yul\":27231:27257   */\n      swap1\n      pop\n        /* \"#utility.yul\":27303:27312   */\n      dup2\n        /* \"#utility.yul\":27297:27301   */\n      dup2\n        /* \"#utility.yul\":27293:27313   */\n      sub\n        /* \"#utility.yul\":27289:27290   */\n      0x00\n        /* \"#utility.yul\":27278:27287   */\n      dup4\n        /* \"#utility.yul\":27274:27291   */\n      add\n        /* \"#utility.yul\":27267:27314   */\n      mstore\n        /* \"#utility.yul\":27331:27462   */\n      tag_537\n        /* \"#utility.yul\":27457:27461   */\n      dup2\n        /* \"#utility.yul\":27331:27462   */\n      tag_267\n      jump\t// in\n    tag_537:\n        /* \"#utility.yul\":27323:27462   */\n      swap1\n      pop\n        /* \"#utility.yul\":27050:27469   */\n      swap2\n      swap1\n      pop\n      jump\t// out\n        /* \"#utility.yul\":27475:27644   */\n    tag_169:\n        /* \"#utility.yul\":27513:27516   */\n      0x00\n        /* \"#utility.yul\":27536:27559   */\n      tag_539\n        /* \"#utility.yul\":27553:27558   */\n      dup3\n        /* \"#utility.yul\":27536:27559   */\n      tag_207\n      jump\t// in\n    tag_539:\n        /* \"#utility.yul\":27527:27559   */\n      swap2\n      pop\n        /* \"#utility.yul\":27581:27585   */\n      0x00\n        /* \"#utility.yul\":27574:27579   */\n      dup3\n        /* \"#utility.yul\":27571:27586   */\n      sub\n        /* \"#utility.yul\":27568:27609   */\n      tag_540\n      jumpi\n        /* \"#utility.yul\":27589:27607   */\n      tag_541\n      tag_243\n      jump\t// in\n    tag_541:\n        /* \"#utility.yul\":27568:27609   */\n    tag_540:\n        /* \"#utility.yul\":27636:27637   */\n      0x01\n        /* \"#utility.yul\":27629:27634   */\n      dup3\n        /* \"#utility.yul\":27625:27638   */\n      sub\n        /* \"#utility.yul\":27618:27638   */\n      swap1\n      pop\n        /* \"#utility.yul\":27475:27644   */\n      swap2\n      swap1\n      pop\n      jump\t// out\n        /* \"#utility.yul\":27650:27875   */\n    tag_268:\n        /* \"#utility.yul\":27790:27824   */\n      0x4f776e61626c653a206e6577206f776e657220697320746865207a65726f2061\n        /* \"#utility.yul\":27786:27787   */\n      0x00\n        /* \"#utility.yul\":27778:27784   */\n      dup3\n        /* \"#utility.yul\":27774:27788   */\n      add\n        /* \"#utility.yul\":27767:27825   */\n      mstore\n        /* \"#utility.yul\":27859:27867   */\n      0x6464726573730000000000000000000000000000000000000000000000000000\n        /* \"#utility.yul\":27854:27856   */\n      0x20\n        /* \"#utility.yul\":27846:27852   */\n      dup3\n        /* \"#utility.yul\":27842:27857   */\n      add\n        /* \"#utility.yul\":27835:27868   */\n      mstore\n        /* \"#utility.yul\":27650:27875   */\n      pop\n      jump\t// out\n        /* \"#utility.yul\":27881:28247   */\n    tag_269:\n        /* \"#utility.yul\":28023:28026   */\n      0x00\n        /* \"#utility.yul\":28044:28111   */\n      tag_544\n        /* \"#utility.yul\":28108:28110   */\n      0x26\n        /* \"#utility.yul\":28103:28106   */\n      dup4\n        /* \"#utility.yul\":28044:28111   */\n      tag_238\n      jump\t// in\n    tag_544:\n        /* \"#utility.yul\":28037:28111   */\n      swap2\n      pop\n        /* \"#utility.yul\":28120:28213   */\n      tag_545\n        /* \"#utility.yul\":28209:28212   */\n      dup3\n        /* \"#utility.yul\":28120:28213   */\n      tag_268\n      jump\t// in\n    tag_545:\n        /* \"#utility.yul\":28238:28240   */\n      0x40\n        /* \"#utility.yul\":28233:28236   */\n      dup3\n        /* \"#utility.yul\":28229:28241   */\n      add\n        /* \"#utility.yul\":28222:28241   */\n      swap1\n      pop\n        /* \"#utility.yul\":27881:28247   */\n      swap2\n      swap1\n      pop\n      jump\t// out\n        /* \"#utility.yul\":28253:28672   */\n    tag_179:\n        /* \"#utility.yul\":28419:28423   */\n      0x00\n        /* \"#utility.yul\":28457:28459   */\n      0x20\n        /* \"#utility.yul\":28446:28455   */\n      dup3\n        /* \"#utility.yul\":28442:28460   */\n      add\n        /* \"#utility.yul\":28434:28460   */\n      swap1\n      pop\n        /* \"#utility.yul\":28506:28515   */\n      dup2\n        /* \"#utility.yul\":28500:28504   */\n      dup2\n        /* \"#utility.yul\":28496:28516   */\n      sub\n        /* \"#utility.yul\":28492:28493   */\n      0x00\n        /* \"#utility.yul\":28481:28490   */\n      dup4\n        /* \"#utility.yul\":28477:28494   */\n      add\n        /* \"#utility.yul\":28470:28517   */\n      mstore\n        /* \"#utility.yul\":28534:28665   */\n      tag_547\n        /* \"#utility.yul\":28660:28664   */\n      dup2\n        /* \"#utility.yul\":28534:28665   */\n      tag_269\n      jump\t// in\n    tag_547:\n        /* \"#utility.yul\":28526:28665   */\n      swap1\n      pop\n        /* \"#utility.yul\":28253:28672   */\n      swap2\n      swap1\n      pop\n      jump\t// out\n        /* \"#utility.yul\":28678:28860   */\n    tag_270:\n        /* \"#utility.yul\":28818:28852   */\n      0x4f776e61626c653a2063616c6c6572206973206e6f7420746865206f776e6572\n        /* \"#utility.yul\":28814:28815   */\n      0x00\n        /* \"#utility.yul\":28806:28812   */\n      dup3\n        /* \"#utility.yul\":28802:28816   */\n      add\n        /* \"#utility.yul\":28795:28853   */\n      mstore\n        /* \"#utility.yul\":28678:28860   */\n      pop\n      jump\t// out\n        /* \"#utility.yul\":28866:29232   */\n    tag_271:\n        /* \"#utility.yul\":29008:29011   */\n      0x00\n        /* \"#utility.yul\":29029:29096   */\n      tag_550\n        /* \"#utility.yul\":29093:29095   */\n      0x20\n        /* \"#utility.yul\":29088:29091   */\n      dup4\n        /* \"#utility.yul\":29029:29096   */\n      tag_238\n      jump\t// in\n    tag_550:\n        /* \"#utility.yul\":29022:29096   */\n      swap2\n      pop\n        /* \"#utility.yul\":29105:29198   */\n      tag_551\n        /* \"#utility.yul\":29194:29197   */\n      dup3\n        /* \"#utility.yul\":29105:29198   */\n      tag_270\n      jump\t// in\n    tag_551:\n        /* \"#utility.yul\":29223:29225   */\n      0x20\n        /* \"#utility.yul\":29218:29221   */\n      dup3\n        /* \"#utility.yul\":29214:29226   */\n      add\n        /* \"#utility.yul\":29207:29226   */\n      swap1\n      pop\n        /* \"#utility.yul\":28866:29232   */\n      swap2\n      swap1\n      pop\n      jump\t// out\n        /* \"#utility.yul\":29238:29657   */\n    tag_187:\n        /* \"#utility.yul\":29404:29408   */\n      0x00\n        /* \"#utility.yul\":29442:29444   */\n      0x20\n        /* \"#utility.yul\":29431:29440   */\n      dup3\n        /* \"#utility.yul\":29427:29445   */\n      add\n        /* \"#utility.yul\":29419:29445   */\n      swap1\n      pop\n        /* \"#utility.yul\":29491:29500   */\n      dup2\n        /* \"#utility.yul\":29485:29489   */\n      dup2\n        /* \"#utility.yul\":29481:29501   */\n      sub\n        /* \"#utility.yul\":29477:29478   */\n      0x00\n        /* \"#utility.yul\":29466:29475   */\n      dup4\n        /* \"#utility.yul\":29462:29479   */\n      add\n        /* \"#utility.yul\":29455:29502   */\n      mstore\n        /* \"#utility.yul\":29519:29650   */\n      tag_553\n        /* \"#utility.yul\":29645:29649   */\n      dup2\n        /* \"#utility.yul\":29519:29650   */\n      tag_271\n      jump\t// in\n    tag_553:\n        /* \"#utility.yul\":29511:29650   */\n      swap1\n      pop\n        /* \"#utility.yul\":29238:29657   */\n      swap2\n      swap1\n      pop\n      jump\t// out\n\n    auxdata: 0xa2646970667358221220f146792248ea1d3110ce1972f8f49d261774309c5c0e7feb029631fb06ff90eb64736f6c634300081a0033\n}\n",
				"bytecode": {
					"linkReferences": {},
					"object": "608060405261011860045f6101000a81548163ffffffff021916908363ffffffff160217905550348015610031575f80fd5b506040516123c43803806123c4833981810160405281019061005391906101db565b61006f6100646100b560201b60201c565b6100bc60201b60201c565b8060025f6101000a81548173ffffffffffffffffffffffffffffffffffffffff021916908373ffffffffffffffffffffffffffffffffffffffff16021790555050610206565b5f33905090565b5f805f9054906101000a900473ffffffffffffffffffffffffffffffffffffffff169050815f806101000a81548173ffffffffffffffffffffffffffffffffffffffff021916908373ffffffffffffffffffffffffffffffffffffffff1602179055508173ffffffffffffffffffffffffffffffffffffffff168173ffffffffffffffffffffffffffffffffffffffff167f8be0079c531659141344cd1fd0a4f28419497f9722a3daafe3b4186f6b6457e060405160405180910390a35050565b5f80fd5b5f73ffffffffffffffffffffffffffffffffffffffff82169050919050565b5f6101aa82610181565b9050919050565b6101ba816101a0565b81146101c4575f80fd5b50565b5f815190506101d5816101b1565b92915050565b5f602082840312156101f0576101ef61017d565b5b5f6101fd848285016101c7565b91505092915050565b6121b1806102135f395ff3fe608060405234801561000f575f80fd5b50600436106100a7575f3560e01c80637c9cd2bc1161006f5780637c9cd2bc1461014d578063820785cc146101695780638da5cb5b14610199578063a2afce88146101b7578063ae775e95146101d5578063f2fde38b146101f1576100a7565b8063112f54e3146100ab578063318ea667146100db57806363378216146100f75780636a6cdab814610113578063715018a614610143575b5f80fd5b6100c560048036038101906100c0919061139a565b61020d565b6040516100d291906114fb565b60405180910390f35b6100f560048036038101906100f09190611554565b6103ac565b005b610111600480360381019061010c919061139a565b6103d7565b005b61012d6004803603810190610128919061157f565b6106e9565b60405161013a91906116d8565b60405180910390f35b61014b6108ab565b005b61016760048036038101906101629190611824565b6108be565b005b610183600480360381019061017e919061157f565b610c13565b604051610190919061187a565b60405180910390f35b6101a1610d12565b6040516101ae91906118a2565b60405180910390f35b6101bf610d39565b6040516101cc91906118ca565b60405180910390f35b6101ef60048036038101906101ea919061139a565b610d51565b005b61020b6004803603810190610206919061157f565b6110e9565b005b6102156112b1565b60035f8473ffffffffffffffffffffffffffffffffffffffff1673ffffffffffffffffffffffffffffffffffffffff1681526020019081526020015f208281548110610264576102636118e3565b5b905f5260205f2090600502016040518060a00160405290815f8201548152602001600182015f9054906101000a900473ffffffffffffffffffffffffffffffffffffffff1673ffffffffffffffffffffffffffffffffffffffff1673ffffffffffffffffffffffffffffffffffffffff1681526020016002820180546102e99061193d565b80601f01602080910402602001604051908101604052809291908181526020018280546103159061193d565b80156103605780601f1061033757610100808354040283529160200191610360565b820191905f5260205f20905b81548152906001019060200180831161034357829003601f168201915b5050505050815260200160038201548152602001600482015f9054906101000a900467ffffffffffffffff1667ffffffffffffffff1667ffffffffffffffff1681525050905092915050565b6103b461116b565b8060045f6101000a81548163ffffffff021916908363ffffffff16021790555050565b5f60025f9054906101000a900473ffffffffffffffffffffffffffffffffffffffff1673ffffffffffffffffffffffffffffffffffffffff16630f53a470336040518263ffffffff1660e01b815260040161043291906118a2565b5f60405180830381865afa15801561044c573d5f803e3d5ffd5b505050506040513d5f823e3d601f19601f820116820180604052508101906104749190611a68565b90505f815f015151116104bc576040517f08c379a00000000000000000000000000000000000000000000000000000000081526004016104b390611b09565b60405180910390fd5b8160035f8573ffffffffffffffffffffffffffffffffffffffff1673ffffffffffffffffffffffffffffffffffffffff1681526020019081526020015f20838154811061050c5761050b6118e3565b5b905f5260205f2090600502015f01541461055b576040517f08c379a000000000000000000000000000000000000000000000000000000000815260040161055290611b71565b60405180910390fd5b60035f8473ffffffffffffffffffffffffffffffffffffffff1673ffffffffffffffffffffffffffffffffffffffff1681526020019081526020015f2082815481106105aa576105a96118e3565b5b905f5260205f2090600502016004015f81819054906101000a900467ffffffffffffffff16809291906105dc90611bbc565b91906101000a81548167ffffffffffffffff021916908367ffffffffffffffff1602179055505060035f8473ffffffffffffffffffffffffffffffffffffffff1673ffffffffffffffffffffffffffffffffffffffff1681526020019081526020015f208281548110610652576106516118e3565b5b905f5260205f2090600502016004015f9054906101000a900467ffffffffffffffff1667ffffffffffffffff168373ffffffffffffffffffffffffffffffffffffffff163373ffffffffffffffffffffffffffffffffffffffff167f98b9265fbe61ab93c34e3313887637bb4e94bd304723622c0450fcc7572ddf1e426040516106dc9190611bfa565b60405180910390a4505050565b606060035f8373ffffffffffffffffffffffffffffffffffffffff1673ffffffffffffffffffffffffffffffffffffffff1681526020019081526020015f20805480602002602001604051908101604052809291908181526020015f905b828210156108a0578382905f5260205f2090600502016040518060a00160405290815f8201548152602001600182015f9054906101000a900473ffffffffffffffffffffffffffffffffffffffff1673ffffffffffffffffffffffffffffffffffffffff1673ffffffffffffffffffffffffffffffffffffffff1681526020016002820180546107d69061193d565b80601f01602080910402602001604051908101604052809291908181526020018280546108029061193d565b801561084d5780601f106108245761010080835404028352916020019161084d565b820191905f5260205f20905b81548152906001019060200180831161083057829003601f168201915b5050505050815260200160038201548152602001600482015f9054906101000a900467ffffffffffffffff1667ffffffffffffffff1667ffffffffffffffff168152505081526020019060010190610747565b505050509050919050565b6108b361116b565b6108bc5f6111e9565b565b5f60025f9054906101000a900473ffffffffffffffffffffffffffffffffffffffff1673ffffffffffffffffffffffffffffffffffffffff16630f53a470336040518263ffffffff1660e01b815260040161091991906118a2565b5f60405180830381865afa158015610933573d5f803e3d5ffd5b505050506040513d5f823e3d601f19601f8201168201806040525081019061095b9190611a68565b90505f815f015151116109a3576040517f08c379a000000000000000000000000000000000000000000000000000000000815260040161099a90611b09565b60405180910390fd5b60045f9054906101000a900463ffffffff1663ffffffff16825111156109fe576040517f08c379a00000000000000000000000000000000000000000000000000000000081526004016109f590611c83565b60405180910390fd5b5f6040518060a0016040528060035f3373ffffffffffffffffffffffffffffffffffffffff1673ffffffffffffffffffffffffffffffffffffffff1681526020019081526020015f208054905081526020013373ffffffffffffffffffffffffffffffffffffffff1681526020018481526020014281526020015f67ffffffffffffffff16815250905060035f3373ffffffffffffffffffffffffffffffffffffffff1673ffffffffffffffffffffffffffffffffffffffff1681526020019081526020015f2081908060018154018082558091505060019003905f5260205f2090600502015f909190919091505f820151815f01556020820151816001015f6101000a81548173ffffffffffffffffffffffffffffffffffffffff021916908373ffffffffffffffffffffffffffffffffffffffff1602179055506040820151816002019081610b4f9190611e3e565b50606082015181600301556080820151816004015f6101000a81548167ffffffffffffffff021916908367ffffffffffffffff16021790555050508060400151604051610b9c9190611f47565b6040518091039020816020015173ffffffffffffffffffffffffffffffffffffffff16604051610bcb90611fa7565b60405180910390207f24851db9152097137545b14424ac5e35714ad65b716771621cfdc771aa7876de8460600151604051610c069190611bfa565b60405180910390a4505050565b5f805f90505f5b60035f8573ffffffffffffffffffffffffffffffffffffffff1673ffffffffffffffffffffffffffffffffffffffff1681526020019081526020015f20805490508167ffffffffffffffff161015610d085760035f8573ffffffffffffffffffffffffffffffffffffffff1673ffffffffffffffffffffffffffffffffffffffff1681526020019081526020015f208167ffffffffffffffff1681548110610cc557610cc46118e3565b5b905f5260205f2090600502016004015f9054906101000a900467ffffffffffffffff1682610cf39190611fbb565b91508080610d0090611bbc565b915050610c1a565b5080915050919050565b5f805f9054906101000a900473ffffffffffffffffffffffffffffffffffffffff16905090565b5f60045f9054906101000a900463ffffffff16905090565b5f60025f9054906101000a900473ffffffffffffffffffffffffffffffffffffffff1673ffffffffffffffffffffffffffffffffffffffff16630f53a470336040518263ffffffff1660e01b8152600401610dac91906118a2565b5f60405180830381865afa158015610dc6573d5f803e3d5ffd5b505050506040513d5f823e3d601f19601f82011682018060405250810190610dee9190611a68565b90505f815f01515111610e36576040517f08c379a0000000000000000000000000000000000000000000000000000000008152600401610e2d90611b09565b60405180910390fd5b8160035f8573ffffffffffffffffffffffffffffffffffffffff1673ffffffffffffffffffffffffffffffffffffffff1681526020019081526020015f208381548110610e8657610e856118e3565b5b905f5260205f2090600502015f0154148015610f1c57505f60035f8573ffffffffffffffffffffffffffffffffffffffff1673ffffffffffffffffffffffffffffffffffffffff1681526020019081526020015f208381548110610eed57610eec6118e3565b5b905f5260205f2090600502016004015f9054906101000a900467ffffffffffffffff1667ffffffffffffffff16115b610f5b576040517f08c379a0000000000000000000000000000000000000000000000000000000008152600401610f5290612040565b60405180910390fd5b60035f8473ffffffffffffffffffffffffffffffffffffffff1673ffffffffffffffffffffffffffffffffffffffff1681526020019081526020015f208281548110610faa57610fa96118e3565b5b905f5260205f2090600502016004015f81819054906101000a900467ffffffffffffffff1680929190610fdc9061205e565b91906101000a81548167ffffffffffffffff021916908367ffffffffffffffff1602179055505060035f8473ffffffffffffffffffffffffffffffffffffffff1673ffffffffffffffffffffffffffffffffffffffff1681526020019081526020015f208281548110611052576110516118e3565b5b905f5260205f2090600502016004015f9054906101000a900467ffffffffffffffff1667ffffffffffffffff168373ffffffffffffffffffffffffffffffffffffffff163373ffffffffffffffffffffffffffffffffffffffff167fbe0a9aa2bc4a5667d4eb4dd05b204ccc5f3b48133520a5074d875389bc882392426040516110dc9190611bfa565b60405180910390a4505050565b6110f161116b565b5f73ffffffffffffffffffffffffffffffffffffffff168173ffffffffffffffffffffffffffffffffffffffff160361115f576040517f08c379a0000000000000000000000000000000000000000000000000000000008152600401611156906120f5565b60405180910390fd5b611168816111e9565b50565b6111736112aa565b73ffffffffffffffffffffffffffffffffffffffff16611191610d12565b73ffffffffffffffffffffffffffffffffffffffff16146111e7576040517f08c379a00000000000000000000000000000000000000000000000000000000081526004016111de9061215d565b60405180910390fd5b565b5f805f9054906101000a900473ffffffffffffffffffffffffffffffffffffffff169050815f806101000a81548173ffffffffffffffffffffffffffffffffffffffff021916908373ffffffffffffffffffffffffffffffffffffffff1602179055508173ffffffffffffffffffffffffffffffffffffffff168173ffffffffffffffffffffffffffffffffffffffff167f8be0079c531659141344cd1fd0a4f28419497f9722a3daafe3b4186f6b6457e060405160405180910390a35050565b5f33905090565b6040518060a001604052805f81526020015f73ffffffffffffffffffffffffffffffffffffffff168152602001606081526020015f81526020015f67ffffffffffffffff1681525090565b5f604051905090565b5f80fd5b5f80fd5b5f73ffffffffffffffffffffffffffffffffffffffff82169050919050565b5f6113368261130d565b9050919050565b6113468161132c565b8114611350575f80fd5b50565b5f813590506113618161133d565b92915050565b5f819050919050565b61137981611367565b8114611383575f80fd5b50565b5f8135905061139481611370565b92915050565b5f80604083850312156113b0576113af611305565b5b5f6113bd85828601611353565b92505060206113ce85828601611386565b9150509250929050565b6113e181611367565b82525050565b6113f08161132c565b82525050565b5f81519050919050565b5f82825260208201905092915050565b8281835e5f83830152505050565b5f601f19601f8301169050919050565b5f611438826113f6565b6114428185611400565b9350611452818560208601611410565b61145b8161141e565b840191505092915050565b5f67ffffffffffffffff82169050919050565b61148281611466565b82525050565b5f60a083015f83015161149d5f8601826113d8565b5060208301516114b060208601826113e7565b50604083015184820360408601526114c8828261142e565b91505060608301516114dd60608601826113d8565b5060808301516114f06080860182611479565b508091505092915050565b5f6020820190508181035f8301526115138184611488565b905092915050565b5f63ffffffff82169050919050565b6115338161151b565b811461153d575f80fd5b50565b5f8135905061154e8161152a565b92915050565b5f6020828403121561156957611568611305565b5b5f61157684828501611540565b91505092915050565b5f6020828403121561159457611593611305565b5b5f6115a184828501611353565b91505092915050565b5f81519050919050565b5f82825260208201905092915050565b5f819050602082019050919050565b5f60a083015f8301516115e85f8601826113d8565b5060208301516115fb60208601826113e7565b5060408301518482036040860152611613828261142e565b915050606083015161162860608601826113d8565b50608083015161163b6080860182611479565b508091505092915050565b5f61165183836115d3565b905092915050565b5f602082019050919050565b5f61166f826115aa565b61167981856115b4565b93508360208202850161168b856115c4565b805f5b858110156116c657848403895281516116a78582611646565b94506116b283611659565b925060208a0199505060018101905061168e565b50829750879550505050505092915050565b5f6020820190508181035f8301526116f08184611665565b905092915050565b5f80fd5b5f80fd5b7f4e487b71000000000000000000000000000000000000000000000000000000005f52604160045260245ffd5b6117368261141e565b810181811067ffffffffffffffff8211171561175557611754611700565b5b80604052505050565b5f6117676112fc565b9050611773828261172d565b919050565b5f67ffffffffffffffff82111561179257611791611700565b5b61179b8261141e565b9050602081019050919050565b828183375f83830152505050565b5f6117c86117c384611778565b61175e565b9050828152602081018484840111156117e4576117e36116fc565b5b6117ef8482856117a8565b509392505050565b5f82601f83011261180b5761180a6116f8565b5b813561181b8482602086016117b6565b91505092915050565b5f6020828403121561183957611838611305565b5b5f82013567ffffffffffffffff81111561185657611855611309565b5b611862848285016117f7565b91505092915050565b61187481611466565b82525050565b5f60208201905061188d5f83018461186b565b92915050565b61189c8161132c565b82525050565b5f6020820190506118b55f830184611893565b92915050565b6118c48161151b565b82525050565b5f6020820190506118dd5f8301846118bb565b92915050565b7f4e487b71000000000000000000000000000000000000000000000000000000005f52603260045260245ffd5b7f4e487b71000000000000000000000000000000000000000000000000000000005f52602260045260245ffd5b5f600282049050600182168061195457607f821691505b60208210810361196757611966611910565b5b50919050565b5f80fd5b5f80fd5b5f61198761198284611778565b61175e565b9050828152602081018484840111156119a3576119a26116fc565b5b6119ae848285611410565b509392505050565b5f82601f8301126119ca576119c96116f8565b5b81516119da848260208601611975565b91505092915050565b5f604082840312156119f8576119f761196d565b5b611a02604061175e565b90505f82015167ffffffffffffffff811115611a2157611a20611971565b5b611a2d848285016119b6565b5f83015250602082015167ffffffffffffffff811115611a5057611a4f611971565b5b611a5c848285016119b6565b60208301525092915050565b5f60208284031215611a7d57611a7c611305565b5b5f82015167ffffffffffffffff811115611a9a57611a99611309565b5b611aa6848285016119e3565b91505092915050565b5f82825260208201905092915050565b7f55736572206e6f742052656769737465726564000000000000000000000000005f82015250565b5f611af3601383611aaf565b9150611afe82611abf565b602082019050919050565b5f6020820190508181035f830152611b2081611ae7565b9050919050565b7f547765657420646f6573206e6f742065786973740000000000000000000000005f82015250565b5f611b5b601483611aaf565b9150611b6682611b27565b602082019050919050565b5f6020820190508181035f830152611b8881611b4f565b9050919050565b7f4e487b71000000000000000000000000000000000000000000000000000000005f52601160045260245ffd5b5f611bc682611466565b915067ffffffffffffffff8203611be057611bdf611b8f565b5b600182019050919050565b611bf481611367565b82525050565b5f602082019050611c0d5f830184611beb565b92915050565b7f596f75207573656420746865206d6178696d756d206e756d626572206f6620635f8201527f68617261637465727320706f737369626c650000000000000000000000000000602082015250565b5f611c6d603283611aaf565b9150611c7882611c13565b604082019050919050565b5f6020820190508181035f830152611c9a81611c61565b9050919050565b5f819050815f5260205f209050919050565b5f6020601f8301049050919050565b5f82821b905092915050565b5f60088302611cfd7fffffffffffffffffffffffffffffffffffffffffffffffffffffffffffffffff82611cc2565b611d078683611cc2565b95508019841693508086168417925050509392505050565b5f819050919050565b5f611d42611d3d611d3884611367565b611d1f565b611367565b9050919050565b5f819050919050565b611d5b83611d28565b611d6f611d6782611d49565b848454611cce565b825550505050565b5f90565b611d83611d77565b611d8e818484611d52565b505050565b5b81811015611db157611da65f82611d7b565b600181019050611d94565b5050565b601f821115611df657611dc781611ca1565b611dd084611cb3565b81016020851015611ddf578190505b611df3611deb85611cb3565b830182611d93565b50505b505050565b5f82821c905092915050565b5f611e165f1984600802611dfb565b1980831691505092915050565b5f611e2e8383611e07565b9150826002028217905092915050565b611e47826113f6565b67ffffffffffffffff811115611e6057611e5f611700565b5b611e6a825461193d565b611e75828285611db5565b5f60209050601f831160018114611ea6575f8415611e94578287015190505b611e9e8582611e23565b865550611f05565b601f198416611eb486611ca1565b5f5b82811015611edb57848901518255600182019150602085019450602081019050611eb6565b86831015611ef85784890151611ef4601f891682611e07565b8355505b6001600288020188555050505b505050505050565b5f81905092915050565b5f611f21826113f6565b611f2b8185611f0d565b9350611f3b818560208601611410565b80840191505092915050565b5f611f528284611f17565b915081905092915050565b7f4e65772054776565742062793a200000000000000000000000000000000000005f82015250565b5f611f91600e83611f0d565b9150611f9c82611f5d565b600e82019050919050565b5f611fb182611f85565b9150819050919050565b5f611fc582611466565b9150611fd083611466565b9250828201905067ffffffffffffffff811115611ff057611fef611b8f565b5b92915050565b7f4e6f7420706f737369626c6500000000000000000000000000000000000000005f82015250565b5f61202a600c83611aaf565b915061203582611ff6565b602082019050919050565b5f6020820190508181035f8301526120578161201e565b9050919050565b5f61206882611466565b91505f820361207a57612079611b8f565b5b600182039050919050565b7f4f776e61626c653a206e6577206f776e657220697320746865207a65726f20615f8201527f6464726573730000000000000000000000000000000000000000000000000000602082015250565b5f6120df602683611aaf565b91506120ea82612085565b604082019050919050565b5f6020820190508181035f83015261210c816120d3565b9050919050565b7f4f776e61626c653a2063616c6c6572206973206e6f7420746865206f776e65725f82015250565b5f612147602083611aaf565b915061215282612113565b602082019050919050565b5f6020820190508181035f8301526121748161213b565b905091905056fea2646970667358221220f146792248ea1d3110ce1972f8f49d261774309c5c0e7feb029631fb06ff90eb64736f6c634300081a0033",
					"opcodes": "PUSH1 0x80 PUSH1 0x40 MSTORE PUSH2 0x118 PUSH1 0x4 PUSH0 PUSH2 0x100 EXP DUP2 SLOAD DUP2 PUSH4 0xFFFFFFFF MUL NOT AND SWAP1 DUP4 PUSH4 0xFFFFFFFF AND MUL OR SWAP1 SSTORE POP CALLVALUE DUP1 ISZERO PUSH2 0x31 JUMPI PUSH0 DUP1 REVERT JUMPDEST POP PUSH1 0x40 MLOAD PUSH2 0x23C4 CODESIZE SUB DUP1 PUSH2 0x23C4 DUP4 CODECOPY DUP2 DUP2 ADD PUSH1 0x40 MSTORE DUP2 ADD SWAP1 PUSH2 0x53 SWAP2 SWAP1 PUSH2 0x1DB JUMP JUMPDEST PUSH2 0x6F PUSH2 0x64 PUSH2 0xB5 PUSH1 0x20 SHL PUSH1 0x20 SHR JUMP JUMPDEST PUSH2 0xBC PUSH1 0x20 SHL PUSH1 0x20 SHR JUMP JUMPDEST DUP1 PUSH1 0x2 PUSH0 PUSH2 0x100 EXP DUP2 SLOAD DUP2 PUSH20 0xFFFFFFFFFFFFFFFFFFFFFFFFFFFFFFFFFFFFFFFF MUL NOT AND SWAP1 DUP4 PUSH20 0xFFFFFFFFFFFFFFFFFFFFFFFFFFFFFFFFFFFFFFFF AND MUL OR SWAP1 SSTORE POP POP PUSH2 0x206 JUMP JUMPDEST PUSH0 CALLER SWAP1 POP SWAP1 JUMP JUMPDEST PUSH0 DUP1 PUSH0 SWAP1 SLOAD SWAP1 PUSH2 0x100 EXP SWAP1 DIV PUSH20 0xFFFFFFFFFFFFFFFFFFFFFFFFFFFFFFFFFFFFFFFF AND SWAP1 POP DUP2 PUSH0 DUP1 PUSH2 0x100 EXP DUP2 SLOAD DUP2 PUSH20 0xFFFFFFFFFFFFFFFFFFFFFFFFFFFFFFFFFFFFFFFF MUL NOT AND SWAP1 DUP4 PUSH20 0xFFFFFFFFFFFFFFFFFFFFFFFFFFFFFFFFFFFFFFFF AND MUL OR SWAP1 SSTORE POP DUP2 PUSH20 0xFFFFFFFFFFFFFFFFFFFFFFFFFFFFFFFFFFFFFFFF AND DUP2 PUSH20 0xFFFFFFFFFFFFFFFFFFFFFFFFFFFFFFFFFFFFFFFF AND PUSH32 0x8BE0079C531659141344CD1FD0A4F28419497F9722A3DAAFE3B4186F6B6457E0 PUSH1 0x40 MLOAD PUSH1 0x40 MLOAD DUP1 SWAP2 SUB SWAP1 LOG3 POP POP JUMP JUMPDEST PUSH0 DUP1 REVERT JUMPDEST PUSH0 PUSH20 0xFFFFFFFFFFFFFFFFFFFFFFFFFFFFFFFFFFFFFFFF DUP3 AND SWAP1 POP SWAP2 SWAP1 POP JUMP JUMPDEST PUSH0 PUSH2 0x1AA DUP3 PUSH2 0x181 JUMP JUMPDEST SWAP1 POP SWAP2 SWAP1 POP JUMP JUMPDEST PUSH2 0x1BA DUP2 PUSH2 0x1A0 JUMP JUMPDEST DUP2 EQ PUSH2 0x1C4 JUMPI PUSH0 DUP1 REVERT JUMPDEST POP JUMP JUMPDEST PUSH0 DUP2 MLOAD SWAP1 POP PUSH2 0x1D5 DUP2 PUSH2 0x1B1 JUMP JUMPDEST SWAP3 SWAP2 POP POP JUMP JUMPDEST PUSH0 PUSH1 0x20 DUP3 DUP5 SUB SLT ISZERO PUSH2 0x1F0 JUMPI PUSH2 0x1EF PUSH2 0x17D JUMP JUMPDEST JUMPDEST PUSH0 PUSH2 0x1FD DUP5 DUP3 DUP6 ADD PUSH2 0x1C7 JUMP JUMPDEST SWAP2 POP POP SWAP3 SWAP2 POP POP JUMP JUMPDEST PUSH2 0x21B1 DUP1 PUSH2 0x213 PUSH0 CODECOPY PUSH0 RETURN INVALID PUSH1 0x80 PUSH1 0x40 MSTORE CALLVALUE DUP1 ISZERO PUSH2 0xF JUMPI PUSH0 DUP1 REVERT JUMPDEST POP PUSH1 0x4 CALLDATASIZE LT PUSH2 0xA7 JUMPI PUSH0 CALLDATALOAD PUSH1 0xE0 SHR DUP1 PUSH4 0x7C9CD2BC GT PUSH2 0x6F JUMPI DUP1 PUSH4 0x7C9CD2BC EQ PUSH2 0x14D JUMPI DUP1 PUSH4 0x820785CC EQ PUSH2 0x169 JUMPI DUP1 PUSH4 0x8DA5CB5B EQ PUSH2 0x199 JUMPI DUP1 PUSH4 0xA2AFCE88 EQ PUSH2 0x1B7 JUMPI DUP1 PUSH4 0xAE775E95 EQ PUSH2 0x1D5 JUMPI DUP1 PUSH4 0xF2FDE38B EQ PUSH2 0x1F1 JUMPI PUSH2 0xA7 JUMP JUMPDEST DUP1 PUSH4 0x112F54E3 EQ PUSH2 0xAB JUMPI DUP1 PUSH4 0x318EA667 EQ PUSH2 0xDB JUMPI DUP1 PUSH4 0x63378216 EQ PUSH2 0xF7 JUMPI DUP1 PUSH4 0x6A6CDAB8 EQ PUSH2 0x113 JUMPI DUP1 PUSH4 0x715018A6 EQ PUSH2 0x143 JUMPI JUMPDEST PUSH0 DUP1 REVERT JUMPDEST PUSH2 0xC5 PUSH1 0x4 DUP1 CALLDATASIZE SUB DUP2 ADD SWAP1 PUSH2 0xC0 SWAP2 SWAP1 PUSH2 0x139A JUMP JUMPDEST PUSH2 0x20D JUMP JUMPDEST PUSH1 0x40 MLOAD PUSH2 0xD2 SWAP2 SWAP1 PUSH2 0x14FB JUMP JUMPDEST PUSH1 0x40 MLOAD DUP1 SWAP2 SUB SWAP1 RETURN JUMPDEST PUSH2 0xF5 PUSH1 0x4 DUP1 CALLDATASIZE SUB DUP2 ADD SWAP1 PUSH2 0xF0 SWAP2 SWAP1 PUSH2 0x1554 JUMP JUMPDEST PUSH2 0x3AC JUMP JUMPDEST STOP JUMPDEST PUSH2 0x111 PUSH1 0x4 DUP1 CALLDATASIZE SUB DUP2 ADD SWAP1 PUSH2 0x10C SWAP2 SWAP1 PUSH2 0x139A JUMP JUMPDEST PUSH2 0x3D7 JUMP JUMPDEST STOP JUMPDEST PUSH2 0x12D PUSH1 0x4 DUP1 CALLDATASIZE SUB DUP2 ADD SWAP1 PUSH2 0x128 SWAP2 SWAP1 PUSH2 0x157F JUMP JUMPDEST PUSH2 0x6E9 JUMP JUMPDEST PUSH1 0x40 MLOAD PUSH2 0x13A SWAP2 SWAP1 PUSH2 0x16D8 JUMP JUMPDEST PUSH1 0x40 MLOAD DUP1 SWAP2 SUB SWAP1 RETURN JUMPDEST PUSH2 0x14B PUSH2 0x8AB JUMP JUMPDEST STOP JUMPDEST PUSH2 0x167 PUSH1 0x4 DUP1 CALLDATASIZE SUB DUP2 ADD SWAP1 PUSH2 0x162 SWAP2 SWAP1 PUSH2 0x1824 JUMP JUMPDEST PUSH2 0x8BE JUMP JUMPDEST STOP JUMPDEST PUSH2 0x183 PUSH1 0x4 DUP1 CALLDATASIZE SUB DUP2 ADD SWAP1 PUSH2 0x17E SWAP2 SWAP1 PUSH2 0x157F JUMP JUMPDEST PUSH2 0xC13 JUMP JUMPDEST PUSH1 0x40 MLOAD PUSH2 0x190 SWAP2 SWAP1 PUSH2 0x187A JUMP JUMPDEST PUSH1 0x40 MLOAD DUP1 SWAP2 SUB SWAP1 RETURN JUMPDEST PUSH2 0x1A1 PUSH2 0xD12 JUMP JUMPDEST PUSH1 0x40 MLOAD PUSH2 0x1AE SWAP2 SWAP1 PUSH2 0x18A2 JUMP JUMPDEST PUSH1 0x40 MLOAD DUP1 SWAP2 SUB SWAP1 RETURN JUMPDEST PUSH2 0x1BF PUSH2 0xD39 JUMP JUMPDEST PUSH1 0x40 MLOAD PUSH2 0x1CC SWAP2 SWAP1 PUSH2 0x18CA JUMP JUMPDEST PUSH1 0x40 MLOAD DUP1 SWAP2 SUB SWAP1 RETURN JUMPDEST PUSH2 0x1EF PUSH1 0x4 DUP1 CALLDATASIZE SUB DUP2 ADD SWAP1 PUSH2 0x1EA SWAP2 SWAP1 PUSH2 0x139A JUMP JUMPDEST PUSH2 0xD51 JUMP JUMPDEST STOP JUMPDEST PUSH2 0x20B PUSH1 0x4 DUP1 CALLDATASIZE SUB DUP2 ADD SWAP1 PUSH2 0x206 SWAP2 SWAP1 PUSH2 0x157F JUMP JUMPDEST PUSH2 0x10E9 JUMP JUMPDEST STOP JUMPDEST PUSH2 0x215 PUSH2 0x12B1 JUMP JUMPDEST PUSH1 0x3 PUSH0 DUP5 PUSH20 0xFFFFFFFFFFFFFFFFFFFFFFFFFFFFFFFFFFFFFFFF AND PUSH20 0xFFFFFFFFFFFFFFFFFFFFFFFFFFFFFFFFFFFFFFFF AND DUP2 MSTORE PUSH1 0x20 ADD SWAP1 DUP2 MSTORE PUSH1 0x20 ADD PUSH0 KECCAK256 DUP3 DUP2 SLOAD DUP2 LT PUSH2 0x264 JUMPI PUSH2 0x263 PUSH2 0x18E3 JUMP JUMPDEST JUMPDEST SWAP1 PUSH0 MSTORE PUSH1 0x20 PUSH0 KECCAK256 SWAP1 PUSH1 0x5 MUL ADD PUSH1 0x40 MLOAD DUP1 PUSH1 0xA0 ADD PUSH1 0x40 MSTORE SWAP1 DUP2 PUSH0 DUP3 ADD SLOAD DUP2 MSTORE PUSH1 0x20 ADD PUSH1 0x1 DUP3 ADD PUSH0 SWAP1 SLOAD SWAP1 PUSH2 0x100 EXP SWAP1 DIV PUSH20 0xFFFFFFFFFFFFFFFFFFFFFFFFFFFFFFFFFFFFFFFF AND PUSH20 0xFFFFFFFFFFFFFFFFFFFFFFFFFFFFFFFFFFFFFFFF AND PUSH20 0xFFFFFFFFFFFFFFFFFFFFFFFFFFFFFFFFFFFFFFFF AND DUP2 MSTORE PUSH1 0x20 ADD PUSH1 0x2 DUP3 ADD DUP1 SLOAD PUSH2 0x2E9 SWAP1 PUSH2 0x193D JUMP JUMPDEST DUP1 PUSH1 0x1F ADD PUSH1 0x20 DUP1 SWAP2 DIV MUL PUSH1 0x20 ADD PUSH1 0x40 MLOAD SWAP1 DUP2 ADD PUSH1 0x40 MSTORE DUP1 SWAP3 SWAP2 SWAP1 DUP2 DUP2 MSTORE PUSH1 0x20 ADD DUP3 DUP1 SLOAD PUSH2 0x315 SWAP1 PUSH2 0x193D JUMP JUMPDEST DUP1 ISZERO PUSH2 0x360 JUMPI DUP1 PUSH1 0x1F LT PUSH2 0x337 JUMPI PUSH2 0x100 DUP1 DUP4 SLOAD DIV MUL DUP4 MSTORE SWAP2 PUSH1 0x20 ADD SWAP2 PUSH2 0x360 JUMP JUMPDEST DUP3 ADD SWAP2 SWAP1 PUSH0 MSTORE PUSH1 0x20 PUSH0 KECCAK256 SWAP1 JUMPDEST DUP2 SLOAD DUP2 MSTORE SWAP1 PUSH1 0x1 ADD SWAP1 PUSH1 0x20 ADD DUP1 DUP4 GT PUSH2 0x343 JUMPI DUP3 SWAP1 SUB PUSH1 0x1F AND DUP3 ADD SWAP2 JUMPDEST POP POP POP POP POP DUP2 MSTORE PUSH1 0x20 ADD PUSH1 0x3 DUP3 ADD SLOAD DUP2 MSTORE PUSH1 0x20 ADD PUSH1 0x4 DUP3 ADD PUSH0 SWAP1 SLOAD SWAP1 PUSH2 0x100 EXP SWAP1 DIV PUSH8 0xFFFFFFFFFFFFFFFF AND PUSH8 0xFFFFFFFFFFFFFFFF AND PUSH8 0xFFFFFFFFFFFFFFFF AND DUP2 MSTORE POP POP SWAP1 POP SWAP3 SWAP2 POP POP JUMP JUMPDEST PUSH2 0x3B4 PUSH2 0x116B JUMP JUMPDEST DUP1 PUSH1 0x4 PUSH0 PUSH2 0x100 EXP DUP2 SLOAD DUP2 PUSH4 0xFFFFFFFF MUL NOT AND SWAP1 DUP4 PUSH4 0xFFFFFFFF AND MUL OR SWAP1 SSTORE POP POP JUMP JUMPDEST PUSH0 PUSH1 0x2 PUSH0 SWAP1 SLOAD SWAP1 PUSH2 0x100 EXP SWAP1 DIV PUSH20 0xFFFFFFFFFFFFFFFFFFFFFFFFFFFFFFFFFFFFFFFF AND PUSH20 0xFFFFFFFFFFFFFFFFFFFFFFFFFFFFFFFFFFFFFFFF AND PUSH4 0xF53A470 CALLER PUSH1 0x40 MLOAD DUP3 PUSH4 0xFFFFFFFF AND PUSH1 0xE0 SHL DUP2 MSTORE PUSH1 0x4 ADD PUSH2 0x432 SWAP2 SWAP1 PUSH2 0x18A2 JUMP JUMPDEST PUSH0 PUSH1 0x40 MLOAD DUP1 DUP4 SUB DUP2 DUP7 GAS STATICCALL ISZERO DUP1 ISZERO PUSH2 0x44C JUMPI RETURNDATASIZE PUSH0 DUP1 RETURNDATACOPY RETURNDATASIZE PUSH0 REVERT JUMPDEST POP POP POP POP PUSH1 0x40 MLOAD RETURNDATASIZE PUSH0 DUP3 RETURNDATACOPY RETURNDATASIZE PUSH1 0x1F NOT PUSH1 0x1F DUP3 ADD AND DUP3 ADD DUP1 PUSH1 0x40 MSTORE POP DUP2 ADD SWAP1 PUSH2 0x474 SWAP2 SWAP1 PUSH2 0x1A68 JUMP JUMPDEST SWAP1 POP PUSH0 DUP2 PUSH0 ADD MLOAD MLOAD GT PUSH2 0x4BC JUMPI PUSH1 0x40 MLOAD PUSH32 0x8C379A000000000000000000000000000000000000000000000000000000000 DUP2 MSTORE PUSH1 0x4 ADD PUSH2 0x4B3 SWAP1 PUSH2 0x1B09 JUMP JUMPDEST PUSH1 0x40 MLOAD DUP1 SWAP2 SUB SWAP1 REVERT JUMPDEST DUP2 PUSH1 0x3 PUSH0 DUP6 PUSH20 0xFFFFFFFFFFFFFFFFFFFFFFFFFFFFFFFFFFFFFFFF AND PUSH20 0xFFFFFFFFFFFFFFFFFFFFFFFFFFFFFFFFFFFFFFFF AND DUP2 MSTORE PUSH1 0x20 ADD SWAP1 DUP2 MSTORE PUSH1 0x20 ADD PUSH0 KECCAK256 DUP4 DUP2 SLOAD DUP2 LT PUSH2 0x50C JUMPI PUSH2 0x50B PUSH2 0x18E3 JUMP JUMPDEST JUMPDEST SWAP1 PUSH0 MSTORE PUSH1 0x20 PUSH0 KECCAK256 SWAP1 PUSH1 0x5 MUL ADD PUSH0 ADD SLOAD EQ PUSH2 0x55B JUMPI PUSH1 0x40 MLOAD PUSH32 0x8C379A000000000000000000000000000000000000000000000000000000000 DUP2 MSTORE PUSH1 0x4 ADD PUSH2 0x552 SWAP1 PUSH2 0x1B71 JUMP JUMPDEST PUSH1 0x40 MLOAD DUP1 SWAP2 SUB SWAP1 REVERT JUMPDEST PUSH1 0x3 PUSH0 DUP5 PUSH20 0xFFFFFFFFFFFFFFFFFFFFFFFFFFFFFFFFFFFFFFFF AND PUSH20 0xFFFFFFFFFFFFFFFFFFFFFFFFFFFFFFFFFFFFFFFF AND DUP2 MSTORE PUSH1 0x20 ADD SWAP1 DUP2 MSTORE PUSH1 0x20 ADD PUSH0 KECCAK256 DUP3 DUP2 SLOAD DUP2 LT PUSH2 0x5AA JUMPI PUSH2 0x5A9 PUSH2 0x18E3 JUMP JUMPDEST JUMPDEST SWAP1 PUSH0 MSTORE PUSH1 0x20 PUSH0 KECCAK256 SWAP1 PUSH1 0x5 MUL ADD PUSH1 0x4 ADD PUSH0 DUP2 DUP2 SWAP1 SLOAD SWAP1 PUSH2 0x100 EXP SWAP1 DIV PUSH8 0xFFFFFFFFFFFFFFFF AND DUP1 SWAP3 SWAP2 SWAP1 PUSH2 0x5DC SWAP1 PUSH2 0x1BBC JUMP JUMPDEST SWAP2 SWAP1 PUSH2 0x100 EXP DUP2 SLOAD DUP2 PUSH8 0xFFFFFFFFFFFFFFFF MUL NOT AND SWAP1 DUP4 PUSH8 0xFFFFFFFFFFFFFFFF AND MUL OR SWAP1 SSTORE POP POP PUSH1 0x3 PUSH0 DUP5 PUSH20 0xFFFFFFFFFFFFFFFFFFFFFFFFFFFFFFFFFFFFFFFF AND PUSH20 0xFFFFFFFFFFFFFFFFFFFFFFFFFFFFFFFFFFFFFFFF AND DUP2 MSTORE PUSH1 0x20 ADD SWAP1 DUP2 MSTORE PUSH1 0x20 ADD PUSH0 KECCAK256 DUP3 DUP2 SLOAD DUP2 LT PUSH2 0x652 JUMPI PUSH2 0x651 PUSH2 0x18E3 JUMP JUMPDEST JUMPDEST SWAP1 PUSH0 MSTORE PUSH1 0x20 PUSH0 KECCAK256 SWAP1 PUSH1 0x5 MUL ADD PUSH1 0x4 ADD PUSH0 SWAP1 SLOAD SWAP1 PUSH2 0x100 EXP SWAP1 DIV PUSH8 0xFFFFFFFFFFFFFFFF AND PUSH8 0xFFFFFFFFFFFFFFFF AND DUP4 PUSH20 0xFFFFFFFFFFFFFFFFFFFFFFFFFFFFFFFFFFFFFFFF AND CALLER PUSH20 0xFFFFFFFFFFFFFFFFFFFFFFFFFFFFFFFFFFFFFFFF AND PUSH32 0x98B9265FBE61AB93C34E3313887637BB4E94BD304723622C0450FCC7572DDF1E TIMESTAMP PUSH1 0x40 MLOAD PUSH2 0x6DC SWAP2 SWAP1 PUSH2 0x1BFA JUMP JUMPDEST PUSH1 0x40 MLOAD DUP1 SWAP2 SUB SWAP1 LOG4 POP POP POP JUMP JUMPDEST PUSH1 0x60 PUSH1 0x3 PUSH0 DUP4 PUSH20 0xFFFFFFFFFFFFFFFFFFFFFFFFFFFFFFFFFFFFFFFF AND PUSH20 0xFFFFFFFFFFFFFFFFFFFFFFFFFFFFFFFFFFFFFFFF AND DUP2 MSTORE PUSH1 0x20 ADD SWAP1 DUP2 MSTORE PUSH1 0x20 ADD PUSH0 KECCAK256 DUP1 SLOAD DUP1 PUSH1 0x20 MUL PUSH1 0x20 ADD PUSH1 0x40 MLOAD SWAP1 DUP2 ADD PUSH1 0x40 MSTORE DUP1 SWAP3 SWAP2 SWAP1 DUP2 DUP2 MSTORE PUSH1 0x20 ADD PUSH0 SWAP1 JUMPDEST DUP3 DUP3 LT ISZERO PUSH2 0x8A0 JUMPI DUP4 DUP3 SWAP1 PUSH0 MSTORE PUSH1 0x20 PUSH0 KECCAK256 SWAP1 PUSH1 0x5 MUL ADD PUSH1 0x40 MLOAD DUP1 PUSH1 0xA0 ADD PUSH1 0x40 MSTORE SWAP1 DUP2 PUSH0 DUP3 ADD SLOAD DUP2 MSTORE PUSH1 0x20 ADD PUSH1 0x1 DUP3 ADD PUSH0 SWAP1 SLOAD SWAP1 PUSH2 0x100 EXP SWAP1 DIV PUSH20 0xFFFFFFFFFFFFFFFFFFFFFFFFFFFFFFFFFFFFFFFF AND PUSH20 0xFFFFFFFFFFFFFFFFFFFFFFFFFFFFFFFFFFFFFFFF AND PUSH20 0xFFFFFFFFFFFFFFFFFFFFFFFFFFFFFFFFFFFFFFFF AND DUP2 MSTORE PUSH1 0x20 ADD PUSH1 0x2 DUP3 ADD DUP1 SLOAD PUSH2 0x7D6 SWAP1 PUSH2 0x193D JUMP JUMPDEST DUP1 PUSH1 0x1F ADD PUSH1 0x20 DUP1 SWAP2 DIV MUL PUSH1 0x20 ADD PUSH1 0x40 MLOAD SWAP1 DUP2 ADD PUSH1 0x40 MSTORE DUP1 SWAP3 SWAP2 SWAP1 DUP2 DUP2 MSTORE PUSH1 0x20 ADD DUP3 DUP1 SLOAD PUSH2 0x802 SWAP1 PUSH2 0x193D JUMP JUMPDEST DUP1 ISZERO PUSH2 0x84D JUMPI DUP1 PUSH1 0x1F LT PUSH2 0x824 JUMPI PUSH2 0x100 DUP1 DUP4 SLOAD DIV MUL DUP4 MSTORE SWAP2 PUSH1 0x20 ADD SWAP2 PUSH2 0x84D JUMP JUMPDEST DUP3 ADD SWAP2 SWAP1 PUSH0 MSTORE PUSH1 0x20 PUSH0 KECCAK256 SWAP1 JUMPDEST DUP2 SLOAD DUP2 MSTORE SWAP1 PUSH1 0x1 ADD SWAP1 PUSH1 0x20 ADD DUP1 DUP4 GT PUSH2 0x830 JUMPI DUP3 SWAP1 SUB PUSH1 0x1F AND DUP3 ADD SWAP2 JUMPDEST POP POP POP POP POP DUP2 MSTORE PUSH1 0x20 ADD PUSH1 0x3 DUP3 ADD SLOAD DUP2 MSTORE PUSH1 0x20 ADD PUSH1 0x4 DUP3 ADD PUSH0 SWAP1 SLOAD SWAP1 PUSH2 0x100 EXP SWAP1 DIV PUSH8 0xFFFFFFFFFFFFFFFF AND PUSH8 0xFFFFFFFFFFFFFFFF AND PUSH8 0xFFFFFFFFFFFFFFFF AND DUP2 MSTORE POP POP DUP2 MSTORE PUSH1 0x20 ADD SWAP1 PUSH1 0x1 ADD SWAP1 PUSH2 0x747 JUMP JUMPDEST POP POP POP POP SWAP1 POP SWAP2 SWAP1 POP JUMP JUMPDEST PUSH2 0x8B3 PUSH2 0x116B JUMP JUMPDEST PUSH2 0x8BC PUSH0 PUSH2 0x11E9 JUMP JUMPDEST JUMP JUMPDEST PUSH0 PUSH1 0x2 PUSH0 SWAP1 SLOAD SWAP1 PUSH2 0x100 EXP SWAP1 DIV PUSH20 0xFFFFFFFFFFFFFFFFFFFFFFFFFFFFFFFFFFFFFFFF AND PUSH20 0xFFFFFFFFFFFFFFFFFFFFFFFFFFFFFFFFFFFFFFFF AND PUSH4 0xF53A470 CALLER PUSH1 0x40 MLOAD DUP3 PUSH4 0xFFFFFFFF AND PUSH1 0xE0 SHL DUP2 MSTORE PUSH1 0x4 ADD PUSH2 0x919 SWAP2 SWAP1 PUSH2 0x18A2 JUMP JUMPDEST PUSH0 PUSH1 0x40 MLOAD DUP1 DUP4 SUB DUP2 DUP7 GAS STATICCALL ISZERO DUP1 ISZERO PUSH2 0x933 JUMPI RETURNDATASIZE PUSH0 DUP1 RETURNDATACOPY RETURNDATASIZE PUSH0 REVERT JUMPDEST POP POP POP POP PUSH1 0x40 MLOAD RETURNDATASIZE PUSH0 DUP3 RETURNDATACOPY RETURNDATASIZE PUSH1 0x1F NOT PUSH1 0x1F DUP3 ADD AND DUP3 ADD DUP1 PUSH1 0x40 MSTORE POP DUP2 ADD SWAP1 PUSH2 0x95B SWAP2 SWAP1 PUSH2 0x1A68 JUMP JUMPDEST SWAP1 POP PUSH0 DUP2 PUSH0 ADD MLOAD MLOAD GT PUSH2 0x9A3 JUMPI PUSH1 0x40 MLOAD PUSH32 0x8C379A000000000000000000000000000000000000000000000000000000000 DUP2 MSTORE PUSH1 0x4 ADD PUSH2 0x99A SWAP1 PUSH2 0x1B09 JUMP JUMPDEST PUSH1 0x40 MLOAD DUP1 SWAP2 SUB SWAP1 REVERT JUMPDEST PUSH1 0x4 PUSH0 SWAP1 SLOAD SWAP1 PUSH2 0x100 EXP SWAP1 DIV PUSH4 0xFFFFFFFF AND PUSH4 0xFFFFFFFF AND DUP3 MLOAD GT ISZERO PUSH2 0x9FE JUMPI PUSH1 0x40 MLOAD PUSH32 0x8C379A000000000000000000000000000000000000000000000000000000000 DUP2 MSTORE PUSH1 0x4 ADD PUSH2 0x9F5 SWAP1 PUSH2 0x1C83 JUMP JUMPDEST PUSH1 0x40 MLOAD DUP1 SWAP2 SUB SWAP1 REVERT JUMPDEST PUSH0 PUSH1 0x40 MLOAD DUP1 PUSH1 0xA0 ADD PUSH1 0x40 MSTORE DUP1 PUSH1 0x3 PUSH0 CALLER PUSH20 0xFFFFFFFFFFFFFFFFFFFFFFFFFFFFFFFFFFFFFFFF AND PUSH20 0xFFFFFFFFFFFFFFFFFFFFFFFFFFFFFFFFFFFFFFFF AND DUP2 MSTORE PUSH1 0x20 ADD SWAP1 DUP2 MSTORE PUSH1 0x20 ADD PUSH0 KECCAK256 DUP1 SLOAD SWAP1 POP DUP2 MSTORE PUSH1 0x20 ADD CALLER PUSH20 0xFFFFFFFFFFFFFFFFFFFFFFFFFFFFFFFFFFFFFFFF AND DUP2 MSTORE PUSH1 0x20 ADD DUP5 DUP2 MSTORE PUSH1 0x20 ADD TIMESTAMP DUP2 MSTORE PUSH1 0x20 ADD PUSH0 PUSH8 0xFFFFFFFFFFFFFFFF AND DUP2 MSTORE POP SWAP1 POP PUSH1 0x3 PUSH0 CALLER PUSH20 0xFFFFFFFFFFFFFFFFFFFFFFFFFFFFFFFFFFFFFFFF AND PUSH20 0xFFFFFFFFFFFFFFFFFFFFFFFFFFFFFFFFFFFFFFFF AND DUP2 MSTORE PUSH1 0x20 ADD SWAP1 DUP2 MSTORE PUSH1 0x20 ADD PUSH0 KECCAK256 DUP2 SWAP1 DUP1 PUSH1 0x1 DUP2 SLOAD ADD DUP1 DUP3 SSTORE DUP1 SWAP2 POP POP PUSH1 0x1 SWAP1 SUB SWAP1 PUSH0 MSTORE PUSH1 0x20 PUSH0 KECCAK256 SWAP1 PUSH1 0x5 MUL ADD PUSH0 SWAP1 SWAP2 SWAP1 SWAP2 SWAP1 SWAP2 POP PUSH0 DUP3 ADD MLOAD DUP2 PUSH0 ADD SSTORE PUSH1 0x20 DUP3 ADD MLOAD DUP2 PUSH1 0x1 ADD PUSH0 PUSH2 0x100 EXP DUP2 SLOAD DUP2 PUSH20 0xFFFFFFFFFFFFFFFFFFFFFFFFFFFFFFFFFFFFFFFF MUL NOT AND SWAP1 DUP4 PUSH20 0xFFFFFFFFFFFFFFFFFFFFFFFFFFFFFFFFFFFFFFFF AND MUL OR SWAP1 SSTORE POP PUSH1 0x40 DUP3 ADD MLOAD DUP2 PUSH1 0x2 ADD SWAP1 DUP2 PUSH2 0xB4F SWAP2 SWAP1 PUSH2 0x1E3E JUMP JUMPDEST POP PUSH1 0x60 DUP3 ADD MLOAD DUP2 PUSH1 0x3 ADD SSTORE PUSH1 0x80 DUP3 ADD MLOAD DUP2 PUSH1 0x4 ADD PUSH0 PUSH2 0x100 EXP DUP2 SLOAD DUP2 PUSH8 0xFFFFFFFFFFFFFFFF MUL NOT AND SWAP1 DUP4 PUSH8 0xFFFFFFFFFFFFFFFF AND MUL OR SWAP1 SSTORE POP POP POP DUP1 PUSH1 0x40 ADD MLOAD PUSH1 0x40 MLOAD PUSH2 0xB9C SWAP2 SWAP1 PUSH2 0x1F47 JUMP JUMPDEST PUSH1 0x40 MLOAD DUP1 SWAP2 SUB SWAP1 KECCAK256 DUP2 PUSH1 0x20 ADD MLOAD PUSH20 0xFFFFFFFFFFFFFFFFFFFFFFFFFFFFFFFFFFFFFFFF AND PUSH1 0x40 MLOAD PUSH2 0xBCB SWAP1 PUSH2 0x1FA7 JUMP JUMPDEST PUSH1 0x40 MLOAD DUP1 SWAP2 SUB SWAP1 KECCAK256 PUSH32 0x24851DB9152097137545B14424AC5E35714AD65B716771621CFDC771AA7876DE DUP5 PUSH1 0x60 ADD MLOAD PUSH1 0x40 MLOAD PUSH2 0xC06 SWAP2 SWAP1 PUSH2 0x1BFA JUMP JUMPDEST PUSH1 0x40 MLOAD DUP1 SWAP2 SUB SWAP1 LOG4 POP POP POP JUMP JUMPDEST PUSH0 DUP1 PUSH0 SWAP1 POP PUSH0 JUMPDEST PUSH1 0x3 PUSH0 DUP6 PUSH20 0xFFFFFFFFFFFFFFFFFFFFFFFFFFFFFFFFFFFFFFFF AND PUSH20 0xFFFFFFFFFFFFFFFFFFFFFFFFFFFFFFFFFFFFFFFF AND DUP2 MSTORE PUSH1 0x20 ADD SWAP1 DUP2 MSTORE PUSH1 0x20 ADD PUSH0 KECCAK256 DUP1 SLOAD SWAP1 POP DUP2 PUSH8 0xFFFFFFFFFFFFFFFF AND LT ISZERO PUSH2 0xD08 JUMPI PUSH1 0x3 PUSH0 DUP6 PUSH20 0xFFFFFFFFFFFFFFFFFFFFFFFFFFFFFFFFFFFFFFFF AND PUSH20 0xFFFFFFFFFFFFFFFFFFFFFFFFFFFFFFFFFFFFFFFF AND DUP2 MSTORE PUSH1 0x20 ADD SWAP1 DUP2 MSTORE PUSH1 0x20 ADD PUSH0 KECCAK256 DUP2 PUSH8 0xFFFFFFFFFFFFFFFF AND DUP2 SLOAD DUP2 LT PUSH2 0xCC5 JUMPI PUSH2 0xCC4 PUSH2 0x18E3 JUMP JUMPDEST JUMPDEST SWAP1 PUSH0 MSTORE PUSH1 0x20 PUSH0 KECCAK256 SWAP1 PUSH1 0x5 MUL ADD PUSH1 0x4 ADD PUSH0 SWAP1 SLOAD SWAP1 PUSH2 0x100 EXP SWAP1 DIV PUSH8 0xFFFFFFFFFFFFFFFF AND DUP3 PUSH2 0xCF3 SWAP2 SWAP1 PUSH2 0x1FBB JUMP JUMPDEST SWAP2 POP DUP1 DUP1 PUSH2 0xD00 SWAP1 PUSH2 0x1BBC JUMP JUMPDEST SWAP2 POP POP PUSH2 0xC1A JUMP JUMPDEST POP DUP1 SWAP2 POP POP SWAP2 SWAP1 POP JUMP JUMPDEST PUSH0 DUP1 PUSH0 SWAP1 SLOAD SWAP1 PUSH2 0x100 EXP SWAP1 DIV PUSH20 0xFFFFFFFFFFFFFFFFFFFFFFFFFFFFFFFFFFFFFFFF AND SWAP1 POP SWAP1 JUMP JUMPDEST PUSH0 PUSH1 0x4 PUSH0 SWAP1 SLOAD SWAP1 PUSH2 0x100 EXP SWAP1 DIV PUSH4 0xFFFFFFFF AND SWAP1 POP SWAP1 JUMP JUMPDEST PUSH0 PUSH1 0x2 PUSH0 SWAP1 SLOAD SWAP1 PUSH2 0x100 EXP SWAP1 DIV PUSH20 0xFFFFFFFFFFFFFFFFFFFFFFFFFFFFFFFFFFFFFFFF AND PUSH20 0xFFFFFFFFFFFFFFFFFFFFFFFFFFFFFFFFFFFFFFFF AND PUSH4 0xF53A470 CALLER PUSH1 0x40 MLOAD DUP3 PUSH4 0xFFFFFFFF AND PUSH1 0xE0 SHL DUP2 MSTORE PUSH1 0x4 ADD PUSH2 0xDAC SWAP2 SWAP1 PUSH2 0x18A2 JUMP JUMPDEST PUSH0 PUSH1 0x40 MLOAD DUP1 DUP4 SUB DUP2 DUP7 GAS STATICCALL ISZERO DUP1 ISZERO PUSH2 0xDC6 JUMPI RETURNDATASIZE PUSH0 DUP1 RETURNDATACOPY RETURNDATASIZE PUSH0 REVERT JUMPDEST POP POP POP POP PUSH1 0x40 MLOAD RETURNDATASIZE PUSH0 DUP3 RETURNDATACOPY RETURNDATASIZE PUSH1 0x1F NOT PUSH1 0x1F DUP3 ADD AND DUP3 ADD DUP1 PUSH1 0x40 MSTORE POP DUP2 ADD SWAP1 PUSH2 0xDEE SWAP2 SWAP1 PUSH2 0x1A68 JUMP JUMPDEST SWAP1 POP PUSH0 DUP2 PUSH0 ADD MLOAD MLOAD GT PUSH2 0xE36 JUMPI PUSH1 0x40 MLOAD PUSH32 0x8C379A000000000000000000000000000000000000000000000000000000000 DUP2 MSTORE PUSH1 0x4 ADD PUSH2 0xE2D SWAP1 PUSH2 0x1B09 JUMP JUMPDEST PUSH1 0x40 MLOAD DUP1 SWAP2 SUB SWAP1 REVERT JUMPDEST DUP2 PUSH1 0x3 PUSH0 DUP6 PUSH20 0xFFFFFFFFFFFFFFFFFFFFFFFFFFFFFFFFFFFFFFFF AND PUSH20 0xFFFFFFFFFFFFFFFFFFFFFFFFFFFFFFFFFFFFFFFF AND DUP2 MSTORE PUSH1 0x20 ADD SWAP1 DUP2 MSTORE PUSH1 0x20 ADD PUSH0 KECCAK256 DUP4 DUP2 SLOAD DUP2 LT PUSH2 0xE86 JUMPI PUSH2 0xE85 PUSH2 0x18E3 JUMP JUMPDEST JUMPDEST SWAP1 PUSH0 MSTORE PUSH1 0x20 PUSH0 KECCAK256 SWAP1 PUSH1 0x5 MUL ADD PUSH0 ADD SLOAD EQ DUP1 ISZERO PUSH2 0xF1C JUMPI POP PUSH0 PUSH1 0x3 PUSH0 DUP6 PUSH20 0xFFFFFFFFFFFFFFFFFFFFFFFFFFFFFFFFFFFFFFFF AND PUSH20 0xFFFFFFFFFFFFFFFFFFFFFFFFFFFFFFFFFFFFFFFF AND DUP2 MSTORE PUSH1 0x20 ADD SWAP1 DUP2 MSTORE PUSH1 0x20 ADD PUSH0 KECCAK256 DUP4 DUP2 SLOAD DUP2 LT PUSH2 0xEED JUMPI PUSH2 0xEEC PUSH2 0x18E3 JUMP JUMPDEST JUMPDEST SWAP1 PUSH0 MSTORE PUSH1 0x20 PUSH0 KECCAK256 SWAP1 PUSH1 0x5 MUL ADD PUSH1 0x4 ADD PUSH0 SWAP1 SLOAD SWAP1 PUSH2 0x100 EXP SWAP1 DIV PUSH8 0xFFFFFFFFFFFFFFFF AND PUSH8 0xFFFFFFFFFFFFFFFF AND GT JUMPDEST PUSH2 0xF5B JUMPI PUSH1 0x40 MLOAD PUSH32 0x8C379A000000000000000000000000000000000000000000000000000000000 DUP2 MSTORE PUSH1 0x4 ADD PUSH2 0xF52 SWAP1 PUSH2 0x2040 JUMP JUMPDEST PUSH1 0x40 MLOAD DUP1 SWAP2 SUB SWAP1 REVERT JUMPDEST PUSH1 0x3 PUSH0 DUP5 PUSH20 0xFFFFFFFFFFFFFFFFFFFFFFFFFFFFFFFFFFFFFFFF AND PUSH20 0xFFFFFFFFFFFFFFFFFFFFFFFFFFFFFFFFFFFFFFFF AND DUP2 MSTORE PUSH1 0x20 ADD SWAP1 DUP2 MSTORE PUSH1 0x20 ADD PUSH0 KECCAK256 DUP3 DUP2 SLOAD DUP2 LT PUSH2 0xFAA JUMPI PUSH2 0xFA9 PUSH2 0x18E3 JUMP JUMPDEST JUMPDEST SWAP1 PUSH0 MSTORE PUSH1 0x20 PUSH0 KECCAK256 SWAP1 PUSH1 0x5 MUL ADD PUSH1 0x4 ADD PUSH0 DUP2 DUP2 SWAP1 SLOAD SWAP1 PUSH2 0x100 EXP SWAP1 DIV PUSH8 0xFFFFFFFFFFFFFFFF AND DUP1 SWAP3 SWAP2 SWAP1 PUSH2 0xFDC SWAP1 PUSH2 0x205E JUMP JUMPDEST SWAP2 SWAP1 PUSH2 0x100 EXP DUP2 SLOAD DUP2 PUSH8 0xFFFFFFFFFFFFFFFF MUL NOT AND SWAP1 DUP4 PUSH8 0xFFFFFFFFFFFFFFFF AND MUL OR SWAP1 SSTORE POP POP PUSH1 0x3 PUSH0 DUP5 PUSH20 0xFFFFFFFFFFFFFFFFFFFFFFFFFFFFFFFFFFFFFFFF AND PUSH20 0xFFFFFFFFFFFFFFFFFFFFFFFFFFFFFFFFFFFFFFFF AND DUP2 MSTORE PUSH1 0x20 ADD SWAP1 DUP2 MSTORE PUSH1 0x20 ADD PUSH0 KECCAK256 DUP3 DUP2 SLOAD DUP2 LT PUSH2 0x1052 JUMPI PUSH2 0x1051 PUSH2 0x18E3 JUMP JUMPDEST JUMPDEST SWAP1 PUSH0 MSTORE PUSH1 0x20 PUSH0 KECCAK256 SWAP1 PUSH1 0x5 MUL ADD PUSH1 0x4 ADD PUSH0 SWAP1 SLOAD SWAP1 PUSH2 0x100 EXP SWAP1 DIV PUSH8 0xFFFFFFFFFFFFFFFF AND PUSH8 0xFFFFFFFFFFFFFFFF AND DUP4 PUSH20 0xFFFFFFFFFFFFFFFFFFFFFFFFFFFFFFFFFFFFFFFF AND CALLER PUSH20 0xFFFFFFFFFFFFFFFFFFFFFFFFFFFFFFFFFFFFFFFF AND PUSH32 0xBE0A9AA2BC4A5667D4EB4DD05B204CCC5F3B48133520A5074D875389BC882392 TIMESTAMP PUSH1 0x40 MLOAD PUSH2 0x10DC SWAP2 SWAP1 PUSH2 0x1BFA JUMP JUMPDEST PUSH1 0x40 MLOAD DUP1 SWAP2 SUB SWAP1 LOG4 POP POP POP JUMP JUMPDEST PUSH2 0x10F1 PUSH2 0x116B JUMP JUMPDEST PUSH0 PUSH20 0xFFFFFFFFFFFFFFFFFFFFFFFFFFFFFFFFFFFFFFFF AND DUP2 PUSH20 0xFFFFFFFFFFFFFFFFFFFFFFFFFFFFFFFFFFFFFFFF AND SUB PUSH2 0x115F JUMPI PUSH1 0x40 MLOAD PUSH32 0x8C379A000000000000000000000000000000000000000000000000000000000 DUP2 MSTORE PUSH1 0x4 ADD PUSH2 0x1156 SWAP1 PUSH2 0x20F5 JUMP JUMPDEST PUSH1 0x40 MLOAD DUP1 SWAP2 SUB SWAP1 REVERT JUMPDEST PUSH2 0x1168 DUP2 PUSH2 0x11E9 JUMP JUMPDEST POP JUMP JUMPDEST PUSH2 0x1173 PUSH2 0x12AA JUMP JUMPDEST PUSH20 0xFFFFFFFFFFFFFFFFFFFFFFFFFFFFFFFFFFFFFFFF AND PUSH2 0x1191 PUSH2 0xD12 JUMP JUMPDEST PUSH20 0xFFFFFFFFFFFFFFFFFFFFFFFFFFFFFFFFFFFFFFFF AND EQ PUSH2 0x11E7 JUMPI PUSH1 0x40 MLOAD PUSH32 0x8C379A000000000000000000000000000000000000000000000000000000000 DUP2 MSTORE PUSH1 0x4 ADD PUSH2 0x11DE SWAP1 PUSH2 0x215D JUMP JUMPDEST PUSH1 0x40 MLOAD DUP1 SWAP2 SUB SWAP1 REVERT JUMPDEST JUMP JUMPDEST PUSH0 DUP1 PUSH0 SWAP1 SLOAD SWAP1 PUSH2 0x100 EXP SWAP1 DIV PUSH20 0xFFFFFFFFFFFFFFFFFFFFFFFFFFFFFFFFFFFFFFFF AND SWAP1 POP DUP2 PUSH0 DUP1 PUSH2 0x100 EXP DUP2 SLOAD DUP2 PUSH20 0xFFFFFFFFFFFFFFFFFFFFFFFFFFFFFFFFFFFFFFFF MUL NOT AND SWAP1 DUP4 PUSH20 0xFFFFFFFFFFFFFFFFFFFFFFFFFFFFFFFFFFFFFFFF AND MUL OR SWAP1 SSTORE POP DUP2 PUSH20 0xFFFFFFFFFFFFFFFFFFFFFFFFFFFFFFFFFFFFFFFF AND DUP2 PUSH20 0xFFFFFFFFFFFFFFFFFFFFFFFFFFFFFFFFFFFFFFFF AND PUSH32 0x8BE0079C531659141344CD1FD0A4F28419497F9722A3DAAFE3B4186F6B6457E0 PUSH1 0x40 MLOAD PUSH1 0x40 MLOAD DUP1 SWAP2 SUB SWAP1 LOG3 POP POP JUMP JUMPDEST PUSH0 CALLER SWAP1 POP SWAP1 JUMP JUMPDEST PUSH1 0x40 MLOAD DUP1 PUSH1 0xA0 ADD PUSH1 0x40 MSTORE DUP1 PUSH0 DUP2 MSTORE PUSH1 0x20 ADD PUSH0 PUSH20 0xFFFFFFFFFFFFFFFFFFFFFFFFFFFFFFFFFFFFFFFF AND DUP2 MSTORE PUSH1 0x20 ADD PUSH1 0x60 DUP2 MSTORE PUSH1 0x20 ADD PUSH0 DUP2 MSTORE PUSH1 0x20 ADD PUSH0 PUSH8 0xFFFFFFFFFFFFFFFF AND DUP2 MSTORE POP SWAP1 JUMP JUMPDEST PUSH0 PUSH1 0x40 MLOAD SWAP1 POP SWAP1 JUMP JUMPDEST PUSH0 DUP1 REVERT JUMPDEST PUSH0 DUP1 REVERT JUMPDEST PUSH0 PUSH20 0xFFFFFFFFFFFFFFFFFFFFFFFFFFFFFFFFFFFFFFFF DUP3 AND SWAP1 POP SWAP2 SWAP1 POP JUMP JUMPDEST PUSH0 PUSH2 0x1336 DUP3 PUSH2 0x130D JUMP JUMPDEST SWAP1 POP SWAP2 SWAP1 POP JUMP JUMPDEST PUSH2 0x1346 DUP2 PUSH2 0x132C JUMP JUMPDEST DUP2 EQ PUSH2 0x1350 JUMPI PUSH0 DUP1 REVERT JUMPDEST POP JUMP JUMPDEST PUSH0 DUP2 CALLDATALOAD SWAP1 POP PUSH2 0x1361 DUP2 PUSH2 0x133D JUMP JUMPDEST SWAP3 SWAP2 POP POP JUMP JUMPDEST PUSH0 DUP2 SWAP1 POP SWAP2 SWAP1 POP JUMP JUMPDEST PUSH2 0x1379 DUP2 PUSH2 0x1367 JUMP JUMPDEST DUP2 EQ PUSH2 0x1383 JUMPI PUSH0 DUP1 REVERT JUMPDEST POP JUMP JUMPDEST PUSH0 DUP2 CALLDATALOAD SWAP1 POP PUSH2 0x1394 DUP2 PUSH2 0x1370 JUMP JUMPDEST SWAP3 SWAP2 POP POP JUMP JUMPDEST PUSH0 DUP1 PUSH1 0x40 DUP4 DUP6 SUB SLT ISZERO PUSH2 0x13B0 JUMPI PUSH2 0x13AF PUSH2 0x1305 JUMP JUMPDEST JUMPDEST PUSH0 PUSH2 0x13BD DUP6 DUP3 DUP7 ADD PUSH2 0x1353 JUMP JUMPDEST SWAP3 POP POP PUSH1 0x20 PUSH2 0x13CE DUP6 DUP3 DUP7 ADD PUSH2 0x1386 JUMP JUMPDEST SWAP2 POP POP SWAP3 POP SWAP3 SWAP1 POP JUMP JUMPDEST PUSH2 0x13E1 DUP2 PUSH2 0x1367 JUMP JUMPDEST DUP3 MSTORE POP POP JUMP JUMPDEST PUSH2 0x13F0 DUP2 PUSH2 0x132C JUMP JUMPDEST DUP3 MSTORE POP POP JUMP JUMPDEST PUSH0 DUP2 MLOAD SWAP1 POP SWAP2 SWAP1 POP JUMP JUMPDEST PUSH0 DUP3 DUP3 MSTORE PUSH1 0x20 DUP3 ADD SWAP1 POP SWAP3 SWAP2 POP POP JUMP JUMPDEST DUP3 DUP2 DUP4 MCOPY PUSH0 DUP4 DUP4 ADD MSTORE POP POP POP JUMP JUMPDEST PUSH0 PUSH1 0x1F NOT PUSH1 0x1F DUP4 ADD AND SWAP1 POP SWAP2 SWAP1 POP JUMP JUMPDEST PUSH0 PUSH2 0x1438 DUP3 PUSH2 0x13F6 JUMP JUMPDEST PUSH2 0x1442 DUP2 DUP6 PUSH2 0x1400 JUMP JUMPDEST SWAP4 POP PUSH2 0x1452 DUP2 DUP6 PUSH1 0x20 DUP7 ADD PUSH2 0x1410 JUMP JUMPDEST PUSH2 0x145B DUP2 PUSH2 0x141E JUMP JUMPDEST DUP5 ADD SWAP2 POP POP SWAP3 SWAP2 POP POP JUMP JUMPDEST PUSH0 PUSH8 0xFFFFFFFFFFFFFFFF DUP3 AND SWAP1 POP SWAP2 SWAP1 POP JUMP JUMPDEST PUSH2 0x1482 DUP2 PUSH2 0x1466 JUMP JUMPDEST DUP3 MSTORE POP POP JUMP JUMPDEST PUSH0 PUSH1 0xA0 DUP4 ADD PUSH0 DUP4 ADD MLOAD PUSH2 0x149D PUSH0 DUP7 ADD DUP3 PUSH2 0x13D8 JUMP JUMPDEST POP PUSH1 0x20 DUP4 ADD MLOAD PUSH2 0x14B0 PUSH1 0x20 DUP7 ADD DUP3 PUSH2 0x13E7 JUMP JUMPDEST POP PUSH1 0x40 DUP4 ADD MLOAD DUP5 DUP3 SUB PUSH1 0x40 DUP7 ADD MSTORE PUSH2 0x14C8 DUP3 DUP3 PUSH2 0x142E JUMP JUMPDEST SWAP2 POP POP PUSH1 0x60 DUP4 ADD MLOAD PUSH2 0x14DD PUSH1 0x60 DUP7 ADD DUP3 PUSH2 0x13D8 JUMP JUMPDEST POP PUSH1 0x80 DUP4 ADD MLOAD PUSH2 0x14F0 PUSH1 0x80 DUP7 ADD DUP3 PUSH2 0x1479 JUMP JUMPDEST POP DUP1 SWAP2 POP POP SWAP3 SWAP2 POP POP JUMP JUMPDEST PUSH0 PUSH1 0x20 DUP3 ADD SWAP1 POP DUP2 DUP2 SUB PUSH0 DUP4 ADD MSTORE PUSH2 0x1513 DUP2 DUP5 PUSH2 0x1488 JUMP JUMPDEST SWAP1 POP SWAP3 SWAP2 POP POP JUMP JUMPDEST PUSH0 PUSH4 0xFFFFFFFF DUP3 AND SWAP1 POP SWAP2 SWAP1 POP JUMP JUMPDEST PUSH2 0x1533 DUP2 PUSH2 0x151B JUMP JUMPDEST DUP2 EQ PUSH2 0x153D JUMPI PUSH0 DUP1 REVERT JUMPDEST POP JUMP JUMPDEST PUSH0 DUP2 CALLDATALOAD SWAP1 POP PUSH2 0x154E DUP2 PUSH2 0x152A JUMP JUMPDEST SWAP3 SWAP2 POP POP JUMP JUMPDEST PUSH0 PUSH1 0x20 DUP3 DUP5 SUB SLT ISZERO PUSH2 0x1569 JUMPI PUSH2 0x1568 PUSH2 0x1305 JUMP JUMPDEST JUMPDEST PUSH0 PUSH2 0x1576 DUP5 DUP3 DUP6 ADD PUSH2 0x1540 JUMP JUMPDEST SWAP2 POP POP SWAP3 SWAP2 POP POP JUMP JUMPDEST PUSH0 PUSH1 0x20 DUP3 DUP5 SUB SLT ISZERO PUSH2 0x1594 JUMPI PUSH2 0x1593 PUSH2 0x1305 JUMP JUMPDEST JUMPDEST PUSH0 PUSH2 0x15A1 DUP5 DUP3 DUP6 ADD PUSH2 0x1353 JUMP JUMPDEST SWAP2 POP POP SWAP3 SWAP2 POP POP JUMP JUMPDEST PUSH0 DUP2 MLOAD SWAP1 POP SWAP2 SWAP1 POP JUMP JUMPDEST PUSH0 DUP3 DUP3 MSTORE PUSH1 0x20 DUP3 ADD SWAP1 POP SWAP3 SWAP2 POP POP JUMP JUMPDEST PUSH0 DUP2 SWAP1 POP PUSH1 0x20 DUP3 ADD SWAP1 POP SWAP2 SWAP1 POP JUMP JUMPDEST PUSH0 PUSH1 0xA0 DUP4 ADD PUSH0 DUP4 ADD MLOAD PUSH2 0x15E8 PUSH0 DUP7 ADD DUP3 PUSH2 0x13D8 JUMP JUMPDEST POP PUSH1 0x20 DUP4 ADD MLOAD PUSH2 0x15FB PUSH1 0x20 DUP7 ADD DUP3 PUSH2 0x13E7 JUMP JUMPDEST POP PUSH1 0x40 DUP4 ADD MLOAD DUP5 DUP3 SUB PUSH1 0x40 DUP7 ADD MSTORE PUSH2 0x1613 DUP3 DUP3 PUSH2 0x142E JUMP JUMPDEST SWAP2 POP POP PUSH1 0x60 DUP4 ADD MLOAD PUSH2 0x1628 PUSH1 0x60 DUP7 ADD DUP3 PUSH2 0x13D8 JUMP JUMPDEST POP PUSH1 0x80 DUP4 ADD MLOAD PUSH2 0x163B PUSH1 0x80 DUP7 ADD DUP3 PUSH2 0x1479 JUMP JUMPDEST POP DUP1 SWAP2 POP POP SWAP3 SWAP2 POP POP JUMP JUMPDEST PUSH0 PUSH2 0x1651 DUP4 DUP4 PUSH2 0x15D3 JUMP JUMPDEST SWAP1 POP SWAP3 SWAP2 POP POP JUMP JUMPDEST PUSH0 PUSH1 0x20 DUP3 ADD SWAP1 POP SWAP2 SWAP1 POP JUMP JUMPDEST PUSH0 PUSH2 0x166F DUP3 PUSH2 0x15AA JUMP JUMPDEST PUSH2 0x1679 DUP2 DUP6 PUSH2 0x15B4 JUMP JUMPDEST SWAP4 POP DUP4 PUSH1 0x20 DUP3 MUL DUP6 ADD PUSH2 0x168B DUP6 PUSH2 0x15C4 JUMP JUMPDEST DUP1 PUSH0 JUMPDEST DUP6 DUP2 LT ISZERO PUSH2 0x16C6 JUMPI DUP5 DUP5 SUB DUP10 MSTORE DUP2 MLOAD PUSH2 0x16A7 DUP6 DUP3 PUSH2 0x1646 JUMP JUMPDEST SWAP5 POP PUSH2 0x16B2 DUP4 PUSH2 0x1659 JUMP JUMPDEST SWAP3 POP PUSH1 0x20 DUP11 ADD SWAP10 POP POP PUSH1 0x1 DUP2 ADD SWAP1 POP PUSH2 0x168E JUMP JUMPDEST POP DUP3 SWAP8 POP DUP8 SWAP6 POP POP POP POP POP POP SWAP3 SWAP2 POP POP JUMP JUMPDEST PUSH0 PUSH1 0x20 DUP3 ADD SWAP1 POP DUP2 DUP2 SUB PUSH0 DUP4 ADD MSTORE PUSH2 0x16F0 DUP2 DUP5 PUSH2 0x1665 JUMP JUMPDEST SWAP1 POP SWAP3 SWAP2 POP POP JUMP JUMPDEST PUSH0 DUP1 REVERT JUMPDEST PUSH0 DUP1 REVERT JUMPDEST PUSH32 0x4E487B7100000000000000000000000000000000000000000000000000000000 PUSH0 MSTORE PUSH1 0x41 PUSH1 0x4 MSTORE PUSH1 0x24 PUSH0 REVERT JUMPDEST PUSH2 0x1736 DUP3 PUSH2 0x141E JUMP JUMPDEST DUP2 ADD DUP2 DUP2 LT PUSH8 0xFFFFFFFFFFFFFFFF DUP3 GT OR ISZERO PUSH2 0x1755 JUMPI PUSH2 0x1754 PUSH2 0x1700 JUMP JUMPDEST JUMPDEST DUP1 PUSH1 0x40 MSTORE POP POP POP JUMP JUMPDEST PUSH0 PUSH2 0x1767 PUSH2 0x12FC JUMP JUMPDEST SWAP1 POP PUSH2 0x1773 DUP3 DUP3 PUSH2 0x172D JUMP JUMPDEST SWAP2 SWAP1 POP JUMP JUMPDEST PUSH0 PUSH8 0xFFFFFFFFFFFFFFFF DUP3 GT ISZERO PUSH2 0x1792 JUMPI PUSH2 0x1791 PUSH2 0x1700 JUMP JUMPDEST JUMPDEST PUSH2 0x179B DUP3 PUSH2 0x141E JUMP JUMPDEST SWAP1 POP PUSH1 0x20 DUP2 ADD SWAP1 POP SWAP2 SWAP1 POP JUMP JUMPDEST DUP3 DUP2 DUP4 CALLDATACOPY PUSH0 DUP4 DUP4 ADD MSTORE POP POP POP JUMP JUMPDEST PUSH0 PUSH2 0x17C8 PUSH2 0x17C3 DUP5 PUSH2 0x1778 JUMP JUMPDEST PUSH2 0x175E JUMP JUMPDEST SWAP1 POP DUP3 DUP2 MSTORE PUSH1 0x20 DUP2 ADD DUP5 DUP5 DUP5 ADD GT ISZERO PUSH2 0x17E4 JUMPI PUSH2 0x17E3 PUSH2 0x16FC JUMP JUMPDEST JUMPDEST PUSH2 0x17EF DUP5 DUP3 DUP6 PUSH2 0x17A8 JUMP JUMPDEST POP SWAP4 SWAP3 POP POP POP JUMP JUMPDEST PUSH0 DUP3 PUSH1 0x1F DUP4 ADD SLT PUSH2 0x180B JUMPI PUSH2 0x180A PUSH2 0x16F8 JUMP JUMPDEST JUMPDEST DUP2 CALLDATALOAD PUSH2 0x181B DUP5 DUP3 PUSH1 0x20 DUP7 ADD PUSH2 0x17B6 JUMP JUMPDEST SWAP2 POP POP SWAP3 SWAP2 POP POP JUMP JUMPDEST PUSH0 PUSH1 0x20 DUP3 DUP5 SUB SLT ISZERO PUSH2 0x1839 JUMPI PUSH2 0x1838 PUSH2 0x1305 JUMP JUMPDEST JUMPDEST PUSH0 DUP3 ADD CALLDATALOAD PUSH8 0xFFFFFFFFFFFFFFFF DUP2 GT ISZERO PUSH2 0x1856 JUMPI PUSH2 0x1855 PUSH2 0x1309 JUMP JUMPDEST JUMPDEST PUSH2 0x1862 DUP5 DUP3 DUP6 ADD PUSH2 0x17F7 JUMP JUMPDEST SWAP2 POP POP SWAP3 SWAP2 POP POP JUMP JUMPDEST PUSH2 0x1874 DUP2 PUSH2 0x1466 JUMP JUMPDEST DUP3 MSTORE POP POP JUMP JUMPDEST PUSH0 PUSH1 0x20 DUP3 ADD SWAP1 POP PUSH2 0x188D PUSH0 DUP4 ADD DUP5 PUSH2 0x186B JUMP JUMPDEST SWAP3 SWAP2 POP POP JUMP JUMPDEST PUSH2 0x189C DUP2 PUSH2 0x132C JUMP JUMPDEST DUP3 MSTORE POP POP JUMP JUMPDEST PUSH0 PUSH1 0x20 DUP3 ADD SWAP1 POP PUSH2 0x18B5 PUSH0 DUP4 ADD DUP5 PUSH2 0x1893 JUMP JUMPDEST SWAP3 SWAP2 POP POP JUMP JUMPDEST PUSH2 0x18C4 DUP2 PUSH2 0x151B JUMP JUMPDEST DUP3 MSTORE POP POP JUMP JUMPDEST PUSH0 PUSH1 0x20 DUP3 ADD SWAP1 POP PUSH2 0x18DD PUSH0 DUP4 ADD DUP5 PUSH2 0x18BB JUMP JUMPDEST SWAP3 SWAP2 POP POP JUMP JUMPDEST PUSH32 0x4E487B7100000000000000000000000000000000000000000000000000000000 PUSH0 MSTORE PUSH1 0x32 PUSH1 0x4 MSTORE PUSH1 0x24 PUSH0 REVERT JUMPDEST PUSH32 0x4E487B7100000000000000000000000000000000000000000000000000000000 PUSH0 MSTORE PUSH1 0x22 PUSH1 0x4 MSTORE PUSH1 0x24 PUSH0 REVERT JUMPDEST PUSH0 PUSH1 0x2 DUP3 DIV SWAP1 POP PUSH1 0x1 DUP3 AND DUP1 PUSH2 0x1954 JUMPI PUSH1 0x7F DUP3 AND SWAP2 POP JUMPDEST PUSH1 0x20 DUP3 LT DUP2 SUB PUSH2 0x1967 JUMPI PUSH2 0x1966 PUSH2 0x1910 JUMP JUMPDEST JUMPDEST POP SWAP2 SWAP1 POP JUMP JUMPDEST PUSH0 DUP1 REVERT JUMPDEST PUSH0 DUP1 REVERT JUMPDEST PUSH0 PUSH2 0x1987 PUSH2 0x1982 DUP5 PUSH2 0x1778 JUMP JUMPDEST PUSH2 0x175E JUMP JUMPDEST SWAP1 POP DUP3 DUP2 MSTORE PUSH1 0x20 DUP2 ADD DUP5 DUP5 DUP5 ADD GT ISZERO PUSH2 0x19A3 JUMPI PUSH2 0x19A2 PUSH2 0x16FC JUMP JUMPDEST JUMPDEST PUSH2 0x19AE DUP5 DUP3 DUP6 PUSH2 0x1410 JUMP JUMPDEST POP SWAP4 SWAP3 POP POP POP JUMP JUMPDEST PUSH0 DUP3 PUSH1 0x1F DUP4 ADD SLT PUSH2 0x19CA JUMPI PUSH2 0x19C9 PUSH2 0x16F8 JUMP JUMPDEST JUMPDEST DUP2 MLOAD PUSH2 0x19DA DUP5 DUP3 PUSH1 0x20 DUP7 ADD PUSH2 0x1975 JUMP JUMPDEST SWAP2 POP POP SWAP3 SWAP2 POP POP JUMP JUMPDEST PUSH0 PUSH1 0x40 DUP3 DUP5 SUB SLT ISZERO PUSH2 0x19F8 JUMPI PUSH2 0x19F7 PUSH2 0x196D JUMP JUMPDEST JUMPDEST PUSH2 0x1A02 PUSH1 0x40 PUSH2 0x175E JUMP JUMPDEST SWAP1 POP PUSH0 DUP3 ADD MLOAD PUSH8 0xFFFFFFFFFFFFFFFF DUP2 GT ISZERO PUSH2 0x1A21 JUMPI PUSH2 0x1A20 PUSH2 0x1971 JUMP JUMPDEST JUMPDEST PUSH2 0x1A2D DUP5 DUP3 DUP6 ADD PUSH2 0x19B6 JUMP JUMPDEST PUSH0 DUP4 ADD MSTORE POP PUSH1 0x20 DUP3 ADD MLOAD PUSH8 0xFFFFFFFFFFFFFFFF DUP2 GT ISZERO PUSH2 0x1A50 JUMPI PUSH2 0x1A4F PUSH2 0x1971 JUMP JUMPDEST JUMPDEST PUSH2 0x1A5C DUP5 DUP3 DUP6 ADD PUSH2 0x19B6 JUMP JUMPDEST PUSH1 0x20 DUP4 ADD MSTORE POP SWAP3 SWAP2 POP POP JUMP JUMPDEST PUSH0 PUSH1 0x20 DUP3 DUP5 SUB SLT ISZERO PUSH2 0x1A7D JUMPI PUSH2 0x1A7C PUSH2 0x1305 JUMP JUMPDEST JUMPDEST PUSH0 DUP3 ADD MLOAD PUSH8 0xFFFFFFFFFFFFFFFF DUP2 GT ISZERO PUSH2 0x1A9A JUMPI PUSH2 0x1A99 PUSH2 0x1309 JUMP JUMPDEST JUMPDEST PUSH2 0x1AA6 DUP5 DUP3 DUP6 ADD PUSH2 0x19E3 JUMP JUMPDEST SWAP2 POP POP SWAP3 SWAP2 POP POP JUMP JUMPDEST PUSH0 DUP3 DUP3 MSTORE PUSH1 0x20 DUP3 ADD SWAP1 POP SWAP3 SWAP2 POP POP JUMP JUMPDEST PUSH32 0x55736572206E6F74205265676973746572656400000000000000000000000000 PUSH0 DUP3 ADD MSTORE POP JUMP JUMPDEST PUSH0 PUSH2 0x1AF3 PUSH1 0x13 DUP4 PUSH2 0x1AAF JUMP JUMPDEST SWAP2 POP PUSH2 0x1AFE DUP3 PUSH2 0x1ABF JUMP JUMPDEST PUSH1 0x20 DUP3 ADD SWAP1 POP SWAP2 SWAP1 POP JUMP JUMPDEST PUSH0 PUSH1 0x20 DUP3 ADD SWAP1 POP DUP2 DUP2 SUB PUSH0 DUP4 ADD MSTORE PUSH2 0x1B20 DUP2 PUSH2 0x1AE7 JUMP JUMPDEST SWAP1 POP SWAP2 SWAP1 POP JUMP JUMPDEST PUSH32 0x547765657420646F6573206E6F74206578697374000000000000000000000000 PUSH0 DUP3 ADD MSTORE POP JUMP JUMPDEST PUSH0 PUSH2 0x1B5B PUSH1 0x14 DUP4 PUSH2 0x1AAF JUMP JUMPDEST SWAP2 POP PUSH2 0x1B66 DUP3 PUSH2 0x1B27 JUMP JUMPDEST PUSH1 0x20 DUP3 ADD SWAP1 POP SWAP2 SWAP1 POP JUMP JUMPDEST PUSH0 PUSH1 0x20 DUP3 ADD SWAP1 POP DUP2 DUP2 SUB PUSH0 DUP4 ADD MSTORE PUSH2 0x1B88 DUP2 PUSH2 0x1B4F JUMP JUMPDEST SWAP1 POP SWAP2 SWAP1 POP JUMP JUMPDEST PUSH32 0x4E487B7100000000000000000000000000000000000000000000000000000000 PUSH0 MSTORE PUSH1 0x11 PUSH1 0x4 MSTORE PUSH1 0x24 PUSH0 REVERT JUMPDEST PUSH0 PUSH2 0x1BC6 DUP3 PUSH2 0x1466 JUMP JUMPDEST SWAP2 POP PUSH8 0xFFFFFFFFFFFFFFFF DUP3 SUB PUSH2 0x1BE0 JUMPI PUSH2 0x1BDF PUSH2 0x1B8F JUMP JUMPDEST JUMPDEST PUSH1 0x1 DUP3 ADD SWAP1 POP SWAP2 SWAP1 POP JUMP JUMPDEST PUSH2 0x1BF4 DUP2 PUSH2 0x1367 JUMP JUMPDEST DUP3 MSTORE POP POP JUMP JUMPDEST PUSH0 PUSH1 0x20 DUP3 ADD SWAP1 POP PUSH2 0x1C0D PUSH0 DUP4 ADD DUP5 PUSH2 0x1BEB JUMP JUMPDEST SWAP3 SWAP2 POP POP JUMP JUMPDEST PUSH32 0x596F75207573656420746865206D6178696D756D206E756D626572206F662063 PUSH0 DUP3 ADD MSTORE PUSH32 0x68617261637465727320706F737369626C650000000000000000000000000000 PUSH1 0x20 DUP3 ADD MSTORE POP JUMP JUMPDEST PUSH0 PUSH2 0x1C6D PUSH1 0x32 DUP4 PUSH2 0x1AAF JUMP JUMPDEST SWAP2 POP PUSH2 0x1C78 DUP3 PUSH2 0x1C13 JUMP JUMPDEST PUSH1 0x40 DUP3 ADD SWAP1 POP SWAP2 SWAP1 POP JUMP JUMPDEST PUSH0 PUSH1 0x20 DUP3 ADD SWAP1 POP DUP2 DUP2 SUB PUSH0 DUP4 ADD MSTORE PUSH2 0x1C9A DUP2 PUSH2 0x1C61 JUMP JUMPDEST SWAP1 POP SWAP2 SWAP1 POP JUMP JUMPDEST PUSH0 DUP2 SWAP1 POP DUP2 PUSH0 MSTORE PUSH1 0x20 PUSH0 KECCAK256 SWAP1 POP SWAP2 SWAP1 POP JUMP JUMPDEST PUSH0 PUSH1 0x20 PUSH1 0x1F DUP4 ADD DIV SWAP1 POP SWAP2 SWAP1 POP JUMP JUMPDEST PUSH0 DUP3 DUP3 SHL SWAP1 POP SWAP3 SWAP2 POP POP JUMP JUMPDEST PUSH0 PUSH1 0x8 DUP4 MUL PUSH2 0x1CFD PUSH32 0xFFFFFFFFFFFFFFFFFFFFFFFFFFFFFFFFFFFFFFFFFFFFFFFFFFFFFFFFFFFFFFFF DUP3 PUSH2 0x1CC2 JUMP JUMPDEST PUSH2 0x1D07 DUP7 DUP4 PUSH2 0x1CC2 JUMP JUMPDEST SWAP6 POP DUP1 NOT DUP5 AND SWAP4 POP DUP1 DUP7 AND DUP5 OR SWAP3 POP POP POP SWAP4 SWAP3 POP POP POP JUMP JUMPDEST PUSH0 DUP2 SWAP1 POP SWAP2 SWAP1 POP JUMP JUMPDEST PUSH0 PUSH2 0x1D42 PUSH2 0x1D3D PUSH2 0x1D38 DUP5 PUSH2 0x1367 JUMP JUMPDEST PUSH2 0x1D1F JUMP JUMPDEST PUSH2 0x1367 JUMP JUMPDEST SWAP1 POP SWAP2 SWAP1 POP JUMP JUMPDEST PUSH0 DUP2 SWAP1 POP SWAP2 SWAP1 POP JUMP JUMPDEST PUSH2 0x1D5B DUP4 PUSH2 0x1D28 JUMP JUMPDEST PUSH2 0x1D6F PUSH2 0x1D67 DUP3 PUSH2 0x1D49 JUMP JUMPDEST DUP5 DUP5 SLOAD PUSH2 0x1CCE JUMP JUMPDEST DUP3 SSTORE POP POP POP POP JUMP JUMPDEST PUSH0 SWAP1 JUMP JUMPDEST PUSH2 0x1D83 PUSH2 0x1D77 JUMP JUMPDEST PUSH2 0x1D8E DUP2 DUP5 DUP5 PUSH2 0x1D52 JUMP JUMPDEST POP POP POP JUMP JUMPDEST JUMPDEST DUP2 DUP2 LT ISZERO PUSH2 0x1DB1 JUMPI PUSH2 0x1DA6 PUSH0 DUP3 PUSH2 0x1D7B JUMP JUMPDEST PUSH1 0x1 DUP2 ADD SWAP1 POP PUSH2 0x1D94 JUMP JUMPDEST POP POP JUMP JUMPDEST PUSH1 0x1F DUP3 GT ISZERO PUSH2 0x1DF6 JUMPI PUSH2 0x1DC7 DUP2 PUSH2 0x1CA1 JUMP JUMPDEST PUSH2 0x1DD0 DUP5 PUSH2 0x1CB3 JUMP JUMPDEST DUP2 ADD PUSH1 0x20 DUP6 LT ISZERO PUSH2 0x1DDF JUMPI DUP2 SWAP1 POP JUMPDEST PUSH2 0x1DF3 PUSH2 0x1DEB DUP6 PUSH2 0x1CB3 JUMP JUMPDEST DUP4 ADD DUP3 PUSH2 0x1D93 JUMP JUMPDEST POP POP JUMPDEST POP POP POP JUMP JUMPDEST PUSH0 DUP3 DUP3 SHR SWAP1 POP SWAP3 SWAP2 POP POP JUMP JUMPDEST PUSH0 PUSH2 0x1E16 PUSH0 NOT DUP5 PUSH1 0x8 MUL PUSH2 0x1DFB JUMP JUMPDEST NOT DUP1 DUP4 AND SWAP2 POP POP SWAP3 SWAP2 POP POP JUMP JUMPDEST PUSH0 PUSH2 0x1E2E DUP4 DUP4 PUSH2 0x1E07 JUMP JUMPDEST SWAP2 POP DUP3 PUSH1 0x2 MUL DUP3 OR SWAP1 POP SWAP3 SWAP2 POP POP JUMP JUMPDEST PUSH2 0x1E47 DUP3 PUSH2 0x13F6 JUMP JUMPDEST PUSH8 0xFFFFFFFFFFFFFFFF DUP2 GT ISZERO PUSH2 0x1E60 JUMPI PUSH2 0x1E5F PUSH2 0x1700 JUMP JUMPDEST JUMPDEST PUSH2 0x1E6A DUP3 SLOAD PUSH2 0x193D JUMP JUMPDEST PUSH2 0x1E75 DUP3 DUP3 DUP6 PUSH2 0x1DB5 JUMP JUMPDEST PUSH0 PUSH1 0x20 SWAP1 POP PUSH1 0x1F DUP4 GT PUSH1 0x1 DUP2 EQ PUSH2 0x1EA6 JUMPI PUSH0 DUP5 ISZERO PUSH2 0x1E94 JUMPI DUP3 DUP8 ADD MLOAD SWAP1 POP JUMPDEST PUSH2 0x1E9E DUP6 DUP3 PUSH2 0x1E23 JUMP JUMPDEST DUP7 SSTORE POP PUSH2 0x1F05 JUMP JUMPDEST PUSH1 0x1F NOT DUP5 AND PUSH2 0x1EB4 DUP7 PUSH2 0x1CA1 JUMP JUMPDEST PUSH0 JUMPDEST DUP3 DUP2 LT ISZERO PUSH2 0x1EDB JUMPI DUP5 DUP10 ADD MLOAD DUP3 SSTORE PUSH1 0x1 DUP3 ADD SWAP2 POP PUSH1 0x20 DUP6 ADD SWAP5 POP PUSH1 0x20 DUP2 ADD SWAP1 POP PUSH2 0x1EB6 JUMP JUMPDEST DUP7 DUP4 LT ISZERO PUSH2 0x1EF8 JUMPI DUP5 DUP10 ADD MLOAD PUSH2 0x1EF4 PUSH1 0x1F DUP10 AND DUP3 PUSH2 0x1E07 JUMP JUMPDEST DUP4 SSTORE POP JUMPDEST PUSH1 0x1 PUSH1 0x2 DUP9 MUL ADD DUP9 SSTORE POP POP POP JUMPDEST POP POP POP POP POP POP JUMP JUMPDEST PUSH0 DUP2 SWAP1 POP SWAP3 SWAP2 POP POP JUMP JUMPDEST PUSH0 PUSH2 0x1F21 DUP3 PUSH2 0x13F6 JUMP JUMPDEST PUSH2 0x1F2B DUP2 DUP6 PUSH2 0x1F0D JUMP JUMPDEST SWAP4 POP PUSH2 0x1F3B DUP2 DUP6 PUSH1 0x20 DUP7 ADD PUSH2 0x1410 JUMP JUMPDEST DUP1 DUP5 ADD SWAP2 POP POP SWAP3 SWAP2 POP POP JUMP JUMPDEST PUSH0 PUSH2 0x1F52 DUP3 DUP5 PUSH2 0x1F17 JUMP JUMPDEST SWAP2 POP DUP2 SWAP1 POP SWAP3 SWAP2 POP POP JUMP JUMPDEST PUSH32 0x4E65772054776565742062793A20000000000000000000000000000000000000 PUSH0 DUP3 ADD MSTORE POP JUMP JUMPDEST PUSH0 PUSH2 0x1F91 PUSH1 0xE DUP4 PUSH2 0x1F0D JUMP JUMPDEST SWAP2 POP PUSH2 0x1F9C DUP3 PUSH2 0x1F5D JUMP JUMPDEST PUSH1 0xE DUP3 ADD SWAP1 POP SWAP2 SWAP1 POP JUMP JUMPDEST PUSH0 PUSH2 0x1FB1 DUP3 PUSH2 0x1F85 JUMP JUMPDEST SWAP2 POP DUP2 SWAP1 POP SWAP2 SWAP1 POP JUMP JUMPDEST PUSH0 PUSH2 0x1FC5 DUP3 PUSH2 0x1466 JUMP JUMPDEST SWAP2 POP PUSH2 0x1FD0 DUP4 PUSH2 0x1466 JUMP JUMPDEST SWAP3 POP DUP3 DUP3 ADD SWAP1 POP PUSH8 0xFFFFFFFFFFFFFFFF DUP2 GT ISZERO PUSH2 0x1FF0 JUMPI PUSH2 0x1FEF PUSH2 0x1B8F JUMP JUMPDEST JUMPDEST SWAP3 SWAP2 POP POP JUMP JUMPDEST PUSH32 0x4E6F7420706F737369626C650000000000000000000000000000000000000000 PUSH0 DUP3 ADD MSTORE POP JUMP JUMPDEST PUSH0 PUSH2 0x202A PUSH1 0xC DUP4 PUSH2 0x1AAF JUMP JUMPDEST SWAP2 POP PUSH2 0x2035 DUP3 PUSH2 0x1FF6 JUMP JUMPDEST PUSH1 0x20 DUP3 ADD SWAP1 POP SWAP2 SWAP1 POP JUMP JUMPDEST PUSH0 PUSH1 0x20 DUP3 ADD SWAP1 POP DUP2 DUP2 SUB PUSH0 DUP4 ADD MSTORE PUSH2 0x2057 DUP2 PUSH2 0x201E JUMP JUMPDEST SWAP1 POP SWAP2 SWAP1 POP JUMP JUMPDEST PUSH0 PUSH2 0x2068 DUP3 PUSH2 0x1466 JUMP JUMPDEST SWAP2 POP PUSH0 DUP3 SUB PUSH2 0x207A JUMPI PUSH2 0x2079 PUSH2 0x1B8F JUMP JUMPDEST JUMPDEST PUSH1 0x1 DUP3 SUB SWAP1 POP SWAP2 SWAP1 POP JUMP JUMPDEST PUSH32 0x4F776E61626C653A206E6577206F776E657220697320746865207A65726F2061 PUSH0 DUP3 ADD MSTORE PUSH32 0x6464726573730000000000000000000000000000000000000000000000000000 PUSH1 0x20 DUP3 ADD MSTORE POP JUMP JUMPDEST PUSH0 PUSH2 0x20DF PUSH1 0x26 DUP4 PUSH2 0x1AAF JUMP JUMPDEST SWAP2 POP PUSH2 0x20EA DUP3 PUSH2 0x2085 JUMP JUMPDEST PUSH1 0x40 DUP3 ADD SWAP1 POP SWAP2 SWAP1 POP JUMP JUMPDEST PUSH0 PUSH1 0x20 DUP3 ADD SWAP1 POP DUP2 DUP2 SUB PUSH0 DUP4 ADD MSTORE PUSH2 0x210C DUP2 PUSH2 0x20D3 JUMP JUMPDEST SWAP1 POP SWAP2 SWAP1 POP JUMP JUMPDEST PUSH32 0x4F776E61626C653A2063616C6C6572206973206E6F7420746865206F776E6572 PUSH0 DUP3 ADD MSTORE POP JUMP JUMPDEST PUSH0 PUSH2 0x2147 PUSH1 0x20 DUP4 PUSH2 0x1AAF JUMP JUMPDEST SWAP2 POP PUSH2 0x2152 DUP3 PUSH2 0x2113 JUMP JUMPDEST PUSH1 0x20 DUP3 ADD SWAP1 POP SWAP2 SWAP1 POP JUMP JUMPDEST PUSH0 PUSH1 0x20 DUP3 ADD SWAP1 POP DUP2 DUP2 SUB PUSH0 DUP4 ADD MSTORE PUSH2 0x2174 DUP2 PUSH2 0x213B JUMP JUMPDEST SWAP1 POP SWAP2 SWAP1 POP JUMP INVALID LOG2 PUSH5 0x6970667358 0x22 SLT KECCAK256 CALL CHAINID PUSH26 0x2248EA1D3110CE1972F8F49D261774309C5C0E7FEB029631FB06 SELFDESTRUCT SWAP1 0xEB PUSH5 0x736F6C6343 STOP ADDMOD BYTE STOP CALLER "
				},
				"gasEstimates": {
					"creation": {
						"codeDepositCost": "1725000",
						"executionCost": "infinite",
						"totalCost": "infinite"
					},
					"external": {
						"changeTweetLength(uint32)": "26957",
						"createTweet(string)": "infinite",
						"dislikeTweet(address,uint256)": "infinite",
						"getAllTwetts(address)": "infinite",
						"getTotalLikes(address)": "infinite",
						"getTweet(address,uint256)": "infinite",
						"getTweetLength()": "2539",
						"likeTweet(address,uint256)": "infinite",
						"owner()": "2559",
						"renounceOwnership()": "30479",
						"transferOwnership(address)": "30841"
					}
				},
				"methodIdentifiers": {
					"changeTweetLength(uint32)": "318ea667",
					"createTweet(string)": "7c9cd2bc",
					"dislikeTweet(address,uint256)": "ae775e95",
					"getAllTwetts(address)": "6a6cdab8",
					"getTotalLikes(address)": "820785cc",
					"getTweet(address,uint256)": "112f54e3",
					"getTweetLength()": "a2afce88",
					"likeTweet(address,uint256)": "63378216",
					"owner()": "8da5cb5b",
					"renounceOwnership()": "715018a6",
					"transferOwnership(address)": "f2fde38b"
				}
			},
			"storageLayout": {
				"storage": [
					{
						"astId": 7,
						"contract": "twitterCopy.sol:Twitter",
						"label": "_owner",
						"offset": 0,
						"slot": "0",
						"type": "t_address"
					},
					{
						"astId": 155,
						"contract": "twitterCopy.sol:Twitter",
						"label": "_owner",
						"offset": 0,
						"slot": "1",
						"type": "t_address"
					},
					{
						"astId": 158,
						"contract": "twitterCopy.sol:Twitter",
						"label": "profileContract",
						"offset": 0,
						"slot": "2",
						"type": "t_contract(IProfile)151"
					},
					{
						"astId": 214,
						"contract": "twitterCopy.sol:Twitter",
						"label": "UserTwetts",
						"offset": 0,
						"slot": "3",
						"type": "t_mapping(t_address,t_array(t_struct(Tweet)208_storage)dyn_storage)"
					},
					{
						"astId": 247,
						"contract": "twitterCopy.sol:Twitter",
						"label": "MAX_LENGTH",
						"offset": 0,
						"slot": "4",
						"type": "t_uint32"
					}
				],
				"types": {
					"t_address": {
						"encoding": "inplace",
						"label": "address",
						"numberOfBytes": "20"
					},
					"t_array(t_struct(Tweet)208_storage)dyn_storage": {
						"base": "t_struct(Tweet)208_storage",
						"encoding": "dynamic_array",
						"label": "struct Twitter.Tweet[]",
						"numberOfBytes": "32"
					},
					"t_contract(IProfile)151": {
						"encoding": "inplace",
						"label": "contract IProfile",
						"numberOfBytes": "20"
					},
					"t_mapping(t_address,t_array(t_struct(Tweet)208_storage)dyn_storage)": {
						"encoding": "mapping",
						"key": "t_address",
						"label": "mapping(address => struct Twitter.Tweet[])",
						"numberOfBytes": "32",
						"value": "t_array(t_struct(Tweet)208_storage)dyn_storage"
					},
					"t_string_storage": {
						"encoding": "bytes",
						"label": "string",
						"numberOfBytes": "32"
					},
					"t_struct(Tweet)208_storage": {
						"encoding": "inplace",
						"label": "struct Twitter.Tweet",
						"members": [
							{
								"astId": 199,
								"contract": "twitterCopy.sol:Twitter",
								"label": "ID",
								"offset": 0,
								"slot": "0",
								"type": "t_uint256"
							},
							{
								"astId": 201,
								"contract": "twitterCopy.sol:Twitter",
								"label": "author",
								"offset": 0,
								"slot": "1",
								"type": "t_address"
							},
							{
								"astId": 203,
								"contract": "twitterCopy.sol:Twitter",
								"label": "content",
								"offset": 0,
								"slot": "2",
								"type": "t_string_storage"
							},
							{
								"astId": 205,
								"contract": "twitterCopy.sol:Twitter",
								"label": "TimeStamp",
								"offset": 0,
								"slot": "3",
								"type": "t_uint256"
							},
							{
								"astId": 207,
								"contract": "twitterCopy.sol:Twitter",
								"label": "likes",
								"offset": 0,
								"slot": "4",
								"type": "t_uint64"
							}
						],
						"numberOfBytes": "160"
					},
					"t_uint256": {
						"encoding": "inplace",
						"label": "uint256",
						"numberOfBytes": "32"
					},
					"t_uint32": {
						"encoding": "inplace",
						"label": "uint32",
						"numberOfBytes": "4"
					},
					"t_uint64": {
						"encoding": "inplace",
						"label": "uint64",
						"numberOfBytes": "8"
					}
				}
			},
			"userdoc": {
				"kind": "user",
				"methods": {},
				"version": 1
			}
		}
	}
}